{
  "_format": "hh-sol-artifact-1",
  "contractName": "MigratableMockV2",
  "sourceName": "contracts/OpenZeppelin/mocks/SingleInheritanceInitializableMocks.sol",
  "abi": [
    {
      "inputs": [
        {
          "internalType": "uint256",
          "name": "value",
          "type": "uint256"
        }
      ],
      "name": "initialize",
      "outputs": [],
      "stateMutability": "payable",
      "type": "function"
    },
    {
      "inputs": [
        {
          "internalType": "uint256",
          "name": "value",
          "type": "uint256"
        },
        {
          "internalType": "uint256",
          "name": "anotherValue",
          "type": "uint256"
        }
      ],
      "name": "migrate",
      "outputs": [],
      "stateMutability": "payable",
      "type": "function"
    },
    {
      "inputs": [],
      "name": "x",
      "outputs": [
        {
          "internalType": "uint256",
          "name": "",
          "type": "uint256"
        }
      ],
      "stateMutability": "view",
      "type": "function"
    },
    {
      "inputs": [],
      "name": "y",
      "outputs": [
        {
          "internalType": "uint256",
          "name": "",
          "type": "uint256"
        }
      ],
      "stateMutability": "view",
      "type": "function"
    }
  ],
  "bytecode": "0x608060405234801561001057600080fd5b50610277806100206000396000f3fe60806040526004361061003f5760003560e01c80630c55699c146100445780633e54bacb1461006f578063a56dfe4a14610084578063fe4b84df14610099575b600080fd5b34801561005057600080fd5b506100596100ac565b6040516100669190610238565b60405180910390f35b61008261007d3660046101ba565b6100b2565b005b34801561009057600080fd5b506100596100d9565b6100826100a73660046101a2565b6100df565b60015481565b60025460ff16156100c257600080fd5b60019182556003556002805460ff19169091179055565b60035481565b600054610100900460ff16806100f857506100f861018b565b80610106575060005460ff16155b610145576040517f08c379a000000000000000000000000000000000000000000000000000000000815260040161013c906101db565b60405180910390fd5b600054610100900460ff16158015610170576000805460ff1961ff0019909116610100171660011790555b60018290558015610187576000805461ff00191690555b5050565b60006101963061019c565b15905090565b3b151590565b6000602082840312156101b3578081fd5b5035919050565b600080604083850312156101cc578081fd5b50508035926020909101359150565b6020808252602e908201527f496e697469616c697a61626c653a20636f6e747261637420697320616c72656160408201527f647920696e697469616c697a6564000000000000000000000000000000000000606082015260800190565b9081526020019056fea2646970667358221220e47a243af3a1d151642336b951ff1594001a6599e4e8fca5e8099412802c063164736f6c63430008000033",
  "linkReferences": {},
  "deployedLinkReferences": {}
}