{
  "_format": "hh-sol-artifact-1",
  "contractName": "MigratableMockV3",
  "sourceName": "contracts/OpenZeppelin/mocks/SingleInheritanceInitializableMocks.sol",
  "abi": [
    {
      "inputs": [
        {
          "internalType": "uint256",
          "name": "value",
          "type": "uint256"
        }
      ],
      "name": "initialize",
      "outputs": [],
      "stateMutability": "payable",
      "type": "function"
    },
    {
      "inputs": [
        {
          "internalType": "uint256",
          "name": "value",
          "type": "uint256"
        },
        {
          "internalType": "uint256",
          "name": "anotherValue",
          "type": "uint256"
        }
      ],
      "name": "migrate",
      "outputs": [],
      "stateMutability": "payable",
      "type": "function"
    },
    {
      "inputs": [],
      "name": "migrate",
      "outputs": [],
      "stateMutability": "payable",
      "type": "function"
    },
    {
      "inputs": [],
      "name": "x",
      "outputs": [
        {
          "internalType": "uint256",
          "name": "",
          "type": "uint256"
        }
      ],
      "stateMutability": "view",
      "type": "function"
    },
    {
      "inputs": [],
      "name": "y",
      "outputs": [
        {
          "internalType": "uint256",
          "name": "",
          "type": "uint256"
        }
      ],
      "stateMutability": "view",
      "type": "function"
    }
  ],
  "bytecode": "0x608060405234801561001057600080fd5b506102c4806100206000396000f3fe60806040526004361061005a5760003560e01c80638fd3ab80116100435780638fd3ab801461009f578063a56dfe4a146100a7578063fe4b84df146100bc5761005a565b80630c55699c1461005f5780633e54bacb1461008a575b600080fd5b34801561006b57600080fd5b506100746100cf565b6040516100819190610285565b60405180910390f35b61009d610098366004610207565b6100d5565b005b61009d6100fc565b3480156100b357600080fd5b50610074610126565b61009d6100ca3660046101ef565b61012c565b60015481565b60025460ff16156100e557600080fd5b60019182556003556002805460ff19169091179055565b60045460ff161561010c57600080fd5b60018054600380548355556004805460ff19169091179055565b60035481565b600054610100900460ff168061014557506101456101d8565b80610153575060005460ff16155b610192576040517f08c379a000000000000000000000000000000000000000000000000000000000815260040161018990610228565b60405180910390fd5b600054610100900460ff161580156101bd576000805460ff1961ff0019909116610100171660011790555b600182905580156101d4576000805461ff00191690555b5050565b60006101e3306101e9565b15905090565b3b151590565b600060208284031215610200578081fd5b5035919050565b60008060408385031215610219578081fd5b50508035926020909101359150565b6020808252602e908201527f496e697469616c697a61626c653a20636f6e747261637420697320616c72656160408201527f647920696e697469616c697a6564000000000000000000000000000000000000606082015260800190565b9081526020019056fea26469706673582212203ab14f365a5c9d053af72fec54e9054863db4bff7816879d7467d91ccf6acb9664736f6c63430008000033",
  "linkReferences": {},
  "deployedLinkReferences": {}
}