{
  "_format": "hh-sol-artifact-1",
  "contractName": "Implementation3",
  "sourceName": "contracts/OpenZeppelin/mocks/RegressionImplementation.sol",
  "abi": [
    {
      "inputs": [
        {
          "internalType": "uint256",
          "name": "_number",
          "type": "uint256"
        }
      ],
      "name": "getValue",
      "outputs": [
        {
          "internalType": "uint256",
          "name": "",
          "type": "uint256"
        }
      ],
      "stateMutability": "view",
      "type": "function"
    },
    {
      "inputs": [],
      "name": "initialize",
      "outputs": [],
      "stateMutability": "nonpayable",
      "type": "function"
    },
    {
      "inputs": [
        {
          "internalType": "uint256",
          "name": "_number",
          "type": "uint256"
        }
      ],
      "name": "setValue",
      "outputs": [],
      "stateMutability": "nonpayable",
      "type": "function"
    }
  ],
  "bytecode": "0x608060405234801561001057600080fd5b50610255806100206000396000f3fe608060405234801561001057600080fd5b50600436106100415760003560e01c80630ff4c91614610046578063552410771461006f5780638129fc1c14610084575b600080fd5b610059610054366004610164565b61008c565b60405161006691906101d9565b60405180910390f35b61008261007d366004610164565b6100a2565b005b6100826100a7565b60008160015461009c91906101e2565b92915050565b600155565b600054610100900460ff16806100c057506100c061014d565b806100ce575060005460ff16155b61010d576040517f08c379a00000000000000000000000000000000000000000000000000000000081526004016101049061017c565b60405180910390fd5b600054610100900460ff16158015610138576000805460ff1961ff0019909116610100171660011790555b801561014a576000805461ff00191690555b50565b60006101583061015e565b15905090565b3b151590565b600060208284031215610175578081fd5b5035919050565b6020808252602e908201527f496e697469616c697a61626c653a20636f6e747261637420697320616c72656160408201527f647920696e697469616c697a6564000000000000000000000000000000000000606082015260800190565b90815260200190565b6000821982111561021a577f4e487b710000000000000000000000000000000000000000000000000000000081526011600452602481fd5b50019056fea2646970667358221220102ca70f178aa80aa88daa6a069c67c23ff86123d04c07a1dc30497cea9f36b264736f6c63430008000033",
  "linkReferences": {},
  "deployedLinkReferences": {}
}