{
  "_format": "hh-sol-artifact-1",
  "contractName": "Implementation1",
  "sourceName": "contracts/OpenZeppelin/mocks/RegressionImplementation.sol",
  "abi": [
    {
      "inputs": [],
      "name": "initialize",
      "outputs": [],
      "stateMutability": "nonpayable",
      "type": "function"
    },
    {
      "inputs": [
        {
          "internalType": "uint256",
          "name": "_number",
          "type": "uint256"
        }
      ],
      "name": "setValue",
      "outputs": [],
      "stateMutability": "nonpayable",
      "type": "function"
    }
  ],
  "bytecode": "0x608060405234801561001057600080fd5b506101c5806100206000396000f3fe608060405234801561001057600080fd5b50600436106100365760003560e01c8063552410771461003b5780638129fc1c14610050575b600080fd5b61004e61004936600461011a565b610058565b005b61004e61005d565b600155565b600054610100900460ff16806100765750610076610103565b80610084575060005460ff16155b6100c3576040517f08c379a00000000000000000000000000000000000000000000000000000000081526004016100ba90610132565b60405180910390fd5b600054610100900460ff161580156100ee576000805460ff1961ff0019909116610100171660011790555b8015610100576000805461ff00191690555b50565b600061010e30610114565b15905090565b3b151590565b60006020828403121561012b578081fd5b5035919050565b6020808252602e908201527f496e697469616c697a61626c653a20636f6e747261637420697320616c72656160408201527f647920696e697469616c697a656400000000000000000000000000000000000060608201526080019056fea2646970667358221220361214c5de51c6a6f6c83c6da52c840d35e77ecd62a76555191ccc4bfcdeba1764736f6c63430008000033",
  "linkReferences": {},
  "deployedLinkReferences": {}
}