{
  "_format": "hh-sol-artifact-1",
  "contractName": "Implementation4",
  "sourceName": "contracts/OpenZeppelin/mocks/RegressionImplementation.sol",
  "abi": [
    {
      "stateMutability": "nonpayable",
      "type": "fallback"
    },
    {
      "inputs": [],
      "name": "getValue",
      "outputs": [
        {
          "internalType": "uint256",
          "name": "",
          "type": "uint256"
        }
      ],
      "stateMutability": "view",
      "type": "function"
    },
    {
      "inputs": [],
      "name": "initialize",
      "outputs": [],
      "stateMutability": "nonpayable",
      "type": "function"
    },
    {
      "inputs": [
        {
          "internalType": "uint256",
          "name": "_number",
          "type": "uint256"
        }
      ],
      "name": "setValue",
      "outputs": [],
      "stateMutability": "nonpayable",
      "type": "function"
    }
  ],
  "bytecode": "0x608060405234801561001057600080fd5b506101fe806100206000396000f3fe608060405234801561001057600080fd5b50600436106100415760003560e01c8063209652551461004757806355241077146100655780638129fc1c1461007a575b60018055005b61004f610082565b60405161005c91906101bf565b60405180910390f35b61007861007336600461014a565b610088565b005b61007861008d565b60015490565b600155565b600054610100900460ff16806100a657506100a6610133565b806100b4575060005460ff16155b6100f3576040517f08c379a00000000000000000000000000000000000000000000000000000000081526004016100ea90610162565b60405180910390fd5b600054610100900460ff1615801561011e576000805460ff1961ff0019909116610100171660011790555b8015610130576000805461ff00191690555b50565b600061013e30610144565b15905090565b3b151590565b60006020828403121561015b578081fd5b5035919050565b6020808252602e908201527f496e697469616c697a61626c653a20636f6e747261637420697320616c72656160408201527f647920696e697469616c697a6564000000000000000000000000000000000000606082015260800190565b9081526020019056fea264697066735822122073029fcad9f91c3bae4027c5c4ae54345c101540dc284105e2566109d9a2eea264736f6c63430008000033",
  "linkReferences": {},
  "deployedLinkReferences": {}
}