{
  "_format": "hh-sol-artifact-1",
  "contractName": "GSNRecipientSignatureMock",
  "sourceName": "contracts/OpenZeppelin/mocks/GSNRecipientSignatureMock.sol",
  "abi": [
    {
      "inputs": [
        {
          "internalType": "address",
          "name": "trustedSigner",
          "type": "address"
        }
      ],
      "stateMutability": "nonpayable",
      "type": "constructor"
    },
    {
      "anonymous": false,
      "inputs": [],
      "name": "MockFunctionCalled",
      "type": "event"
    },
    {
      "anonymous": false,
      "inputs": [
        {
          "indexed": true,
          "internalType": "address",
          "name": "oldRelayHub",
          "type": "address"
        },
        {
          "indexed": true,
          "internalType": "address",
          "name": "newRelayHub",
          "type": "address"
        }
      ],
      "name": "RelayHubChanged",
      "type": "event"
    },
    {
      "inputs": [
        {
          "internalType": "address",
          "name": "relay",
          "type": "address"
        },
        {
          "internalType": "address",
          "name": "from",
          "type": "address"
        },
        {
          "internalType": "bytes",
          "name": "encodedFunction",
          "type": "bytes"
        },
        {
          "internalType": "uint256",
          "name": "transactionFee",
          "type": "uint256"
        },
        {
          "internalType": "uint256",
          "name": "gasPrice",
          "type": "uint256"
        },
        {
          "internalType": "uint256",
          "name": "gasLimit",
          "type": "uint256"
        },
        {
          "internalType": "uint256",
          "name": "nonce",
          "type": "uint256"
        },
        {
          "internalType": "bytes",
          "name": "approvalData",
          "type": "bytes"
        },
        {
          "internalType": "uint256",
          "name": "",
          "type": "uint256"
        }
      ],
      "name": "acceptRelayedCall",
      "outputs": [
        {
          "internalType": "uint256",
          "name": "",
          "type": "uint256"
        },
        {
          "internalType": "bytes",
          "name": "",
          "type": "bytes"
        }
      ],
      "stateMutability": "view",
      "type": "function"
    },
    {
      "inputs": [],
      "name": "getHubAddr",
      "outputs": [
        {
          "internalType": "address",
          "name": "",
          "type": "address"
        }
      ],
      "stateMutability": "view",
      "type": "function"
    },
    {
      "inputs": [],
      "name": "mockFunction",
      "outputs": [],
      "stateMutability": "nonpayable",
      "type": "function"
    },
    {
      "inputs": [
        {
          "internalType": "bytes",
          "name": "context",
          "type": "bytes"
        },
        {
          "internalType": "bool",
          "name": "success",
          "type": "bool"
        },
        {
          "internalType": "uint256",
          "name": "actualCharge",
          "type": "uint256"
        },
        {
          "internalType": "bytes32",
          "name": "preRetVal",
          "type": "bytes32"
        }
      ],
      "name": "postRelayedCall",
      "outputs": [],
      "stateMutability": "nonpayable",
      "type": "function"
    },
    {
      "inputs": [
        {
          "internalType": "bytes",
          "name": "context",
          "type": "bytes"
        }
      ],
      "name": "preRelayedCall",
      "outputs": [
        {
          "internalType": "bytes32",
          "name": "",
          "type": "bytes32"
        }
      ],
      "stateMutability": "nonpayable",
      "type": "function"
    },
    {
      "inputs": [],
      "name": "relayHubVersion",
      "outputs": [
        {
          "internalType": "string",
          "name": "",
          "type": "string"
        }
      ],
      "stateMutability": "view",
      "type": "function"
    }
  ],
  "bytecode": "0x6080604052600080546001600160a01b03191673d216153c06e857cd7f72665e0af1d7d82172f49417905534801561003657600080fd5b50604051610ad7380380610ad7833981016040819052610055916100ab565b806001600160a01b0381166100855760405162461bcd60e51b815260040161007c906100d9565b60405180910390fd5b600180546001600160a01b0319166001600160a01b039290921691909117905550610136565b6000602082840312156100bc578081fd5b81516001600160a01b03811681146100d2578182fd5b9392505050565b60208082526039908201527f47534e526563697069656e745369676e61747572653a2074727573746564207360408201527f69676e657220697320746865207a65726f206164647265737300000000000000606082015260800190565b610992806101456000396000f3fe608060405234801561001057600080fd5b50600436106100725760003560e01c806383947ea01161005057806383947ea0146100bf578063ad61ccd5146100e0578063e06e0e22146100f557610072565b80633e6fec041461007757806374e861d61461008157806380274db71461009f575b600080fd5b61007f610108565b005b610089610133565b6040516100969190610739565b60405180910390f35b6100b26100ad3660046105c9565b610142565b604051610096919061074d565b6100d26100cd366004610516565b610196565b6040516100969291906108dd565b6100e8610239565b6040516100969190610774565b61007f610103366004610604565b610270565b6040517f52c66ed6ec9ca819cba26fe2b2650059270d8981b295af300187a964f54a8c2390600090a1565b6000546001600160a01b031690565b600061014c610133565b6001600160a01b0316336001600160a01b0316146101855760405162461bcd60e51b815260040161017c90610880565b60405180910390fd5b61018e826102b6565b90505b919050565b6000606060008b8b8b8b8b8b8b6101ab610133565b306040516020016101c499989796959493929190610691565b60408051601f19818403018152919052600154815160208301209192506001600160a01b0316906102009087906101fa906102bc565b906102ec565b6001600160a01b0316141561022157610217610337565b925092505061022b565b610217600061035b565b995099975050505050505050565b60408051808201909152600581527f312e302e30000000000000000000000000000000000000000000000000000000602082015290565b610278610133565b6001600160a01b0316336001600160a01b0316146102a85760405162461bcd60e51b815260040161017c90610880565b6102b0848484845b50505050565b50600090565b6000816040516020016102cf9190610708565b604051602081830303815290604052805190602001209050919050565b6000815160411461030f5760405162461bcd60e51b815260040161017c906107c5565b60208201516040830151606084015160001a61032d86828585610383565b9695505050505050565b6000606061035360405180602001604052806000815250610479565b915091509091565b6000606061036a83600b6108f6565b6040518060200160405280600081525091509150915091565b60007f7fffffffffffffffffffffffffffffff5d576e7357a4501ddfe92f46681b20a08211156103c55760405162461bcd60e51b815260040161017c906107fc565b8360ff16601b14806103da57508360ff16601c145b6103f65760405162461bcd60e51b815260040161017c9061083e565b60006001868686866040516000815260200160405260405161041b9493929190610756565b6020604051602081039080840390855afa15801561043d573d6000803e3d6000fd5b5050604051601f1901519150506001600160a01b0381166104705760405162461bcd60e51b815260040161017c9061078e565b95945050505050565b600091565b80356001600160a01b038116811461019157600080fd5b600082601f8301126104a5578081fd5b813567ffffffffffffffff808211156104c0576104c0610946565b604051601f8301601f1916810160200182811182821017156104e4576104e4610946565b6040528281528483016020018610156104fb578384fd5b82602086016020830137918201602001929092529392505050565b60008060008060008060008060006101208a8c031215610534578485fd5b61053d8a61047e565b985061054b60208b0161047e565b975060408a013567ffffffffffffffff80821115610567578687fd5b6105738d838e01610495565b985060608c0135975060808c0135965060a08c0135955060c08c0135945060e08c01359150808211156105a4578384fd5b506105b18c828d01610495565b9250506101008a013590509295985092959850929598565b6000602082840312156105da578081fd5b813567ffffffffffffffff8111156105f0578182fd5b6105fc84828501610495565b949350505050565b60008060008060808587031215610619578384fd5b843567ffffffffffffffff81111561062f578485fd5b61063b87828801610495565b94505060208501358015158114610650578384fd5b93969395505050506040820135916060013590565b6000815180845261067d81602086016020860161091a565b601f01601f19169290920160200192915050565b60006bffffffffffffffffffffffff19808c60601b168352808b60601b16601484015289516106c7816028860160208e0161091a565b909201602881019890985250604887019590955260688601939093526088850191909152606090811b831660a88501521b1660bc82015260d0019392505050565b7f19457468657265756d205369676e6564204d6573736167653a0a3332000000008152601c810191909152603c0190565b6001600160a01b0391909116815260200190565b90815260200190565b93845260ff9290921660208401526040830152606082015260800190565b6000602082526107876020830184610665565b9392505050565b60208082526018908201527f45434453413a20696e76616c6964207369676e61747572650000000000000000604082015260600190565b6020808252601f908201527f45434453413a20696e76616c6964207369676e6174757265206c656e67746800604082015260600190565b60208082526022908201527f45434453413a20696e76616c6964207369676e6174757265202773272076616c604082015261756560f01b606082015260800190565b60208082526022908201527f45434453413a20696e76616c6964207369676e6174757265202776272076616c604082015261756560f01b606082015260800190565b60208082526024908201527f47534e526563697069656e743a2063616c6c6572206973206e6f742052656c6160408201527f7948756200000000000000000000000000000000000000000000000000000000606082015260800190565b6000838252604060208301526105fc6040830184610665565b6000821982111561091557634e487b7160e01b81526011600452602481fd5b500190565b60005b8381101561093557818101518382015260200161091d565b838111156102b05750506000910152565b634e487b7160e01b600052604160045260246000fdfea2646970667358221220bf2fca0028a340cf1f50d3babaf0270e70cf682e8bc1030351b8fec33d2003a364736f6c63430008000033",
  "linkReferences": {},
  "deployedLinkReferences": {}
}