{
  "contracts/OpenZeppelin/mocks/CallReceiverMock.sol": {
    "CallReceiverMock": {
      "abi": [
        {
          "anonymous": false,
          "inputs": [],
          "name": "MockFunctionCalled",
          "type": "event"
        },
        {
          "inputs": [],
          "name": "mockFunction",
          "outputs": [
            {
              "internalType": "string",
              "name": "",
              "type": "string"
            }
          ],
          "stateMutability": "payable",
          "type": "function"
        },
        {
          "inputs": [],
          "name": "mockFunctionNonPayable",
          "outputs": [
            {
              "internalType": "string",
              "name": "",
              "type": "string"
            }
          ],
          "stateMutability": "nonpayable",
          "type": "function"
        },
        {
          "inputs": [],
          "name": "mockFunctionOutOfGas",
          "outputs": [],
          "stateMutability": "payable",
          "type": "function"
        },
        {
          "inputs": [],
          "name": "mockFunctionRevertsNoReason",
          "outputs": [],
          "stateMutability": "payable",
          "type": "function"
        },
        {
          "inputs": [],
          "name": "mockFunctionRevertsReason",
          "outputs": [],
          "stateMutability": "payable",
          "type": "function"
        },
        {
          "inputs": [],
          "name": "mockFunctionThrows",
          "outputs": [],
          "stateMutability": "payable",
          "type": "function"
        },
        {
          "inputs": [],
          "name": "mockFunctionWritesStorage",
          "outputs": [
            {
              "internalType": "string",
              "name": "",
              "type": "string"
            }
          ],
          "stateMutability": "nonpayable",
          "type": "function"
        },
        {
          "inputs": [],
          "name": "mockStaticFunction",
          "outputs": [
            {
              "internalType": "string",
              "name": "",
              "type": "string"
            }
          ],
          "stateMutability": "pure",
          "type": "function"
        },
        {
          "inputs": [],
          "name": "sharedAnswer",
          "outputs": [
            {
              "internalType": "string",
              "name": "",
              "type": "string"
            }
          ],
          "stateMutability": "view",
          "type": "function"
        }
      ],
      "evm": {
        "bytecode": {
          "linkReferences": {},
          "object": "608060405234801561001057600080fd5b506104e7806100206000396000f3fe6080604052600436106100965760003560e01c80633e6fec0411610069578063aa04f77e1161004e578063aa04f77e146100f0578063c8fc769614610105578063fc40cf731461011a57610096565b80633e6fec04146100e0578063a793ab47146100e857610096565b80630c0349681461009b5780630f63e42c146100a55780632c81d638146100d05780633bcfaa14146100d8575b600080fd5b6100a361012f565b005b3480156100b157600080fd5b506100ba61016a565b6040516100c791906103c5565b60405180910390f35b6100a3610096565b6100a36101b7565b6100ba61016a565b6100a36101cd565b3480156100fc57600080fd5b506100ba610214565b34801561011157600080fd5b506100ba61027e565b34801561012657600080fd5b506100ba61029e565b6040517f08c379a000000000000000000000000000000000000000000000000000000000815260040161016190610418565b60405180910390fd5b6040516060907f52c66ed6ec9ca819cba26fe2b2650059270d8981b295af300187a964f54a8c2390600090a1506040805180820190915260068152650c1e0c4c8ccd60d21b602082015290565b634e487b7160e01b600052600160045260246000fd5b60005b6001805480820182556000919091527fb10e2d527612073b26eecdfd717e6a320cf44b4afac2b0732d9fcbe2b7fa0cf60181905561020d8161048a565b90506101d0565b6040805180820190915260028082527f3432000000000000000000000000000000000000000000000000000000000000602090920191825260609161025c916000919061032c565b50506040805180820190915260068152650c1e0c4c8ccd60d21b602082015290565b6040805180820190915260068152650c1e0c4c8ccd60d21b602082015290565b600080546102ab9061044f565b80601f01602080910402602001604051908101604052809291908181526020018280546102d79061044f565b80156103245780601f106102f957610100808354040283529160200191610324565b820191906000526020600020905b81548152906001019060200180831161030757829003601f168201915b505050505081565b8280546103389061044f565b90600052602060002090601f01602090048101928261035a57600085556103a0565b82601f1061037357805160ff19168380011785556103a0565b828001600101855582156103a0579182015b828111156103a0578251825591602001919060010190610385565b506103ac9291506103b0565b5090565b5b808211156103ac57600081556001016103b1565b6000602080835283518082850152825b818110156103f1578581018301518582016040015282016103d5565b818111156104025783604083870101525b50601f01601f1916929092016040019392505050565b6020808252601b908201527f43616c6c52656365697665724d6f636b3a20726576657274696e670000000000604082015260600190565b60028104600182168061046357607f821691505b6020821081141561048457634e487b7160e01b600052602260045260246000fd5b50919050565b60006000198214156104aa57634e487b7160e01b81526011600452602481fd5b506001019056fea2646970667358221220fb1dc2629a8d2621de7c065611e222397630c8930061e6e09d374911963a4e5e64736f6c63430008000033",
          "opcodes": "PUSH1 0x80 PUSH1 0x40 MSTORE CALLVALUE DUP1 ISZERO PUSH2 0x10 JUMPI PUSH1 0x0 DUP1 REVERT JUMPDEST POP PUSH2 0x4E7 DUP1 PUSH2 0x20 PUSH1 0x0 CODECOPY PUSH1 0x0 RETURN INVALID PUSH1 0x80 PUSH1 0x40 MSTORE PUSH1 0x4 CALLDATASIZE LT PUSH2 0x96 JUMPI PUSH1 0x0 CALLDATALOAD PUSH1 0xE0 SHR DUP1 PUSH4 0x3E6FEC04 GT PUSH2 0x69 JUMPI DUP1 PUSH4 0xAA04F77E GT PUSH2 0x4E JUMPI DUP1 PUSH4 0xAA04F77E EQ PUSH2 0xF0 JUMPI DUP1 PUSH4 0xC8FC7696 EQ PUSH2 0x105 JUMPI DUP1 PUSH4 0xFC40CF73 EQ PUSH2 0x11A JUMPI PUSH2 0x96 JUMP JUMPDEST DUP1 PUSH4 0x3E6FEC04 EQ PUSH2 0xE0 JUMPI DUP1 PUSH4 0xA793AB47 EQ PUSH2 0xE8 JUMPI PUSH2 0x96 JUMP JUMPDEST DUP1 PUSH4 0xC034968 EQ PUSH2 0x9B JUMPI DUP1 PUSH4 0xF63E42C EQ PUSH2 0xA5 JUMPI DUP1 PUSH4 0x2C81D638 EQ PUSH2 0xD0 JUMPI DUP1 PUSH4 0x3BCFAA14 EQ PUSH2 0xD8 JUMPI JUMPDEST PUSH1 0x0 DUP1 REVERT JUMPDEST PUSH2 0xA3 PUSH2 0x12F JUMP JUMPDEST STOP JUMPDEST CALLVALUE DUP1 ISZERO PUSH2 0xB1 JUMPI PUSH1 0x0 DUP1 REVERT JUMPDEST POP PUSH2 0xBA PUSH2 0x16A JUMP JUMPDEST PUSH1 0x40 MLOAD PUSH2 0xC7 SWAP2 SWAP1 PUSH2 0x3C5 JUMP JUMPDEST PUSH1 0x40 MLOAD DUP1 SWAP2 SUB SWAP1 RETURN JUMPDEST PUSH2 0xA3 PUSH2 0x96 JUMP JUMPDEST PUSH2 0xA3 PUSH2 0x1B7 JUMP JUMPDEST PUSH2 0xBA PUSH2 0x16A JUMP JUMPDEST PUSH2 0xA3 PUSH2 0x1CD JUMP JUMPDEST CALLVALUE DUP1 ISZERO PUSH2 0xFC JUMPI PUSH1 0x0 DUP1 REVERT JUMPDEST POP PUSH2 0xBA PUSH2 0x214 JUMP JUMPDEST CALLVALUE DUP1 ISZERO PUSH2 0x111 JUMPI PUSH1 0x0 DUP1 REVERT JUMPDEST POP PUSH2 0xBA PUSH2 0x27E JUMP JUMPDEST CALLVALUE DUP1 ISZERO PUSH2 0x126 JUMPI PUSH1 0x0 DUP1 REVERT JUMPDEST POP PUSH2 0xBA PUSH2 0x29E JUMP JUMPDEST PUSH1 0x40 MLOAD PUSH32 0x8C379A000000000000000000000000000000000000000000000000000000000 DUP2 MSTORE PUSH1 0x4 ADD PUSH2 0x161 SWAP1 PUSH2 0x418 JUMP JUMPDEST PUSH1 0x40 MLOAD DUP1 SWAP2 SUB SWAP1 REVERT JUMPDEST PUSH1 0x40 MLOAD PUSH1 0x60 SWAP1 PUSH32 0x52C66ED6EC9CA819CBA26FE2B2650059270D8981B295AF300187A964F54A8C23 SWAP1 PUSH1 0x0 SWAP1 LOG1 POP PUSH1 0x40 DUP1 MLOAD DUP1 DUP3 ADD SWAP1 SWAP2 MSTORE PUSH1 0x6 DUP2 MSTORE PUSH6 0xC1E0C4C8CCD PUSH1 0xD2 SHL PUSH1 0x20 DUP3 ADD MSTORE SWAP1 JUMP JUMPDEST PUSH4 0x4E487B71 PUSH1 0xE0 SHL PUSH1 0x0 MSTORE PUSH1 0x1 PUSH1 0x4 MSTORE PUSH1 0x24 PUSH1 0x0 REVERT JUMPDEST PUSH1 0x0 JUMPDEST PUSH1 0x1 DUP1 SLOAD DUP1 DUP3 ADD DUP3 SSTORE PUSH1 0x0 SWAP2 SWAP1 SWAP2 MSTORE PUSH32 0xB10E2D527612073B26EECDFD717E6A320CF44B4AFAC2B0732D9FCBE2B7FA0CF6 ADD DUP2 SWAP1 SSTORE PUSH2 0x20D DUP2 PUSH2 0x48A JUMP JUMPDEST SWAP1 POP PUSH2 0x1D0 JUMP JUMPDEST PUSH1 0x40 DUP1 MLOAD DUP1 DUP3 ADD SWAP1 SWAP2 MSTORE PUSH1 0x2 DUP1 DUP3 MSTORE PUSH32 0x3432000000000000000000000000000000000000000000000000000000000000 PUSH1 0x20 SWAP1 SWAP3 ADD SWAP2 DUP3 MSTORE PUSH1 0x60 SWAP2 PUSH2 0x25C SWAP2 PUSH1 0x0 SWAP2 SWAP1 PUSH2 0x32C JUMP JUMPDEST POP POP PUSH1 0x40 DUP1 MLOAD DUP1 DUP3 ADD SWAP1 SWAP2 MSTORE PUSH1 0x6 DUP2 MSTORE PUSH6 0xC1E0C4C8CCD PUSH1 0xD2 SHL PUSH1 0x20 DUP3 ADD MSTORE SWAP1 JUMP JUMPDEST PUSH1 0x40 DUP1 MLOAD DUP1 DUP3 ADD SWAP1 SWAP2 MSTORE PUSH1 0x6 DUP2 MSTORE PUSH6 0xC1E0C4C8CCD PUSH1 0xD2 SHL PUSH1 0x20 DUP3 ADD MSTORE SWAP1 JUMP JUMPDEST PUSH1 0x0 DUP1 SLOAD PUSH2 0x2AB SWAP1 PUSH2 0x44F JUMP JUMPDEST DUP1 PUSH1 0x1F ADD PUSH1 0x20 DUP1 SWAP2 DIV MUL PUSH1 0x20 ADD PUSH1 0x40 MLOAD SWAP1 DUP2 ADD PUSH1 0x40 MSTORE DUP1 SWAP3 SWAP2 SWAP1 DUP2 DUP2 MSTORE PUSH1 0x20 ADD DUP3 DUP1 SLOAD PUSH2 0x2D7 SWAP1 PUSH2 0x44F JUMP JUMPDEST DUP1 ISZERO PUSH2 0x324 JUMPI DUP1 PUSH1 0x1F LT PUSH2 0x2F9 JUMPI PUSH2 0x100 DUP1 DUP4 SLOAD DIV MUL DUP4 MSTORE SWAP2 PUSH1 0x20 ADD SWAP2 PUSH2 0x324 JUMP JUMPDEST DUP3 ADD SWAP2 SWAP1 PUSH1 0x0 MSTORE PUSH1 0x20 PUSH1 0x0 KECCAK256 SWAP1 JUMPDEST DUP2 SLOAD DUP2 MSTORE SWAP1 PUSH1 0x1 ADD SWAP1 PUSH1 0x20 ADD DUP1 DUP4 GT PUSH2 0x307 JUMPI DUP3 SWAP1 SUB PUSH1 0x1F AND DUP3 ADD SWAP2 JUMPDEST POP POP POP POP POP DUP2 JUMP JUMPDEST DUP3 DUP1 SLOAD PUSH2 0x338 SWAP1 PUSH2 0x44F JUMP JUMPDEST SWAP1 PUSH1 0x0 MSTORE PUSH1 0x20 PUSH1 0x0 KECCAK256 SWAP1 PUSH1 0x1F ADD PUSH1 0x20 SWAP1 DIV DUP2 ADD SWAP3 DUP3 PUSH2 0x35A JUMPI PUSH1 0x0 DUP6 SSTORE PUSH2 0x3A0 JUMP JUMPDEST DUP3 PUSH1 0x1F LT PUSH2 0x373 JUMPI DUP1 MLOAD PUSH1 0xFF NOT AND DUP4 DUP1 ADD OR DUP6 SSTORE PUSH2 0x3A0 JUMP JUMPDEST DUP3 DUP1 ADD PUSH1 0x1 ADD DUP6 SSTORE DUP3 ISZERO PUSH2 0x3A0 JUMPI SWAP2 DUP3 ADD JUMPDEST DUP3 DUP2 GT ISZERO PUSH2 0x3A0 JUMPI DUP3 MLOAD DUP3 SSTORE SWAP2 PUSH1 0x20 ADD SWAP2 SWAP1 PUSH1 0x1 ADD SWAP1 PUSH2 0x385 JUMP JUMPDEST POP PUSH2 0x3AC SWAP3 SWAP2 POP PUSH2 0x3B0 JUMP JUMPDEST POP SWAP1 JUMP JUMPDEST JUMPDEST DUP1 DUP3 GT ISZERO PUSH2 0x3AC JUMPI PUSH1 0x0 DUP2 SSTORE PUSH1 0x1 ADD PUSH2 0x3B1 JUMP JUMPDEST PUSH1 0x0 PUSH1 0x20 DUP1 DUP4 MSTORE DUP4 MLOAD DUP1 DUP3 DUP6 ADD MSTORE DUP3 JUMPDEST DUP2 DUP2 LT ISZERO PUSH2 0x3F1 JUMPI DUP6 DUP2 ADD DUP4 ADD MLOAD DUP6 DUP3 ADD PUSH1 0x40 ADD MSTORE DUP3 ADD PUSH2 0x3D5 JUMP JUMPDEST DUP2 DUP2 GT ISZERO PUSH2 0x402 JUMPI DUP4 PUSH1 0x40 DUP4 DUP8 ADD ADD MSTORE JUMPDEST POP PUSH1 0x1F ADD PUSH1 0x1F NOT AND SWAP3 SWAP1 SWAP3 ADD PUSH1 0x40 ADD SWAP4 SWAP3 POP POP POP JUMP JUMPDEST PUSH1 0x20 DUP1 DUP3 MSTORE PUSH1 0x1B SWAP1 DUP3 ADD MSTORE PUSH32 0x43616C6C52656365697665724D6F636B3A20726576657274696E670000000000 PUSH1 0x40 DUP3 ADD MSTORE PUSH1 0x60 ADD SWAP1 JUMP JUMPDEST PUSH1 0x2 DUP2 DIV PUSH1 0x1 DUP3 AND DUP1 PUSH2 0x463 JUMPI PUSH1 0x7F DUP3 AND SWAP2 POP JUMPDEST PUSH1 0x20 DUP3 LT DUP2 EQ ISZERO PUSH2 0x484 JUMPI PUSH4 0x4E487B71 PUSH1 0xE0 SHL PUSH1 0x0 MSTORE PUSH1 0x22 PUSH1 0x4 MSTORE PUSH1 0x24 PUSH1 0x0 REVERT JUMPDEST POP SWAP2 SWAP1 POP JUMP JUMPDEST PUSH1 0x0 PUSH1 0x0 NOT DUP3 EQ ISZERO PUSH2 0x4AA JUMPI PUSH4 0x4E487B71 PUSH1 0xE0 SHL DUP2 MSTORE PUSH1 0x11 PUSH1 0x4 MSTORE PUSH1 0x24 DUP2 REVERT JUMPDEST POP PUSH1 0x1 ADD SWAP1 JUMP INVALID LOG2 PUSH5 0x6970667358 0x22 SLT KECCAK256 0xFB SAR 0xC2 PUSH3 0x9A8D26 0x21 0xDE PUSH29 0x65611E222397630C8930061E6E09D374911963A4E5E64736F6C634300 ADDMOD STOP STOP CALLER "
        },
        "methodIdentifiers": {
          "mockFunction()": "3e6fec04",
          "mockFunctionNonPayable()": "0f63e42c",
          "mockFunctionOutOfGas()": "a793ab47",
          "mockFunctionRevertsNoReason()": "2c81d638",
          "mockFunctionRevertsReason()": "0c034968",
          "mockFunctionThrows()": "3bcfaa14",
          "mockFunctionWritesStorage()": "aa04f77e",
          "mockStaticFunction()": "c8fc7696",
          "sharedAnswer()": "fc40cf73"
        }
      }
    }
  }
}