{
  "contracts/OpenZeppelin/mocks/SignedSafeMathMock.sol": {
    "SignedSafeMathMock": {
      "abi": [
        {
          "inputs": [
            {
              "internalType": "int256",
              "name": "a",
              "type": "int256"
            },
            {
              "internalType": "int256",
              "name": "b",
              "type": "int256"
            }
          ],
          "name": "add",
          "outputs": [
            {
              "internalType": "int256",
              "name": "",
              "type": "int256"
            }
          ],
          "stateMutability": "pure",
          "type": "function"
        },
        {
          "inputs": [
            {
              "internalType": "int256",
              "name": "a",
              "type": "int256"
            },
            {
              "internalType": "int256",
              "name": "b",
              "type": "int256"
            }
          ],
          "name": "div",
          "outputs": [
            {
              "internalType": "int256",
              "name": "",
              "type": "int256"
            }
          ],
          "stateMutability": "pure",
          "type": "function"
        },
        {
          "inputs": [
            {
              "internalType": "int256",
              "name": "a",
              "type": "int256"
            },
            {
              "internalType": "int256",
              "name": "b",
              "type": "int256"
            }
          ],
          "name": "mul",
          "outputs": [
            {
              "internalType": "int256",
              "name": "",
              "type": "int256"
            }
          ],
          "stateMutability": "pure",
          "type": "function"
        },
        {
          "inputs": [
            {
              "internalType": "int256",
              "name": "a",
              "type": "int256"
            },
            {
              "internalType": "int256",
              "name": "b",
              "type": "int256"
            }
          ],
          "name": "sub",
          "outputs": [
            {
              "internalType": "int256",
              "name": "",
              "type": "int256"
            }
          ],
          "stateMutability": "pure",
          "type": "function"
        }
      ],
      "evm": {
        "bytecode": {
          "linkReferences": {},
          "object": "608060405234801561001057600080fd5b506102cb806100206000396000f3fe608060405234801561001057600080fd5b506004361061004c5760003560e01c80634350913814610051578063a5f3c23b1461007a578063adefc37b1461008d578063bbe93d91146100a0575b600080fd5b61006461005f36600461011a565b6100b3565b604051610071919061013b565b60405180910390f35b61006461008836600461011a565b6100c6565b61006461009b36600461011a565b6100d2565b6100646100ae36600461011a565b6100de565b60006100bf83836100ea565b9392505050565b60006100bf83836100f6565b60006100bf8383610102565b60006100bf838361010e565b60006100bf8284610183565b60006100bf8284610144565b60006100bf8284610240565b60006100bf82846101bd565b6000806040838503121561012c578182fd5b50508035926020909101359150565b90815260200190565b6000808212826001600160ff1b03038413811516156101655761016561027f565b82600160ff1b03841281161561017d5761017d61027f565b50500190565b60008261019e57634e487b7160e01b81526012600452602481fd5b600160ff1b8214600019841416156101b8576101b861027f565b500590565b60006001600160ff1b03818413828413858304851182821616156101e3576101e361027f565b600160ff1b848712868205881281841616156102015761020161027f565b85871292508782058712848416161561021c5761021c61027f565b878505871281841616156102325761023261027f565b505050929093029392505050565b600080831283600160ff1b0183128115161561025e5761025e61027f565b836001600160ff1b030183138116156102795761027961027f565b50500390565b634e487b7160e01b600052601160045260246000fdfea2646970667358221220f063cc1beedaded75d80b6ce5ff1f4b256d0ae12b17f1aad74a2d4f23a23d2aa64736f6c63430008000033",
          "opcodes": "PUSH1 0x80 PUSH1 0x40 MSTORE CALLVALUE DUP1 ISZERO PUSH2 0x10 JUMPI PUSH1 0x0 DUP1 REVERT JUMPDEST POP PUSH2 0x2CB DUP1 PUSH2 0x20 PUSH1 0x0 CODECOPY PUSH1 0x0 RETURN INVALID PUSH1 0x80 PUSH1 0x40 MSTORE CALLVALUE DUP1 ISZERO PUSH2 0x10 JUMPI PUSH1 0x0 DUP1 REVERT JUMPDEST POP PUSH1 0x4 CALLDATASIZE LT PUSH2 0x4C JUMPI PUSH1 0x0 CALLDATALOAD PUSH1 0xE0 SHR DUP1 PUSH4 0x43509138 EQ PUSH2 0x51 JUMPI DUP1 PUSH4 0xA5F3C23B EQ PUSH2 0x7A JUMPI DUP1 PUSH4 0xADEFC37B EQ PUSH2 0x8D JUMPI DUP1 PUSH4 0xBBE93D91 EQ PUSH2 0xA0 JUMPI JUMPDEST PUSH1 0x0 DUP1 REVERT JUMPDEST PUSH2 0x64 PUSH2 0x5F CALLDATASIZE PUSH1 0x4 PUSH2 0x11A JUMP JUMPDEST PUSH2 0xB3 JUMP JUMPDEST PUSH1 0x40 MLOAD PUSH2 0x71 SWAP2 SWAP1 PUSH2 0x13B JUMP JUMPDEST PUSH1 0x40 MLOAD DUP1 SWAP2 SUB SWAP1 RETURN JUMPDEST PUSH2 0x64 PUSH2 0x88 CALLDATASIZE PUSH1 0x4 PUSH2 0x11A JUMP JUMPDEST PUSH2 0xC6 JUMP JUMPDEST PUSH2 0x64 PUSH2 0x9B CALLDATASIZE PUSH1 0x4 PUSH2 0x11A JUMP JUMPDEST PUSH2 0xD2 JUMP JUMPDEST PUSH2 0x64 PUSH2 0xAE CALLDATASIZE PUSH1 0x4 PUSH2 0x11A JUMP JUMPDEST PUSH2 0xDE JUMP JUMPDEST PUSH1 0x0 PUSH2 0xBF DUP4 DUP4 PUSH2 0xEA JUMP JUMPDEST SWAP4 SWAP3 POP POP POP JUMP JUMPDEST PUSH1 0x0 PUSH2 0xBF DUP4 DUP4 PUSH2 0xF6 JUMP JUMPDEST PUSH1 0x0 PUSH2 0xBF DUP4 DUP4 PUSH2 0x102 JUMP JUMPDEST PUSH1 0x0 PUSH2 0xBF DUP4 DUP4 PUSH2 0x10E JUMP JUMPDEST PUSH1 0x0 PUSH2 0xBF DUP3 DUP5 PUSH2 0x183 JUMP JUMPDEST PUSH1 0x0 PUSH2 0xBF DUP3 DUP5 PUSH2 0x144 JUMP JUMPDEST PUSH1 0x0 PUSH2 0xBF DUP3 DUP5 PUSH2 0x240 JUMP JUMPDEST PUSH1 0x0 PUSH2 0xBF DUP3 DUP5 PUSH2 0x1BD JUMP JUMPDEST PUSH1 0x0 DUP1 PUSH1 0x40 DUP4 DUP6 SUB SLT ISZERO PUSH2 0x12C JUMPI DUP2 DUP3 REVERT JUMPDEST POP POP DUP1 CALLDATALOAD SWAP3 PUSH1 0x20 SWAP1 SWAP2 ADD CALLDATALOAD SWAP2 POP JUMP JUMPDEST SWAP1 DUP2 MSTORE PUSH1 0x20 ADD SWAP1 JUMP JUMPDEST PUSH1 0x0 DUP1 DUP3 SLT DUP3 PUSH1 0x1 PUSH1 0x1 PUSH1 0xFF SHL SUB SUB DUP5 SGT DUP2 ISZERO AND ISZERO PUSH2 0x165 JUMPI PUSH2 0x165 PUSH2 0x27F JUMP JUMPDEST DUP3 PUSH1 0x1 PUSH1 0xFF SHL SUB DUP5 SLT DUP2 AND ISZERO PUSH2 0x17D JUMPI PUSH2 0x17D PUSH2 0x27F JUMP JUMPDEST POP POP ADD SWAP1 JUMP JUMPDEST PUSH1 0x0 DUP3 PUSH2 0x19E JUMPI PUSH4 0x4E487B71 PUSH1 0xE0 SHL DUP2 MSTORE PUSH1 0x12 PUSH1 0x4 MSTORE PUSH1 0x24 DUP2 REVERT JUMPDEST PUSH1 0x1 PUSH1 0xFF SHL DUP3 EQ PUSH1 0x0 NOT DUP5 EQ AND ISZERO PUSH2 0x1B8 JUMPI PUSH2 0x1B8 PUSH2 0x27F JUMP JUMPDEST POP SDIV SWAP1 JUMP JUMPDEST PUSH1 0x0 PUSH1 0x1 PUSH1 0x1 PUSH1 0xFF SHL SUB DUP2 DUP5 SGT DUP3 DUP5 SGT DUP6 DUP4 DIV DUP6 GT DUP3 DUP3 AND AND ISZERO PUSH2 0x1E3 JUMPI PUSH2 0x1E3 PUSH2 0x27F JUMP JUMPDEST PUSH1 0x1 PUSH1 0xFF SHL DUP5 DUP8 SLT DUP7 DUP3 SDIV DUP9 SLT DUP2 DUP5 AND AND ISZERO PUSH2 0x201 JUMPI PUSH2 0x201 PUSH2 0x27F JUMP JUMPDEST DUP6 DUP8 SLT SWAP3 POP DUP8 DUP3 SDIV DUP8 SLT DUP5 DUP5 AND AND ISZERO PUSH2 0x21C JUMPI PUSH2 0x21C PUSH2 0x27F JUMP JUMPDEST DUP8 DUP6 SDIV DUP8 SLT DUP2 DUP5 AND AND ISZERO PUSH2 0x232 JUMPI PUSH2 0x232 PUSH2 0x27F JUMP JUMPDEST POP POP POP SWAP3 SWAP1 SWAP4 MUL SWAP4 SWAP3 POP POP POP JUMP JUMPDEST PUSH1 0x0 DUP1 DUP4 SLT DUP4 PUSH1 0x1 PUSH1 0xFF SHL ADD DUP4 SLT DUP2 ISZERO AND ISZERO PUSH2 0x25E JUMPI PUSH2 0x25E PUSH2 0x27F JUMP JUMPDEST DUP4 PUSH1 0x1 PUSH1 0x1 PUSH1 0xFF SHL SUB ADD DUP4 SGT DUP2 AND ISZERO PUSH2 0x279 JUMPI PUSH2 0x279 PUSH2 0x27F JUMP JUMPDEST POP POP SUB SWAP1 JUMP JUMPDEST PUSH4 0x4E487B71 PUSH1 0xE0 SHL PUSH1 0x0 MSTORE PUSH1 0x11 PUSH1 0x4 MSTORE PUSH1 0x24 PUSH1 0x0 REVERT INVALID LOG2 PUSH5 0x6970667358 0x22 SLT KECCAK256 CREATE PUSH4 0xCC1BEEDA 0xDE 0xD7 0x5D DUP1 0xB6 0xCE 0x5F CALL DELEGATECALL 0xB2 JUMP 0xD0 0xAE SLT 0xB1 PUSH32 0x1AAD74A2D4F23A23D2AA64736F6C634300080000330000000000000000000000 "
        },
        "methodIdentifiers": {
          "add(int256,int256)": "a5f3c23b",
          "div(int256,int256)": "43509138",
          "mul(int256,int256)": "bbe93d91",
          "sub(int256,int256)": "adefc37b"
        }
      }
    }
  }
}