{
  "contracts/OpenZeppelin/mocks/SafeCastMock.sol": {
    "SafeCastMock": {
      "abi": [
        {
          "inputs": [
            {
              "internalType": "int256",
              "name": "a",
              "type": "int256"
            }
          ],
          "name": "toInt128",
          "outputs": [
            {
              "internalType": "int128",
              "name": "",
              "type": "int128"
            }
          ],
          "stateMutability": "pure",
          "type": "function"
        },
        {
          "inputs": [
            {
              "internalType": "int256",
              "name": "a",
              "type": "int256"
            }
          ],
          "name": "toInt16",
          "outputs": [
            {
              "internalType": "int16",
              "name": "",
              "type": "int16"
            }
          ],
          "stateMutability": "pure",
          "type": "function"
        },
        {
          "inputs": [
            {
              "internalType": "uint256",
              "name": "a",
              "type": "uint256"
            }
          ],
          "name": "toInt256",
          "outputs": [
            {
              "internalType": "int256",
              "name": "",
              "type": "int256"
            }
          ],
          "stateMutability": "pure",
          "type": "function"
        },
        {
          "inputs": [
            {
              "internalType": "int256",
              "name": "a",
              "type": "int256"
            }
          ],
          "name": "toInt32",
          "outputs": [
            {
              "internalType": "int32",
              "name": "",
              "type": "int32"
            }
          ],
          "stateMutability": "pure",
          "type": "function"
        },
        {
          "inputs": [
            {
              "internalType": "int256",
              "name": "a",
              "type": "int256"
            }
          ],
          "name": "toInt64",
          "outputs": [
            {
              "internalType": "int64",
              "name": "",
              "type": "int64"
            }
          ],
          "stateMutability": "pure",
          "type": "function"
        },
        {
          "inputs": [
            {
              "internalType": "int256",
              "name": "a",
              "type": "int256"
            }
          ],
          "name": "toInt8",
          "outputs": [
            {
              "internalType": "int8",
              "name": "",
              "type": "int8"
            }
          ],
          "stateMutability": "pure",
          "type": "function"
        },
        {
          "inputs": [
            {
              "internalType": "uint256",
              "name": "a",
              "type": "uint256"
            }
          ],
          "name": "toUint128",
          "outputs": [
            {
              "internalType": "uint128",
              "name": "",
              "type": "uint128"
            }
          ],
          "stateMutability": "pure",
          "type": "function"
        },
        {
          "inputs": [
            {
              "internalType": "uint256",
              "name": "a",
              "type": "uint256"
            }
          ],
          "name": "toUint16",
          "outputs": [
            {
              "internalType": "uint16",
              "name": "",
              "type": "uint16"
            }
          ],
          "stateMutability": "pure",
          "type": "function"
        },
        {
          "inputs": [
            {
              "internalType": "int256",
              "name": "a",
              "type": "int256"
            }
          ],
          "name": "toUint256",
          "outputs": [
            {
              "internalType": "uint256",
              "name": "",
              "type": "uint256"
            }
          ],
          "stateMutability": "pure",
          "type": "function"
        },
        {
          "inputs": [
            {
              "internalType": "uint256",
              "name": "a",
              "type": "uint256"
            }
          ],
          "name": "toUint32",
          "outputs": [
            {
              "internalType": "uint32",
              "name": "",
              "type": "uint32"
            }
          ],
          "stateMutability": "pure",
          "type": "function"
        },
        {
          "inputs": [
            {
              "internalType": "uint256",
              "name": "a",
              "type": "uint256"
            }
          ],
          "name": "toUint64",
          "outputs": [
            {
              "internalType": "uint64",
              "name": "",
              "type": "uint64"
            }
          ],
          "stateMutability": "pure",
          "type": "function"
        },
        {
          "inputs": [
            {
              "internalType": "uint256",
              "name": "a",
              "type": "uint256"
            }
          ],
          "name": "toUint8",
          "outputs": [
            {
              "internalType": "uint8",
              "name": "",
              "type": "uint8"
            }
          ],
          "stateMutability": "pure",
          "type": "function"
        }
      ],
      "evm": {
        "bytecode": {
          "linkReferences": {},
          "object": "608060405234801561001057600080fd5b506108ab806100206000396000f3fe608060405234801561001057600080fd5b50600436106100d45760003560e01c8063cf65b4d311610081578063dfbe873b1161005b578063dfbe873b14610202578063f136dc0214610222578063fdcf791b14610242576100d4565b8063cf65b4d3146101a2578063d6bd32aa146101c2578063dd2a0316146101e2576100d4565b80639374068f116100b25780639374068f146101425780639c6f59be14610162578063c819325514610182576100d4565b80630cc4681e146100d95780632665fad014610102578063809fdd3314610122575b600080fd5b6100ec6100e736600461054b565b610255565b6040516100f99190610867565b60405180910390f35b61011561011036600461054b565b610266565b6040516100f99190610852565b61013561013036600461054b565b610271565b6040516100f99190610815565b61015561015036600461054b565b61027c565b6040516100f99190610832565b61017561017036600461054b565b610287565b6040516100f99190610588565b61019561019036600461054b565b610292565b6040516100f99190610841565b6101b56101b036600461054b565b61029d565b6040516100f99190610571565b6101d56101d036600461054b565b6102a8565b6040516100f99190610596565b6101f56101f036600461054b565b6102b3565b6040516100f99190610563565b61021561021036600461054b565b6102be565b6040516100f9919061057f565b61023561023036600461054b565b6102c9565b6040516100f991906105a4565b61021561025036600461054b565b6102d4565b6000610260826102df565b92915050565b60006102608261030f565b600061026082610339565b60006102608261036b565b60006102608261038f565b6000610260826103c5565b6000610260826103eb565b60006102608261041d565b60006102608261045b565b6000610260826104b8565b6000610260826104f9565b600061026082610529565b6000610100821061030b5760405162461bcd60e51b81526004016103029061060f565b60405180910390fd5b5090565b600068010000000000000000821061030b5760405162461bcd60e51b8152600401610302906106fe565b6000700100000000000000000000000000000000821061030b5760405162461bcd60e51b81526004016103029061066c565b600062010000821061030b5760405162461bcd60e51b8152600401610302906105b2565b6000637fffffff1982121580156103a95750638000000082125b61030b5760405162461bcd60e51b81526004016103029061075b565b6000640100000000821061030b5760405162461bcd60e51b81526004016103029061075b565b6000617fff198212158015610401575061800082125b61030b5760405162461bcd60e51b8152600401610302906105b2565b6000677fffffffffffffff19821215801561043f575067800000000000000082125b61030b5760405162461bcd60e51b8152600401610302906106fe565b60007fffffffffffffffffffffffffffffffff80000000000000000000000000000000821215801561049c57506f8000000000000000000000000000000082125b61030b5760405162461bcd60e51b81526004016103029061066c565b60007f8000000000000000000000000000000000000000000000000000000000000000821061030b5760405162461bcd60e51b8152600401610302906107b8565b6000607f19821215801561050d5750608082125b61030b5760405162461bcd60e51b81526004016103029061060f565b60008082121561030b5760405162461bcd60e51b8152600401610302906106c9565b60006020828403121561055c578081fd5b5035919050565b600f9190910b815260200190565b60019190910b815260200190565b90815260200190565b60039190910b815260200190565b60079190910b815260200190565b60009190910b815260200190565b60208082526026908201527f53616665436173743a2076616c756520646f65736e27742066697420696e203160408201527f3620626974730000000000000000000000000000000000000000000000000000606082015260800190565b60208082526025908201527f53616665436173743a2076616c756520646f65736e27742066697420696e203860408201527f2062697473000000000000000000000000000000000000000000000000000000606082015260800190565b60208082526027908201527f53616665436173743a2076616c756520646f65736e27742066697420696e203160408201527f3238206269747300000000000000000000000000000000000000000000000000606082015260800190565b6020808252818101527f53616665436173743a2076616c7565206d75737420626520706f736974697665604082015260600190565b60208082526026908201527f53616665436173743a2076616c756520646f65736e27742066697420696e203660408201527f3420626974730000000000000000000000000000000000000000000000000000606082015260800190565b60208082526026908201527f53616665436173743a2076616c756520646f65736e27742066697420696e203360408201527f3220626974730000000000000000000000000000000000000000000000000000606082015260800190565b60208082526028908201527f53616665436173743a2076616c756520646f65736e27742066697420696e206160408201527f6e20696e74323536000000000000000000000000000000000000000000000000606082015260800190565b6fffffffffffffffffffffffffffffffff91909116815260200190565b61ffff91909116815260200190565b63ffffffff91909116815260200190565b67ffffffffffffffff91909116815260200190565b60ff9190911681526020019056fea264697066735822122043bca66f008807e9c5e2a6c5510c9c430a267f38aeca58aa11e2180cdb686ee764736f6c63430008000033",
          "opcodes": "PUSH1 0x80 PUSH1 0x40 MSTORE CALLVALUE DUP1 ISZERO PUSH2 0x10 JUMPI PUSH1 0x0 DUP1 REVERT JUMPDEST POP PUSH2 0x8AB DUP1 PUSH2 0x20 PUSH1 0x0 CODECOPY PUSH1 0x0 RETURN INVALID PUSH1 0x80 PUSH1 0x40 MSTORE CALLVALUE DUP1 ISZERO PUSH2 0x10 JUMPI PUSH1 0x0 DUP1 REVERT JUMPDEST POP PUSH1 0x4 CALLDATASIZE LT PUSH2 0xD4 JUMPI PUSH1 0x0 CALLDATALOAD PUSH1 0xE0 SHR DUP1 PUSH4 0xCF65B4D3 GT PUSH2 0x81 JUMPI DUP1 PUSH4 0xDFBE873B GT PUSH2 0x5B JUMPI DUP1 PUSH4 0xDFBE873B EQ PUSH2 0x202 JUMPI DUP1 PUSH4 0xF136DC02 EQ PUSH2 0x222 JUMPI DUP1 PUSH4 0xFDCF791B EQ PUSH2 0x242 JUMPI PUSH2 0xD4 JUMP JUMPDEST DUP1 PUSH4 0xCF65B4D3 EQ PUSH2 0x1A2 JUMPI DUP1 PUSH4 0xD6BD32AA EQ PUSH2 0x1C2 JUMPI DUP1 PUSH4 0xDD2A0316 EQ PUSH2 0x1E2 JUMPI PUSH2 0xD4 JUMP JUMPDEST DUP1 PUSH4 0x9374068F GT PUSH2 0xB2 JUMPI DUP1 PUSH4 0x9374068F EQ PUSH2 0x142 JUMPI DUP1 PUSH4 0x9C6F59BE EQ PUSH2 0x162 JUMPI DUP1 PUSH4 0xC8193255 EQ PUSH2 0x182 JUMPI PUSH2 0xD4 JUMP JUMPDEST DUP1 PUSH4 0xCC4681E EQ PUSH2 0xD9 JUMPI DUP1 PUSH4 0x2665FAD0 EQ PUSH2 0x102 JUMPI DUP1 PUSH4 0x809FDD33 EQ PUSH2 0x122 JUMPI JUMPDEST PUSH1 0x0 DUP1 REVERT JUMPDEST PUSH2 0xEC PUSH2 0xE7 CALLDATASIZE PUSH1 0x4 PUSH2 0x54B JUMP JUMPDEST PUSH2 0x255 JUMP JUMPDEST PUSH1 0x40 MLOAD PUSH2 0xF9 SWAP2 SWAP1 PUSH2 0x867 JUMP JUMPDEST PUSH1 0x40 MLOAD DUP1 SWAP2 SUB SWAP1 RETURN JUMPDEST PUSH2 0x115 PUSH2 0x110 CALLDATASIZE PUSH1 0x4 PUSH2 0x54B JUMP JUMPDEST PUSH2 0x266 JUMP JUMPDEST PUSH1 0x40 MLOAD PUSH2 0xF9 SWAP2 SWAP1 PUSH2 0x852 JUMP JUMPDEST PUSH2 0x135 PUSH2 0x130 CALLDATASIZE PUSH1 0x4 PUSH2 0x54B JUMP JUMPDEST PUSH2 0x271 JUMP JUMPDEST PUSH1 0x40 MLOAD PUSH2 0xF9 SWAP2 SWAP1 PUSH2 0x815 JUMP JUMPDEST PUSH2 0x155 PUSH2 0x150 CALLDATASIZE PUSH1 0x4 PUSH2 0x54B JUMP JUMPDEST PUSH2 0x27C JUMP JUMPDEST PUSH1 0x40 MLOAD PUSH2 0xF9 SWAP2 SWAP1 PUSH2 0x832 JUMP JUMPDEST PUSH2 0x175 PUSH2 0x170 CALLDATASIZE PUSH1 0x4 PUSH2 0x54B JUMP JUMPDEST PUSH2 0x287 JUMP JUMPDEST PUSH1 0x40 MLOAD PUSH2 0xF9 SWAP2 SWAP1 PUSH2 0x588 JUMP JUMPDEST PUSH2 0x195 PUSH2 0x190 CALLDATASIZE PUSH1 0x4 PUSH2 0x54B JUMP JUMPDEST PUSH2 0x292 JUMP JUMPDEST PUSH1 0x40 MLOAD PUSH2 0xF9 SWAP2 SWAP1 PUSH2 0x841 JUMP JUMPDEST PUSH2 0x1B5 PUSH2 0x1B0 CALLDATASIZE PUSH1 0x4 PUSH2 0x54B JUMP JUMPDEST PUSH2 0x29D JUMP JUMPDEST PUSH1 0x40 MLOAD PUSH2 0xF9 SWAP2 SWAP1 PUSH2 0x571 JUMP JUMPDEST PUSH2 0x1D5 PUSH2 0x1D0 CALLDATASIZE PUSH1 0x4 PUSH2 0x54B JUMP JUMPDEST PUSH2 0x2A8 JUMP JUMPDEST PUSH1 0x40 MLOAD PUSH2 0xF9 SWAP2 SWAP1 PUSH2 0x596 JUMP JUMPDEST PUSH2 0x1F5 PUSH2 0x1F0 CALLDATASIZE PUSH1 0x4 PUSH2 0x54B JUMP JUMPDEST PUSH2 0x2B3 JUMP JUMPDEST PUSH1 0x40 MLOAD PUSH2 0xF9 SWAP2 SWAP1 PUSH2 0x563 JUMP JUMPDEST PUSH2 0x215 PUSH2 0x210 CALLDATASIZE PUSH1 0x4 PUSH2 0x54B JUMP JUMPDEST PUSH2 0x2BE JUMP JUMPDEST PUSH1 0x40 MLOAD PUSH2 0xF9 SWAP2 SWAP1 PUSH2 0x57F JUMP JUMPDEST PUSH2 0x235 PUSH2 0x230 CALLDATASIZE PUSH1 0x4 PUSH2 0x54B JUMP JUMPDEST PUSH2 0x2C9 JUMP JUMPDEST PUSH1 0x40 MLOAD PUSH2 0xF9 SWAP2 SWAP1 PUSH2 0x5A4 JUMP JUMPDEST PUSH2 0x215 PUSH2 0x250 CALLDATASIZE PUSH1 0x4 PUSH2 0x54B JUMP JUMPDEST PUSH2 0x2D4 JUMP JUMPDEST PUSH1 0x0 PUSH2 0x260 DUP3 PUSH2 0x2DF JUMP JUMPDEST SWAP3 SWAP2 POP POP JUMP JUMPDEST PUSH1 0x0 PUSH2 0x260 DUP3 PUSH2 0x30F JUMP JUMPDEST PUSH1 0x0 PUSH2 0x260 DUP3 PUSH2 0x339 JUMP JUMPDEST PUSH1 0x0 PUSH2 0x260 DUP3 PUSH2 0x36B JUMP JUMPDEST PUSH1 0x0 PUSH2 0x260 DUP3 PUSH2 0x38F JUMP JUMPDEST PUSH1 0x0 PUSH2 0x260 DUP3 PUSH2 0x3C5 JUMP JUMPDEST PUSH1 0x0 PUSH2 0x260 DUP3 PUSH2 0x3EB JUMP JUMPDEST PUSH1 0x0 PUSH2 0x260 DUP3 PUSH2 0x41D JUMP JUMPDEST PUSH1 0x0 PUSH2 0x260 DUP3 PUSH2 0x45B JUMP JUMPDEST PUSH1 0x0 PUSH2 0x260 DUP3 PUSH2 0x4B8 JUMP JUMPDEST PUSH1 0x0 PUSH2 0x260 DUP3 PUSH2 0x4F9 JUMP JUMPDEST PUSH1 0x0 PUSH2 0x260 DUP3 PUSH2 0x529 JUMP JUMPDEST PUSH1 0x0 PUSH2 0x100 DUP3 LT PUSH2 0x30B JUMPI PUSH1 0x40 MLOAD PUSH3 0x461BCD PUSH1 0xE5 SHL DUP2 MSTORE PUSH1 0x4 ADD PUSH2 0x302 SWAP1 PUSH2 0x60F JUMP JUMPDEST PUSH1 0x40 MLOAD DUP1 SWAP2 SUB SWAP1 REVERT JUMPDEST POP SWAP1 JUMP JUMPDEST PUSH1 0x0 PUSH9 0x10000000000000000 DUP3 LT PUSH2 0x30B JUMPI PUSH1 0x40 MLOAD PUSH3 0x461BCD PUSH1 0xE5 SHL DUP2 MSTORE PUSH1 0x4 ADD PUSH2 0x302 SWAP1 PUSH2 0x6FE JUMP JUMPDEST PUSH1 0x0 PUSH17 0x100000000000000000000000000000000 DUP3 LT PUSH2 0x30B JUMPI PUSH1 0x40 MLOAD PUSH3 0x461BCD PUSH1 0xE5 SHL DUP2 MSTORE PUSH1 0x4 ADD PUSH2 0x302 SWAP1 PUSH2 0x66C JUMP JUMPDEST PUSH1 0x0 PUSH3 0x10000 DUP3 LT PUSH2 0x30B JUMPI PUSH1 0x40 MLOAD PUSH3 0x461BCD PUSH1 0xE5 SHL DUP2 MSTORE PUSH1 0x4 ADD PUSH2 0x302 SWAP1 PUSH2 0x5B2 JUMP JUMPDEST PUSH1 0x0 PUSH4 0x7FFFFFFF NOT DUP3 SLT ISZERO DUP1 ISZERO PUSH2 0x3A9 JUMPI POP PUSH4 0x80000000 DUP3 SLT JUMPDEST PUSH2 0x30B JUMPI PUSH1 0x40 MLOAD PUSH3 0x461BCD PUSH1 0xE5 SHL DUP2 MSTORE PUSH1 0x4 ADD PUSH2 0x302 SWAP1 PUSH2 0x75B JUMP JUMPDEST PUSH1 0x0 PUSH5 0x100000000 DUP3 LT PUSH2 0x30B JUMPI PUSH1 0x40 MLOAD PUSH3 0x461BCD PUSH1 0xE5 SHL DUP2 MSTORE PUSH1 0x4 ADD PUSH2 0x302 SWAP1 PUSH2 0x75B JUMP JUMPDEST PUSH1 0x0 PUSH2 0x7FFF NOT DUP3 SLT ISZERO DUP1 ISZERO PUSH2 0x401 JUMPI POP PUSH2 0x8000 DUP3 SLT JUMPDEST PUSH2 0x30B JUMPI PUSH1 0x40 MLOAD PUSH3 0x461BCD PUSH1 0xE5 SHL DUP2 MSTORE PUSH1 0x4 ADD PUSH2 0x302 SWAP1 PUSH2 0x5B2 JUMP JUMPDEST PUSH1 0x0 PUSH8 0x7FFFFFFFFFFFFFFF NOT DUP3 SLT ISZERO DUP1 ISZERO PUSH2 0x43F JUMPI POP PUSH8 0x8000000000000000 DUP3 SLT JUMPDEST PUSH2 0x30B JUMPI PUSH1 0x40 MLOAD PUSH3 0x461BCD PUSH1 0xE5 SHL DUP2 MSTORE PUSH1 0x4 ADD PUSH2 0x302 SWAP1 PUSH2 0x6FE JUMP JUMPDEST PUSH1 0x0 PUSH32 0xFFFFFFFFFFFFFFFFFFFFFFFFFFFFFFFF80000000000000000000000000000000 DUP3 SLT ISZERO DUP1 ISZERO PUSH2 0x49C JUMPI POP PUSH16 0x80000000000000000000000000000000 DUP3 SLT JUMPDEST PUSH2 0x30B JUMPI PUSH1 0x40 MLOAD PUSH3 0x461BCD PUSH1 0xE5 SHL DUP2 MSTORE PUSH1 0x4 ADD PUSH2 0x302 SWAP1 PUSH2 0x66C JUMP JUMPDEST PUSH1 0x0 PUSH32 0x8000000000000000000000000000000000000000000000000000000000000000 DUP3 LT PUSH2 0x30B JUMPI PUSH1 0x40 MLOAD PUSH3 0x461BCD PUSH1 0xE5 SHL DUP2 MSTORE PUSH1 0x4 ADD PUSH2 0x302 SWAP1 PUSH2 0x7B8 JUMP JUMPDEST PUSH1 0x0 PUSH1 0x7F NOT DUP3 SLT ISZERO DUP1 ISZERO PUSH2 0x50D JUMPI POP PUSH1 0x80 DUP3 SLT JUMPDEST PUSH2 0x30B JUMPI PUSH1 0x40 MLOAD PUSH3 0x461BCD PUSH1 0xE5 SHL DUP2 MSTORE PUSH1 0x4 ADD PUSH2 0x302 SWAP1 PUSH2 0x60F JUMP JUMPDEST PUSH1 0x0 DUP1 DUP3 SLT ISZERO PUSH2 0x30B JUMPI PUSH1 0x40 MLOAD PUSH3 0x461BCD PUSH1 0xE5 SHL DUP2 MSTORE PUSH1 0x4 ADD PUSH2 0x302 SWAP1 PUSH2 0x6C9 JUMP JUMPDEST PUSH1 0x0 PUSH1 0x20 DUP3 DUP5 SUB SLT ISZERO PUSH2 0x55C JUMPI DUP1 DUP2 REVERT JUMPDEST POP CALLDATALOAD SWAP2 SWAP1 POP JUMP JUMPDEST PUSH1 0xF SWAP2 SWAP1 SWAP2 SIGNEXTEND DUP2 MSTORE PUSH1 0x20 ADD SWAP1 JUMP JUMPDEST PUSH1 0x1 SWAP2 SWAP1 SWAP2 SIGNEXTEND DUP2 MSTORE PUSH1 0x20 ADD SWAP1 JUMP JUMPDEST SWAP1 DUP2 MSTORE PUSH1 0x20 ADD SWAP1 JUMP JUMPDEST PUSH1 0x3 SWAP2 SWAP1 SWAP2 SIGNEXTEND DUP2 MSTORE PUSH1 0x20 ADD SWAP1 JUMP JUMPDEST PUSH1 0x7 SWAP2 SWAP1 SWAP2 SIGNEXTEND DUP2 MSTORE PUSH1 0x20 ADD SWAP1 JUMP JUMPDEST PUSH1 0x0 SWAP2 SWAP1 SWAP2 SIGNEXTEND DUP2 MSTORE PUSH1 0x20 ADD SWAP1 JUMP JUMPDEST PUSH1 0x20 DUP1 DUP3 MSTORE PUSH1 0x26 SWAP1 DUP3 ADD MSTORE PUSH32 0x53616665436173743A2076616C756520646F65736E27742066697420696E2031 PUSH1 0x40 DUP3 ADD MSTORE PUSH32 0x3620626974730000000000000000000000000000000000000000000000000000 PUSH1 0x60 DUP3 ADD MSTORE PUSH1 0x80 ADD SWAP1 JUMP JUMPDEST PUSH1 0x20 DUP1 DUP3 MSTORE PUSH1 0x25 SWAP1 DUP3 ADD MSTORE PUSH32 0x53616665436173743A2076616C756520646F65736E27742066697420696E2038 PUSH1 0x40 DUP3 ADD MSTORE PUSH32 0x2062697473000000000000000000000000000000000000000000000000000000 PUSH1 0x60 DUP3 ADD MSTORE PUSH1 0x80 ADD SWAP1 JUMP JUMPDEST PUSH1 0x20 DUP1 DUP3 MSTORE PUSH1 0x27 SWAP1 DUP3 ADD MSTORE PUSH32 0x53616665436173743A2076616C756520646F65736E27742066697420696E2031 PUSH1 0x40 DUP3 ADD MSTORE PUSH32 0x3238206269747300000000000000000000000000000000000000000000000000 PUSH1 0x60 DUP3 ADD MSTORE PUSH1 0x80 ADD SWAP1 JUMP JUMPDEST PUSH1 0x20 DUP1 DUP3 MSTORE DUP2 DUP2 ADD MSTORE PUSH32 0x53616665436173743A2076616C7565206D75737420626520706F736974697665 PUSH1 0x40 DUP3 ADD MSTORE PUSH1 0x60 ADD SWAP1 JUMP JUMPDEST PUSH1 0x20 DUP1 DUP3 MSTORE PUSH1 0x26 SWAP1 DUP3 ADD MSTORE PUSH32 0x53616665436173743A2076616C756520646F65736E27742066697420696E2036 PUSH1 0x40 DUP3 ADD MSTORE PUSH32 0x3420626974730000000000000000000000000000000000000000000000000000 PUSH1 0x60 DUP3 ADD MSTORE PUSH1 0x80 ADD SWAP1 JUMP JUMPDEST PUSH1 0x20 DUP1 DUP3 MSTORE PUSH1 0x26 SWAP1 DUP3 ADD MSTORE PUSH32 0x53616665436173743A2076616C756520646F65736E27742066697420696E2033 PUSH1 0x40 DUP3 ADD MSTORE PUSH32 0x3220626974730000000000000000000000000000000000000000000000000000 PUSH1 0x60 DUP3 ADD MSTORE PUSH1 0x80 ADD SWAP1 JUMP JUMPDEST PUSH1 0x20 DUP1 DUP3 MSTORE PUSH1 0x28 SWAP1 DUP3 ADD MSTORE PUSH32 0x53616665436173743A2076616C756520646F65736E27742066697420696E2061 PUSH1 0x40 DUP3 ADD MSTORE PUSH32 0x6E20696E74323536000000000000000000000000000000000000000000000000 PUSH1 0x60 DUP3 ADD MSTORE PUSH1 0x80 ADD SWAP1 JUMP JUMPDEST PUSH16 0xFFFFFFFFFFFFFFFFFFFFFFFFFFFFFFFF SWAP2 SWAP1 SWAP2 AND DUP2 MSTORE PUSH1 0x20 ADD SWAP1 JUMP JUMPDEST PUSH2 0xFFFF SWAP2 SWAP1 SWAP2 AND DUP2 MSTORE PUSH1 0x20 ADD SWAP1 JUMP JUMPDEST PUSH4 0xFFFFFFFF SWAP2 SWAP1 SWAP2 AND DUP2 MSTORE PUSH1 0x20 ADD SWAP1 JUMP JUMPDEST PUSH8 0xFFFFFFFFFFFFFFFF SWAP2 SWAP1 SWAP2 AND DUP2 MSTORE PUSH1 0x20 ADD SWAP1 JUMP JUMPDEST PUSH1 0xFF SWAP2 SWAP1 SWAP2 AND DUP2 MSTORE PUSH1 0x20 ADD SWAP1 JUMP INVALID LOG2 PUSH5 0x6970667358 0x22 SLT KECCAK256 NUMBER 0xBC 0xA6 PUSH16 0x8807E9C5E2A6C5510C9C430A267F38 0xAE 0xCA PC 0xAA GT 0xE2 XOR 0xC 0xDB PUSH9 0x6EE764736F6C634300 ADDMOD STOP STOP CALLER "
        },
        "methodIdentifiers": {
          "toInt128(int256)": "dd2a0316",
          "toInt16(int256)": "cf65b4d3",
          "toInt256(uint256)": "dfbe873b",
          "toInt32(int256)": "9c6f59be",
          "toInt64(int256)": "d6bd32aa",
          "toInt8(int256)": "f136dc02",
          "toUint128(uint256)": "809fdd33",
          "toUint16(uint256)": "9374068f",
          "toUint256(int256)": "fdcf791b",
          "toUint32(uint256)": "c8193255",
          "toUint64(uint256)": "2665fad0",
          "toUint8(uint256)": "0cc4681e"
        }
      }
    }
  }
}