{
  "_format": "hh-sol-artifact-1",
  "contractName": "ERC165CheckerMock",
  "sourceName": "contracts/OpenZeppelin/mocks/ERC165CheckerMock.sol",
  "abi": [
    {
      "inputs": [
        {
          "internalType": "address",
          "name": "account",
          "type": "address"
        },
        {
          "internalType": "bytes4[]",
          "name": "interfaceIds",
          "type": "bytes4[]"
        }
      ],
      "name": "getSupportedInterfaces",
      "outputs": [
        {
          "internalType": "bool[]",
          "name": "",
          "type": "bool[]"
        }
      ],
      "stateMutability": "view",
      "type": "function"
    },
    {
      "inputs": [
        {
          "internalType": "address",
          "name": "account",
          "type": "address"
        },
        {
          "internalType": "bytes4[]",
          "name": "interfaceIds",
          "type": "bytes4[]"
        }
      ],
      "name": "supportsAllInterfaces",
      "outputs": [
        {
          "internalType": "bool",
          "name": "",
          "type": "bool"
        }
      ],
      "stateMutability": "view",
      "type": "function"
    },
    {
      "inputs": [
        {
          "internalType": "address",
          "name": "account",
          "type": "address"
        }
      ],
      "name": "supportsERC165",
      "outputs": [
        {
          "internalType": "bool",
          "name": "",
          "type": "bool"
        }
      ],
      "stateMutability": "view",
      "type": "function"
    },
    {
      "inputs": [
        {
          "internalType": "address",
          "name": "account",
          "type": "address"
        },
        {
          "internalType": "bytes4",
          "name": "interfaceId",
          "type": "bytes4"
        }
      ],
      "name": "supportsInterface",
      "outputs": [
        {
          "internalType": "bool",
          "name": "",
          "type": "bool"
        }
      ],
      "stateMutability": "view",
      "type": "function"
    }
  ],
  "bytecode": "0x608060405234801561001057600080fd5b506106ca806100206000396000f3fe608060405234801561001057600080fd5b506004361061004c5760003560e01c80634b9dd9041461005157806377e6b4cc1461007a578063c398a9251461009a578063d9057007146100ad575b600080fd5b61006461005f36600461047a565b6100c0565b604051610071919061061f565b60405180910390f35b61008d61008836600461047a565b6100de565b60405161007191906105d9565b6100646100a8366004610460565b6100f3565b6100646100bb36600461054e565b61010f565b60006100d56001600160a01b03841683610124565b90505b92915050565b60606100d56001600160a01b038416836101a2565b6000610107826001600160a01b0316610282565b90505b919050565b60006100d56001600160a01b038416836102e6565b600061012f83610282565b61013b575060006100d8565b60005b8251811015610198576101788484838151811061016b57634e487b7160e01b600052603260045260246000fd5b60200260200101516102fe565b6101865760009150506100d8565b8061019081610657565b91505061013e565b5060019392505050565b60606000825167ffffffffffffffff8111156101ce57634e487b7160e01b600052604160045260246000fd5b6040519080825280602002602001820160405280156101f7578160200160208202803683370190505b50905061020384610282565b156100d55760005b835181101561027a576102388585838151811061016b57634e487b7160e01b600052603260045260246000fd5b82828151811061025857634e487b7160e01b600052603260045260246000fd5b911515602092830291909101909101528061027281610657565b91505061020b565b509392505050565b60006102ae827f01ffc9a7000000000000000000000000000000000000000000000000000000006102fe565b801561010757506102df827fffffffff000000000000000000000000000000000000000000000000000000006102fe565b1592915050565b60006102f183610282565b80156100d557506100d583835b6000806301ffc9a760e01b8360405160240161031a919061062a565b604051602081830303815290604052907bffffffffffffffffffffffffffffffffffffffffffffffffffffffff19166020820180517bffffffffffffffffffffffffffffffffffffffffffffffffffffffff83818316178352505050509050600080856001600160a01b03166175308460405161039791906105a0565b6000604051808303818686fa925050503d80600081146103d3576040519150601f19603f3d011682016040523d82523d6000602084013e6103d8565b606091505b50915091506020815110156103f357600093505050506100d8565b81801561040f57508080602001905181019061040f9190610580565b9695505050505050565b80356001600160a01b038116811461010a57600080fd5b80357fffffffff000000000000000000000000000000000000000000000000000000008116811461010a57600080fd5b600060208284031215610471578081fd5b6100d582610419565b6000806040838503121561048c578081fd5b61049583610419565b915060208084013567ffffffffffffffff808211156104b2578384fd5b818601915086601f8301126104c5578384fd5b8135818111156104d7576104d761067e565b838102604051858282010181811085821117156104f6576104f661067e565b604052828152858101935084860182860187018b1015610514578788fd5b8795505b8386101561053d5761052981610430565b855260019590950194938601938601610518565b508096505050505050509250929050565b60008060408385031215610560578182fd5b61056983610419565b915061057760208401610430565b90509250929050565b600060208284031215610591578081fd5b815180151581146100d5578182fd5b60008251815b818110156105c057602081860181015185830152016105a6565b818111156105ce5782828501525b509190910192915050565b6020808252825182820181905260009190848201906040850190845b818110156106135783511515835292840192918401916001016105f5565b50909695505050505050565b901515815260200190565b7fffffffff0000000000000000000000000000000000000000000000000000000091909116815260200190565b600060001982141561067757634e487b7160e01b81526011600452602481fd5b5060010190565b634e487b7160e01b600052604160045260246000fdfea2646970667358221220aeca2babae5ddafecd4eb116503e3eb51c697efb40a45e973634a4429a509d0464736f6c63430008000033",
  "linkReferences": {},
  "deployedLinkReferences": {}
}