{
  "_format": "hh-sol-artifact-1",
  "contractName": "TokenVault",
  "sourceName": "contracts/ERC721TokenVault.sol",
  "abi": [
    {
      "inputs": [
        {
          "internalType": "address",
          "name": "_settings",
          "type": "address"
        },
        {
          "internalType": "address",
          "name": "_curator",
          "type": "address"
        },
        {
          "internalType": "address",
          "name": "_token",
          "type": "address"
        },
        {
          "internalType": "uint256",
          "name": "_id",
          "type": "uint256"
        },
        {
          "internalType": "uint256",
          "name": "_supply",
          "type": "uint256"
        },
        {
          "internalType": "uint256",
          "name": "_listPrice",
          "type": "uint256"
        },
        {
          "internalType": "uint256",
          "name": "_fee",
          "type": "uint256"
        },
        {
          "internalType": "string",
          "name": "_name",
          "type": "string"
        },
        {
          "internalType": "string",
          "name": "_symbol",
          "type": "string"
        }
      ],
      "stateMutability": "nonpayable",
      "type": "constructor"
    },
    {
      "anonymous": false,
      "inputs": [
        {
          "indexed": true,
          "internalType": "address",
          "name": "owner",
          "type": "address"
        },
        {
          "indexed": true,
          "internalType": "address",
          "name": "spender",
          "type": "address"
        },
        {
          "indexed": false,
          "internalType": "uint256",
          "name": "value",
          "type": "uint256"
        }
      ],
      "name": "Approval",
      "type": "event"
    },
    {
      "anonymous": false,
      "inputs": [
        {
          "indexed": false,
          "internalType": "address",
          "name": "buyer",
          "type": "address"
        },
        {
          "indexed": false,
          "internalType": "uint256",
          "name": "price",
          "type": "uint256"
        }
      ],
      "name": "Bid",
      "type": "event"
    },
    {
      "anonymous": false,
      "inputs": [
        {
          "indexed": false,
          "internalType": "address",
          "name": "owner",
          "type": "address"
        },
        {
          "indexed": false,
          "internalType": "uint256",
          "name": "shares",
          "type": "uint256"
        }
      ],
      "name": "Cash",
      "type": "event"
    },
    {
      "anonymous": false,
      "inputs": [
        {
          "indexed": false,
          "internalType": "address",
          "name": "user",
          "type": "address"
        },
        {
          "indexed": false,
          "internalType": "uint256",
          "name": "price",
          "type": "uint256"
        }
      ],
      "name": "PriceUpdate",
      "type": "event"
    },
    {
      "anonymous": false,
      "inputs": [
        {
          "indexed": false,
          "internalType": "address",
          "name": "redeemer",
          "type": "address"
        }
      ],
      "name": "Redeem",
      "type": "event"
    },
    {
      "anonymous": false,
      "inputs": [
        {
          "indexed": false,
          "internalType": "address",
          "name": "buyer",
          "type": "address"
        },
        {
          "indexed": false,
          "internalType": "uint256",
          "name": "price",
          "type": "uint256"
        }
      ],
      "name": "Start",
      "type": "event"
    },
    {
      "anonymous": false,
      "inputs": [
        {
          "indexed": true,
          "internalType": "address",
          "name": "from",
          "type": "address"
        },
        {
          "indexed": true,
          "internalType": "address",
          "name": "to",
          "type": "address"
        },
        {
          "indexed": false,
          "internalType": "uint256",
          "name": "value",
          "type": "uint256"
        }
      ],
      "name": "Transfer",
      "type": "event"
    },
    {
      "anonymous": false,
      "inputs": [
        {
          "indexed": false,
          "internalType": "address",
          "name": "buyer",
          "type": "address"
        },
        {
          "indexed": false,
          "internalType": "uint256",
          "name": "price",
          "type": "uint256"
        }
      ],
      "name": "Won",
      "type": "event"
    },
    {
      "inputs": [
        {
          "internalType": "address",
          "name": "owner",
          "type": "address"
        },
        {
          "internalType": "address",
          "name": "spender",
          "type": "address"
        }
      ],
      "name": "allowance",
      "outputs": [
        {
          "internalType": "uint256",
          "name": "",
          "type": "uint256"
        }
      ],
      "stateMutability": "view",
      "type": "function"
    },
    {
      "inputs": [
        {
          "internalType": "address",
          "name": "spender",
          "type": "address"
        },
        {
          "internalType": "uint256",
          "name": "amount",
          "type": "uint256"
        }
      ],
      "name": "approve",
      "outputs": [
        {
          "internalType": "bool",
          "name": "",
          "type": "bool"
        }
      ],
      "stateMutability": "nonpayable",
      "type": "function"
    },
    {
      "inputs": [],
      "name": "auctionEnd",
      "outputs": [
        {
          "internalType": "uint256",
          "name": "",
          "type": "uint256"
        }
      ],
      "stateMutability": "view",
      "type": "function"
    },
    {
      "inputs": [],
      "name": "auctionLength",
      "outputs": [
        {
          "internalType": "uint256",
          "name": "",
          "type": "uint256"
        }
      ],
      "stateMutability": "view",
      "type": "function"
    },
    {
      "inputs": [],
      "name": "auctionState",
      "outputs": [
        {
          "internalType": "enum TokenVault.State",
          "name": "",
          "type": "uint8"
        }
      ],
      "stateMutability": "view",
      "type": "function"
    },
    {
      "inputs": [
        {
          "internalType": "address",
          "name": "account",
          "type": "address"
        }
      ],
      "name": "balanceOf",
      "outputs": [
        {
          "internalType": "uint256",
          "name": "",
          "type": "uint256"
        }
      ],
      "stateMutability": "view",
      "type": "function"
    },
    {
      "inputs": [],
      "name": "bid",
      "outputs": [],
      "stateMutability": "payable",
      "type": "function"
    },
    {
      "inputs": [],
      "name": "cash",
      "outputs": [],
      "stateMutability": "nonpayable",
      "type": "function"
    },
    {
      "inputs": [],
      "name": "claimFees",
      "outputs": [],
      "stateMutability": "nonpayable",
      "type": "function"
    },
    {
      "inputs": [],
      "name": "curator",
      "outputs": [
        {
          "internalType": "address",
          "name": "",
          "type": "address"
        }
      ],
      "stateMutability": "view",
      "type": "function"
    },
    {
      "inputs": [],
      "name": "decimals",
      "outputs": [
        {
          "internalType": "uint8",
          "name": "",
          "type": "uint8"
        }
      ],
      "stateMutability": "view",
      "type": "function"
    },
    {
      "inputs": [
        {
          "internalType": "address",
          "name": "spender",
          "type": "address"
        },
        {
          "internalType": "uint256",
          "name": "subtractedValue",
          "type": "uint256"
        }
      ],
      "name": "decreaseAllowance",
      "outputs": [
        {
          "internalType": "bool",
          "name": "",
          "type": "bool"
        }
      ],
      "stateMutability": "nonpayable",
      "type": "function"
    },
    {
      "inputs": [],
      "name": "end",
      "outputs": [],
      "stateMutability": "nonpayable",
      "type": "function"
    },
    {
      "inputs": [],
      "name": "fee",
      "outputs": [
        {
          "internalType": "uint256",
          "name": "",
          "type": "uint256"
        }
      ],
      "stateMutability": "view",
      "type": "function"
    },
    {
      "inputs": [],
      "name": "id",
      "outputs": [
        {
          "internalType": "uint256",
          "name": "",
          "type": "uint256"
        }
      ],
      "stateMutability": "view",
      "type": "function"
    },
    {
      "inputs": [
        {
          "internalType": "address",
          "name": "spender",
          "type": "address"
        },
        {
          "internalType": "uint256",
          "name": "addedValue",
          "type": "uint256"
        }
      ],
      "name": "increaseAllowance",
      "outputs": [
        {
          "internalType": "bool",
          "name": "",
          "type": "bool"
        }
      ],
      "stateMutability": "nonpayable",
      "type": "function"
    },
    {
      "inputs": [
        {
          "internalType": "address",
          "name": "_curator",
          "type": "address"
        }
      ],
      "name": "kickCurator",
      "outputs": [],
      "stateMutability": "nonpayable",
      "type": "function"
    },
    {
      "inputs": [],
      "name": "lastClaimed",
      "outputs": [
        {
          "internalType": "uint256",
          "name": "",
          "type": "uint256"
        }
      ],
      "stateMutability": "view",
      "type": "function"
    },
    {
      "inputs": [],
      "name": "livePrice",
      "outputs": [
        {
          "internalType": "uint256",
          "name": "",
          "type": "uint256"
        }
      ],
      "stateMutability": "view",
      "type": "function"
    },
    {
      "inputs": [],
      "name": "name",
      "outputs": [
        {
          "internalType": "string",
          "name": "",
          "type": "string"
        }
      ],
      "stateMutability": "view",
      "type": "function"
    },
    {
      "inputs": [
        {
          "internalType": "address",
          "name": "",
          "type": "address"
        },
        {
          "internalType": "address",
          "name": "",
          "type": "address"
        },
        {
          "internalType": "uint256",
          "name": "",
          "type": "uint256"
        },
        {
          "internalType": "bytes",
          "name": "",
          "type": "bytes"
        }
      ],
      "name": "onERC721Received",
      "outputs": [
        {
          "internalType": "bytes4",
          "name": "",
          "type": "bytes4"
        }
      ],
      "stateMutability": "nonpayable",
      "type": "function"
    },
    {
      "inputs": [],
      "name": "redeem",
      "outputs": [],
      "stateMutability": "nonpayable",
      "type": "function"
    },
    {
      "inputs": [],
      "name": "reservePrice",
      "outputs": [
        {
          "internalType": "uint256",
          "name": "",
          "type": "uint256"
        }
      ],
      "stateMutability": "view",
      "type": "function"
    },
    {
      "inputs": [],
      "name": "reserveTotal",
      "outputs": [
        {
          "internalType": "uint256",
          "name": "",
          "type": "uint256"
        }
      ],
      "stateMutability": "view",
      "type": "function"
    },
    {
      "inputs": [],
      "name": "settings",
      "outputs": [
        {
          "internalType": "address",
          "name": "",
          "type": "address"
        }
      ],
      "stateMutability": "view",
      "type": "function"
    },
    {
      "inputs": [],
      "name": "start",
      "outputs": [],
      "stateMutability": "payable",
      "type": "function"
    },
    {
      "inputs": [],
      "name": "symbol",
      "outputs": [
        {
          "internalType": "string",
          "name": "",
          "type": "string"
        }
      ],
      "stateMutability": "view",
      "type": "function"
    },
    {
      "inputs": [],
      "name": "token",
      "outputs": [
        {
          "internalType": "address",
          "name": "",
          "type": "address"
        }
      ],
      "stateMutability": "view",
      "type": "function"
    },
    {
      "inputs": [],
      "name": "totalSupply",
      "outputs": [
        {
          "internalType": "uint256",
          "name": "",
          "type": "uint256"
        }
      ],
      "stateMutability": "view",
      "type": "function"
    },
    {
      "inputs": [
        {
          "internalType": "address",
          "name": "recipient",
          "type": "address"
        },
        {
          "internalType": "uint256",
          "name": "amount",
          "type": "uint256"
        }
      ],
      "name": "transfer",
      "outputs": [
        {
          "internalType": "bool",
          "name": "",
          "type": "bool"
        }
      ],
      "stateMutability": "nonpayable",
      "type": "function"
    },
    {
      "inputs": [
        {
          "internalType": "address",
          "name": "sender",
          "type": "address"
        },
        {
          "internalType": "address",
          "name": "recipient",
          "type": "address"
        },
        {
          "internalType": "uint256",
          "name": "amount",
          "type": "uint256"
        }
      ],
      "name": "transferFrom",
      "outputs": [
        {
          "internalType": "bool",
          "name": "",
          "type": "bool"
        }
      ],
      "stateMutability": "nonpayable",
      "type": "function"
    },
    {
      "inputs": [
        {
          "internalType": "uint256",
          "name": "_length",
          "type": "uint256"
        }
      ],
      "name": "updateAuctionLength",
      "outputs": [],
      "stateMutability": "nonpayable",
      "type": "function"
    },
    {
      "inputs": [
        {
          "internalType": "address",
          "name": "_curator",
          "type": "address"
        }
      ],
      "name": "updateCurator",
      "outputs": [],
      "stateMutability": "nonpayable",
      "type": "function"
    },
    {
      "inputs": [
        {
          "internalType": "uint256",
          "name": "_fee",
          "type": "uint256"
        }
      ],
      "name": "updateFee",
      "outputs": [],
      "stateMutability": "nonpayable",
      "type": "function"
    },
    {
      "inputs": [
        {
          "internalType": "uint256",
          "name": "_new",
          "type": "uint256"
        }
      ],
      "name": "updateUserPrice",
      "outputs": [],
      "stateMutability": "nonpayable",
      "type": "function"
    },
    {
      "inputs": [
        {
          "internalType": "address",
          "name": "",
          "type": "address"
        }
      ],
      "name": "userPrices",
      "outputs": [
        {
          "internalType": "uint256",
          "name": "",
          "type": "uint256"
        }
      ],
      "stateMutability": "view",
      "type": "function"
    },
    {
      "inputs": [],
      "name": "vaultClosed",
      "outputs": [
        {
          "internalType": "bool",
          "name": "",
          "type": "bool"
        }
      ],
      "stateMutability": "view",
      "type": "function"
    },
    {
      "inputs": [],
      "name": "votingTokens",
      "outputs": [
        {
          "internalType": "uint256",
          "name": "",
          "type": "uint256"
        }
      ],
      "stateMutability": "view",
      "type": "function"
    },
    {
      "inputs": [],
      "name": "weth",
      "outputs": [
        {
          "internalType": "address",
          "name": "",
          "type": "address"
        }
      ],
      "stateMutability": "view",
      "type": "function"
    },
    {
      "inputs": [],
      "name": "winning",
      "outputs": [
        {
          "internalType": "address payable",
          "name": "",
          "type": "address"
        }
      ],
      "stateMutability": "view",
      "type": "function"
    }
  ],
  "bytecode": "0x60806040523480156200001157600080fd5b506040516200354e3803806200354e83398101604081905262000034916200049f565b8151829082906200004d90600390602085019062000331565b5080516200006390600490602084019062000331565b5050600c80546001600160a01b03808d166001600160a01b03199283161790925560058054928b1692909116919091179055506006869055620000a78585620005c3565b60095562093a80600855600d80546001600160a01b0319166001600160a01b038a16179055600e83905542600f556011859055600b805460ff60a01b19169055620000f388866200011e565b5050506001600160a01b03909416600090815260126020526040902093909355506200066892505050565b6001600160a01b038216620001505760405162461bcd60e51b8152600401620001479062000568565b60405180910390fd5b6200015e60008383620001f2565b8060026000828254620001729190620005a8565b90915550506001600160a01b03821660009081526020819052604081208054839290620001a1908490620005a8565b90915550506040516001600160a01b038316906000907fddf252ad1be2c89b69c2b068fc378daa952ba7f163c4a11628f55a4df523b3ef90620001e69085906200059f565b60405180910390a35050565b6001600160a01b038316158015906200023757506000600b54600160a01b900460ff1660038111156200023557634e487b7160e01b600052602160045260246000fd5b145b156200032c576001600160a01b03808416600090815260126020526040808220549285168252902054808214620003295780620002b3578260116000828254620002829190620005e5565b909155506200029490508284620005c3565b60096000828254620002a79190620005e5565b90915550620003299050565b81620002f2578260116000828254620002cd9190620005a8565b90915550620002df90508184620005c3565b60096000828254620002a79190620005a8565b620002fe8284620005c3565b6200030a8285620005c3565b600954620003199190620005a8565b620003259190620005e5565b6009555b50505b505050565b8280546200033f90620005ff565b90600052602060002090601f016020900481019282620003635760008555620003ae565b82601f106200037e57805160ff1916838001178555620003ae565b82800160010185558215620003ae579182015b82811115620003ae57825182559160200191906001019062000391565b50620003bc929150620003c0565b5090565b5b80821115620003bc5760008155600101620003c1565b80516001600160a01b0381168114620003ef57600080fd5b919050565b600082601f83011262000405578081fd5b81516001600160401b038082111562000422576200042262000652565b6040516020601f8401601f19168201810183811183821017156200044a576200044a62000652565b604052838252858401810187101562000461578485fd5b8492505b8383101562000484578583018101518284018201529182019162000465565b838311156200049557848185840101525b5095945050505050565b60008060008060008060008060006101208a8c031215620004be578485fd5b620004c98a620003d7565b9850620004d960208b01620003d7565b9750620004e960408b01620003d7565b60608b015160808c015160a08d015160c08e015160e08f0151949b50929950909750955093506001600160401b038082111562000524578384fd5b620005328d838e01620003f4565b93506101008c015191508082111562000549578283fd5b50620005588c828d01620003f4565b9150509295985092959850929598565b6020808252601f908201527f45524332303a206d696e7420746f20746865207a65726f206164647265737300604082015260600190565b90815260200190565b60008219821115620005be57620005be6200063c565b500190565b6000816000190483118215151615620005e057620005e06200063c565b500290565b600082821015620005fa57620005fa6200063c565b500390565b6002810460018216806200061457607f821691505b602082108114156200063657634e487b7160e01b600052602260045260246000fd5b50919050565b634e487b7160e01b600052601160045260246000fd5b634e487b7160e01b600052604160045260246000fd5b612ed680620006786000396000f3fe6080604052600436106102bb5760003560e01c8063853a1b901161016e578063be9a6555116100cb578063ddca3f431161007f578063e66f53b711610064578063e66f53b7146106af578063efbe1c1c146106c4578063fc0c546a146106d9576102bb565b8063ddca3f4314610685578063e06174e41461069a576102bb565b8063d294f093116100b0578063d294f0931461063b578063db2e1eed14610650578063dd62ed3e14610665576102bb565b8063be9a655514610613578063c91de6491461061b576102bb565b8063a457c2d711610122578063adc1b95611610107578063adc1b956146105d4578063af640d0f146105e9578063be040fb0146105fe576102bb565b8063a457c2d714610594578063a9059cbb146105b4576102bb565b806395d89b411161015357806395d89b4114610555578063961be3911461056a5780639a4e6d341461057f576102bb565b8063853a1b90146105205780639012c4a814610535576102bb565b8063313ce5671161021c5780636a775714116101d057806370a08231116101b557806370a08231146104c95780637b5581ed146104e95780637fb45099146104fe576102bb565b80636a775714146104945780636da84e6c146104b4576102bb565b80633950935111610201578063395093511461043d5780633fc8cef31461045d5780635c9920fc1461047f576102bb565b8063313ce56714610406578063325c25a214610428576102bb565b80631998aeef116102735780632a24f46c116102585780632a24f46c146103b15780632a44f120146103c65780632bf33bd9146103e6576102bb565b80631998aeef1461038957806323b872dd14610391576102bb565b80630c6a62dd116102a45780630c6a62dd14610318578063150b7a021461033a57806318160ddd14610367576102bb565b806306fdde03146102c0578063095ea7b3146102eb575b600080fd5b3480156102cc57600080fd5b506102d56106ee565b6040516102e2919061250f565b60405180910390f35b3480156102f757600080fd5b5061030b6103063660046123e3565b610780565b6040516102e291906124af565b34801561032457600080fd5b5061033861033336600461225c565b61079d565b005b34801561034657600080fd5b5061035a610355366004612313565b6107ff565b6040516102e291906124ba565b34801561037357600080fd5b5061037c610828565b6040516102e29190612d9c565b61033861082e565b34801561039d57600080fd5b5061030b6103ac3660046122d3565b610a24565b3480156103bd57600080fd5b5061037c610abb565b3480156103d257600080fd5b506103386103e136600461225c565b610ac1565b3480156103f257600080fd5b5061033861040136600461242e565b610b77565b34801561041257600080fd5b5061041b610ce0565b6040516102e29190612da5565b34801561043457600080fd5b5061037c610ce5565b34801561044957600080fd5b5061030b6104583660046123e3565b610ceb565b34801561046957600080fd5b50610472610d3a565b6040516102e2919061245e565b34801561048b57600080fd5b5061030b610d52565b3480156104a057600080fd5b506103386104af36600461242e565b610d5b565b3480156104c057600080fd5b5061037c611246565b3480156104d557600080fd5b5061037c6104e436600461225c565b61124c565b3480156104f557600080fd5b5061037c611267565b34801561050a57600080fd5b5061051361126d565b6040516102e291906124e7565b34801561052c57600080fd5b5061047261127d565b34801561054157600080fd5b5061033861055036600461242e565b61128c565b34801561056157600080fd5b506102d561136a565b34801561057657600080fd5b50610338611379565b34801561058b57600080fd5b5061037c611462565b3480156105a057600080fd5b5061030b6105af3660046123e3565b611468565b3480156105c057600080fd5b5061030b6105cf3660046123e3565b6114e3565b3480156105e057600080fd5b5061037c6114f7565b3480156105f557600080fd5b5061037c6114fd565b34801561060a57600080fd5b50610338611503565b610338611624565b34801561062757600080fd5b5061037c61063636600461225c565b6117d4565b34801561064757600080fd5b506103386117e6565b34801561065c57600080fd5b5061037c6117f0565b34801561067157600080fd5b5061037c61068036600461229b565b611807565b34801561069157600080fd5b5061037c611832565b3480156106a657600080fd5b50610472611838565b3480156106bb57600080fd5b50610472611847565b3480156106d057600080fd5b50610338611856565b3480156106e557600080fd5b5061047261199b565b6060600380546106fd90612e21565b80601f016020809104026020016040519081016040528092919081815260200182805461072990612e21565b80156107765780601f1061074b57610100808354040283529160200191610776565b820191906000526020600020905b81548152906001019060200180831161075957829003601f168201915b5050505050905090565b600061079461078d6119aa565b84846119ae565b50600192915050565b600d546001600160a01b031633146107d05760405162461bcd60e51b81526004016107c7906128c5565b60405180910390fd5b600d805473ffffffffffffffffffffffffffffffffffffffff19166001600160a01b0392909216919091179055565b7f150b7a0200000000000000000000000000000000000000000000000000000000949350505050565b60025490565b6001600b54600160a01b900460ff16600381111561085c57634e487b7160e01b600052602160045260246000fd5b146108795760405162461bcd60e51b81526004016107c7906126e7565b600c54604080517f7c513c0f00000000000000000000000000000000000000000000000000000000815290516000926001600160a01b031691637c513c0f91600480830192602092919082900301818787803b1580156108d857600080fd5b505af11580156108ec573d6000803e3d6000fd5b505050506040513d601f19601f820116820180604052508101906109109190612446565b61091c906103e8612db3565b90506103e881600a5461092f9190612deb565b6109399190612dcb565b3410156109585760405162461bcd60e51b81526004016107c790612bcf565b60075442106109795760405162461bcd60e51b81526004016107c790612990565b6103844260075461098a9190612e0a565b116109a957610384600760008282546109a39190612db3565b90915550505b600b54600a546109c2916001600160a01b031690611a62565b34600a819055600b805473ffffffffffffffffffffffffffffffffffffffff1916339081179091556040517fe684a55f31b79eca403df938249029212a5925ec6be8012e099b45bc1019e5d292610a199291612472565b60405180910390a150565b6000610a31848484611c3c565b6001600160a01b038416600090815260016020526040812081610a526119aa565b6001600160a01b03166001600160a01b0316815260200190815260200160002054905082811015610a955760405162461bcd60e51b81526004016107c790612933565b610ab085610aa16119aa565b610aab8685612e0a565b6119ae565b506001949350505050565b60075481565b600c60009054906101000a90046001600160a01b03166001600160a01b0316638da5cb5b6040518163ffffffff1660e01b815260040160206040518083038186803b158015610b0f57600080fd5b505afa158015610b23573d6000803e3d6000fd5b505050506040513d601f19601f82011682018060405250810190610b47919061227f565b6001600160a01b0316336001600160a01b0316146107d05760405162461bcd60e51b81526004016107c79061278c565b600d546001600160a01b03163314610ba15760405162461bcd60e51b81526004016107c7906128c5565b600c60009054906101000a90046001600160a01b03166001600160a01b031663a0b335e36040518163ffffffff1660e01b8152600401602060405180830381600087803b158015610bf157600080fd5b505af1158015610c05573d6000803e3d6000fd5b505050506040513d601f19601f82011682018060405250810190610c299190612446565b8110158015610cbf5750600c60009054906101000a90046001600160a01b03166001600160a01b0316630e519ef96040518163ffffffff1660e01b8152600401602060405180830381600087803b158015610c8357600080fd5b505af1158015610c97573d6000803e3d6000fd5b505050506040513d601f19601f82011682018060405250810190610cbb9190612446565b8111155b610cdb5760405162461bcd60e51b81526004016107c7906128fc565b600855565b601290565b60085481565b6000610794610cf86119aa565b848460016000610d066119aa565b6001600160a01b03908116825260208083019390935260409182016000908120918b1681529252902054610aab9190612db3565b73c02aaa39b223fe8d0a0e5c4f27ead9083c756cc281565b60105460ff1681565b6000600b54600160a01b900460ff166003811115610d8957634e487b7160e01b600052602160045260246000fd5b14610da65760405162461bcd60e51b81526004016107c790612c3d565b3360009081526012602052604090205481811415610dd65760405162461bcd60e51b81526004016107c790612c9a565b6000610de13361124c565b905060115460001415610e05576011819055610dfd8382612deb565b600955611232565b60115481148015610e1557508115155b15610e2457610dfd8382612deb565b81611004576000601154600954610e3b9190612dcb565b905060006103e8600c60009054906101000a90046001600160a01b03166001600160a01b03166309990a966040518163ffffffff1660e01b8152600401602060405180830381600087803b158015610e9257600080fd5b505af1158015610ea6573d6000803e3d6000fd5b505050506040513d601f19601f82011682018060405250810190610eca9190612446565b610ed49084612deb565b610ede9190612dcb565b905080851015610f005760405162461bcd60e51b81526004016107c7906125f6565b60006103e8600c60009054906101000a90046001600160a01b03166001600160a01b0316635410bfc96040518163ffffffff1660e01b8152600401602060405180830381600087803b158015610f5557600080fd5b505af1158015610f69573d6000803e3d6000fd5b505050506040513d601f19601f82011682018060405250810190610f8d9190612446565b610f979085612deb565b610fa19190612dcb565b905080861115610fc35760405162461bcd60e51b81526004016107c790612c06565b8360116000828254610fd59190612db3565b90915550610fe590508685612deb565b60096000828254610ff69190612db3565b909155506112329350505050565b8261104757806011600082825461101b9190612e0a565b9091555061102b90508282612deb565b6009600082825461103c9190612e0a565b909155506112329050565b6000816011546110579190612e0a565b6110618385612deb565b60095461106e9190612e0a565b6110789190612dcb565b905060006103e8600c60009054906101000a90046001600160a01b03166001600160a01b03166309990a966040518163ffffffff1660e01b8152600401602060405180830381600087803b1580156110cf57600080fd5b505af11580156110e3573d6000803e3d6000fd5b505050506040513d601f19601f820116820180604052508101906111079190612446565b6111119084612deb565b61111b9190612dcb565b90508085101561113d5760405162461bcd60e51b81526004016107c7906125f6565b60006103e8600c60009054906101000a90046001600160a01b03166001600160a01b0316635410bfc96040518163ffffffff1660e01b8152600401602060405180830381600087803b15801561119257600080fd5b505af11580156111a6573d6000803e3d6000fd5b505050506040513d601f19601f820116820180604052508101906111ca9190612446565b6111d49085612deb565b6111de9190612dcb565b9050808611156112005760405162461bcd60e51b81526004016107c790612c06565b61120a8585612deb565b6112148786612deb565b6009546112219190612db3565b61122b9190612e0a565b6009555050505b505033600090815260126020526040902055565b600a5481565b6001600160a01b031660009081526020819052604090205490565b60095481565b600b54600160a01b900460ff1681565b600b546001600160a01b031681565b600d546001600160a01b031633146112b65760405162461bcd60e51b81526004016107c7906128c5565b600c60009054906101000a90046001600160a01b03166001600160a01b0316638a364bc16040518163ffffffff1660e01b8152600401602060405180830381600087803b15801561130657600080fd5b505af115801561131a573d6000803e3d6000fd5b505050506040513d601f19601f8201168201806040525081019061133e9190612446565b81111561135d5760405162461bcd60e51b81526004016107c7906129c7565b611365611d64565b600e55565b6060600480546106fd90612e21565b6002600b54600160a01b900460ff1660038111156113a757634e487b7160e01b600052602160045260246000fd5b146113c45760405162461bcd60e51b81526004016107c790612d65565b60006113cf3361124c565b9050600081116113f15760405162461bcd60e51b81526004016107c79061271e565b60006113fb610828565b6114054784612deb565b61140f9190612dcb565b905061141b3383611f8d565b6114253382611a62565b7f730831a1e4aa2d187ddd8e03d7beeac760a3927da5f112d645e0f8df7494b3673382604051611456929190612472565b60405180910390a15050565b60115481565b600080600160006114776119aa565b6001600160a01b03908116825260208083019390935260409182016000908120918816815292529020549050828110156114c35760405162461bcd60e51b81526004016107c790612cd1565b6114d96114ce6119aa565b85610aab8685612e0a565b5060019392505050565b60006107946114f06119aa565b8484611c3c565b600f5481565b60065481565b6000600b54600160a01b900460ff16600381111561153157634e487b7160e01b600052602160045260246000fd5b1461154e5760405162461bcd60e51b81526004016107c790612755565b61155f3361155a610828565b611f8d565b600554600654604051632142170760e11b81526001600160a01b03909216916342842e0e91611594913091339160040161248b565b600060405180830381600087803b1580156115ae57600080fd5b505af11580156115c2573d6000803e3d6000fd5b5050600b805460ff60a01b19167403000000000000000000000000000000000000000017905550506040517fd1b5ea7fe0f1c2fa09d49c2aa9b2200664ba57a734f1d95481d95b7f99af991c9061161a90339061245e565b60405180910390a1565b6000600b54600160a01b900460ff16600381111561165257634e487b7160e01b600052602160045260246000fd5b1461166f5760405162461bcd60e51b81526004016107c7906125bf565b6116776117f0565b3410156116965760405162461bcd60e51b81526004016107c790612820565b600c60009054906101000a90046001600160a01b03166001600160a01b03166332977c736040518163ffffffff1660e01b8152600401602060405180830381600087803b1580156116e657600080fd5b505af11580156116fa573d6000803e3d6000fd5b505050506040513d601f19601f8201168201806040525081019061171e9190612446565b611726610828565b601154611735906103e8612deb565b61173f9190612dcb565b101561175d5760405162461bcd60e51b81526004016107c79061288e565b60085461176a9042612db3565b600755600b805434600a81905560ff60a01b19909116600160a01b1773ffffffffffffffffffffffffffffffffffffffff1916339081179092556040517fcfb9c5312b25ec7b809d61e638df25f749eae5d5c25399e1c93d1d319bfd58219261161a929091612472565b60126020526000908152604090205481565b6117ee611d64565b565b60006011546009546118029190612dcb565b905090565b6001600160a01b03918216600090815260016020908152604080832093909416825291909152205490565b600e5481565b600c546001600160a01b031681565b600d546001600160a01b031681565b6001600b54600160a01b900460ff16600381111561188457634e487b7160e01b600052602160045260246000fd5b146118a15760405162461bcd60e51b81526004016107c790612b3b565b6007544210156118c35760405162461bcd60e51b81526004016107c790612857565b6118cb611d64565b600554600b54600654604051632142170760e11b81526001600160a01b03938416936342842e0e93611906933093929091169160040161248b565b600060405180830381600087803b15801561192057600080fd5b505af1158015611934573d6000803e3d6000fd5b5050600b805460ff60a01b1916740200000000000000000000000000000000000000001790819055600a546040517f8b01f9dd0400d6a1e84369a5fb8f6033934856ffa8ebadd707dca302ab551695945061161a93506001600160a01b0390921691612472565b6005546001600160a01b031681565b3390565b6001600160a01b0383166119d45760405162461bcd60e51b81526004016107c790612ade565b6001600160a01b0382166119fa5760405162461bcd60e51b81526004016107c79061268a565b6001600160a01b0380841660008181526001602090815260408083209487168084529490915290819020849055517f8c5be1e5ebec7d5bd14f71427d1e84f3dd0314c0f7b2291e5b200ac8c7c3b92590611a55908590612d9c565b60405180910390a3505050565b611a74826001600160a01b0316612073565b15611c005773c02aaa39b223fe8d0a0e5c4f27ead9083c756cc26001600160a01b031663d0e30db0826040518263ffffffff1660e01b81526004016000604051808303818588803b158015611ac857600080fd5b505af1158015611adc573d6000803e3d6000fd5b50506040517f70a0823100000000000000000000000000000000000000000000000000000000815273c02aaa39b223fe8d0a0e5c4f27ead9083c756cc2935063a9059cbb925085915083906370a0823190611b3b90309060040161245e565b60206040518083038186803b158015611b5357600080fd5b505afa158015611b67573d6000803e3d6000fd5b505050506040513d601f19601f82011682018060405250810190611b8b9190612446565b6040518363ffffffff1660e01b8152600401611ba8929190612472565b602060405180830381600087803b158015611bc257600080fd5b505af1158015611bd6573d6000803e3d6000fd5b505050506040513d601f19601f82011682018060405250810190611bfa919061240e565b50611c38565b6040516001600160a01b0383169082156108fc029083906000818181858888f19350505050158015611c36573d6000803e3d6000fd5b505b5050565b6001600160a01b038316611c625760405162461bcd60e51b81526004016107c790612a81565b6001600160a01b038216611c885760405162461bcd60e51b81526004016107c790612562565b611c93838383612079565b6001600160a01b03831660009081526020819052604090205481811015611ccc5760405162461bcd60e51b81526004016107c7906127c3565b611cd68282612e0a565b6001600160a01b038086166000908152602081905260408082209390935590851681529081208054849290611d0c908490612db3565b92505081905550826001600160a01b0316846001600160a01b03167fddf252ad1be2c89b69c2b068fc378daa952ba7f163c4a11628f55a4df523b3ef84604051611d569190612d9c565b60405180910390a350505050565b6002600b54600160a01b900460ff166003811115611d9257634e487b7160e01b600052602160045260246000fd5b1415611db05760405162461bcd60e51b81526004016107c790612b72565b60006103e8611dbd610828565b600e54611dca9190612deb565b611dd49190612dcb565b90506000611de66301e1338083612dcb565b90506000600f5442611df89190612e0a565b90506000611e068383612deb565b90506000600c60009054906101000a90046001600160a01b03166001600160a01b031663b3f006746040518163ffffffff1660e01b8152600401602060405180830381600087803b158015611e5a57600080fd5b505af1158015611e6e573d6000803e3d6000fd5b505050506040513d601f19601f82011682018060405250810190611e92919061227f565b90506000600c60009054906101000a90046001600160a01b03166001600160a01b0316630ea90a126040518163ffffffff1660e01b8152600401602060405180830381600087803b158015611ee657600080fd5b505af1158015611efa573d6000803e3d6000fd5b505050506040513d601f19601f82011682018060405250810190611f1e9190612446565b90506103e8611f2b610828565b611f359083612deb565b611f3f9190612dcb565b9550611f4f6301e1338087612dcb565b94506000611f5d8686612deb565b42600f55600d54909150611f7a906001600160a01b03168561219c565b611f84838261219c565b50505050505050565b6001600160a01b038216611fb35760405162461bcd60e51b81526004016107c790612a24565b611fbf82600083612079565b6001600160a01b03821660009081526020819052604090205481811015611ff85760405162461bcd60e51b81526004016107c79061262d565b6120028282612e0a565b6001600160a01b03841660009081526020819052604081209190915560028054849290612030908490612e0a565b90915550506040516000906001600160a01b038516907fddf252ad1be2c89b69c2b068fc378daa952ba7f163c4a11628f55a4df523b3ef90611a55908690612d9c565b3b151590565b6001600160a01b038316158015906120bc57506000600b54600160a01b900460ff1660038111156120ba57634e487b7160e01b600052602160045260246000fd5b145b15611c36576001600160a01b03808416600090815260126020526040808220549285168252902054808214612195578061212e5782601160008282546121029190612e0a565b9091555061211290508284612deb565b600960008282546121239190612e0a565b909155506121959050565b816121665782601160008282546121459190612db3565b9091555061215590508184612deb565b600960008282546121239190612db3565b6121708284612deb565b61217a8285612deb565b6009546121879190612db3565b6121919190612e0a565b6009555b5050505050565b6001600160a01b0382166121c25760405162461bcd60e51b81526004016107c790612d2e565b6121ce60008383612079565b80600260008282546121e09190612db3565b90915550506001600160a01b0382166000908152602081905260408120805483929061220d908490612db3565b90915550506040516001600160a01b038316906000907fddf252ad1be2c89b69c2b068fc378daa952ba7f163c4a11628f55a4df523b3ef90612250908590612d9c565b60405180910390a35050565b60006020828403121561226d578081fd5b813561227881612e88565b9392505050565b600060208284031215612290578081fd5b815161227881612e88565b600080604083850312156122ad578081fd5b82356122b881612e88565b915060208301356122c881612e88565b809150509250929050565b6000806000606084860312156122e7578081fd5b83356122f281612e88565b9250602084013561230281612e88565b929592945050506040919091013590565b60008060008060808587031215612328578081fd5b843561233381612e88565b935060208581013561234481612e88565b935060408601359250606086013567ffffffffffffffff80821115612367578384fd5b818801915088601f83011261237a578384fd5b81358181111561238c5761238c612e72565b604051601f8201601f19168101850183811182821017156123af576123af612e72565b60405281815283820185018b10156123c5578586fd5b81858501868301379081019093019390935250939692955090935050565b600080604083850312156123f5578182fd5b823561240081612e88565b946020939093013593505050565b60006020828403121561241f578081fd5b81518015158114612278578182fd5b60006020828403121561243f578081fd5b5035919050565b600060208284031215612457578081fd5b5051919050565b6001600160a01b0391909116815260200190565b6001600160a01b03929092168252602082015260400190565b6001600160a01b039384168152919092166020820152604081019190915260600190565b901515815260200190565b7fffffffff0000000000000000000000000000000000000000000000000000000091909116815260200190565b602081016004831061250957634e487b7160e01b600052602160045260246000fd5b91905290565b6000602080835283518082850152825b8181101561253b5785810183015185820160400152820161251f565b8181111561254c5783604083870101525b50601f01601f1916929092016040019392505050565b60208082526023908201527f45524332303a207472616e7366657220746f20746865207a65726f206164647260408201527f6573730000000000000000000000000000000000000000000000000000000000606082015260800190565b60208082526017908201527f73746172743a6e6f2061756374696f6e20737461727473000000000000000000604082015260600190565b6020808252601c908201527f7570646174653a7265736572766520707269636520746f6f206c6f7700000000604082015260600190565b60208082526022908201527f45524332303a206275726e20616d6f756e7420657863656564732062616c616e60408201527f6365000000000000000000000000000000000000000000000000000000000000606082015260800190565b60208082526022908201527f45524332303a20617070726f766520746f20746865207a65726f20616464726560408201527f7373000000000000000000000000000000000000000000000000000000000000606082015260800190565b60208082526017908201527f6269643a61756374696f6e206973206e6f74206c697665000000000000000000604082015260600190565b6020808252601a908201527f636173683a6e6f20746f6b656e7320746f2063617368206f7574000000000000604082015260600190565b60208082526013908201527f72656465656d3a6e6f2072656465656d696e6700000000000000000000000000604082015260600190565b6020808252600c908201527f6b69636b3a6e6f7420676f760000000000000000000000000000000000000000604082015260600190565b60208082526026908201527f45524332303a207472616e7366657220616d6f756e742065786365656473206260408201527f616c616e63650000000000000000000000000000000000000000000000000000606082015260800190565b60208082526011908201527f73746172743a746f6f206c6f7720626964000000000000000000000000000000604082015260600190565b60208082526010908201527f656e643a61756374696f6e206c69766500000000000000000000000000000000604082015260600190565b60208082526017908201527f73746172743a6e6f7420656e6f75676820766f74657273000000000000000000604082015260600190565b60208082526012908201527f7570646174653a6e6f742063757261746f720000000000000000000000000000604082015260600190565b6020808252601d908201527f7570646174653a696e76616c69642061756374696f6e206c656e677468000000604082015260600190565b60208082526028908201527f45524332303a207472616e7366657220616d6f756e742065786365656473206160408201527f6c6c6f77616e6365000000000000000000000000000000000000000000000000606082015260800190565b60208082526011908201527f6269643a61756374696f6e20656e646564000000000000000000000000000000604082015260600190565b60208082526024908201527f7570646174653a63616e6e6f7420696e6372656173652066656520746869732060408201527f6869676800000000000000000000000000000000000000000000000000000000606082015260800190565b60208082526021908201527f45524332303a206275726e2066726f6d20746865207a65726f2061646472657360408201527f7300000000000000000000000000000000000000000000000000000000000000606082015260800190565b60208082526025908201527f45524332303a207472616e736665722066726f6d20746865207a65726f20616460408201527f6472657373000000000000000000000000000000000000000000000000000000606082015260800190565b60208082526024908201527f45524332303a20617070726f76652066726f6d20746865207a65726f2061646460408201527f7265737300000000000000000000000000000000000000000000000000000000606082015260800190565b6020808252601c908201527f656e643a7661756c742068617320616c726561647920636c6f73656400000000604082015260600190565b60208082526025908201527f636c61696d3a63616e6e6f7420636c61696d2061667465722061756374696f6e60408201527f20656e6473000000000000000000000000000000000000000000000000000000606082015260800190565b6020808252600f908201527f6269643a746f6f206c6f77206269640000000000000000000000000000000000604082015260600190565b6020808252601d908201527f7570646174653a7265736572766520707269636520746f6f2068696768000000604082015260600190565b60208082526027908201527f7570646174653a61756374696f6e206c6976652063616e6e6f7420757064617460408201527f6520707269636500000000000000000000000000000000000000000000000000606082015260800190565b60208082526014908201527f7570646174653a6e6f7420616e20757064617465000000000000000000000000604082015260600190565b60208082526025908201527f45524332303a2064656372656173656420616c6c6f77616e63652062656c6f7760408201527f207a65726f000000000000000000000000000000000000000000000000000000606082015260800190565b6020808252601f908201527f45524332303a206d696e7420746f20746865207a65726f206164647265737300604082015260600190565b60208082526019908201527f636173683a7661756c74206e6f7420636c6f7365642079657400000000000000604082015260600190565b90815260200190565b60ff91909116815260200190565b60008219821115612dc657612dc6612e5c565b500190565b600082612de657634e487b7160e01b81526012600452602481fd5b500490565b6000816000190483118215151615612e0557612e05612e5c565b500290565b600082821015612e1c57612e1c612e5c565b500390565b600281046001821680612e3557607f821691505b60208210811415612e5657634e487b7160e01b600052602260045260246000fd5b50919050565b634e487b7160e01b600052601160045260246000fd5b634e487b7160e01b600052604160045260246000fd5b6001600160a01b0381168114612e9d57600080fd5b5056fea2646970667358221220c23f01015071910026788b8295439f255788462d1a9776ad73dd1da08196866364736f6c63430008000033",
  "linkReferences": {},
  "deployedLinkReferences": {}
}