{
  "_format": "hh-sol-artifact-1",
  "contractName": "ReentrancyMock",
  "sourceName": "contracts/OpenZeppelin/mocks/ReentrancyMock.sol",
  "abi": [
    {
      "inputs": [],
      "stateMutability": "nonpayable",
      "type": "constructor"
    },
    {
      "inputs": [],
      "name": "callback",
      "outputs": [],
      "stateMutability": "nonpayable",
      "type": "function"
    },
    {
      "inputs": [
        {
          "internalType": "contract ReentrancyAttack",
          "name": "attacker",
          "type": "address"
        }
      ],
      "name": "countAndCall",
      "outputs": [],
      "stateMutability": "nonpayable",
      "type": "function"
    },
    {
      "inputs": [
        {
          "internalType": "uint256",
          "name": "n",
          "type": "uint256"
        }
      ],
      "name": "countLocalRecursive",
      "outputs": [],
      "stateMutability": "nonpayable",
      "type": "function"
    },
    {
      "inputs": [
        {
          "internalType": "uint256",
          "name": "n",
          "type": "uint256"
        }
      ],
      "name": "countThisRecursive",
      "outputs": [],
      "stateMutability": "nonpayable",
      "type": "function"
    },
    {
      "inputs": [],
      "name": "counter",
      "outputs": [
        {
          "internalType": "uint256",
          "name": "",
          "type": "uint256"
        }
      ],
      "stateMutability": "view",
      "type": "function"
    }
  ],
  "bytecode": "0x608060405234801561001057600080fd5b50600160008181559055610537806100296000396000f3fe608060405234801561001057600080fd5b50600436106100675760003560e01c80638c5344fa116100505780638c5344fa1461009457806396ffa690146100a7578063b672ad8b146100ba57610067565b8063083b27321461006c57806361bc221a14610076575b600080fd5b6100746100cd565b005b61007e61010d565b60405161008b919061049a565b60405180910390f35b6100746100a23660046103ae565b610113565b6100746100b53660046103ae565b610237565b6100746100c8366004610373565b61027b565b600260005414156100f95760405162461bcd60e51b81526004016100f090610463565b60405180910390fd5b600260005561010661035a565b6001600055565b60015481565b600260005414156101365760405162461bcd60e51b81526004016100f090610463565b6002600055801561022f5761014961035a565b6000306101576001846104bb565b604051602401610167919061049a565b60408051601f198184030181529181526020820180517bffffffffffffffffffffffffffffffffffffffffffffffffffffffff167f8c5344fa00000000000000000000000000000000000000000000000000000000179052516101ca91906103c6565b6000604051808303816000865af19150503d8060008114610207576040519150601f19603f3d011682016040523d82523d6000602084013e61020c565b606091505b505090508061022d5760405162461bcd60e51b81526004016100f09061042c565b505b506001600055565b6002600054141561025a5760405162461bcd60e51b81526004016100f090610463565b6002600055801561022f5761026d61035a565b61022f6100b56001836104bb565b6002600054141561029e5760405162461bcd60e51b81526004016100f090610463565b60026000556102ab61035a565b6040517f0a2df1ed0000000000000000000000000000000000000000000000000000000081527f083b2732f78169bfaad6b407fa338cc97d697ed69d3915a18239cc111d51a4029073ffffffffffffffffffffffffffffffffffffffff831690630a2df1ed9061031f9084906004016103ff565b600060405180830381600087803b15801561033957600080fd5b505af115801561034d573d6000803e3d6000fd5b5050600160005550505050565b600180600082825461036c91906104a3565b9091555050565b600060208284031215610384578081fd5b813573ffffffffffffffffffffffffffffffffffffffff811681146103a7578182fd5b9392505050565b6000602082840312156103bf578081fd5b5035919050565b60008251815b818110156103e657602081860181015185830152016103cc565b818111156103f45782828501525b509190910192915050565b7fffffffff0000000000000000000000000000000000000000000000000000000091909116815260200190565b6020808252601b908201527f5265656e7472616e63794d6f636b3a206661696c65642063616c6c0000000000604082015260600190565b6020808252601f908201527f5265656e7472616e637947756172643a207265656e7472616e742063616c6c00604082015260600190565b90815260200190565b600082198211156104b6576104b66104d2565b500190565b6000828210156104cd576104cd6104d2565b500390565b7f4e487b7100000000000000000000000000000000000000000000000000000000600052601160045260246000fdfea264697066735822122011265593146cbf30c5be98c39a205945d19490075a832bfabaa69dbaff0b58ec64736f6c63430008000033",
  "linkReferences": {},
  "deployedLinkReferences": {}
}