{
  "_format": "hh-sol-artifact-1",
  "contractName": "ERC721Mock",
  "sourceName": "contracts/OpenZeppelin/mocks/ERC721Mock.sol",
  "abi": [
    {
      "inputs": [
        {
          "internalType": "string",
          "name": "name",
          "type": "string"
        },
        {
          "internalType": "string",
          "name": "symbol",
          "type": "string"
        }
      ],
      "stateMutability": "nonpayable",
      "type": "constructor"
    },
    {
      "anonymous": false,
      "inputs": [
        {
          "indexed": true,
          "internalType": "address",
          "name": "owner",
          "type": "address"
        },
        {
          "indexed": true,
          "internalType": "address",
          "name": "approved",
          "type": "address"
        },
        {
          "indexed": true,
          "internalType": "uint256",
          "name": "tokenId",
          "type": "uint256"
        }
      ],
      "name": "Approval",
      "type": "event"
    },
    {
      "anonymous": false,
      "inputs": [
        {
          "indexed": true,
          "internalType": "address",
          "name": "owner",
          "type": "address"
        },
        {
          "indexed": true,
          "internalType": "address",
          "name": "operator",
          "type": "address"
        },
        {
          "indexed": false,
          "internalType": "bool",
          "name": "approved",
          "type": "bool"
        }
      ],
      "name": "ApprovalForAll",
      "type": "event"
    },
    {
      "anonymous": false,
      "inputs": [
        {
          "indexed": true,
          "internalType": "address",
          "name": "from",
          "type": "address"
        },
        {
          "indexed": true,
          "internalType": "address",
          "name": "to",
          "type": "address"
        },
        {
          "indexed": true,
          "internalType": "uint256",
          "name": "tokenId",
          "type": "uint256"
        }
      ],
      "name": "Transfer",
      "type": "event"
    },
    {
      "inputs": [
        {
          "internalType": "address",
          "name": "to",
          "type": "address"
        },
        {
          "internalType": "uint256",
          "name": "tokenId",
          "type": "uint256"
        }
      ],
      "name": "approve",
      "outputs": [],
      "stateMutability": "nonpayable",
      "type": "function"
    },
    {
      "inputs": [
        {
          "internalType": "address",
          "name": "owner",
          "type": "address"
        }
      ],
      "name": "balanceOf",
      "outputs": [
        {
          "internalType": "uint256",
          "name": "",
          "type": "uint256"
        }
      ],
      "stateMutability": "view",
      "type": "function"
    },
    {
      "inputs": [],
      "name": "baseURI",
      "outputs": [
        {
          "internalType": "string",
          "name": "",
          "type": "string"
        }
      ],
      "stateMutability": "view",
      "type": "function"
    },
    {
      "inputs": [
        {
          "internalType": "uint256",
          "name": "tokenId",
          "type": "uint256"
        }
      ],
      "name": "burn",
      "outputs": [],
      "stateMutability": "nonpayable",
      "type": "function"
    },
    {
      "inputs": [
        {
          "internalType": "uint256",
          "name": "tokenId",
          "type": "uint256"
        }
      ],
      "name": "exists",
      "outputs": [
        {
          "internalType": "bool",
          "name": "",
          "type": "bool"
        }
      ],
      "stateMutability": "view",
      "type": "function"
    },
    {
      "inputs": [
        {
          "internalType": "uint256",
          "name": "tokenId",
          "type": "uint256"
        }
      ],
      "name": "getApproved",
      "outputs": [
        {
          "internalType": "address",
          "name": "",
          "type": "address"
        }
      ],
      "stateMutability": "view",
      "type": "function"
    },
    {
      "inputs": [
        {
          "internalType": "address",
          "name": "owner",
          "type": "address"
        },
        {
          "internalType": "address",
          "name": "operator",
          "type": "address"
        }
      ],
      "name": "isApprovedForAll",
      "outputs": [
        {
          "internalType": "bool",
          "name": "",
          "type": "bool"
        }
      ],
      "stateMutability": "view",
      "type": "function"
    },
    {
      "inputs": [
        {
          "internalType": "address",
          "name": "to",
          "type": "address"
        },
        {
          "internalType": "uint256",
          "name": "tokenId",
          "type": "uint256"
        }
      ],
      "name": "mint",
      "outputs": [],
      "stateMutability": "nonpayable",
      "type": "function"
    },
    {
      "inputs": [],
      "name": "name",
      "outputs": [
        {
          "internalType": "string",
          "name": "",
          "type": "string"
        }
      ],
      "stateMutability": "view",
      "type": "function"
    },
    {
      "inputs": [
        {
          "internalType": "uint256",
          "name": "tokenId",
          "type": "uint256"
        }
      ],
      "name": "ownerOf",
      "outputs": [
        {
          "internalType": "address",
          "name": "",
          "type": "address"
        }
      ],
      "stateMutability": "view",
      "type": "function"
    },
    {
      "inputs": [
        {
          "internalType": "address",
          "name": "to",
          "type": "address"
        },
        {
          "internalType": "uint256",
          "name": "tokenId",
          "type": "uint256"
        },
        {
          "internalType": "bytes",
          "name": "_data",
          "type": "bytes"
        }
      ],
      "name": "safeMint",
      "outputs": [],
      "stateMutability": "nonpayable",
      "type": "function"
    },
    {
      "inputs": [
        {
          "internalType": "address",
          "name": "to",
          "type": "address"
        },
        {
          "internalType": "uint256",
          "name": "tokenId",
          "type": "uint256"
        }
      ],
      "name": "safeMint",
      "outputs": [],
      "stateMutability": "nonpayable",
      "type": "function"
    },
    {
      "inputs": [
        {
          "internalType": "address",
          "name": "from",
          "type": "address"
        },
        {
          "internalType": "address",
          "name": "to",
          "type": "address"
        },
        {
          "internalType": "uint256",
          "name": "tokenId",
          "type": "uint256"
        }
      ],
      "name": "safeTransferFrom",
      "outputs": [],
      "stateMutability": "nonpayable",
      "type": "function"
    },
    {
      "inputs": [
        {
          "internalType": "address",
          "name": "from",
          "type": "address"
        },
        {
          "internalType": "address",
          "name": "to",
          "type": "address"
        },
        {
          "internalType": "uint256",
          "name": "tokenId",
          "type": "uint256"
        },
        {
          "internalType": "bytes",
          "name": "_data",
          "type": "bytes"
        }
      ],
      "name": "safeTransferFrom",
      "outputs": [],
      "stateMutability": "nonpayable",
      "type": "function"
    },
    {
      "inputs": [
        {
          "internalType": "address",
          "name": "operator",
          "type": "address"
        },
        {
          "internalType": "bool",
          "name": "approved",
          "type": "bool"
        }
      ],
      "name": "setApprovalForAll",
      "outputs": [],
      "stateMutability": "nonpayable",
      "type": "function"
    },
    {
      "inputs": [
        {
          "internalType": "string",
          "name": "baseURI",
          "type": "string"
        }
      ],
      "name": "setBaseURI",
      "outputs": [],
      "stateMutability": "nonpayable",
      "type": "function"
    },
    {
      "inputs": [
        {
          "internalType": "uint256",
          "name": "tokenId",
          "type": "uint256"
        },
        {
          "internalType": "string",
          "name": "uri",
          "type": "string"
        }
      ],
      "name": "setTokenURI",
      "outputs": [],
      "stateMutability": "nonpayable",
      "type": "function"
    },
    {
      "inputs": [
        {
          "internalType": "bytes4",
          "name": "interfaceId",
          "type": "bytes4"
        }
      ],
      "name": "supportsInterface",
      "outputs": [
        {
          "internalType": "bool",
          "name": "",
          "type": "bool"
        }
      ],
      "stateMutability": "view",
      "type": "function"
    },
    {
      "inputs": [],
      "name": "symbol",
      "outputs": [
        {
          "internalType": "string",
          "name": "",
          "type": "string"
        }
      ],
      "stateMutability": "view",
      "type": "function"
    },
    {
      "inputs": [
        {
          "internalType": "uint256",
          "name": "index",
          "type": "uint256"
        }
      ],
      "name": "tokenByIndex",
      "outputs": [
        {
          "internalType": "uint256",
          "name": "",
          "type": "uint256"
        }
      ],
      "stateMutability": "view",
      "type": "function"
    },
    {
      "inputs": [
        {
          "internalType": "address",
          "name": "owner",
          "type": "address"
        },
        {
          "internalType": "uint256",
          "name": "index",
          "type": "uint256"
        }
      ],
      "name": "tokenOfOwnerByIndex",
      "outputs": [
        {
          "internalType": "uint256",
          "name": "",
          "type": "uint256"
        }
      ],
      "stateMutability": "view",
      "type": "function"
    },
    {
      "inputs": [
        {
          "internalType": "uint256",
          "name": "tokenId",
          "type": "uint256"
        }
      ],
      "name": "tokenURI",
      "outputs": [
        {
          "internalType": "string",
          "name": "",
          "type": "string"
        }
      ],
      "stateMutability": "view",
      "type": "function"
    },
    {
      "inputs": [],
      "name": "totalSupply",
      "outputs": [
        {
          "internalType": "uint256",
          "name": "",
          "type": "uint256"
        }
      ],
      "stateMutability": "view",
      "type": "function"
    },
    {
      "inputs": [
        {
          "internalType": "address",
          "name": "from",
          "type": "address"
        },
        {
          "internalType": "address",
          "name": "to",
          "type": "address"
        },
        {
          "internalType": "uint256",
          "name": "tokenId",
          "type": "uint256"
        }
      ],
      "name": "transferFrom",
      "outputs": [],
      "stateMutability": "nonpayable",
      "type": "function"
    }
  ],
  "bytecode": "0x60806040523480156200001157600080fd5b506040516200242b3803806200242b833981016040819052620000349162000260565b8181620000486301ffc9a760e01b620000b4565b81516200005d9060069060208501906200010f565b508051620000739060079060208401906200010f565b50620000866380ac58cd60e01b620000b4565b62000098635b5e139f60e01b620000b4565b620000aa63780e9d6360e01b620000b4565b5050505062000351565b6001600160e01b03198082161415620000ea5760405162461bcd60e51b8152600401620000e190620002c7565b60405180910390fd5b6001600160e01b0319166000908152602081905260409020805460ff19166001179055565b8280546200011d90620002fe565b90600052602060002090601f0160209004810192826200014157600085556200018c565b82601f106200015c57805160ff19168380011785556200018c565b828001600101855582156200018c579182015b828111156200018c5782518255916020019190600101906200016f565b506200019a9291506200019e565b5090565b5b808211156200019a57600081556001016200019f565b600082601f830112620001c6578081fd5b81516001600160401b0380821115620001e357620001e36200033b565b6040516020601f8401601f19168201810183811183821017156200020b576200020b6200033b565b604052838252858401810187101562000222578485fd5b8492505b8383101562000245578583018101518284018201529182019162000226565b838311156200025657848185840101525b5095945050505050565b6000806040838503121562000273578182fd5b82516001600160401b03808211156200028a578384fd5b6200029886838701620001b5565b93506020850151915080821115620002ae578283fd5b50620002bd85828601620001b5565b9150509250929050565b6020808252601c908201527f4552433136353a20696e76616c696420696e7465726661636520696400000000604082015260600190565b6002810460018216806200031357607f821691505b602082108114156200033557634e487b7160e01b600052602260045260246000fd5b50919050565b634e487b7160e01b600052604160045260246000fd5b6120ca80620003616000396000f3fe608060405234801561001057600080fd5b50600436106101985760003560e01c80634f6ccce7116100e357806395d89b411161008c578063b88d4fde11610066578063b88d4fde1461033f578063c87b56dd14610352578063e985e9c51461036557610198565b806395d89b4114610311578063a144819414610319578063a22cb4651461032c57610198565b80636c0360eb116100bd5780636c0360eb146102e357806370a08231146102eb5780638832e6e3146102fe57610198565b80634f6ccce7146102aa57806355f804b3146102bd5780636352211e146102d057610198565b806323b872dd1161014557806342842e0e1161011f57806342842e0e1461027157806342966c68146102845780634f558e791461029757610198565b806323b872dd146102385780632f745c591461024b57806340c10f191461025e57610198565b8063095ea7b311610176578063095ea7b3146101fb578063162094c41461021057806318160ddd1461022357610198565b806301ffc9a71461019d57806306fdde03146101c6578063081812fc146101db575b600080fd5b6101b06101ab366004611895565b610378565b6040516101bd9190611a08565b60405180910390f35b6101ce6103b3565b6040516101bd9190611a13565b6101ee6101e9366004611900565b610445565b6040516101bd91906119b8565b61020e610209366004611817565b610491565b005b61020e61021e366004611918565b610529565b61022b610537565b6040516101bd9190611f19565b61020e61024636600461173c565b610548565b61022b610259366004611817565b610580565b61020e61026c366004611817565b6105ab565b61020e61027f36600461173c565b6105b5565b61020e610292366004611900565b6105d0565b6101b06102a5366004611900565b6105dc565b61022b6102b8366004611900565b6105e7565b61020e6102cb3660046118cd565b6105fd565b6101ee6102de366004611900565b610606565b6101ce61062e565b61022b6102f93660046116f0565b61063d565b61020e61030c366004611840565b610686565b6101ce610691565b61020e610327366004611817565b6106a0565b61020e61033a3660046117dd565b6106aa565b61020e61034d366004611777565b610778565b6101ce610360366004611900565b6107b7565b6101b061037336600461170a565b6108fa565b7fffffffff00000000000000000000000000000000000000000000000000000000811660009081526020819052604090205460ff165b919050565b6060600680546103c290611f91565b80601f01602080910402602001604051908101604052809291908181526020018280546103ee90611f91565b801561043b5780601f106104105761010080835404028352916020019161043b565b820191906000526020600020905b81548152906001019060200180831161041e57829003601f168201915b5050505050905090565b600061045082610928565b6104755760405162461bcd60e51b815260040161046c90611d0d565b60405180910390fd5b506000908152600460205260409020546001600160a01b031690565b600061049c82610606565b9050806001600160a01b0316836001600160a01b031614156104d05760405162461bcd60e51b815260040161046c90611e5f565b806001600160a01b03166104e2610935565b6001600160a01b031614806104fe57506104fe81610373610935565b61051a5760405162461bcd60e51b815260040161046c90611bdc565b6105248383610939565b505050565b61053382826109bf565b5050565b60006105436002610a03565b905090565b610559610553610935565b82610a0e565b6105755760405162461bcd60e51b815260040161046c90611ebc565b610524838383610a93565b6001600160a01b03821660009081526001602052604081206105a29083610ba1565b90505b92915050565b6105338282610bad565b61052483838360405180602001604052806000815250610778565b6105d981610c71565b50565b60006105a582610928565b6000806105f5600284610d37565b509392505050565b6105d981610d53565b60006105a58260405180606001604052806029815260200161206c6029913960029190610d66565b6060600980546103c290611f91565b60006001600160a01b0382166106655760405162461bcd60e51b815260040161046c90611c39565b6001600160a01b03821660009081526001602052604090206105a590610a03565b610524838383610d7d565b6060600780546103c290611f91565b6105338282610db0565b6106b2610935565b6001600160a01b0316826001600160a01b031614156106e35760405162461bcd60e51b815260040161046c90611b59565b80600560006106f0610935565b6001600160a01b03908116825260208083019390935260409182016000908120918716808252919093529120805460ff191692151592909217909155610734610935565b6001600160a01b03167f17307eab39ab6107e8899845ad3d59bd9653f200f220920489ca2b5937696c318360405161076c9190611a08565b60405180910390a35050565b610789610783610935565b83610a0e565b6107a55760405162461bcd60e51b815260040161046c90611ebc565b6107b184848484610dca565b50505050565b60606107c282610928565b6107de5760405162461bcd60e51b815260040161046c90611e02565b600082815260086020526040812080546107f790611f91565b80601f016020809104026020016040519081016040528092919081815260200182805461082390611f91565b80156108705780601f1061084557610100808354040283529160200191610870565b820191906000526020600020905b81548152906001019060200180831161085357829003601f168201915b50505050509050600061088161062e565b9050805160001415610895575090506103ae565b8151156108c75780826040516020016108af929190611989565b604051602081830303815290604052925050506103ae565b806108d185610dfd565b6040516020016108e2929190611989565b60405160208183030381529060405292505050919050565b6001600160a01b03918216600090815260056020908152604080832093909416825291909152205460ff1690565b60006105a5600283610f4c565b3390565b600081815260046020526040902080547fffffffffffffffffffffffff0000000000000000000000000000000000000000166001600160a01b038416908117909155819061098682610606565b6001600160a01b03167f8c5be1e5ebec7d5bd14f71427d1e84f3dd0314c0f7b2291e5b200ac8c7c3b92560405160405180910390a45050565b6109c882610928565b6109e45760405162461bcd60e51b815260040161046c90611d59565b6000828152600860209081526040909120825161052492840190611587565b60006105a582610f58565b6000610a1982610928565b610a355760405162461bcd60e51b815260040161046c90611b90565b6000610a4083610606565b9050806001600160a01b0316846001600160a01b03161480610a7b5750836001600160a01b0316610a7084610445565b6001600160a01b0316145b80610a8b5750610a8b81856108fa565b949350505050565b826001600160a01b0316610aa682610606565b6001600160a01b031614610acc5760405162461bcd60e51b815260040161046c90611da5565b6001600160a01b038216610af25760405162461bcd60e51b815260040161046c90611afc565b610afd838383610524565b610b08600082610939565b6001600160a01b0383166000908152600160205260409020610b2a9082610f5c565b506001600160a01b0382166000908152600160205260409020610b4d9082610f68565b50610b5a60028284610f74565b5080826001600160a01b0316846001600160a01b03167fddf252ad1be2c89b69c2b068fc378daa952ba7f163c4a11628f55a4df523b3ef60405160405180910390a4505050565b60006105a28383610f8a565b6001600160a01b038216610bd35760405162461bcd60e51b815260040161046c90611cd8565b610bdc81610928565b15610bf95760405162461bcd60e51b815260040161046c90611ac5565b610c0560008383610524565b6001600160a01b0382166000908152600160205260409020610c279082610f68565b50610c3460028284610f74565b5060405181906001600160a01b038416906000907fddf252ad1be2c89b69c2b068fc378daa952ba7f163c4a11628f55a4df523b3ef908290a45050565b6000610c7c82610606565b9050610c8a81600084610524565b610c95600083610939565b60008281526008602052604090208054610cae90611f91565b159050610ccc576000828152600860205260408120610ccc9161160b565b6001600160a01b0381166000908152600160205260409020610cee9083610f5c565b50610cfa600283610fe3565b5060405182906000906001600160a01b038416907fddf252ad1be2c89b69c2b068fc378daa952ba7f163c4a11628f55a4df523b3ef908390a45050565b6000808080610d468686610fef565b9097909650945050505050565b8051610533906009906020840190611587565b6000610d7384848461105f565b90505b9392505050565b610d878383610bad565b610d9460008484846110d6565b6105245760405162461bcd60e51b815260040161046c90611a68565b610533828260405180602001604052806000815250610d7d565b610dd5848484610a93565b610de1848484846110d6565b6107b15760405162461bcd60e51b815260040161046c90611a68565b606081610e3e575060408051808201909152600181527f300000000000000000000000000000000000000000000000000000000000000060208201526103ae565b8160005b8115610e685780610e5281611fcc565b9150610e619050600a83611f3a565b9150610e42565b60008167ffffffffffffffff811115610e9157634e487b7160e01b600052604160045260246000fd5b6040519080825280601f01601f191660200182016040528015610ebb576020820181803683370190505b5090505b8415610a8b57610ed0600183611f4e565b9150610edd600a86611fe7565b610ee8906030611f22565b60f81b818381518110610f0b57634e487b7160e01b600052603260045260246000fd5b60200101907effffffffffffffffffffffffffffffffffffffffffffffffffffffffffffff1916908160001a905350610f45600a86611f3a565b9450610ebf565b60006105a28383611222565b5490565b60006105a2838361123a565b60006105a28383611357565b6000610d7384846001600160a01b0385166113a1565b81546000908210610fad5760405162461bcd60e51b815260040161046c90611a26565b826000018281548110610fd057634e487b7160e01b600052603260045260246000fd5b9060005260206000200154905092915050565b60006105a28383611450565b8154600090819083106110145760405162461bcd60e51b815260040161046c90611c96565b600084600001848154811061103957634e487b7160e01b600052603260045260246000fd5b906000526020600020906002020190508060000154816001015492509250509250929050565b6000828152600184016020526040812054828161108f5760405162461bcd60e51b815260040161046c9190611a13565b508461109c600183611f4e565b815481106110ba57634e487b7160e01b600052603260045260246000fd5b9060005260206000209060020201600101549150509392505050565b60006110ea846001600160a01b0316611581565b1561121757836001600160a01b031663150b7a02611106610935565b8786866040518563ffffffff1660e01b815260040161112894939291906119cc565b602060405180830381600087803b15801561114257600080fd5b505af1925050508015611172575060408051601f3d908101601f1916820190925261116f918101906118b1565b60015b6111cc573d8080156111a0576040519150601f19603f3d011682016040523d82523d6000602084013e6111a5565b606091505b5080516111c45760405162461bcd60e51b815260040161046c90611a68565b805181602001fd5b7fffffffff00000000000000000000000000000000000000000000000000000000167f150b7a0200000000000000000000000000000000000000000000000000000000149050610a8b565b506001949350505050565b60009081526001919091016020526040902054151590565b6000818152600183016020526040812054801561134d57600061125e600183611f4e565b855490915060009061127290600190611f4e565b9050600086600001828154811061129957634e487b7160e01b600052603260045260246000fd5b90600052602060002001549050808760000184815481106112ca57634e487b7160e01b600052603260045260246000fd5b6000918252602090912001556112e1836001611f22565b6000828152600189016020526040902055865487908061131157634e487b7160e01b600052603160045260246000fd5b600190038181906000526020600020016000905590558660010160008781526020019081526020016000206000905560019450505050506105a5565b60009150506105a5565b60006113638383611222565b611399575081546001818101845560008481526020808220909301849055845484825282860190935260409020919091556105a5565b5060006105a5565b600082815260018401602052604081205480611406575050604080518082018252838152602080820184815286546001818101895560008981528481209551600290930290950191825591519082015586548684528188019092529290912055610d76565b8285611413600184611f4e565b8154811061143157634e487b7160e01b600052603260045260246000fd5b9060005260206000209060020201600101819055506000915050610d76565b6000818152600183016020526040812054801561134d576000611474600183611f4e565b855490915060009061148890600190611f4e565b905060008660000182815481106114af57634e487b7160e01b600052603260045260246000fd5b90600052602060002090600202019050808760000184815481106114e357634e487b7160e01b600052603260045260246000fd5b6000918252602090912082546002909202019081556001918201549082015561150d908490611f22565b81546000908152600189016020526040902055865487908061153f57634e487b7160e01b600052603160045260246000fd5b60008281526020808220600260001990940193840201828155600190810183905592909355888152898201909252604082209190915594506105a59350505050565b3b151590565b82805461159390611f91565b90600052602060002090601f0160209004810192826115b557600085556115fb565b82601f106115ce57805160ff19168380011785556115fb565b828001600101855582156115fb579182015b828111156115fb5782518255916020019190600101906115e0565b50611607929150611643565b5090565b50805461161790611f91565b6000825580601f1061162957506105d9565b601f0160209004906000526020600020908101906105d991905b5b808211156116075760008155600101611644565b80356001600160a01b03811681146103ae57600080fd5b600082601f83011261167f578081fd5b813567ffffffffffffffff8082111561169a5761169a612027565b604051601f8301601f1916810160200182811182821017156116be576116be612027565b6040528281528483016020018610156116d5578384fd5b82602086016020830137918201602001929092529392505050565b600060208284031215611701578081fd5b6105a282611658565b6000806040838503121561171c578081fd5b61172583611658565b915061173360208401611658565b90509250929050565b600080600060608486031215611750578081fd5b61175984611658565b925061176760208501611658565b9150604084013590509250925092565b6000806000806080858703121561178c578081fd5b61179585611658565b93506117a360208601611658565b925060408501359150606085013567ffffffffffffffff8111156117c5578182fd5b6117d18782880161166f565b91505092959194509250565b600080604083850312156117ef578182fd5b6117f883611658565b91506020830135801515811461180c578182fd5b809150509250929050565b60008060408385031215611829578182fd5b61183283611658565b946020939093013593505050565b600080600060608486031215611854578283fd5b61185d84611658565b925060208401359150604084013567ffffffffffffffff81111561187f578182fd5b61188b8682870161166f565b9150509250925092565b6000602082840312156118a6578081fd5b8135610d768161203d565b6000602082840312156118c2578081fd5b8151610d768161203d565b6000602082840312156118de578081fd5b813567ffffffffffffffff8111156118f4578182fd5b610a8b8482850161166f565b600060208284031215611911578081fd5b5035919050565b6000806040838503121561192a578182fd5b82359150602083013567ffffffffffffffff811115611947578182fd5b6119538582860161166f565b9150509250929050565b60008151808452611975816020860160208601611f65565b601f01601f19169290920160200192915050565b6000835161199b818460208801611f65565b8351908301906119af818360208801611f65565b01949350505050565b6001600160a01b0391909116815260200190565b60006001600160a01b038087168352808616602084015250836040830152608060608301526119fe608083018461195d565b9695505050505050565b901515815260200190565b6000602082526105a2602083018461195d565b60208082526022908201527f456e756d657261626c655365743a20696e646578206f7574206f6620626f756e604082015261647360f01b606082015260800190565b60208082526032908201527f4552433732313a207472616e7366657220746f206e6f6e20455243373231526560408201527f63656976657220696d706c656d656e7465720000000000000000000000000000606082015260800190565b6020808252601c908201527f4552433732313a20746f6b656e20616c7265616479206d696e74656400000000604082015260600190565b60208082526024908201527f4552433732313a207472616e7366657220746f20746865207a65726f2061646460408201527f7265737300000000000000000000000000000000000000000000000000000000606082015260800190565b60208082526019908201527f4552433732313a20617070726f766520746f2063616c6c657200000000000000604082015260600190565b6020808252602c908201527f4552433732313a206f70657261746f7220717565727920666f72206e6f6e657860408201526b34b9ba32b73a103a37b5b2b760a11b606082015260800190565b60208082526038908201527f4552433732313a20617070726f76652063616c6c6572206973206e6f74206f7760408201527f6e6572206e6f7220617070726f76656420666f7220616c6c0000000000000000606082015260800190565b6020808252602a908201527f4552433732313a2062616c616e636520717565727920666f7220746865207a6560408201527f726f206164647265737300000000000000000000000000000000000000000000606082015260800190565b60208082526022908201527f456e756d657261626c654d61703a20696e646578206f7574206f6620626f756e604082015261647360f01b606082015260800190565b6020808252818101527f4552433732313a206d696e7420746f20746865207a65726f2061646472657373604082015260600190565b6020808252602c908201527f4552433732313a20617070726f76656420717565727920666f72206e6f6e657860408201526b34b9ba32b73a103a37b5b2b760a11b606082015260800190565b6020808252602c908201527f4552433732314d657461646174613a2055524920736574206f66206e6f6e657860408201526b34b9ba32b73a103a37b5b2b760a11b606082015260800190565b60208082526029908201527f4552433732313a207472616e73666572206f6620746f6b656e2074686174206960408201527f73206e6f74206f776e0000000000000000000000000000000000000000000000606082015260800190565b6020808252602f908201527f4552433732314d657461646174613a2055524920717565727920666f72206e6f60408201527f6e6578697374656e7420746f6b656e0000000000000000000000000000000000606082015260800190565b60208082526021908201527f4552433732313a20617070726f76616c20746f2063757272656e74206f776e6560408201527f7200000000000000000000000000000000000000000000000000000000000000606082015260800190565b60208082526031908201527f4552433732313a207472616e736665722063616c6c6572206973206e6f74206f60408201527f776e6572206e6f7220617070726f766564000000000000000000000000000000606082015260800190565b90815260200190565b60008219821115611f3557611f35611ffb565b500190565b600082611f4957611f49612011565b500490565b600082821015611f6057611f60611ffb565b500390565b60005b83811015611f80578181015183820152602001611f68565b838111156107b15750506000910152565b600281046001821680611fa557607f821691505b60208210811415611fc657634e487b7160e01b600052602260045260246000fd5b50919050565b6000600019821415611fe057611fe0611ffb565b5060010190565b600082611ff657611ff6612011565b500690565b634e487b7160e01b600052601160045260246000fd5b634e487b7160e01b600052601260045260246000fd5b634e487b7160e01b600052604160045260246000fd5b7fffffffff00000000000000000000000000000000000000000000000000000000811681146105d957600080fdfe4552433732313a206f776e657220717565727920666f72206e6f6e6578697374656e7420746f6b656ea2646970667358221220b84cd478dab4e05c15a72a1d2c69e3e3cf9a1b50b94394cc21cd8a13e565c50164736f6c63430008000033",
  "linkReferences": {},
  "deployedLinkReferences": {}
}