{
  "_format": "hh-sol-artifact-1",
  "contractName": "ArraysImpl",
  "sourceName": "contracts/OpenZeppelin/mocks/ArraysImpl.sol",
  "abi": [
    {
      "inputs": [
        {
          "internalType": "uint256[]",
          "name": "array",
          "type": "uint256[]"
        }
      ],
      "stateMutability": "nonpayable",
      "type": "constructor"
    },
    {
      "inputs": [
        {
          "internalType": "uint256",
          "name": "element",
          "type": "uint256"
        }
      ],
      "name": "findUpperBound",
      "outputs": [
        {
          "internalType": "uint256",
          "name": "",
          "type": "uint256"
        }
      ],
      "stateMutability": "view",
      "type": "function"
    }
  ],
  "bytecode": "0x608060405234801561001057600080fd5b5060405161040938038061040983398101604081905261002f916100a9565b8051610042906000906020840190610049565b5050610178565b828054828255906000526020600020908101928215610084579160200282015b82811115610084578251825591602001919060010190610069565b50610090929150610094565b5090565b5b808211156100905760008155600101610095565b600060208083850312156100bb578182fd5b82516001600160401b03808211156100d1578384fd5b818501915085601f8301126100e4578384fd5b8151818111156100f6576100f6610162565b8381026040518582820101818110858211171561011557610115610162565b604052828152858101935084860182860187018a1015610133578788fd5b8795505b83861015610155578051855260019590950194938601938601610137565b5098975050505050505050565b634e487b7160e01b600052604160045260246000fd5b610282806101876000396000f3fe608060405234801561001057600080fd5b506004361061002b5760003560e01c806333e3a58a14610030575b600080fd5b61004361003e3660046101a8565b610059565b60405161005091906101c0565b60405180910390f35b6000610065818361006b565b92915050565b815460009061007c57506000610065565b82546000905b808210156100e6576000610096838361014a565b9050848682815481106100b957634e487b7160e01b600052603260045260246000fd5b906000526020600020015411156100d2578091506100e0565b6100dd8160016101c9565b92505b50610082565b600082118015610129575083856100fe6001856101f5565b8154811061011c57634e487b7160e01b600052603260045260246000fd5b9060005260206000200154145b15610142576101396001836101f5565b92505050610065565b509392505050565b60006002610158818461020c565b61016360028661020c565b61016d91906101c9565b61017791906101e1565b6101826002846101e1565b61018d6002866101e1565b61019791906101c9565b6101a191906101c9565b9392505050565b6000602082840312156101b9578081fd5b5035919050565b90815260200190565b600082198211156101dc576101dc610220565b500190565b6000826101f0576101f0610236565b500490565b60008282101561020757610207610220565b500390565b60008261021b5761021b610236565b500690565b634e487b7160e01b600052601160045260246000fd5b634e487b7160e01b600052601260045260246000fdfea2646970667358221220cfca68a79d44a024f5d09c9215e395f8e7317f32c9cea979c8fe0deb6eba70cc64736f6c63430008000033",
  "linkReferences": {},
  "deployedLinkReferences": {}
}