{
  "_format": "hh-sol-artifact-1",
  "contractName": "IndexERC721",
  "sourceName": "contracts/IndexERC721.sol",
  "abi": [
    {
      "inputs": [
        {
          "internalType": "string",
          "name": "name",
          "type": "string"
        },
        {
          "internalType": "string",
          "name": "symbol",
          "type": "string"
        }
      ],
      "stateMutability": "nonpayable",
      "type": "constructor"
    },
    {
      "anonymous": false,
      "inputs": [
        {
          "indexed": true,
          "internalType": "address",
          "name": "owner",
          "type": "address"
        },
        {
          "indexed": true,
          "internalType": "address",
          "name": "approved",
          "type": "address"
        },
        {
          "indexed": true,
          "internalType": "uint256",
          "name": "tokenId",
          "type": "uint256"
        }
      ],
      "name": "Approval",
      "type": "event"
    },
    {
      "anonymous": false,
      "inputs": [
        {
          "indexed": true,
          "internalType": "address",
          "name": "owner",
          "type": "address"
        },
        {
          "indexed": true,
          "internalType": "address",
          "name": "operator",
          "type": "address"
        },
        {
          "indexed": false,
          "internalType": "bool",
          "name": "approved",
          "type": "bool"
        }
      ],
      "name": "ApprovalForAll",
      "type": "event"
    },
    {
      "anonymous": false,
      "inputs": [
        {
          "indexed": false,
          "internalType": "address",
          "name": "token",
          "type": "address"
        },
        {
          "indexed": false,
          "internalType": "uint256",
          "name": "tokenId",
          "type": "uint256"
        },
        {
          "indexed": false,
          "internalType": "address",
          "name": "from",
          "type": "address"
        }
      ],
      "name": "Deposit",
      "type": "event"
    },
    {
      "anonymous": false,
      "inputs": [
        {
          "indexed": true,
          "internalType": "address",
          "name": "from",
          "type": "address"
        },
        {
          "indexed": true,
          "internalType": "address",
          "name": "to",
          "type": "address"
        },
        {
          "indexed": true,
          "internalType": "uint256",
          "name": "tokenId",
          "type": "uint256"
        }
      ],
      "name": "Transfer",
      "type": "event"
    },
    {
      "anonymous": false,
      "inputs": [
        {
          "indexed": false,
          "internalType": "address",
          "name": "token",
          "type": "address"
        },
        {
          "indexed": false,
          "internalType": "uint256",
          "name": "tokenId",
          "type": "uint256"
        },
        {
          "indexed": false,
          "internalType": "address",
          "name": "to",
          "type": "address"
        }
      ],
      "name": "Withdraw",
      "type": "event"
    },
    {
      "anonymous": false,
      "inputs": [
        {
          "indexed": false,
          "internalType": "address",
          "name": "token",
          "type": "address"
        },
        {
          "indexed": false,
          "internalType": "address",
          "name": "who",
          "type": "address"
        }
      ],
      "name": "WithdrawERC20",
      "type": "event"
    },
    {
      "anonymous": false,
      "inputs": [
        {
          "indexed": false,
          "internalType": "address",
          "name": "who",
          "type": "address"
        }
      ],
      "name": "WithdrawETH",
      "type": "event"
    },
    {
      "inputs": [
        {
          "internalType": "address",
          "name": "to",
          "type": "address"
        },
        {
          "internalType": "uint256",
          "name": "tokenId",
          "type": "uint256"
        }
      ],
      "name": "approve",
      "outputs": [],
      "stateMutability": "nonpayable",
      "type": "function"
    },
    {
      "inputs": [
        {
          "internalType": "address",
          "name": "owner",
          "type": "address"
        }
      ],
      "name": "balanceOf",
      "outputs": [
        {
          "internalType": "uint256",
          "name": "",
          "type": "uint256"
        }
      ],
      "stateMutability": "view",
      "type": "function"
    },
    {
      "inputs": [],
      "name": "baseURI",
      "outputs": [
        {
          "internalType": "string",
          "name": "",
          "type": "string"
        }
      ],
      "stateMutability": "view",
      "type": "function"
    },
    {
      "inputs": [
        {
          "internalType": "address",
          "name": "_token",
          "type": "address"
        },
        {
          "internalType": "uint256",
          "name": "_tokenId",
          "type": "uint256"
        }
      ],
      "name": "depositERC721",
      "outputs": [],
      "stateMutability": "nonpayable",
      "type": "function"
    },
    {
      "inputs": [
        {
          "internalType": "uint256",
          "name": "tokenId",
          "type": "uint256"
        }
      ],
      "name": "getApproved",
      "outputs": [
        {
          "internalType": "address",
          "name": "",
          "type": "address"
        }
      ],
      "stateMutability": "view",
      "type": "function"
    },
    {
      "inputs": [
        {
          "internalType": "address",
          "name": "owner",
          "type": "address"
        },
        {
          "internalType": "address",
          "name": "operator",
          "type": "address"
        }
      ],
      "name": "isApprovedForAll",
      "outputs": [
        {
          "internalType": "bool",
          "name": "",
          "type": "bool"
        }
      ],
      "stateMutability": "view",
      "type": "function"
    },
    {
      "inputs": [],
      "name": "name",
      "outputs": [
        {
          "internalType": "string",
          "name": "",
          "type": "string"
        }
      ],
      "stateMutability": "view",
      "type": "function"
    },
    {
      "inputs": [
        {
          "internalType": "address",
          "name": "",
          "type": "address"
        },
        {
          "internalType": "address",
          "name": "",
          "type": "address"
        },
        {
          "internalType": "uint256",
          "name": "",
          "type": "uint256"
        },
        {
          "internalType": "bytes",
          "name": "",
          "type": "bytes"
        }
      ],
      "name": "onERC721Received",
      "outputs": [
        {
          "internalType": "bytes4",
          "name": "",
          "type": "bytes4"
        }
      ],
      "stateMutability": "nonpayable",
      "type": "function"
    },
    {
      "inputs": [
        {
          "internalType": "uint256",
          "name": "tokenId",
          "type": "uint256"
        }
      ],
      "name": "ownerOf",
      "outputs": [
        {
          "internalType": "address",
          "name": "",
          "type": "address"
        }
      ],
      "stateMutability": "view",
      "type": "function"
    },
    {
      "inputs": [
        {
          "internalType": "address",
          "name": "from",
          "type": "address"
        },
        {
          "internalType": "address",
          "name": "to",
          "type": "address"
        },
        {
          "internalType": "uint256",
          "name": "tokenId",
          "type": "uint256"
        }
      ],
      "name": "safeTransferFrom",
      "outputs": [],
      "stateMutability": "nonpayable",
      "type": "function"
    },
    {
      "inputs": [
        {
          "internalType": "address",
          "name": "from",
          "type": "address"
        },
        {
          "internalType": "address",
          "name": "to",
          "type": "address"
        },
        {
          "internalType": "uint256",
          "name": "tokenId",
          "type": "uint256"
        },
        {
          "internalType": "bytes",
          "name": "_data",
          "type": "bytes"
        }
      ],
      "name": "safeTransferFrom",
      "outputs": [],
      "stateMutability": "nonpayable",
      "type": "function"
    },
    {
      "inputs": [
        {
          "internalType": "address",
          "name": "operator",
          "type": "address"
        },
        {
          "internalType": "bool",
          "name": "approved",
          "type": "bool"
        }
      ],
      "name": "setApprovalForAll",
      "outputs": [],
      "stateMutability": "nonpayable",
      "type": "function"
    },
    {
      "inputs": [
        {
          "internalType": "bytes4",
          "name": "interfaceId",
          "type": "bytes4"
        }
      ],
      "name": "supportsInterface",
      "outputs": [
        {
          "internalType": "bool",
          "name": "",
          "type": "bool"
        }
      ],
      "stateMutability": "view",
      "type": "function"
    },
    {
      "inputs": [],
      "name": "symbol",
      "outputs": [
        {
          "internalType": "string",
          "name": "",
          "type": "string"
        }
      ],
      "stateMutability": "view",
      "type": "function"
    },
    {
      "inputs": [
        {
          "internalType": "uint256",
          "name": "index",
          "type": "uint256"
        }
      ],
      "name": "tokenByIndex",
      "outputs": [
        {
          "internalType": "uint256",
          "name": "",
          "type": "uint256"
        }
      ],
      "stateMutability": "view",
      "type": "function"
    },
    {
      "inputs": [
        {
          "internalType": "address",
          "name": "owner",
          "type": "address"
        },
        {
          "internalType": "uint256",
          "name": "index",
          "type": "uint256"
        }
      ],
      "name": "tokenOfOwnerByIndex",
      "outputs": [
        {
          "internalType": "uint256",
          "name": "",
          "type": "uint256"
        }
      ],
      "stateMutability": "view",
      "type": "function"
    },
    {
      "inputs": [
        {
          "internalType": "uint256",
          "name": "tokenId",
          "type": "uint256"
        }
      ],
      "name": "tokenURI",
      "outputs": [
        {
          "internalType": "string",
          "name": "",
          "type": "string"
        }
      ],
      "stateMutability": "view",
      "type": "function"
    },
    {
      "inputs": [],
      "name": "totalSupply",
      "outputs": [
        {
          "internalType": "uint256",
          "name": "",
          "type": "uint256"
        }
      ],
      "stateMutability": "view",
      "type": "function"
    },
    {
      "inputs": [
        {
          "internalType": "address",
          "name": "from",
          "type": "address"
        },
        {
          "internalType": "address",
          "name": "to",
          "type": "address"
        },
        {
          "internalType": "uint256",
          "name": "tokenId",
          "type": "uint256"
        }
      ],
      "name": "transferFrom",
      "outputs": [],
      "stateMutability": "nonpayable",
      "type": "function"
    },
    {
      "inputs": [
        {
          "internalType": "address",
          "name": "_token",
          "type": "address"
        }
      ],
      "name": "withdrawERC20",
      "outputs": [],
      "stateMutability": "nonpayable",
      "type": "function"
    },
    {
      "inputs": [
        {
          "internalType": "address",
          "name": "_token",
          "type": "address"
        },
        {
          "internalType": "uint256",
          "name": "_tokenId",
          "type": "uint256"
        }
      ],
      "name": "withdrawERC721",
      "outputs": [],
      "stateMutability": "nonpayable",
      "type": "function"
    },
    {
      "inputs": [],
      "name": "withdrawETH",
      "outputs": [],
      "stateMutability": "nonpayable",
      "type": "function"
    },
    {
      "stateMutability": "payable",
      "type": "receive"
    }
  ],
  "bytecode": "0x60806040523480156200001157600080fd5b50604051620025ff380380620025ff8339810160408190526200003491620004e3565b8181620000486301ffc9a760e01b620000c2565b81516200005d90600690602085019062000392565b5080516200007390600790602084019062000392565b50620000866380ac58cd60e01b620000c2565b62000098635b5e139f60e01b620000c2565b620000aa63780e9d6360e01b620000c2565b50620000ba90503360006200011d565b505062000664565b6001600160e01b03198082161415620000f85760405162461bcd60e51b8152600401620000ef906200054a565b60405180910390fd5b6001600160e01b0319166000908152602081905260409020805460ff19166001179055565b6001600160a01b038216620001465760405162461bcd60e51b8152600401620000ef90620005b8565b62000151816200020b565b15620001715760405162461bcd60e51b8152600401620000ef9062000581565b6200017f600083836200022e565b6001600160a01b0382166000908152600160209081526040909120620001b091839062000d1262000233821b17901c565b50620001ce818360026200024860201b62000d1e179092919060201c565b5060405181906001600160a01b038416906000907fddf252ad1be2c89b69c2b068fc378daa952ba7f163c4a11628f55a4df523b3ef908290a45050565b6000620002288260026200026860201b62000d3e1790919060201c565b92915050565b505050565b600062000241838362000276565b9392505050565b60006200026084846001600160a01b038516620002c5565b949350505050565b60006200024183836200037a565b60006200028483836200037a565b620002bc5750815460018181018455600084815260208082209093018490558454848252828601909352604090209190915562000228565b50600062000228565b6000828152600184016020526040812054806200032c57505060408051808201825283815260208082018481528654600181810189556000898152848120955160029093029095019182559151908201558654868452818801909252929091205562000241565b82856200033b600184620005ed565b815481106200035a57634e487b7160e01b600052603260045260246000fd5b906000526020600020906002020160010181905550600091505062000241565b60009081526001919091016020526040902054151590565b828054620003a09062000611565b90600052602060002090601f016020900481019282620003c457600085556200040f565b82601f10620003df57805160ff19168380011785556200040f565b828001600101855582156200040f579182015b828111156200040f578251825591602001919060010190620003f2565b506200041d92915062000421565b5090565b5b808211156200041d576000815560010162000422565b600082601f83011262000449578081fd5b81516001600160401b03808211156200046657620004666200064e565b6040516020601f8401601f19168201810183811183821017156200048e576200048e6200064e565b6040528382528584018101871015620004a5578485fd5b8492505b83831015620004c85785830181015182840182015291820191620004a9565b83831115620004d957848185840101525b5095945050505050565b60008060408385031215620004f6578182fd5b82516001600160401b03808211156200050d578384fd5b6200051b8683870162000438565b9350602085015191508082111562000531578283fd5b50620005408582860162000438565b9150509250929050565b6020808252601c908201527f4552433136353a20696e76616c696420696e7465726661636520696400000000604082015260600190565b6020808252601c908201527f4552433732313a20746f6b656e20616c7265616479206d696e74656400000000604082015260600190565b6020808252818101527f4552433732313a206d696e7420746f20746865207a65726f2061646472657373604082015260600190565b6000828210156200060c57634e487b7160e01b81526011600452602481fd5b500390565b6002810460018216806200062657607f821691505b602082108114156200064857634e487b7160e01b600052602260045260246000fd5b50919050565b634e487b7160e01b600052604160045260246000fd5b611f8b80620006746000396000f3fe6080604052600436106101795760003560e01c80636c0360eb116100cb578063c87b56dd1161007f578063e985e9c511610059578063e985e9c5146103fa578063f3e414f81461041a578063f4f3b2001461043a57610180565b8063c87b56dd146103a5578063d29a4bf6146103c5578063e086e5ec146103e557610180565b806395d89b41116100b057806395d89b4114610350578063a22cb46514610365578063b88d4fde1461038557610180565b80636c0360eb1461031b57806370a082311461033057610180565b806318160ddd1161012d57806342842e0e1161010757806342842e0e146102bb5780634f6ccce7146102db5780636352211e146102fb57610180565b806318160ddd1461025957806323b872dd1461027b5780632f745c591461029b57610180565b8063081812fc1161015e578063081812fc146101dd578063095ea7b31461020a578063150b7a021461022c57610180565b806301ffc9a71461018557806306fdde03146101bb57610180565b3661018057005b600080fd5b34801561019157600080fd5b506101a56101a03660046117af565b61045a565b6040516101b2919061193c565b60405180910390f35b3480156101c757600080fd5b506101d061047d565b6040516101b2919061195c565b3480156101e957600080fd5b506101fd6101f83660046117e7565b61050f565b6040516101b29190611872565b34801561021657600080fd5b5061022a61022536600461176a565b61055b565b005b34801561023857600080fd5b5061024c610247366004611668565b6105f3565b6040516101b29190611947565b34801561026557600080fd5b5061026e610604565b6040516101b29190611de1565b34801561028757600080fd5b5061022a61029636600461162d565b610615565b3480156102a757600080fd5b5061026e6102b636600461176a565b61064d565b3480156102c757600080fd5b5061022a6102d636600461162d565b610678565b3480156102e757600080fd5b5061026e6102f63660046117e7565b610693565b34801561030757600080fd5b506101fd6103163660046117e7565b6106a9565b34801561032757600080fd5b506101d06106d1565b34801561033c57600080fd5b5061026e61034b3660046115e1565b6106e0565b34801561035c57600080fd5b506101d0610729565b34801561037157600080fd5b5061022a610380366004611734565b610738565b34801561039157600080fd5b5061022a6103a0366004611668565b610806565b3480156103b157600080fd5b506101d06103c03660046117e7565b610845565b3480156103d157600080fd5b5061022a6103e036600461176a565b610988565b3480156103f157600080fd5b5061022a610a29565b34801561040657600080fd5b506101a56104153660046115fb565b610ab6565b34801561042657600080fd5b5061022a61043536600461176a565b610ae4565b34801561044657600080fd5b5061022a6104553660046115e1565b610ba0565b6001600160e01b0319811660009081526020819052604090205460ff165b919050565b60606006805461048c90611e59565b80601f01602080910402602001604051908101604052809291908181526020018280546104b890611e59565b80156105055780601f106104da57610100808354040283529160200191610505565b820191906000526020600020905b8154815290600101906020018083116104e857829003601f168201915b5050505050905090565b600061051a82610d4a565b61053f5760405162461bcd60e51b815260040161053690611bea565b60405180910390fd5b506000908152600460205260409020546001600160a01b031690565b6000610566826106a9565b9050806001600160a01b0316836001600160a01b0316141561059a5760405162461bcd60e51b815260040161053690611cf0565b806001600160a01b03166105ac610d57565b6001600160a01b031614806105c857506105c881610415610d57565b6105e45760405162461bcd60e51b815260040161053690611aee565b6105ee8383610d5b565b505050565b630a85bd0160e11b5b949350505050565b60006106106002610de1565b905090565b610626610620610d57565b82610dec565b6106425760405162461bcd60e51b815260040161053690611d4d565b6105ee838383610e69565b6001600160a01b038216600090815260016020526040812061066f9083610f77565b90505b92915050565b6105ee83838360405180602001604052806000815250610806565b6000806106a1600284610f83565b509392505050565b600061067282604051806060016040528060298152602001611f2d6029913960029190610f9f565b60606009805461048c90611e59565b60006001600160a01b0382166107085760405162461bcd60e51b815260040161053690611b4b565b6001600160a01b038216600090815260016020526040902061067290610de1565b60606007805461048c90611e59565b610740610d57565b6001600160a01b0316826001600160a01b031614156107715760405162461bcd60e51b815260040161053690611a6b565b806005600061077e610d57565b6001600160a01b03908116825260208083019390935260409182016000908120918716808252919093529120805460ff1916921515929092179091556107c2610d57565b6001600160a01b03167f17307eab39ab6107e8899845ad3d59bd9653f200f220920489ca2b5937696c31836040516107fa919061193c565b60405180910390a35050565b610817610811610d57565b83610dec565b6108335760405162461bcd60e51b815260040161053690611d4d565b61083f84848484610fac565b50505050565b606061085082610d4a565b61086c5760405162461bcd60e51b815260040161053690611c93565b6000828152600860205260408120805461088590611e59565b80601f01602080910402602001604051908101604052809291908181526020018280546108b190611e59565b80156108fe5780601f106108d3576101008083540402835291602001916108fe565b820191906000526020600020905b8154815290600101906020018083116108e157829003601f168201915b50505050509050600061090f6106d1565b905080516000141561092357509050610478565b81511561095557808260405160200161093d929190611843565b60405160208183030381529060405292505050610478565b8061095f85610fdf565b604051602001610970929190611843565b60405160208183030381529060405292505050919050565b604051632142170760e11b81526001600160a01b038316906342842e0e906109b8903390309086906004016118a0565b600060405180830381600087803b1580156109d257600080fd5b505af11580156109e6573d6000803e3d6000fd5b505050507fe31c7b8d08ee7db0afa68782e1028ef92305caeea8626633ad44d413e30f6b2f828233604051610a1d93929190611919565b60405180910390a15050565b610a34336000610dec565b610a505760405162461bcd60e51b815260040161053690611daa565b60405133904780156108fc02916000818181858888f19350505050158015610a7c573d6000803e3d6000fd5b507ff6c62f95390a4a6ee24f778d79a6ce6e34dd01136e291fb3b7ff0fc1919540a233604051610aac9190611872565b60405180910390a1565b6001600160a01b03918216600090815260056020908152604080832093909416825291909152205460ff1690565b610aef336000610dec565b610b0b5760405162461bcd60e51b815260040161053690611daa565b604051632142170760e11b81526001600160a01b038316906342842e0e90610b3b903090339086906004016118a0565b600060405180830381600087803b158015610b5557600080fd5b505af1158015610b69573d6000803e3d6000fd5b505050507f56c54ba9bd38d8fd62012e42c7ee564519b09763c426d331b3661b537ead19b2828233604051610a1d93929190611919565b610bab336000610dec565b610bc75760405162461bcd60e51b815260040161053690611daa565b6040517f70a082310000000000000000000000000000000000000000000000000000000081526001600160a01b0382169063a9059cbb90339083906370a0823190610c16903090600401611872565b60206040518083038186803b158015610c2e57600080fd5b505afa158015610c42573d6000803e3d6000fd5b505050506040513d601f19601f82011682018060405250810190610c6691906117ff565b6040518363ffffffff1660e01b8152600401610c83929190611900565b602060405180830381600087803b158015610c9d57600080fd5b505af1158015610cb1573d6000803e3d6000fd5b505050506040513d601f19601f82011682018060405250810190610cd59190611793565b507fa44616ec07d22ce15ebd7a567b7c16dd91a89f056f5e14f8ef7a6aa40a89b9b28133604051610d07929190611886565b60405180910390a150565b600061066f838361112e565b6000610d3484846001600160a01b038516611178565b90505b9392505050565b600061066f8383611227565b6000610672600283610d3e565b3390565b600081815260046020526040902080547fffffffffffffffffffffffff0000000000000000000000000000000000000000166001600160a01b0384169081179091558190610da8826106a9565b6001600160a01b03167f8c5be1e5ebec7d5bd14f71427d1e84f3dd0314c0f7b2291e5b200ac8c7c3b92560405160405180910390a45050565b60006106728261123f565b6000610df782610d4a565b610e135760405162461bcd60e51b815260040161053690611aa2565b6000610e1e836106a9565b9050806001600160a01b0316846001600160a01b03161480610e595750836001600160a01b0316610e4e8461050f565b6001600160a01b0316145b806105fc57506105fc8185610ab6565b826001600160a01b0316610e7c826106a9565b6001600160a01b031614610ea25760405162461bcd60e51b815260040161053690611c36565b6001600160a01b038216610ec85760405162461bcd60e51b815260040161053690611a0e565b610ed38383836105ee565b610ede600082610d5b565b6001600160a01b0383166000908152600160205260409020610f009082611243565b506001600160a01b0382166000908152600160205260409020610f239082610d12565b50610f3060028284610d1e565b5080826001600160a01b0316846001600160a01b03167fddf252ad1be2c89b69c2b068fc378daa952ba7f163c4a11628f55a4df523b3ef60405160405180910390a4505050565b600061066f838361124f565b6000808080610f9286866112a8565b9097909650945050505050565b6000610d34848484611318565b610fb7848484610e69565b610fc38484848461138f565b61083f5760405162461bcd60e51b8152600401610536906119b1565b606081611020575060408051808201909152600181527f30000000000000000000000000000000000000000000000000000000000000006020820152610478565b8160005b811561104a578061103481611e94565b91506110439050600a83611e02565b9150611024565b60008167ffffffffffffffff81111561107357634e487b7160e01b600052604160045260246000fd5b6040519080825280601f01601f19166020018201604052801561109d576020820181803683370190505b5090505b84156105fc576110b2600183611e16565b91506110bf600a86611eaf565b6110ca906030611dea565b60f81b8183815181106110ed57634e487b7160e01b600052603260045260246000fd5b60200101907effffffffffffffffffffffffffffffffffffffffffffffffffffffffffffff1916908160001a905350611127600a86611e02565b94506110a1565b600061113a8383611227565b61117057508154600181810184556000848152602080822090930184905584548482528286019093526040902091909155610672565b506000610672565b6000828152600184016020526040812054806111dd575050604080518082018252838152602080820184815286546001818101895560008981528481209551600290930290950191825591519082015586548684528188019092529290912055610d37565b82856111ea600184611e16565b8154811061120857634e487b7160e01b600052603260045260246000fd5b9060005260206000209060020201600101819055506000915050610d37565b60009081526001919091016020526040902054151590565b5490565b600061066f83836114a7565b815460009082106112725760405162461bcd60e51b81526004016105369061196f565b82600001828154811061129557634e487b7160e01b600052603260045260246000fd5b9060005260206000200154905092915050565b8154600090819083106112cd5760405162461bcd60e51b815260040161053690611ba8565b60008460000184815481106112f257634e487b7160e01b600052603260045260246000fd5b906000526020600020906002020190508060000154816001015492509250509250929050565b600082815260018401602052604081205482816113485760405162461bcd60e51b8152600401610536919061195c565b5084611355600183611e16565b8154811061137357634e487b7160e01b600052603260045260246000fd5b9060005260206000209060020201600101549150509392505050565b60006113a3846001600160a01b03166115c4565b1561149f57836001600160a01b031663150b7a026113bf610d57565b8786866040518563ffffffff1660e01b81526004016113e194939291906118c4565b602060405180830381600087803b1580156113fb57600080fd5b505af192505050801561142b575060408051601f3d908101601f19168201909252611428918101906117cb565b60015b611485573d808015611459576040519150601f19603f3d011682016040523d82523d6000602084013e61145e565b606091505b50805161147d5760405162461bcd60e51b8152600401610536906119b1565b805181602001fd5b6001600160e01b031916630a85bd0160e11b1490506105fc565b5060016105fc565b600081815260018301602052604081205480156115ba5760006114cb600183611e16565b85549091506000906114df90600190611e16565b9050600086600001828154811061150657634e487b7160e01b600052603260045260246000fd5b906000526020600020015490508087600001848154811061153757634e487b7160e01b600052603260045260246000fd5b60009182526020909120015561154e836001611dea565b6000828152600189016020526040902055865487908061157e57634e487b7160e01b600052603160045260246000fd5b60019003818190600052602060002001600090559055866001016000878152602001908152602001600020600090556001945050505050610672565b6000915050610672565b3b151590565b80356001600160a01b038116811461047857600080fd5b6000602082840312156115f2578081fd5b61066f826115ca565b6000806040838503121561160d578081fd5b611616836115ca565b9150611624602084016115ca565b90509250929050565b600080600060608486031215611641578081fd5b61164a846115ca565b9250611658602085016115ca565b9150604084013590509250925092565b6000806000806080858703121561167d578081fd5b611686856115ca565b935060206116958187016115ca565b935060408601359250606086013567ffffffffffffffff808211156116b8578384fd5b818801915088601f8301126116cb578384fd5b8135818111156116dd576116dd611eef565b604051601f8201601f191681018501838111828210171561170057611700611eef565b60405281815283820185018b1015611716578586fd5b81858501868301379081019093019390935250939692955090935050565b60008060408385031215611746578182fd5b61174f836115ca565b9150602083013561175f81611f05565b809150509250929050565b6000806040838503121561177c578182fd5b611785836115ca565b946020939093013593505050565b6000602082840312156117a4578081fd5b8151610d3781611f05565b6000602082840312156117c0578081fd5b8135610d3781611f16565b6000602082840312156117dc578081fd5b8151610d3781611f16565b6000602082840312156117f8578081fd5b5035919050565b600060208284031215611810578081fd5b5051919050565b6000815180845261182f816020860160208601611e2d565b601f01601f19169290920160200192915050565b60008351611855818460208801611e2d565b835190830190611869818360208801611e2d565b01949350505050565b6001600160a01b0391909116815260200190565b6001600160a01b0392831681529116602082015260400190565b6001600160a01b039384168152919092166020820152604081019190915260600190565b60006001600160a01b038087168352808616602084015250836040830152608060608301526118f66080830184611817565b9695505050505050565b6001600160a01b03929092168252602082015260400190565b6001600160a01b0393841681526020810192909252909116604082015260600190565b901515815260200190565b6001600160e01b031991909116815260200190565b60006020825261066f6020830184611817565b60208082526022908201527f456e756d657261626c655365743a20696e646578206f7574206f6620626f756e604082015261647360f01b606082015260800190565b60208082526032908201527f4552433732313a207472616e7366657220746f206e6f6e20455243373231526560408201527f63656976657220696d706c656d656e7465720000000000000000000000000000606082015260800190565b60208082526024908201527f4552433732313a207472616e7366657220746f20746865207a65726f2061646460408201527f7265737300000000000000000000000000000000000000000000000000000000606082015260800190565b60208082526019908201527f4552433732313a20617070726f766520746f2063616c6c657200000000000000604082015260600190565b6020808252602c908201527f4552433732313a206f70657261746f7220717565727920666f72206e6f6e657860408201526b34b9ba32b73a103a37b5b2b760a11b606082015260800190565b60208082526038908201527f4552433732313a20617070726f76652063616c6c6572206973206e6f74206f7760408201527f6e6572206e6f7220617070726f76656420666f7220616c6c0000000000000000606082015260800190565b6020808252602a908201527f4552433732313a2062616c616e636520717565727920666f7220746865207a6560408201527f726f206164647265737300000000000000000000000000000000000000000000606082015260800190565b60208082526022908201527f456e756d657261626c654d61703a20696e646578206f7574206f6620626f756e604082015261647360f01b606082015260800190565b6020808252602c908201527f4552433732313a20617070726f76656420717565727920666f72206e6f6e657860408201526b34b9ba32b73a103a37b5b2b760a11b606082015260800190565b60208082526029908201527f4552433732313a207472616e73666572206f6620746f6b656e2074686174206960408201527f73206e6f74206f776e0000000000000000000000000000000000000000000000606082015260800190565b6020808252602f908201527f4552433732314d657461646174613a2055524920717565727920666f72206e6f60408201527f6e6578697374656e7420746f6b656e0000000000000000000000000000000000606082015260800190565b60208082526021908201527f4552433732313a20617070726f76616c20746f2063757272656e74206f776e6560408201527f7200000000000000000000000000000000000000000000000000000000000000606082015260800190565b60208082526031908201527f4552433732313a207472616e736665722063616c6c6572206973206e6f74206f60408201527f776e6572206e6f7220617070726f766564000000000000000000000000000000606082015260800190565b60208082526014908201527f77697468647261773a6e6f7420616c6c6f776564000000000000000000000000604082015260600190565b90815260200190565b60008219821115611dfd57611dfd611ec3565b500190565b600082611e1157611e11611ed9565b500490565b600082821015611e2857611e28611ec3565b500390565b60005b83811015611e48578181015183820152602001611e30565b8381111561083f5750506000910152565b600281046001821680611e6d57607f821691505b60208210811415611e8e57634e487b7160e01b600052602260045260246000fd5b50919050565b6000600019821415611ea857611ea8611ec3565b5060010190565b600082611ebe57611ebe611ed9565b500690565b634e487b7160e01b600052601160045260246000fd5b634e487b7160e01b600052601260045260246000fd5b634e487b7160e01b600052604160045260246000fd5b8015158114611f1357600080fd5b50565b6001600160e01b031981168114611f1357600080fdfe4552433732313a206f776e657220717565727920666f72206e6f6e6578697374656e7420746f6b656ea2646970667358221220b54cca98017e4320556857f3c446efd0daf6c086428b96809e69721425ca689a64736f6c63430008000033",
  "linkReferences": {},
  "deployedLinkReferences": {}
}