{
  "_format": "hh-sol-artifact-1",
  "contractName": "ERC20PausableMock",
  "sourceName": "contracts/OpenZeppelin/mocks/ERC20PausableMock.sol",
  "abi": [
    {
      "inputs": [
        {
          "internalType": "string",
          "name": "name",
          "type": "string"
        },
        {
          "internalType": "string",
          "name": "symbol",
          "type": "string"
        },
        {
          "internalType": "address",
          "name": "initialAccount",
          "type": "address"
        },
        {
          "internalType": "uint256",
          "name": "initialBalance",
          "type": "uint256"
        }
      ],
      "stateMutability": "nonpayable",
      "type": "constructor"
    },
    {
      "anonymous": false,
      "inputs": [
        {
          "indexed": true,
          "internalType": "address",
          "name": "owner",
          "type": "address"
        },
        {
          "indexed": true,
          "internalType": "address",
          "name": "spender",
          "type": "address"
        },
        {
          "indexed": false,
          "internalType": "uint256",
          "name": "value",
          "type": "uint256"
        }
      ],
      "name": "Approval",
      "type": "event"
    },
    {
      "anonymous": false,
      "inputs": [
        {
          "indexed": false,
          "internalType": "address",
          "name": "account",
          "type": "address"
        }
      ],
      "name": "Paused",
      "type": "event"
    },
    {
      "anonymous": false,
      "inputs": [
        {
          "indexed": true,
          "internalType": "address",
          "name": "from",
          "type": "address"
        },
        {
          "indexed": true,
          "internalType": "address",
          "name": "to",
          "type": "address"
        },
        {
          "indexed": false,
          "internalType": "uint256",
          "name": "value",
          "type": "uint256"
        }
      ],
      "name": "Transfer",
      "type": "event"
    },
    {
      "anonymous": false,
      "inputs": [
        {
          "indexed": false,
          "internalType": "address",
          "name": "account",
          "type": "address"
        }
      ],
      "name": "Unpaused",
      "type": "event"
    },
    {
      "inputs": [
        {
          "internalType": "address",
          "name": "owner",
          "type": "address"
        },
        {
          "internalType": "address",
          "name": "spender",
          "type": "address"
        }
      ],
      "name": "allowance",
      "outputs": [
        {
          "internalType": "uint256",
          "name": "",
          "type": "uint256"
        }
      ],
      "stateMutability": "view",
      "type": "function"
    },
    {
      "inputs": [
        {
          "internalType": "address",
          "name": "spender",
          "type": "address"
        },
        {
          "internalType": "uint256",
          "name": "amount",
          "type": "uint256"
        }
      ],
      "name": "approve",
      "outputs": [
        {
          "internalType": "bool",
          "name": "",
          "type": "bool"
        }
      ],
      "stateMutability": "nonpayable",
      "type": "function"
    },
    {
      "inputs": [
        {
          "internalType": "address",
          "name": "account",
          "type": "address"
        }
      ],
      "name": "balanceOf",
      "outputs": [
        {
          "internalType": "uint256",
          "name": "",
          "type": "uint256"
        }
      ],
      "stateMutability": "view",
      "type": "function"
    },
    {
      "inputs": [
        {
          "internalType": "address",
          "name": "from",
          "type": "address"
        },
        {
          "internalType": "uint256",
          "name": "amount",
          "type": "uint256"
        }
      ],
      "name": "burn",
      "outputs": [],
      "stateMutability": "nonpayable",
      "type": "function"
    },
    {
      "inputs": [],
      "name": "decimals",
      "outputs": [
        {
          "internalType": "uint8",
          "name": "",
          "type": "uint8"
        }
      ],
      "stateMutability": "view",
      "type": "function"
    },
    {
      "inputs": [
        {
          "internalType": "address",
          "name": "spender",
          "type": "address"
        },
        {
          "internalType": "uint256",
          "name": "subtractedValue",
          "type": "uint256"
        }
      ],
      "name": "decreaseAllowance",
      "outputs": [
        {
          "internalType": "bool",
          "name": "",
          "type": "bool"
        }
      ],
      "stateMutability": "nonpayable",
      "type": "function"
    },
    {
      "inputs": [
        {
          "internalType": "address",
          "name": "spender",
          "type": "address"
        },
        {
          "internalType": "uint256",
          "name": "addedValue",
          "type": "uint256"
        }
      ],
      "name": "increaseAllowance",
      "outputs": [
        {
          "internalType": "bool",
          "name": "",
          "type": "bool"
        }
      ],
      "stateMutability": "nonpayable",
      "type": "function"
    },
    {
      "inputs": [
        {
          "internalType": "address",
          "name": "to",
          "type": "address"
        },
        {
          "internalType": "uint256",
          "name": "amount",
          "type": "uint256"
        }
      ],
      "name": "mint",
      "outputs": [],
      "stateMutability": "nonpayable",
      "type": "function"
    },
    {
      "inputs": [],
      "name": "name",
      "outputs": [
        {
          "internalType": "string",
          "name": "",
          "type": "string"
        }
      ],
      "stateMutability": "view",
      "type": "function"
    },
    {
      "inputs": [],
      "name": "pause",
      "outputs": [],
      "stateMutability": "nonpayable",
      "type": "function"
    },
    {
      "inputs": [],
      "name": "paused",
      "outputs": [
        {
          "internalType": "bool",
          "name": "",
          "type": "bool"
        }
      ],
      "stateMutability": "view",
      "type": "function"
    },
    {
      "inputs": [],
      "name": "symbol",
      "outputs": [
        {
          "internalType": "string",
          "name": "",
          "type": "string"
        }
      ],
      "stateMutability": "view",
      "type": "function"
    },
    {
      "inputs": [],
      "name": "totalSupply",
      "outputs": [
        {
          "internalType": "uint256",
          "name": "",
          "type": "uint256"
        }
      ],
      "stateMutability": "view",
      "type": "function"
    },
    {
      "inputs": [
        {
          "internalType": "address",
          "name": "recipient",
          "type": "address"
        },
        {
          "internalType": "uint256",
          "name": "amount",
          "type": "uint256"
        }
      ],
      "name": "transfer",
      "outputs": [
        {
          "internalType": "bool",
          "name": "",
          "type": "bool"
        }
      ],
      "stateMutability": "nonpayable",
      "type": "function"
    },
    {
      "inputs": [
        {
          "internalType": "address",
          "name": "sender",
          "type": "address"
        },
        {
          "internalType": "address",
          "name": "recipient",
          "type": "address"
        },
        {
          "internalType": "uint256",
          "name": "amount",
          "type": "uint256"
        }
      ],
      "name": "transferFrom",
      "outputs": [
        {
          "internalType": "bool",
          "name": "",
          "type": "bool"
        }
      ],
      "stateMutability": "nonpayable",
      "type": "function"
    },
    {
      "inputs": [],
      "name": "unpause",
      "outputs": [],
      "stateMutability": "nonpayable",
      "type": "function"
    }
  ],
  "bytecode": "0x60806040523480156200001157600080fd5b506040516200145f3803806200145f8339810160408190526200003491620002fb565b8351849084906200004d906003906020850190620001aa565b50805162000063906004906020840190620001aa565b50506005805460ff19169055506200007c828262000086565b505050506200048c565b6001600160a01b038216620000b85760405162461bcd60e51b8152600401620000af906200038a565b60405180910390fd5b620000c6600083836200015a565b8060026000828254620000da919062000414565b90915550506001600160a01b038216600090815260208190526040812080548392906200010990849062000414565b90915550506040516001600160a01b038316906000907fddf252ad1be2c89b69c2b068fc378daa952ba7f163c4a11628f55a4df523b3ef906200014e9085906200040b565b60405180910390a35050565b620001728383836200019c60201b620004eb1760201c565b6200017c620001a1565b156200019c5760405162461bcd60e51b8152600401620000af90620003c1565b505050565b60055460ff1690565b828054620001b89062000439565b90600052602060002090601f016020900481019282620001dc576000855562000227565b82601f10620001f757805160ff191683800117855562000227565b8280016001018555821562000227579182015b82811115620002275782518255916020019190600101906200020a565b506200023592915062000239565b5090565b5b808211156200023557600081556001016200023a565b600082601f83011262000261578081fd5b81516001600160401b03808211156200027e576200027e62000476565b6040516020601f8401601f1916820181018381118382101715620002a657620002a662000476565b6040528382528584018101871015620002bd578485fd5b8492505b83831015620002e05785830181015182840182015291820191620002c1565b83831115620002f157848185840101525b5095945050505050565b6000806000806080858703121562000311578384fd5b84516001600160401b038082111562000328578586fd5b620003368883890162000250565b955060208701519150808211156200034c578485fd5b506200035b8782880162000250565b604087015190945090506001600160a01b03811681146200037a578283fd5b6060959095015193969295505050565b6020808252601f908201527f45524332303a206d696e7420746f20746865207a65726f206164647265737300604082015260600190565b6020808252602a908201527f45524332305061757361626c653a20746f6b656e207472616e736665722077686040820152691a5b19481c185d5cd95960b21b606082015260800190565b90815260200190565b600082198211156200043457634e487b7160e01b81526011600452602481fd5b500190565b6002810460018216806200044e57607f821691505b602082108114156200047057634e487b7160e01b600052602260045260246000fd5b50919050565b634e487b7160e01b600052604160045260246000fd5b610fc3806200049c6000396000f3fe608060405234801561001057600080fd5b50600436106101005760003560e01c80635c975abb116100975780639dc29fac116100665780639dc29fac146101db578063a457c2d7146101ee578063a9059cbb14610201578063dd62ed3e1461021457610100565b80635c975abb146101b057806370a08231146101b85780638456cb59146101cb57806395d89b41146101d357610100565b8063313ce567116100d3578063313ce5671461016b57806339509351146101805780633f4ba83a1461019357806340c10f191461019d57610100565b806306fdde0314610105578063095ea7b31461012357806318160ddd1461014357806323b872dd14610158575b600080fd5b61010d610227565b60405161011a9190610a5c565b60405180910390f35b610136610131366004610a14565b6102b9565b60405161011a9190610a51565b61014b6102d6565b60405161011a9190610ef6565b6101366101663660046109d9565b6102dc565b61017361037c565b60405161011a9190610eff565b61013661018e366004610a14565b610381565b61019b6103d0565b005b61019b6101ab366004610a14565b6103da565b6101366103e8565b61014b6101c6366004610986565b6103f1565b61019b610410565b61010d610418565b61019b6101e9366004610a14565b610427565b6101366101fc366004610a14565b610431565b61013661020f366004610a14565b6104ac565b61014b6102223660046109a7565b6104c0565b60606003805461023690610f3c565b80601f016020809104026020016040519081016040528092919081815260200182805461026290610f3c565b80156102af5780601f10610284576101008083540402835291602001916102af565b820191906000526020600020905b81548152906001019060200180831161029257829003601f168201915b5050505050905090565b60006102cd6102c66104f0565b84846104f4565b50600192915050565b60025490565b60006102e98484846105a8565b6001600160a01b03841660009081526001602052604081208161030a6104f0565b6001600160a01b03166001600160a01b03168152602001908152602001600020549050828110156103565760405162461bcd60e51b815260040161034d90610c91565b60405180910390fd5b610371856103626104f0565b61036c8685610f25565b6104f4565b506001949350505050565b601290565b60006102cd61038e6104f0565b84846001600061039c6104f0565b6001600160a01b03908116825260208083019390935260409182016000908120918b168152925290205461036c9190610f0d565b6103d86106d0565b565b6103e4828261073e565b5050565b60055460ff1690565b6001600160a01b0381166000908152602081905260409020545b919050565b6103d86107fe565b60606004805461023690610f3c565b6103e48282610859565b600080600160006104406104f0565b6001600160a01b039081168252602080830193909352604091820160009081209188168152925290205490508281101561048c5760405162461bcd60e51b815260040161034d90610e05565b6104a26104976104f0565b8561036c8685610f25565b5060019392505050565b60006102cd6104b96104f0565b84846105a8565b6001600160a01b03918216600090815260016020908152604080832093909416825291909152205490565b505050565b3390565b6001600160a01b03831661051a5760405162461bcd60e51b815260040161034d90610da8565b6001600160a01b0382166105405760405162461bcd60e51b815260040161034d90610ba0565b6001600160a01b0380841660008181526001602090815260408083209487168084529490915290819020849055517f8c5be1e5ebec7d5bd14f71427d1e84f3dd0314c0f7b2291e5b200ac8c7c3b9259061059b908590610ef6565b60405180910390a3505050565b6001600160a01b0383166105ce5760405162461bcd60e51b815260040161034d90610d4b565b6001600160a01b0382166105f45760405162461bcd60e51b815260040161034d90610aaf565b6105ff83838361093f565b6001600160a01b038316600090815260208190526040902054818110156106385760405162461bcd60e51b815260040161034d90610bfd565b6106428282610f25565b6001600160a01b038086166000908152602081905260408082209390935590851681529081208054849290610678908490610f0d565b92505081905550826001600160a01b0316846001600160a01b03167fddf252ad1be2c89b69c2b068fc378daa952ba7f163c4a11628f55a4df523b3ef846040516106c29190610ef6565b60405180910390a350505050565b6106d86103e8565b6106f45760405162461bcd60e51b815260040161034d90610b0c565b6005805460ff191690557f5db9ee0a495bf2e6ff9c91a7834c1ba4fdd244a5e8aa4e537bd38aeae4b073aa6107276104f0565b6040516107349190610a3d565b60405180910390a1565b6001600160a01b0382166107645760405162461bcd60e51b815260040161034d90610e62565b6107706000838361093f565b80600260008282546107829190610f0d565b90915550506001600160a01b038216600090815260208190526040812080548392906107af908490610f0d565b90915550506040516001600160a01b038316906000907fddf252ad1be2c89b69c2b068fc378daa952ba7f163c4a11628f55a4df523b3ef906107f2908590610ef6565b60405180910390a35050565b6108066103e8565b156108235760405162461bcd60e51b815260040161034d90610c5a565b6005805460ff191660011790557f62e78cea01bee320cd4e420270b5ea74000d11b0c9f74754ebdbfc544b05a2586107276104f0565b6001600160a01b03821661087f5760405162461bcd60e51b815260040161034d90610cee565b61088b8260008361093f565b6001600160a01b038216600090815260208190526040902054818110156108c45760405162461bcd60e51b815260040161034d90610b43565b6108ce8282610f25565b6001600160a01b038416600090815260208190526040812091909155600280548492906108fc908490610f25565b90915550506040516000906001600160a01b038516907fddf252ad1be2c89b69c2b068fc378daa952ba7f163c4a11628f55a4df523b3ef9061059b908690610ef6565b61094a8383836104eb565b6109526103e8565b156104eb5760405162461bcd60e51b815260040161034d90610e99565b80356001600160a01b038116811461040b57600080fd5b600060208284031215610997578081fd5b6109a08261096f565b9392505050565b600080604083850312156109b9578081fd5b6109c28361096f565b91506109d06020840161096f565b90509250929050565b6000806000606084860312156109ed578081fd5b6109f68461096f565b9250610a046020850161096f565b9150604084013590509250925092565b60008060408385031215610a26578182fd5b610a2f8361096f565b946020939093013593505050565b6001600160a01b0391909116815260200190565b901515815260200190565b6000602080835283518082850152825b81811015610a8857858101830151858201604001528201610a6c565b81811115610a995783604083870101525b50601f01601f1916929092016040019392505050565b60208082526023908201527f45524332303a207472616e7366657220746f20746865207a65726f206164647260408201527f6573730000000000000000000000000000000000000000000000000000000000606082015260800190565b60208082526014908201527f5061757361626c653a206e6f7420706175736564000000000000000000000000604082015260600190565b60208082526022908201527f45524332303a206275726e20616d6f756e7420657863656564732062616c616e60408201527f6365000000000000000000000000000000000000000000000000000000000000606082015260800190565b60208082526022908201527f45524332303a20617070726f766520746f20746865207a65726f20616464726560408201527f7373000000000000000000000000000000000000000000000000000000000000606082015260800190565b60208082526026908201527f45524332303a207472616e7366657220616d6f756e742065786365656473206260408201527f616c616e63650000000000000000000000000000000000000000000000000000606082015260800190565b60208082526010908201527f5061757361626c653a2070617573656400000000000000000000000000000000604082015260600190565b60208082526028908201527f45524332303a207472616e7366657220616d6f756e742065786365656473206160408201527f6c6c6f77616e6365000000000000000000000000000000000000000000000000606082015260800190565b60208082526021908201527f45524332303a206275726e2066726f6d20746865207a65726f2061646472657360408201527f7300000000000000000000000000000000000000000000000000000000000000606082015260800190565b60208082526025908201527f45524332303a207472616e736665722066726f6d20746865207a65726f20616460408201527f6472657373000000000000000000000000000000000000000000000000000000606082015260800190565b60208082526024908201527f45524332303a20617070726f76652066726f6d20746865207a65726f2061646460408201527f7265737300000000000000000000000000000000000000000000000000000000606082015260800190565b60208082526025908201527f45524332303a2064656372656173656420616c6c6f77616e63652062656c6f7760408201527f207a65726f000000000000000000000000000000000000000000000000000000606082015260800190565b6020808252601f908201527f45524332303a206d696e7420746f20746865207a65726f206164647265737300604082015260600190565b6020808252602a908201527f45524332305061757361626c653a20746f6b656e207472616e7366657220776860408201527f696c652070617573656400000000000000000000000000000000000000000000606082015260800190565b90815260200190565b60ff91909116815260200190565b60008219821115610f2057610f20610f77565b500190565b600082821015610f3757610f37610f77565b500390565b600281046001821680610f5057607f821691505b60208210811415610f7157634e487b7160e01b600052602260045260246000fd5b50919050565b634e487b7160e01b600052601160045260246000fdfea2646970667358221220003816ad1baf02d781423ee0078ac0093c1c3b0c55f916bdb1eb421a041a9b9964736f6c63430008000033",
  "linkReferences": {},
  "deployedLinkReferences": {}
}