{
  "_format": "hh-sol-artifact-1",
  "contractName": "SignedSafeMathMock",
  "sourceName": "contracts/OpenZeppelin/mocks/SignedSafeMathMock.sol",
  "abi": [
    {
      "inputs": [
        {
          "internalType": "int256",
          "name": "a",
          "type": "int256"
        },
        {
          "internalType": "int256",
          "name": "b",
          "type": "int256"
        }
      ],
      "name": "add",
      "outputs": [
        {
          "internalType": "int256",
          "name": "",
          "type": "int256"
        }
      ],
      "stateMutability": "pure",
      "type": "function"
    },
    {
      "inputs": [
        {
          "internalType": "int256",
          "name": "a",
          "type": "int256"
        },
        {
          "internalType": "int256",
          "name": "b",
          "type": "int256"
        }
      ],
      "name": "div",
      "outputs": [
        {
          "internalType": "int256",
          "name": "",
          "type": "int256"
        }
      ],
      "stateMutability": "pure",
      "type": "function"
    },
    {
      "inputs": [
        {
          "internalType": "int256",
          "name": "a",
          "type": "int256"
        },
        {
          "internalType": "int256",
          "name": "b",
          "type": "int256"
        }
      ],
      "name": "mul",
      "outputs": [
        {
          "internalType": "int256",
          "name": "",
          "type": "int256"
        }
      ],
      "stateMutability": "pure",
      "type": "function"
    },
    {
      "inputs": [
        {
          "internalType": "int256",
          "name": "a",
          "type": "int256"
        },
        {
          "internalType": "int256",
          "name": "b",
          "type": "int256"
        }
      ],
      "name": "sub",
      "outputs": [
        {
          "internalType": "int256",
          "name": "",
          "type": "int256"
        }
      ],
      "stateMutability": "pure",
      "type": "function"
    }
  ],
  "bytecode": "0x608060405234801561001057600080fd5b506102cb806100206000396000f3fe608060405234801561001057600080fd5b506004361061004c5760003560e01c80634350913814610051578063a5f3c23b1461007a578063adefc37b1461008d578063bbe93d91146100a0575b600080fd5b61006461005f36600461011a565b6100b3565b604051610071919061013b565b60405180910390f35b61006461008836600461011a565b6100c6565b61006461009b36600461011a565b6100d2565b6100646100ae36600461011a565b6100de565b60006100bf83836100ea565b9392505050565b60006100bf83836100f6565b60006100bf8383610102565b60006100bf838361010e565b60006100bf8284610183565b60006100bf8284610144565b60006100bf8284610240565b60006100bf82846101bd565b6000806040838503121561012c578182fd5b50508035926020909101359150565b90815260200190565b6000808212826001600160ff1b03038413811516156101655761016561027f565b82600160ff1b03841281161561017d5761017d61027f565b50500190565b60008261019e57634e487b7160e01b81526012600452602481fd5b600160ff1b8214600019841416156101b8576101b861027f565b500590565b60006001600160ff1b03818413828413858304851182821616156101e3576101e361027f565b600160ff1b848712868205881281841616156102015761020161027f565b85871292508782058712848416161561021c5761021c61027f565b878505871281841616156102325761023261027f565b505050929093029392505050565b600080831283600160ff1b0183128115161561025e5761025e61027f565b836001600160ff1b030183138116156102795761027961027f565b50500390565b634e487b7160e01b600052601160045260246000fdfea2646970667358221220f063cc1beedaded75d80b6ce5ff1f4b256d0ae12b17f1aad74a2d4f23a23d2aa64736f6c63430008000033",
  "linkReferences": {},
  "deployedLinkReferences": {}
}