{
  "_format": "hh-sol-artifact-1",
  "contractName": "StringsMock",
  "sourceName": "contracts/OpenZeppelin/mocks/StringsMock.sol",
  "abi": [
    {
      "inputs": [
        {
          "internalType": "uint256",
          "name": "value",
          "type": "uint256"
        }
      ],
      "name": "fromUint256",
      "outputs": [
        {
          "internalType": "string",
          "name": "",
          "type": "string"
        }
      ],
      "stateMutability": "pure",
      "type": "function"
    },
    {
      "inputs": [
        {
          "internalType": "uint256",
          "name": "value",
          "type": "uint256"
        }
      ],
      "name": "fromUint256Hex",
      "outputs": [
        {
          "internalType": "string",
          "name": "",
          "type": "string"
        }
      ],
      "stateMutability": "pure",
      "type": "function"
    },
    {
      "inputs": [
        {
          "internalType": "uint256",
          "name": "value",
          "type": "uint256"
        },
        {
          "internalType": "uint256",
          "name": "length",
          "type": "uint256"
        }
      ],
      "name": "fromUint256HexFixed",
      "outputs": [
        {
          "internalType": "string",
          "name": "",
          "type": "string"
        }
      ],
      "stateMutability": "pure",
      "type": "function"
    }
  ],
  "bytecode": "0x608060405234801561001057600080fd5b50610620806100206000396000f3fe608060405234801561001057600080fd5b50600436106100415760003560e01c806302c5b75f1461004657806392b0ed1a1461006f578063a2bd364414610082575b600080fd5b610059610054366004610455565b610095565b604051610066919061048e565b60405180910390f35b61005961007d36600461046d565b6100a8565b610059610090366004610455565b6100bb565b60606100a0826100c6565b90505b919050565b60606100b4838361013c565b9392505050565b60606100a08261033a565b606081610107575060408051808201909152600481527f307830300000000000000000000000000000000000000000000000000000000060208201526100a3565b8160005b811561012a578061011b8161058f565b915050600882901c915061010b565b610134848261013c565b949350505050565b6060600061014b836002610542565b610156906002610516565b67ffffffffffffffff81111561017c57634e487b7160e01b600052604160045260246000fd5b6040519080825280601f01601f1916602001820160405280156101a6576020820181803683370190505b509050600360fc1b816000815181106101cf57634e487b7160e01b600052603260045260246000fd5b60200101906001600160f81b031916908160001a9053507f78000000000000000000000000000000000000000000000000000000000000008160018151811061022857634e487b7160e01b600052603260045260246000fd5b60200101906001600160f81b031916908160001a905350600061024c846002610542565b610257906001610516565b90505b60018111156102f8577f303132333435363738396162636465660000000000000000000000000000000085600f16601081106102a657634e487b7160e01b600052603260045260246000fd5b1a60f81b8282815181106102ca57634e487b7160e01b600052603260045260246000fd5b60200101906001600160f81b031916908160001a90535060049490941c936102f181610578565b905061025a565b5083156100b4576040517f08c379a0000000000000000000000000000000000000000000000000000000008152600401610331906104e1565b60405180910390fd5b60608161035f57506040805180820190915260018152600360fc1b60208201526100a3565b8160005b811561038957806103738161058f565b91506103829050600a8361052e565b9150610363565b60008167ffffffffffffffff8111156103b257634e487b7160e01b600052604160045260246000fd5b6040519080825280601f01601f1916602001820160405280156103dc576020820181803683370190505b5090505b8415610134576103f1600183610561565b91506103fe600a866105aa565b610409906030610516565b60f81b81838151811061042c57634e487b7160e01b600052603260045260246000fd5b60200101906001600160f81b031916908160001a90535061044e600a8661052e565b94506103e0565b600060208284031215610466578081fd5b5035919050565b6000806040838503121561047f578081fd5b50508035926020909101359150565b6000602080835283518082850152825b818110156104ba5785810183015185820160400152820161049e565b818111156104cb5783604083870101525b50601f01601f1916929092016040019392505050565b6020808252818101527f537472696e67733a20686578206c656e67746820696e73756666696369656e74604082015260600190565b60008219821115610529576105296105be565b500190565b60008261053d5761053d6105d4565b500490565b600081600019048311821515161561055c5761055c6105be565b500290565b600082821015610573576105736105be565b500390565b600081610587576105876105be565b506000190190565b60006000198214156105a3576105a36105be565b5060010190565b6000826105b9576105b96105d4565b500690565b634e487b7160e01b600052601160045260246000fd5b634e487b7160e01b600052601260045260246000fdfea264697066735822122091ddeee71c94118797d8529d1701c6c26078d40d185ff6e8ddd7d18b8cea3c2464736f6c63430008000033",
  "linkReferences": {},
  "deployedLinkReferences": {}
}