{
  "_format": "hh-sol-artifact-1",
  "contractName": "GSNRecipientSignature",
  "sourceName": "contracts/OpenZeppelin/GSN/GSNRecipientSignature.sol",
  "abi": [
    {
      "inputs": [
        {
          "internalType": "address",
          "name": "trustedSigner",
          "type": "address"
        }
      ],
      "stateMutability": "nonpayable",
      "type": "constructor"
    },
    {
      "anonymous": false,
      "inputs": [
        {
          "indexed": true,
          "internalType": "address",
          "name": "oldRelayHub",
          "type": "address"
        },
        {
          "indexed": true,
          "internalType": "address",
          "name": "newRelayHub",
          "type": "address"
        }
      ],
      "name": "RelayHubChanged",
      "type": "event"
    },
    {
      "inputs": [
        {
          "internalType": "address",
          "name": "relay",
          "type": "address"
        },
        {
          "internalType": "address",
          "name": "from",
          "type": "address"
        },
        {
          "internalType": "bytes",
          "name": "encodedFunction",
          "type": "bytes"
        },
        {
          "internalType": "uint256",
          "name": "transactionFee",
          "type": "uint256"
        },
        {
          "internalType": "uint256",
          "name": "gasPrice",
          "type": "uint256"
        },
        {
          "internalType": "uint256",
          "name": "gasLimit",
          "type": "uint256"
        },
        {
          "internalType": "uint256",
          "name": "nonce",
          "type": "uint256"
        },
        {
          "internalType": "bytes",
          "name": "approvalData",
          "type": "bytes"
        },
        {
          "internalType": "uint256",
          "name": "",
          "type": "uint256"
        }
      ],
      "name": "acceptRelayedCall",
      "outputs": [
        {
          "internalType": "uint256",
          "name": "",
          "type": "uint256"
        },
        {
          "internalType": "bytes",
          "name": "",
          "type": "bytes"
        }
      ],
      "stateMutability": "view",
      "type": "function"
    },
    {
      "inputs": [],
      "name": "getHubAddr",
      "outputs": [
        {
          "internalType": "address",
          "name": "",
          "type": "address"
        }
      ],
      "stateMutability": "view",
      "type": "function"
    },
    {
      "inputs": [
        {
          "internalType": "bytes",
          "name": "context",
          "type": "bytes"
        },
        {
          "internalType": "bool",
          "name": "success",
          "type": "bool"
        },
        {
          "internalType": "uint256",
          "name": "actualCharge",
          "type": "uint256"
        },
        {
          "internalType": "bytes32",
          "name": "preRetVal",
          "type": "bytes32"
        }
      ],
      "name": "postRelayedCall",
      "outputs": [],
      "stateMutability": "nonpayable",
      "type": "function"
    },
    {
      "inputs": [
        {
          "internalType": "bytes",
          "name": "context",
          "type": "bytes"
        }
      ],
      "name": "preRelayedCall",
      "outputs": [
        {
          "internalType": "bytes32",
          "name": "",
          "type": "bytes32"
        }
      ],
      "stateMutability": "nonpayable",
      "type": "function"
    },
    {
      "inputs": [],
      "name": "relayHubVersion",
      "outputs": [
        {
          "internalType": "string",
          "name": "",
          "type": "string"
        }
      ],
      "stateMutability": "view",
      "type": "function"
    }
  ],
  "bytecode": "0x6080604052600080546001600160a01b03191673d216153c06e857cd7f72665e0af1d7d82172f49417905534801561003657600080fd5b50604051610a97380380610a97833981016040819052610055916100a9565b6001600160a01b0381166100845760405162461bcd60e51b815260040161007b906100d7565b60405180910390fd5b600180546001600160a01b0319166001600160a01b0392909216919091179055610134565b6000602082840312156100ba578081fd5b81516001600160a01b03811681146100d0578182fd5b9392505050565b60208082526039908201527f47534e526563697069656e745369676e61747572653a2074727573746564207360408201527f69676e657220697320746865207a65726f206164647265737300000000000000606082015260800190565b610954806101436000396000f3fe608060405234801561001057600080fd5b50600436106100675760003560e01c806383947ea01161005057806383947ea0146100aa578063ad61ccd5146100cb578063e06e0e22146100e057610067565b806374e861d61461006c57806380274db71461008a575b600080fd5b6100746100f5565b60405161008191906106fb565b60405180910390f35b61009d61009836600461058b565b610104565b604051610081919061070f565b6100bd6100b83660046104d8565b610158565b60405161008192919061089f565b6100d36101fb565b6040516100819190610736565b6100f36100ee3660046105c6565b610232565b005b6000546001600160a01b031690565b600061010e6100f5565b6001600160a01b0316336001600160a01b0316146101475760405162461bcd60e51b815260040161013e90610842565b60405180910390fd5b61015082610278565b90505b919050565b6000606060008b8b8b8b8b8b8b61016d6100f5565b3060405160200161018699989796959493929190610653565b60408051601f19818403018152919052600154815160208301209192506001600160a01b0316906101c29087906101bc9061027e565b906102ae565b6001600160a01b031614156101e3576101d96102f9565b92509250506101ed565b6101d9600061031d565b995099975050505050505050565b60408051808201909152600581527f312e302e30000000000000000000000000000000000000000000000000000000602082015290565b61023a6100f5565b6001600160a01b0316336001600160a01b03161461026a5760405162461bcd60e51b815260040161013e90610842565b610272848484845b50505050565b50600090565b60008160405160200161029191906106ca565b604051602081830303815290604052805190602001209050919050565b600081516041146102d15760405162461bcd60e51b815260040161013e90610787565b60208201516040830151606084015160001a6102ef86828585610345565b9695505050505050565b600060606103156040518060200160405280600081525061043b565b915091509091565b6000606061032c83600b6108b8565b6040518060200160405280600081525091509150915091565b60007f7fffffffffffffffffffffffffffffff5d576e7357a4501ddfe92f46681b20a08211156103875760405162461bcd60e51b815260040161013e906107be565b8360ff16601b148061039c57508360ff16601c145b6103b85760405162461bcd60e51b815260040161013e90610800565b6000600186868686604051600081526020016040526040516103dd9493929190610718565b6020604051602081039080840390855afa1580156103ff573d6000803e3d6000fd5b5050604051601f1901519150506001600160a01b0381166104325760405162461bcd60e51b815260040161013e90610750565b95945050505050565b600091565b80356001600160a01b038116811461015357600080fd5b600082601f830112610467578081fd5b813567ffffffffffffffff8082111561048257610482610908565b604051601f8301601f1916810160200182811182821017156104a6576104a6610908565b6040528281528483016020018610156104bd578384fd5b82602086016020830137918201602001929092529392505050565b60008060008060008060008060006101208a8c0312156104f6578485fd5b6104ff8a610440565b985061050d60208b01610440565b975060408a013567ffffffffffffffff80821115610529578687fd5b6105358d838e01610457565b985060608c0135975060808c0135965060a08c0135955060c08c0135945060e08c0135915080821115610566578384fd5b506105738c828d01610457565b9250506101008a013590509295985092959850929598565b60006020828403121561059c578081fd5b813567ffffffffffffffff8111156105b2578182fd5b6105be84828501610457565b949350505050565b600080600080608085870312156105db578384fd5b843567ffffffffffffffff8111156105f1578485fd5b6105fd87828801610457565b94505060208501358015158114610612578384fd5b93969395505050506040820135916060013590565b6000815180845261063f8160208601602086016108dc565b601f01601f19169290920160200192915050565b60006bffffffffffffffffffffffff19808c60601b168352808b60601b1660148401528951610689816028860160208e016108dc565b909201602881019890985250604887019590955260688601939093526088850191909152606090811b831660a88501521b1660bc82015260d0019392505050565b7f19457468657265756d205369676e6564204d6573736167653a0a3332000000008152601c810191909152603c0190565b6001600160a01b0391909116815260200190565b90815260200190565b93845260ff9290921660208401526040830152606082015260800190565b6000602082526107496020830184610627565b9392505050565b60208082526018908201527f45434453413a20696e76616c6964207369676e61747572650000000000000000604082015260600190565b6020808252601f908201527f45434453413a20696e76616c6964207369676e6174757265206c656e67746800604082015260600190565b60208082526022908201527f45434453413a20696e76616c6964207369676e6174757265202773272076616c604082015261756560f01b606082015260800190565b60208082526022908201527f45434453413a20696e76616c6964207369676e6174757265202776272076616c604082015261756560f01b606082015260800190565b60208082526024908201527f47534e526563697069656e743a2063616c6c6572206973206e6f742052656c6160408201527f7948756200000000000000000000000000000000000000000000000000000000606082015260800190565b6000838252604060208301526105be6040830184610627565b600082198211156108d757634e487b7160e01b81526011600452602481fd5b500190565b60005b838110156108f75781810151838201526020016108df565b838111156102725750506000910152565b634e487b7160e01b600052604160045260246000fdfea2646970667358221220f8a4d49a38dbdfe55ce914b5e4a4d5dbd9fdfa4379767e6dcea8d0ca99f5689a64736f6c63430008000033",
  "linkReferences": {},
  "deployedLinkReferences": {}
}