{
  "_format": "hh-sol-artifact-1",
  "contractName": "EnumerableAddressSetMock",
  "sourceName": "contracts/OpenZeppelin/mocks/EnumerableSetMock.sol",
  "abi": [
    {
      "anonymous": false,
      "inputs": [
        {
          "indexed": false,
          "internalType": "bool",
          "name": "result",
          "type": "bool"
        }
      ],
      "name": "OperationResult",
      "type": "event"
    },
    {
      "inputs": [
        {
          "internalType": "address",
          "name": "value",
          "type": "address"
        }
      ],
      "name": "add",
      "outputs": [],
      "stateMutability": "nonpayable",
      "type": "function"
    },
    {
      "inputs": [
        {
          "internalType": "uint256",
          "name": "index",
          "type": "uint256"
        }
      ],
      "name": "at",
      "outputs": [
        {
          "internalType": "address",
          "name": "",
          "type": "address"
        }
      ],
      "stateMutability": "view",
      "type": "function"
    },
    {
      "inputs": [
        {
          "internalType": "address",
          "name": "value",
          "type": "address"
        }
      ],
      "name": "contains",
      "outputs": [
        {
          "internalType": "bool",
          "name": "",
          "type": "bool"
        }
      ],
      "stateMutability": "view",
      "type": "function"
    },
    {
      "inputs": [],
      "name": "length",
      "outputs": [
        {
          "internalType": "uint256",
          "name": "",
          "type": "uint256"
        }
      ],
      "stateMutability": "view",
      "type": "function"
    },
    {
      "inputs": [
        {
          "internalType": "address",
          "name": "value",
          "type": "address"
        }
      ],
      "name": "remove",
      "outputs": [],
      "stateMutability": "nonpayable",
      "type": "function"
    }
  ],
  "bytecode": "0x608060405234801561001057600080fd5b50610511806100206000396000f3fe608060405234801561001057600080fd5b50600436106100675760003560e01c806329092d0e1161005057806329092d0e1461009f5780635dbe47e8146100b2578063e0886f90146100d257610067565b80630a3b0a4f1461006c5780631f7b6d3214610081575b600080fd5b61007f61007a3660046103d2565b6100f2565b005b61008961013b565b604051610096919061048d565b60405180910390f35b61007f6100ad3660046103d2565b61014c565b6100c56100c03660046103d2565b610158565b6040516100969190610425565b6100e56100e03660046103f9565b61016a565b6040516100969190610411565b60006100fe8183610176565b90507fed9840e0775590557ad736875d96c95cf1458b766335f74339951a32c82a9e338160405161012f9190610425565b60405180910390a15050565b60006101476000610192565b905090565b60006100fe818361019d565b600061016481836101b2565b92915050565b600061016481836101c7565b600061018b836001600160a01b0384166101d3565b9392505050565b60006101648261021d565b600061018b836001600160a01b038416610221565b600061018b836001600160a01b03841661033e565b600061018b8383610356565b60006101df838361033e565b61021557508154600181810184556000848152602080822090930184905584548482528286019093526040902091909155610164565b506000610164565b5490565b600081815260018301602052604081205480156103345760006102456001836104ae565b8554909150600090610259906001906104ae565b9050600086600001828154811061028057634e487b7160e01b600052603260045260246000fd5b90600052602060002001549050808760000184815481106102b157634e487b7160e01b600052603260045260246000fd5b6000918252602090912001556102c8836001610496565b600082815260018901602052604090205586548790806102f857634e487b7160e01b600052603160045260246000fd5b60019003818190600052602060002001600090559055866001016000878152602001908152602001600020600090556001945050505050610164565b6000915050610164565b60009081526001919091016020526040902054151590565b8154600090821061039c576040517f08c379a000000000000000000000000000000000000000000000000000000000815260040161039390610430565b60405180910390fd5b8260000182815481106103bf57634e487b7160e01b600052603260045260246000fd5b9060005260206000200154905092915050565b6000602082840312156103e3578081fd5b81356001600160a01b038116811461018b578182fd5b60006020828403121561040a578081fd5b5035919050565b6001600160a01b0391909116815260200190565b901515815260200190565b60208082526022908201527f456e756d657261626c655365743a20696e646578206f7574206f6620626f756e60408201527f6473000000000000000000000000000000000000000000000000000000000000606082015260800190565b90815260200190565b600082198211156104a9576104a96104c5565b500190565b6000828210156104c0576104c06104c5565b500390565b634e487b7160e01b600052601160045260246000fdfea26469706673582212201b3452f51ee86b25743635551f157714a99e8d84026c81cac0d482f3375ff1d564736f6c63430008000033",
  "linkReferences": {},
  "deployedLinkReferences": {}
}