{
  "_format": "hh-sol-artifact-1",
  "contractName": "EnumerableUintSetMock",
  "sourceName": "contracts/OpenZeppelin/mocks/EnumerableSetMock.sol",
  "abi": [
    {
      "anonymous": false,
      "inputs": [
        {
          "indexed": false,
          "internalType": "bool",
          "name": "result",
          "type": "bool"
        }
      ],
      "name": "OperationResult",
      "type": "event"
    },
    {
      "inputs": [
        {
          "internalType": "uint256",
          "name": "value",
          "type": "uint256"
        }
      ],
      "name": "add",
      "outputs": [],
      "stateMutability": "nonpayable",
      "type": "function"
    },
    {
      "inputs": [
        {
          "internalType": "uint256",
          "name": "index",
          "type": "uint256"
        }
      ],
      "name": "at",
      "outputs": [
        {
          "internalType": "uint256",
          "name": "",
          "type": "uint256"
        }
      ],
      "stateMutability": "view",
      "type": "function"
    },
    {
      "inputs": [
        {
          "internalType": "uint256",
          "name": "value",
          "type": "uint256"
        }
      ],
      "name": "contains",
      "outputs": [
        {
          "internalType": "bool",
          "name": "",
          "type": "bool"
        }
      ],
      "stateMutability": "view",
      "type": "function"
    },
    {
      "inputs": [],
      "name": "length",
      "outputs": [
        {
          "internalType": "uint256",
          "name": "",
          "type": "uint256"
        }
      ],
      "stateMutability": "view",
      "type": "function"
    },
    {
      "inputs": [
        {
          "internalType": "uint256",
          "name": "value",
          "type": "uint256"
        }
      ],
      "name": "remove",
      "outputs": [],
      "stateMutability": "nonpayable",
      "type": "function"
    }
  ],
  "bytecode": "0x608060405234801561001057600080fd5b506104ae806100206000396000f3fe608060405234801561001057600080fd5b50600436106100675760003560e01c80634cc82215116100505780634cc822151461009f578063c34052e0146100b2578063e0886f90146100d257610067565b80631003e2d21461006c5780631f7b6d3214610081575b600080fd5b61007f61007a3660046103aa565b6100e5565b005b61008961012e565b604051610096919061042a565b60405180910390f35b61007f6100ad3660046103aa565b61013f565b6100c56100c03660046103aa565b61014b565b60405161009691906103c2565b6100896100e03660046103aa565b61015d565b60006100f18183610169565b90507fed9840e0775590557ad736875d96c95cf1458b766335f74339951a32c82a9e338160405161012291906103c2565b60405180910390a15050565b600061013a600061017c565b905090565b60006100f18183610187565b60006101578183610193565b92915050565b6000610157818361019f565b600061017583836101ab565b9392505050565b6000610157826101f5565b600061017583836101f9565b60006101758383610316565b6000610175838361032e565b60006101b78383610316565b6101ed57508154600181810184556000848152602080822090930184905584548482528286019093526040902091909155610157565b506000610157565b5490565b6000818152600183016020526040812054801561030c57600061021d60018361044b565b85549091506000906102319060019061044b565b9050600086600001828154811061025857634e487b7160e01b600052603260045260246000fd5b906000526020600020015490508087600001848154811061028957634e487b7160e01b600052603260045260246000fd5b6000918252602090912001556102a0836001610433565b600082815260018901602052604090205586548790806102d057634e487b7160e01b600052603160045260246000fd5b60019003818190600052602060002001600090559055866001016000878152602001908152602001600020600090556001945050505050610157565b6000915050610157565b60009081526001919091016020526040902054151590565b81546000908210610374576040517f08c379a000000000000000000000000000000000000000000000000000000000815260040161036b906103cd565b60405180910390fd5b82600001828154811061039757634e487b7160e01b600052603260045260246000fd5b9060005260206000200154905092915050565b6000602082840312156103bb578081fd5b5035919050565b901515815260200190565b60208082526022908201527f456e756d657261626c655365743a20696e646578206f7574206f6620626f756e60408201527f6473000000000000000000000000000000000000000000000000000000000000606082015260800190565b90815260200190565b6000821982111561044657610446610462565b500190565b60008282101561045d5761045d610462565b500390565b634e487b7160e01b600052601160045260246000fdfea264697066735822122098b33e694a810826c24d310555a9c1aede20f279d277a9caa663d2fa7e28fd4964736f6c63430008000033",
  "linkReferences": {},
  "deployedLinkReferences": {}
}