{
  "_format": "hh-sol-artifact-1",
  "contractName": "EnumerableBytes32SetMock",
  "sourceName": "contracts/OpenZeppelin/mocks/EnumerableSetMock.sol",
  "abi": [
    {
      "anonymous": false,
      "inputs": [
        {
          "indexed": false,
          "internalType": "bool",
          "name": "result",
          "type": "bool"
        }
      ],
      "name": "OperationResult",
      "type": "event"
    },
    {
      "inputs": [
        {
          "internalType": "bytes32",
          "name": "value",
          "type": "bytes32"
        }
      ],
      "name": "add",
      "outputs": [],
      "stateMutability": "nonpayable",
      "type": "function"
    },
    {
      "inputs": [
        {
          "internalType": "uint256",
          "name": "index",
          "type": "uint256"
        }
      ],
      "name": "at",
      "outputs": [
        {
          "internalType": "bytes32",
          "name": "",
          "type": "bytes32"
        }
      ],
      "stateMutability": "view",
      "type": "function"
    },
    {
      "inputs": [
        {
          "internalType": "bytes32",
          "name": "value",
          "type": "bytes32"
        }
      ],
      "name": "contains",
      "outputs": [
        {
          "internalType": "bool",
          "name": "",
          "type": "bool"
        }
      ],
      "stateMutability": "view",
      "type": "function"
    },
    {
      "inputs": [],
      "name": "length",
      "outputs": [
        {
          "internalType": "uint256",
          "name": "",
          "type": "uint256"
        }
      ],
      "stateMutability": "view",
      "type": "function"
    },
    {
      "inputs": [
        {
          "internalType": "bytes32",
          "name": "value",
          "type": "bytes32"
        }
      ],
      "name": "remove",
      "outputs": [],
      "stateMutability": "nonpayable",
      "type": "function"
    }
  ],
  "bytecode": "0x608060405234801561001057600080fd5b506104ae806100206000396000f3fe608060405234801561001057600080fd5b50600436106100675760003560e01c8063446bffba11610050578063446bffba146100aa57806395bc2673146100bf578063e0886f90146100d257610067565b80631d1a696d1461006c5780631f7b6d3214610095575b600080fd5b61007f61007a3660046103aa565b6100e5565b60405161008c91906103c2565b60405180910390f35b61009d6100f7565b60405161008c91906103cd565b6100bd6100b83660046103aa565b610108565b005b6100bd6100cd3660046103aa565b610151565b61009d6100e03660046103aa565b61015d565b60006100f18183610169565b92915050565b6000610103600061017c565b905090565b60006101148183610187565b90507fed9840e0775590557ad736875d96c95cf1458b766335f74339951a32c82a9e338160405161014591906103c2565b60405180910390a15050565b60006101148183610193565b60006100f1818361019f565b600061017583836101ab565b9392505050565b60006100f1826101c3565b600061017583836101c7565b60006101758383610211565b6000610175838361032e565b60009081526001919091016020526040902054151590565b5490565b60006101d383836101ab565b610209575081546001818101845560008481526020808220909301849055845484825282860190935260409020919091556100f1565b5060006100f1565b6000818152600183016020526040812054801561032457600061023560018361044b565b85549091506000906102499060019061044b565b9050600086600001828154811061027057634e487b7160e01b600052603260045260246000fd5b90600052602060002001549050808760000184815481106102a157634e487b7160e01b600052603260045260246000fd5b6000918252602090912001556102b8836001610433565b600082815260018901602052604090205586548790806102e857634e487b7160e01b600052603160045260246000fd5b600190038181906000526020600020016000905590558660010160008781526020019081526020016000206000905560019450505050506100f1565b60009150506100f1565b81546000908210610374576040517f08c379a000000000000000000000000000000000000000000000000000000000815260040161036b906103d6565b60405180910390fd5b82600001828154811061039757634e487b7160e01b600052603260045260246000fd5b9060005260206000200154905092915050565b6000602082840312156103bb578081fd5b5035919050565b901515815260200190565b90815260200190565b60208082526022908201527f456e756d657261626c655365743a20696e646578206f7574206f6620626f756e60408201527f6473000000000000000000000000000000000000000000000000000000000000606082015260800190565b6000821982111561044657610446610462565b500190565b60008282101561045d5761045d610462565b500390565b634e487b7160e01b600052601160045260246000fdfea264697066735822122065b3061b3b370b0889a486b656f2a0158329a9940feaef8a3cd6596fda0ea51164736f6c63430008000033",
  "linkReferences": {},
  "deployedLinkReferences": {}
}