{
  "_format": "hh-sol-artifact-1",
  "contractName": "DummyImplementationV2",
  "sourceName": "contracts/OpenZeppelin/mocks/DummyImplementation.sol",
  "abi": [
    {
      "inputs": [],
      "name": "get",
      "outputs": [
        {
          "internalType": "bool",
          "name": "",
          "type": "bool"
        }
      ],
      "stateMutability": "pure",
      "type": "function"
    },
    {
      "inputs": [
        {
          "internalType": "uint256",
          "name": "_value",
          "type": "uint256"
        },
        {
          "internalType": "string",
          "name": "_text",
          "type": "string"
        },
        {
          "internalType": "uint256[]",
          "name": "_values",
          "type": "uint256[]"
        }
      ],
      "name": "initialize",
      "outputs": [],
      "stateMutability": "nonpayable",
      "type": "function"
    },
    {
      "inputs": [],
      "name": "initializeNonPayable",
      "outputs": [],
      "stateMutability": "nonpayable",
      "type": "function"
    },
    {
      "inputs": [
        {
          "internalType": "uint256",
          "name": "_value",
          "type": "uint256"
        }
      ],
      "name": "initializeNonPayableWithValue",
      "outputs": [],
      "stateMutability": "nonpayable",
      "type": "function"
    },
    {
      "inputs": [],
      "name": "initializePayable",
      "outputs": [],
      "stateMutability": "payable",
      "type": "function"
    },
    {
      "inputs": [
        {
          "internalType": "uint256",
          "name": "_value",
          "type": "uint256"
        }
      ],
      "name": "initializePayableWithValue",
      "outputs": [],
      "stateMutability": "payable",
      "type": "function"
    },
    {
      "inputs": [
        {
          "internalType": "uint256",
          "name": "newVal",
          "type": "uint256"
        }
      ],
      "name": "migrate",
      "outputs": [],
      "stateMutability": "payable",
      "type": "function"
    },
    {
      "inputs": [],
      "name": "reverts",
      "outputs": [],
      "stateMutability": "pure",
      "type": "function"
    },
    {
      "inputs": [],
      "name": "text",
      "outputs": [
        {
          "internalType": "string",
          "name": "",
          "type": "string"
        }
      ],
      "stateMutability": "view",
      "type": "function"
    },
    {
      "inputs": [],
      "name": "value",
      "outputs": [
        {
          "internalType": "uint256",
          "name": "",
          "type": "uint256"
        }
      ],
      "stateMutability": "view",
      "type": "function"
    },
    {
      "inputs": [
        {
          "internalType": "uint256",
          "name": "",
          "type": "uint256"
        }
      ],
      "name": "values",
      "outputs": [
        {
          "internalType": "uint256",
          "name": "",
          "type": "uint256"
        }
      ],
      "stateMutability": "view",
      "type": "function"
    },
    {
      "inputs": [],
      "name": "version",
      "outputs": [
        {
          "internalType": "string",
          "name": "",
          "type": "string"
        }
      ],
      "stateMutability": "pure",
      "type": "function"
    }
  ],
  "bytecode": "0x608060405234801561001057600080fd5b506106db806100206000396000f3fe6080604052600436106100c75760003560e01c80635e383d21116100745780639fba1f9a1161004e5780639fba1f9a146101ca578063d31f8b6b146101d2578063e79f5bee14610145576100c7565b80635e383d211461016d5780636d4ce63c1461018d578063763e2831146101af576100c7565b80633fa4f245116100a55780633fa4f24514610123578063454b06081461014557806354fd4d5014610158576100c7565b80631f1bd692146100cc578063227367d5146100f75780633bccbbc91461010e575b600080fd5b3480156100d857600080fd5b506100e16101f2565b6040516100ee9190610597565b60405180910390f35b34801561010357600080fd5b5061010c610280565b005b34801561011a57600080fd5b5061010c610287565b34801561012f57600080fd5b506101386102c2565b6040516100ee9190610621565b61010c6101533660046104b8565b6102c8565b34801561016457600080fd5b506100e16102cd565b34801561017957600080fd5b506101386101883660046104b8565b610304565b34801561019957600080fd5b506101a2610325565b6040516100ee919061058c565b3480156101bb57600080fd5b5061010c6101533660046104b8565b61010c61032a565b3480156101de57600080fd5b5061010c6101ed3660046104d0565b610331565b600180546101ff90610654565b80601f016020809104026020016040519081016040528092919081815260200182805461022b90610654565b80156102785780601f1061024d57610100808354040283529160200191610278565b820191906000526020600020905b81548152906001019060200180831161025b57829003601f168201915b505050505081565b600a600055565b6040517f08c379a00000000000000000000000000000000000000000000000000000000081526004016102b9906105ea565b60405180910390fd5b60005481565b600055565b60408051808201909152600281527f5632000000000000000000000000000000000000000000000000000000000000602082015290565b6002818154811061031457600080fd5b600091825260209091200154905081565b600190565b6064600055565b60008390558151610349906001906020850190610363565b50805161035d9060029060208401906103e7565b50505050565b82805461036f90610654565b90600052602060002090601f01602090048101928261039157600085556103d7565b82601f106103aa57805160ff19168380011785556103d7565b828001600101855582156103d7579182015b828111156103d75782518255916020019190600101906103bc565b506103e3929150610421565b5090565b8280548282559060005260206000209081019282156103d757916020028201828111156103d75782518255916020019190600101906103bc565b5b808211156103e35760008155600101610422565b600082601f830112610446578081fd5b8135602067ffffffffffffffff8211156104625761046261068f565b80820261047082820161062a565b83815282810190868401838801850189101561048a578687fd5b8693505b858410156104ac57803583526001939093019291840191840161048e565b50979650505050505050565b6000602082840312156104c9578081fd5b5035919050565b6000806000606084860312156104e4578182fd5b8335925060208085013567ffffffffffffffff80821115610503578485fd5b818701915087601f830112610516578485fd5b8135818111156105285761052861068f565b61053a601f8201601f1916850161062a565b818152898583860101111561054d578687fd5b81858501868301378685838301015280965050506040870135925080831115610574578384fd5b505061058286828701610436565b9150509250925092565b901515815260200190565b6000602080835283518082850152825b818110156105c3578581018301518582016040015282016105a7565b818111156105d45783604083870101525b50601f01601f1916929092016040019392505050565b6020808252601c908201527f44756d6d79496d706c656d656e746174696f6e20726576657274656400000000604082015260600190565b90815260200190565b60405181810167ffffffffffffffff8111828210171561064c5761064c61068f565b604052919050565b60028104600182168061066857607f821691505b6020821081141561068957634e487b7160e01b600052602260045260246000fd5b50919050565b634e487b7160e01b600052604160045260246000fdfea26469706673582212208de20cca92aae48aaf973e96365a77d306b4b78c7fab0d7b5bfc6d1c0e9a672f64736f6c63430008000033",
  "linkReferences": {},
  "deployedLinkReferences": {}
}