{
  "_format": "hh-sol-artifact-1",
  "contractName": "DummyImplementation",
  "sourceName": "contracts/OpenZeppelin/mocks/DummyImplementation.sol",
  "abi": [
    {
      "inputs": [],
      "name": "get",
      "outputs": [
        {
          "internalType": "bool",
          "name": "",
          "type": "bool"
        }
      ],
      "stateMutability": "pure",
      "type": "function"
    },
    {
      "inputs": [
        {
          "internalType": "uint256",
          "name": "_value",
          "type": "uint256"
        },
        {
          "internalType": "string",
          "name": "_text",
          "type": "string"
        },
        {
          "internalType": "uint256[]",
          "name": "_values",
          "type": "uint256[]"
        }
      ],
      "name": "initialize",
      "outputs": [],
      "stateMutability": "nonpayable",
      "type": "function"
    },
    {
      "inputs": [],
      "name": "initializeNonPayable",
      "outputs": [],
      "stateMutability": "nonpayable",
      "type": "function"
    },
    {
      "inputs": [
        {
          "internalType": "uint256",
          "name": "_value",
          "type": "uint256"
        }
      ],
      "name": "initializeNonPayableWithValue",
      "outputs": [],
      "stateMutability": "nonpayable",
      "type": "function"
    },
    {
      "inputs": [],
      "name": "initializePayable",
      "outputs": [],
      "stateMutability": "payable",
      "type": "function"
    },
    {
      "inputs": [
        {
          "internalType": "uint256",
          "name": "_value",
          "type": "uint256"
        }
      ],
      "name": "initializePayableWithValue",
      "outputs": [],
      "stateMutability": "payable",
      "type": "function"
    },
    {
      "inputs": [],
      "name": "reverts",
      "outputs": [],
      "stateMutability": "pure",
      "type": "function"
    },
    {
      "inputs": [],
      "name": "text",
      "outputs": [
        {
          "internalType": "string",
          "name": "",
          "type": "string"
        }
      ],
      "stateMutability": "view",
      "type": "function"
    },
    {
      "inputs": [],
      "name": "value",
      "outputs": [
        {
          "internalType": "uint256",
          "name": "",
          "type": "uint256"
        }
      ],
      "stateMutability": "view",
      "type": "function"
    },
    {
      "inputs": [
        {
          "internalType": "uint256",
          "name": "",
          "type": "uint256"
        }
      ],
      "name": "values",
      "outputs": [
        {
          "internalType": "uint256",
          "name": "",
          "type": "uint256"
        }
      ],
      "stateMutability": "view",
      "type": "function"
    },
    {
      "inputs": [],
      "name": "version",
      "outputs": [
        {
          "internalType": "string",
          "name": "",
          "type": "string"
        }
      ],
      "stateMutability": "pure",
      "type": "function"
    }
  ],
  "bytecode": "0x608060405234801561001057600080fd5b506106d0806100206000396000f3fe6080604052600436106100bc5760003560e01c80635e383d21116100745780639fba1f9a1161004e5780639fba1f9a146101b1578063d31f8b6b146101b9578063e79f5bee146101d9576100bc565b80635e383d211461014f5780636d4ce63c1461016f578063763e283114610191576100bc565b80633bccbbc9116100a55780633bccbbc9146101035780633fa4f2451461011857806354fd4d501461013a576100bc565b80631f1bd692146100c1578063227367d5146100ec575b600080fd5b3480156100cd57600080fd5b506100d66101e7565b6040516100e3919061058c565b60405180910390f35b3480156100f857600080fd5b50610101610275565b005b34801561010f57600080fd5b5061010161027c565b34801561012457600080fd5b5061012d6102b7565b6040516100e39190610616565b34801561014657600080fd5b506100d66102bd565b34801561015b57600080fd5b5061012d61016a3660046104ad565b6102f4565b34801561017b57600080fd5b50610184610315565b6040516100e39190610581565b34801561019d57600080fd5b506101016101ac3660046104ad565b61031a565b61010161031f565b3480156101c557600080fd5b506101016101d43660046104c5565b610326565b6101016101ac3660046104ad565b600180546101f490610649565b80601f016020809104026020016040519081016040528092919081815260200182805461022090610649565b801561026d5780601f106102425761010080835404028352916020019161026d565b820191906000526020600020905b81548152906001019060200180831161025057829003601f168201915b505050505081565b600a600055565b6040517f08c379a00000000000000000000000000000000000000000000000000000000081526004016102ae906105df565b60405180910390fd5b60005481565b60408051808201909152600281527f5631000000000000000000000000000000000000000000000000000000000000602082015290565b6002818154811061030457600080fd5b600091825260209091200154905081565b600190565b600055565b6064600055565b6000839055815161033e906001906020850190610358565b5080516103529060029060208401906103dc565b50505050565b82805461036490610649565b90600052602060002090601f01602090048101928261038657600085556103cc565b82601f1061039f57805160ff19168380011785556103cc565b828001600101855582156103cc579182015b828111156103cc5782518255916020019190600101906103b1565b506103d8929150610416565b5090565b8280548282559060005260206000209081019282156103cc57916020028201828111156103cc5782518255916020019190600101906103b1565b5b808211156103d85760008155600101610417565b600082601f83011261043b578081fd5b8135602067ffffffffffffffff82111561045757610457610684565b80820261046582820161061f565b83815282810190868401838801850189101561047f578687fd5b8693505b858410156104a1578035835260019390930192918401918401610483565b50979650505050505050565b6000602082840312156104be578081fd5b5035919050565b6000806000606084860312156104d9578182fd5b8335925060208085013567ffffffffffffffff808211156104f8578485fd5b818701915087601f83011261050b578485fd5b81358181111561051d5761051d610684565b61052f601f8201601f1916850161061f565b8181528985838601011115610542578687fd5b81858501868301378685838301015280965050506040870135925080831115610569578384fd5b50506105778682870161042b565b9150509250925092565b901515815260200190565b6000602080835283518082850152825b818110156105b85785810183015185820160400152820161059c565b818111156105c95783604083870101525b50601f01601f1916929092016040019392505050565b6020808252601c908201527f44756d6d79496d706c656d656e746174696f6e20726576657274656400000000604082015260600190565b90815260200190565b60405181810167ffffffffffffffff8111828210171561064157610641610684565b604052919050565b60028104600182168061065d57607f821691505b6020821081141561067e57634e487b7160e01b600052602260045260246000fd5b50919050565b634e487b7160e01b600052604160045260246000fdfea26469706673582212202f0c8ffd44e44bc25db38833efeb484dabf1e0d6d3d0f5d50d3c3f6b2b75928164736f6c63430008000033",
  "linkReferences": {},
  "deployedLinkReferences": {}
}