{
  "_format": "hh-sol-artifact-1",
  "contractName": "ERC721BurnableMock",
  "sourceName": "contracts/OpenZeppelin/mocks/ERC721BurnableMock.sol",
  "abi": [
    {
      "inputs": [
        {
          "internalType": "string",
          "name": "name",
          "type": "string"
        },
        {
          "internalType": "string",
          "name": "symbol",
          "type": "string"
        }
      ],
      "stateMutability": "nonpayable",
      "type": "constructor"
    },
    {
      "anonymous": false,
      "inputs": [
        {
          "indexed": true,
          "internalType": "address",
          "name": "owner",
          "type": "address"
        },
        {
          "indexed": true,
          "internalType": "address",
          "name": "approved",
          "type": "address"
        },
        {
          "indexed": true,
          "internalType": "uint256",
          "name": "tokenId",
          "type": "uint256"
        }
      ],
      "name": "Approval",
      "type": "event"
    },
    {
      "anonymous": false,
      "inputs": [
        {
          "indexed": true,
          "internalType": "address",
          "name": "owner",
          "type": "address"
        },
        {
          "indexed": true,
          "internalType": "address",
          "name": "operator",
          "type": "address"
        },
        {
          "indexed": false,
          "internalType": "bool",
          "name": "approved",
          "type": "bool"
        }
      ],
      "name": "ApprovalForAll",
      "type": "event"
    },
    {
      "anonymous": false,
      "inputs": [
        {
          "indexed": true,
          "internalType": "address",
          "name": "from",
          "type": "address"
        },
        {
          "indexed": true,
          "internalType": "address",
          "name": "to",
          "type": "address"
        },
        {
          "indexed": true,
          "internalType": "uint256",
          "name": "tokenId",
          "type": "uint256"
        }
      ],
      "name": "Transfer",
      "type": "event"
    },
    {
      "inputs": [
        {
          "internalType": "address",
          "name": "to",
          "type": "address"
        },
        {
          "internalType": "uint256",
          "name": "tokenId",
          "type": "uint256"
        }
      ],
      "name": "approve",
      "outputs": [],
      "stateMutability": "nonpayable",
      "type": "function"
    },
    {
      "inputs": [
        {
          "internalType": "address",
          "name": "owner",
          "type": "address"
        }
      ],
      "name": "balanceOf",
      "outputs": [
        {
          "internalType": "uint256",
          "name": "",
          "type": "uint256"
        }
      ],
      "stateMutability": "view",
      "type": "function"
    },
    {
      "inputs": [],
      "name": "baseURI",
      "outputs": [
        {
          "internalType": "string",
          "name": "",
          "type": "string"
        }
      ],
      "stateMutability": "view",
      "type": "function"
    },
    {
      "inputs": [
        {
          "internalType": "uint256",
          "name": "tokenId",
          "type": "uint256"
        }
      ],
      "name": "burn",
      "outputs": [],
      "stateMutability": "nonpayable",
      "type": "function"
    },
    {
      "inputs": [
        {
          "internalType": "uint256",
          "name": "tokenId",
          "type": "uint256"
        }
      ],
      "name": "getApproved",
      "outputs": [
        {
          "internalType": "address",
          "name": "",
          "type": "address"
        }
      ],
      "stateMutability": "view",
      "type": "function"
    },
    {
      "inputs": [
        {
          "internalType": "address",
          "name": "owner",
          "type": "address"
        },
        {
          "internalType": "address",
          "name": "operator",
          "type": "address"
        }
      ],
      "name": "isApprovedForAll",
      "outputs": [
        {
          "internalType": "bool",
          "name": "",
          "type": "bool"
        }
      ],
      "stateMutability": "view",
      "type": "function"
    },
    {
      "inputs": [
        {
          "internalType": "address",
          "name": "to",
          "type": "address"
        },
        {
          "internalType": "uint256",
          "name": "tokenId",
          "type": "uint256"
        }
      ],
      "name": "mint",
      "outputs": [],
      "stateMutability": "nonpayable",
      "type": "function"
    },
    {
      "inputs": [],
      "name": "name",
      "outputs": [
        {
          "internalType": "string",
          "name": "",
          "type": "string"
        }
      ],
      "stateMutability": "view",
      "type": "function"
    },
    {
      "inputs": [
        {
          "internalType": "uint256",
          "name": "tokenId",
          "type": "uint256"
        }
      ],
      "name": "ownerOf",
      "outputs": [
        {
          "internalType": "address",
          "name": "",
          "type": "address"
        }
      ],
      "stateMutability": "view",
      "type": "function"
    },
    {
      "inputs": [
        {
          "internalType": "address",
          "name": "from",
          "type": "address"
        },
        {
          "internalType": "address",
          "name": "to",
          "type": "address"
        },
        {
          "internalType": "uint256",
          "name": "tokenId",
          "type": "uint256"
        }
      ],
      "name": "safeTransferFrom",
      "outputs": [],
      "stateMutability": "nonpayable",
      "type": "function"
    },
    {
      "inputs": [
        {
          "internalType": "address",
          "name": "from",
          "type": "address"
        },
        {
          "internalType": "address",
          "name": "to",
          "type": "address"
        },
        {
          "internalType": "uint256",
          "name": "tokenId",
          "type": "uint256"
        },
        {
          "internalType": "bytes",
          "name": "_data",
          "type": "bytes"
        }
      ],
      "name": "safeTransferFrom",
      "outputs": [],
      "stateMutability": "nonpayable",
      "type": "function"
    },
    {
      "inputs": [
        {
          "internalType": "address",
          "name": "operator",
          "type": "address"
        },
        {
          "internalType": "bool",
          "name": "approved",
          "type": "bool"
        }
      ],
      "name": "setApprovalForAll",
      "outputs": [],
      "stateMutability": "nonpayable",
      "type": "function"
    },
    {
      "inputs": [
        {
          "internalType": "bytes4",
          "name": "interfaceId",
          "type": "bytes4"
        }
      ],
      "name": "supportsInterface",
      "outputs": [
        {
          "internalType": "bool",
          "name": "",
          "type": "bool"
        }
      ],
      "stateMutability": "view",
      "type": "function"
    },
    {
      "inputs": [],
      "name": "symbol",
      "outputs": [
        {
          "internalType": "string",
          "name": "",
          "type": "string"
        }
      ],
      "stateMutability": "view",
      "type": "function"
    },
    {
      "inputs": [
        {
          "internalType": "uint256",
          "name": "index",
          "type": "uint256"
        }
      ],
      "name": "tokenByIndex",
      "outputs": [
        {
          "internalType": "uint256",
          "name": "",
          "type": "uint256"
        }
      ],
      "stateMutability": "view",
      "type": "function"
    },
    {
      "inputs": [
        {
          "internalType": "address",
          "name": "owner",
          "type": "address"
        },
        {
          "internalType": "uint256",
          "name": "index",
          "type": "uint256"
        }
      ],
      "name": "tokenOfOwnerByIndex",
      "outputs": [
        {
          "internalType": "uint256",
          "name": "",
          "type": "uint256"
        }
      ],
      "stateMutability": "view",
      "type": "function"
    },
    {
      "inputs": [
        {
          "internalType": "uint256",
          "name": "tokenId",
          "type": "uint256"
        }
      ],
      "name": "tokenURI",
      "outputs": [
        {
          "internalType": "string",
          "name": "",
          "type": "string"
        }
      ],
      "stateMutability": "view",
      "type": "function"
    },
    {
      "inputs": [],
      "name": "totalSupply",
      "outputs": [
        {
          "internalType": "uint256",
          "name": "",
          "type": "uint256"
        }
      ],
      "stateMutability": "view",
      "type": "function"
    },
    {
      "inputs": [
        {
          "internalType": "address",
          "name": "from",
          "type": "address"
        },
        {
          "internalType": "address",
          "name": "to",
          "type": "address"
        },
        {
          "internalType": "uint256",
          "name": "tokenId",
          "type": "uint256"
        }
      ],
      "name": "transferFrom",
      "outputs": [],
      "stateMutability": "nonpayable",
      "type": "function"
    }
  ],
  "bytecode": "0x60806040523480156200001157600080fd5b506040516200217d3803806200217d833981016040819052620000349162000260565b8181620000486301ffc9a760e01b620000b4565b81516200005d9060069060208501906200010f565b508051620000739060079060208401906200010f565b50620000866380ac58cd60e01b620000b4565b62000098635b5e139f60e01b620000b4565b620000aa63780e9d6360e01b620000b4565b5050505062000351565b6001600160e01b03198082161415620000ea5760405162461bcd60e51b8152600401620000e190620002c7565b60405180910390fd5b6001600160e01b0319166000908152602081905260409020805460ff19166001179055565b8280546200011d90620002fe565b90600052602060002090601f0160209004810192826200014157600085556200018c565b82601f106200015c57805160ff19168380011785556200018c565b828001600101855582156200018c579182015b828111156200018c5782518255916020019190600101906200016f565b506200019a9291506200019e565b5090565b5b808211156200019a57600081556001016200019f565b600082601f830112620001c6578081fd5b81516001600160401b0380821115620001e357620001e36200033b565b6040516020601f8401601f19168201810183811183821017156200020b576200020b6200033b565b604052838252858401810187101562000222578485fd5b8492505b8383101562000245578583018101518284018201529182019162000226565b838311156200025657848185840101525b5095945050505050565b6000806040838503121562000273578182fd5b82516001600160401b03808211156200028a578384fd5b6200029886838701620001b5565b93506020850151915080821115620002ae578283fd5b50620002bd85828601620001b5565b9150509250929050565b6020808252601c908201527f4552433136353a20696e76616c696420696e7465726661636520696400000000604082015260600190565b6002810460018216806200031357607f821691505b602082108114156200033557634e487b7160e01b600052602260045260246000fd5b50919050565b634e487b7160e01b600052604160045260246000fd5b611e1c80620003616000396000f3fe608060405234801561001057600080fd5b50600436106101515760003560e01c806342966c68116100cd57806395d89b4111610081578063b88d4fde11610066578063b88d4fde14610299578063c87b56dd146102ac578063e985e9c5146102bf57610151565b806395d89b411461027e578063a22cb4651461028657610151565b80636352211e116100b25780636352211e146102505780636c0360eb1461026357806370a082311461026b57610151565b806342966c681461022a5780634f6ccce71461023d57610151565b806318160ddd116101245780632f745c59116101095780632f745c59146101f157806340c10f191461020457806342842e0e1461021757610151565b806318160ddd146101c957806323b872dd146101de57610151565b806301ffc9a71461015657806306fdde031461017f578063081812fc14610194578063095ea7b3146101b4575b600080fd5b61016961016436600461164e565b6102d2565b6040516101769190611749565b60405180910390f35b61018761030d565b6040516101769190611754565b6101a76101a2366004611686565b61039f565b60405161017691906116f9565b6101c76101c2366004611625565b6103eb565b005b6101d1610483565b6040516101769190611c6b565b6101c76101ec3660046114e4565b610494565b6101d16101ff366004611625565b6104cc565b6101c7610212366004611625565b6104f7565b6101c76102253660046114e4565b610505565b6101c7610238366004611686565b610520565b6101d161024b366004611686565b610553565b6101a761025e366004611686565b610569565b610187610591565b6101d1610279366004611498565b6105a0565b6101876105e9565b6101c76102943660046115eb565b6105f8565b6101c76102a736600461151f565b6106c6565b6101876102ba366004611686565b610705565b6101696102cd3660046114b2565b610848565b7fffffffff00000000000000000000000000000000000000000000000000000000811660009081526020819052604090205460ff165b919050565b60606006805461031c90611ce3565b80601f016020809104026020016040519081016040528092919081815260200182805461034890611ce3565b80156103955780601f1061036a57610100808354040283529160200191610395565b820191906000526020600020905b81548152906001019060200180831161037857829003601f168201915b5050505050905090565b60006103aa82610876565b6103cf5760405162461bcd60e51b81526004016103c690611a4e565b60405180910390fd5b506000908152600460205260409020546001600160a01b031690565b60006103f682610569565b9050806001600160a01b0316836001600160a01b0316141561042a5760405162461bcd60e51b81526004016103c690611b54565b806001600160a01b031661043c610883565b6001600160a01b031614806104585750610458816102cd610883565b6104745760405162461bcd60e51b81526004016103c69061191d565b61047e8383610887565b505050565b600061048f600261090d565b905090565b6104a561049f610883565b82610918565b6104c15760405162461bcd60e51b81526004016103c690611bb1565b61047e83838361099d565b6001600160a01b03821660009081526001602052604081206104ee9083610aab565b90505b92915050565b6105018282610ab7565b5050565b61047e838383604051806020016040528060008152506106c6565b61052b61049f610883565b6105475760405162461bcd60e51b81526004016103c690611c0e565b61055081610b7b565b50565b600080610561600284610c41565b509392505050565b60006104f182604051806060016040528060298152602001611dbe6029913960029190610c5d565b60606009805461031c90611ce3565b60006001600160a01b0382166105c85760405162461bcd60e51b81526004016103c69061197a565b6001600160a01b03821660009081526001602052604090206104f19061090d565b60606007805461031c90611ce3565b610600610883565b6001600160a01b0316826001600160a01b031614156106315760405162461bcd60e51b81526004016103c69061189a565b806005600061063e610883565b6001600160a01b03908116825260208083019390935260409182016000908120918716808252919093529120805460ff191692151592909217909155610682610883565b6001600160a01b03167f17307eab39ab6107e8899845ad3d59bd9653f200f220920489ca2b5937696c31836040516106ba9190611749565b60405180910390a35050565b6106d76106d1610883565b83610918565b6106f35760405162461bcd60e51b81526004016103c690611bb1565b6106ff84848484610c74565b50505050565b606061071082610876565b61072c5760405162461bcd60e51b81526004016103c690611af7565b6000828152600860205260408120805461074590611ce3565b80601f016020809104026020016040519081016040528092919081815260200182805461077190611ce3565b80156107be5780601f10610793576101008083540402835291602001916107be565b820191906000526020600020905b8154815290600101906020018083116107a157829003601f168201915b5050505050905060006107cf610591565b90508051600014156107e357509050610308565b8151156108155780826040516020016107fd9291906116ca565b60405160208183030381529060405292505050610308565b8061081f85610ca7565b6040516020016108309291906116ca565b60405160208183030381529060405292505050919050565b6001600160a01b03918216600090815260056020908152604080832093909416825291909152205460ff1690565b60006104f1600283610df6565b3390565b600081815260046020526040902080547fffffffffffffffffffffffff0000000000000000000000000000000000000000166001600160a01b03841690811790915581906108d482610569565b6001600160a01b03167f8c5be1e5ebec7d5bd14f71427d1e84f3dd0314c0f7b2291e5b200ac8c7c3b92560405160405180910390a45050565b60006104f182610e02565b600061092382610876565b61093f5760405162461bcd60e51b81526004016103c6906118d1565b600061094a83610569565b9050806001600160a01b0316846001600160a01b031614806109855750836001600160a01b031661097a8461039f565b6001600160a01b0316145b8061099557506109958185610848565b949350505050565b826001600160a01b03166109b082610569565b6001600160a01b0316146109d65760405162461bcd60e51b81526004016103c690611a9a565b6001600160a01b0382166109fc5760405162461bcd60e51b81526004016103c69061183d565b610a0783838361047e565b610a12600082610887565b6001600160a01b0383166000908152600160205260409020610a349082610e06565b506001600160a01b0382166000908152600160205260409020610a579082610e12565b50610a6460028284610e1e565b5080826001600160a01b0316846001600160a01b03167fddf252ad1be2c89b69c2b068fc378daa952ba7f163c4a11628f55a4df523b3ef60405160405180910390a4505050565b60006104ee8383610e34565b6001600160a01b038216610add5760405162461bcd60e51b81526004016103c690611a19565b610ae681610876565b15610b035760405162461bcd60e51b81526004016103c690611806565b610b0f6000838361047e565b6001600160a01b0382166000908152600160205260409020610b319082610e12565b50610b3e60028284610e1e565b5060405181906001600160a01b038416906000907fddf252ad1be2c89b69c2b068fc378daa952ba7f163c4a11628f55a4df523b3ef908290a45050565b6000610b8682610569565b9050610b948160008461047e565b610b9f600083610887565b60008281526008602052604090208054610bb890611ce3565b159050610bd6576000828152600860205260408120610bd691611431565b6001600160a01b0381166000908152600160205260409020610bf89083610e06565b50610c04600283610e8d565b5060405182906000906001600160a01b038416907fddf252ad1be2c89b69c2b068fc378daa952ba7f163c4a11628f55a4df523b3ef908390a45050565b6000808080610c508686610e99565b9097909650945050505050565b6000610c6a848484610f09565b90505b9392505050565b610c7f84848461099d565b610c8b84848484610f80565b6106ff5760405162461bcd60e51b81526004016103c6906117a9565b606081610ce8575060408051808201909152600181527f30000000000000000000000000000000000000000000000000000000000000006020820152610308565b8160005b8115610d125780610cfc81611d1e565b9150610d0b9050600a83611c8c565b9150610cec565b60008167ffffffffffffffff811115610d3b57634e487b7160e01b600052604160045260246000fd5b6040519080825280601f01601f191660200182016040528015610d65576020820181803683370190505b5090505b841561099557610d7a600183611ca0565b9150610d87600a86611d39565b610d92906030611c74565b60f81b818381518110610db557634e487b7160e01b600052603260045260246000fd5b60200101907effffffffffffffffffffffffffffffffffffffffffffffffffffffffffffff1916908160001a905350610def600a86611c8c565b9450610d69565b60006104ee83836110cc565b5490565b60006104ee83836110e4565b60006104ee8383611201565b6000610c6a84846001600160a01b03851661124b565b81546000908210610e575760405162461bcd60e51b81526004016103c690611767565b826000018281548110610e7a57634e487b7160e01b600052603260045260246000fd5b9060005260206000200154905092915050565b60006104ee83836112fa565b815460009081908310610ebe5760405162461bcd60e51b81526004016103c6906119d7565b6000846000018481548110610ee357634e487b7160e01b600052603260045260246000fd5b906000526020600020906002020190508060000154816001015492509250509250929050565b60008281526001840160205260408120548281610f395760405162461bcd60e51b81526004016103c69190611754565b5084610f46600183611ca0565b81548110610f6457634e487b7160e01b600052603260045260246000fd5b9060005260206000209060020201600101549150509392505050565b6000610f94846001600160a01b031661142b565b156110c157836001600160a01b031663150b7a02610fb0610883565b8786866040518563ffffffff1660e01b8152600401610fd2949392919061170d565b602060405180830381600087803b158015610fec57600080fd5b505af192505050801561101c575060408051601f3d908101601f191682019092526110199181019061166a565b60015b611076573d80801561104a576040519150601f19603f3d011682016040523d82523d6000602084013e61104f565b606091505b50805161106e5760405162461bcd60e51b81526004016103c6906117a9565b805181602001fd5b7fffffffff00000000000000000000000000000000000000000000000000000000167f150b7a0200000000000000000000000000000000000000000000000000000000149050610995565b506001949350505050565b60009081526001919091016020526040902054151590565b600081815260018301602052604081205480156111f7576000611108600183611ca0565b855490915060009061111c90600190611ca0565b9050600086600001828154811061114357634e487b7160e01b600052603260045260246000fd5b906000526020600020015490508087600001848154811061117457634e487b7160e01b600052603260045260246000fd5b60009182526020909120015561118b836001611c74565b600082815260018901602052604090205586548790806111bb57634e487b7160e01b600052603160045260246000fd5b600190038181906000526020600020016000905590558660010160008781526020019081526020016000206000905560019450505050506104f1565b60009150506104f1565b600061120d83836110cc565b611243575081546001818101845560008481526020808220909301849055845484825282860190935260409020919091556104f1565b5060006104f1565b6000828152600184016020526040812054806112b0575050604080518082018252838152602080820184815286546001818101895560008981528481209551600290930290950191825591519082015586548684528188019092529290912055610c6d565b82856112bd600184611ca0565b815481106112db57634e487b7160e01b600052603260045260246000fd5b9060005260206000209060020201600101819055506000915050610c6d565b600081815260018301602052604081205480156111f757600061131e600183611ca0565b855490915060009061133290600190611ca0565b9050600086600001828154811061135957634e487b7160e01b600052603260045260246000fd5b906000526020600020906002020190508087600001848154811061138d57634e487b7160e01b600052603260045260246000fd5b600091825260209091208254600290920201908155600191820154908201556113b7908490611c74565b8154600090815260018901602052604090205586548790806113e957634e487b7160e01b600052603160045260246000fd5b60008281526020808220600260001990940193840201828155600190810183905592909355888152898201909252604082209190915594506104f19350505050565b3b151590565b50805461143d90611ce3565b6000825580601f1061144f5750610550565b601f01602090049060005260206000209081019061055091905b8082111561147d5760008155600101611469565b5090565b80356001600160a01b038116811461030857600080fd5b6000602082840312156114a9578081fd5b6104ee82611481565b600080604083850312156114c4578081fd5b6114cd83611481565b91506114db60208401611481565b90509250929050565b6000806000606084860312156114f8578081fd5b61150184611481565b925061150f60208501611481565b9150604084013590509250925092565b60008060008060808587031215611534578081fd5b61153d85611481565b9350602061154c818701611481565b935060408601359250606086013567ffffffffffffffff8082111561156f578384fd5b818801915088601f830112611582578384fd5b81358181111561159457611594611d79565b604051601f8201601f19168101850183811182821017156115b7576115b7611d79565b60405281815283820185018b10156115cd578586fd5b81858501868301379081019093019390935250939692955090935050565b600080604083850312156115fd578182fd5b61160683611481565b91506020830135801515811461161a578182fd5b809150509250929050565b60008060408385031215611637578182fd5b61164083611481565b946020939093013593505050565b60006020828403121561165f578081fd5b8135610c6d81611d8f565b60006020828403121561167b578081fd5b8151610c6d81611d8f565b600060208284031215611697578081fd5b5035919050565b600081518084526116b6816020860160208601611cb7565b601f01601f19169290920160200192915050565b600083516116dc818460208801611cb7565b8351908301906116f0818360208801611cb7565b01949350505050565b6001600160a01b0391909116815260200190565b60006001600160a01b0380871683528086166020840152508360408301526080606083015261173f608083018461169e565b9695505050505050565b901515815260200190565b6000602082526104ee602083018461169e565b60208082526022908201527f456e756d657261626c655365743a20696e646578206f7574206f6620626f756e604082015261647360f01b606082015260800190565b60208082526032908201527f4552433732313a207472616e7366657220746f206e6f6e20455243373231526560408201527f63656976657220696d706c656d656e7465720000000000000000000000000000606082015260800190565b6020808252601c908201527f4552433732313a20746f6b656e20616c7265616479206d696e74656400000000604082015260600190565b60208082526024908201527f4552433732313a207472616e7366657220746f20746865207a65726f2061646460408201527f7265737300000000000000000000000000000000000000000000000000000000606082015260800190565b60208082526019908201527f4552433732313a20617070726f766520746f2063616c6c657200000000000000604082015260600190565b6020808252602c908201527f4552433732313a206f70657261746f7220717565727920666f72206e6f6e657860408201526b34b9ba32b73a103a37b5b2b760a11b606082015260800190565b60208082526038908201527f4552433732313a20617070726f76652063616c6c6572206973206e6f74206f7760408201527f6e6572206e6f7220617070726f76656420666f7220616c6c0000000000000000606082015260800190565b6020808252602a908201527f4552433732313a2062616c616e636520717565727920666f7220746865207a6560408201527f726f206164647265737300000000000000000000000000000000000000000000606082015260800190565b60208082526022908201527f456e756d657261626c654d61703a20696e646578206f7574206f6620626f756e604082015261647360f01b606082015260800190565b6020808252818101527f4552433732313a206d696e7420746f20746865207a65726f2061646472657373604082015260600190565b6020808252602c908201527f4552433732313a20617070726f76656420717565727920666f72206e6f6e657860408201526b34b9ba32b73a103a37b5b2b760a11b606082015260800190565b60208082526029908201527f4552433732313a207472616e73666572206f6620746f6b656e2074686174206960408201527f73206e6f74206f776e0000000000000000000000000000000000000000000000606082015260800190565b6020808252602f908201527f4552433732314d657461646174613a2055524920717565727920666f72206e6f60408201527f6e6578697374656e7420746f6b656e0000000000000000000000000000000000606082015260800190565b60208082526021908201527f4552433732313a20617070726f76616c20746f2063757272656e74206f776e6560408201527f7200000000000000000000000000000000000000000000000000000000000000606082015260800190565b60208082526031908201527f4552433732313a207472616e736665722063616c6c6572206973206e6f74206f60408201527f776e6572206e6f7220617070726f766564000000000000000000000000000000606082015260800190565b60208082526030908201527f4552433732314275726e61626c653a2063616c6c6572206973206e6f74206f7760408201527f6e6572206e6f7220617070726f76656400000000000000000000000000000000606082015260800190565b90815260200190565b60008219821115611c8757611c87611d4d565b500190565b600082611c9b57611c9b611d63565b500490565b600082821015611cb257611cb2611d4d565b500390565b60005b83811015611cd2578181015183820152602001611cba565b838111156106ff5750506000910152565b600281046001821680611cf757607f821691505b60208210811415611d1857634e487b7160e01b600052602260045260246000fd5b50919050565b6000600019821415611d3257611d32611d4d565b5060010190565b600082611d4857611d48611d63565b500690565b634e487b7160e01b600052601160045260246000fd5b634e487b7160e01b600052601260045260246000fd5b634e487b7160e01b600052604160045260246000fd5b7fffffffff000000000000000000000000000000000000000000000000000000008116811461055057600080fdfe4552433732313a206f776e657220717565727920666f72206e6f6e6578697374656e7420746f6b656ea2646970667358221220855136f383c44750280b5fcf3765d5b8f117b6991fa4f2a505db84ae6d8ea7bd64736f6c63430008000033",
  "linkReferences": {},
  "deployedLinkReferences": {}
}