{
  "_format": "hh-sol-artifact-1",
  "contractName": "MathMock",
  "sourceName": "contracts/OpenZeppelin/mocks/MathMock.sol",
  "abi": [
    {
      "inputs": [
        {
          "internalType": "uint256",
          "name": "a",
          "type": "uint256"
        },
        {
          "internalType": "uint256",
          "name": "b",
          "type": "uint256"
        }
      ],
      "name": "average",
      "outputs": [
        {
          "internalType": "uint256",
          "name": "",
          "type": "uint256"
        }
      ],
      "stateMutability": "pure",
      "type": "function"
    },
    {
      "inputs": [
        {
          "internalType": "uint256",
          "name": "a",
          "type": "uint256"
        },
        {
          "internalType": "uint256",
          "name": "b",
          "type": "uint256"
        }
      ],
      "name": "max",
      "outputs": [
        {
          "internalType": "uint256",
          "name": "",
          "type": "uint256"
        }
      ],
      "stateMutability": "pure",
      "type": "function"
    },
    {
      "inputs": [
        {
          "internalType": "uint256",
          "name": "a",
          "type": "uint256"
        },
        {
          "internalType": "uint256",
          "name": "b",
          "type": "uint256"
        }
      ],
      "name": "min",
      "outputs": [
        {
          "internalType": "uint256",
          "name": "",
          "type": "uint256"
        }
      ],
      "stateMutability": "pure",
      "type": "function"
    }
  ],
  "bytecode": "0x608060405234801561001057600080fd5b506101ff806100206000396000f3fe608060405234801561001057600080fd5b50600436106100415760003560e01c80632b7423ab146100465780636d5433e61461006f5780637ae2b5c714610082575b600080fd5b61005961005436600461013d565b610095565b604051610066919061015e565b60405180910390f35b61005961007d36600461013d565b6100a8565b61005961009036600461013d565b6100b4565b60006100a183836100c0565b9392505050565b60006100a18383610117565b60006100a1838361012e565b600060026100ce818461019f565b6100d960028661019f565b6100e39190610167565b6100ed919061018b565b6100f860028461018b565b61010360028661018b565b61010d9190610167565b6100a19190610167565b60008183101561012757816100a1565b5090919050565b600081831061012757816100a1565b6000806040838503121561014f578182fd5b50508035926020909101359150565b90815260200190565b6000821982111561018657634e487b7160e01b81526011600452602481fd5b500190565b60008261019a5761019a6101b3565b500490565b6000826101ae576101ae6101b3565b500690565b634e487b7160e01b600052601260045260246000fdfea2646970667358221220394f89826b9d6550fd04cdecdfe647e843f99695aed28c2f6b43cc56f7c8814664736f6c63430008000033",
  "linkReferences": {},
  "deployedLinkReferences": {}
}