{
  "_format": "hh-sol-artifact-1",
  "contractName": "ERC1155ReceiverMock",
  "sourceName": "contracts/OpenZeppelin/mocks/ERC1155ReceiverMock.sol",
  "abi": [
    {
      "inputs": [
        {
          "internalType": "bytes4",
          "name": "recRetval",
          "type": "bytes4"
        },
        {
          "internalType": "bool",
          "name": "recReverts",
          "type": "bool"
        },
        {
          "internalType": "bytes4",
          "name": "batRetval",
          "type": "bytes4"
        },
        {
          "internalType": "bool",
          "name": "batReverts",
          "type": "bool"
        }
      ],
      "stateMutability": "nonpayable",
      "type": "constructor"
    },
    {
      "anonymous": false,
      "inputs": [
        {
          "indexed": false,
          "internalType": "address",
          "name": "operator",
          "type": "address"
        },
        {
          "indexed": false,
          "internalType": "address",
          "name": "from",
          "type": "address"
        },
        {
          "indexed": false,
          "internalType": "uint256[]",
          "name": "ids",
          "type": "uint256[]"
        },
        {
          "indexed": false,
          "internalType": "uint256[]",
          "name": "values",
          "type": "uint256[]"
        },
        {
          "indexed": false,
          "internalType": "bytes",
          "name": "data",
          "type": "bytes"
        },
        {
          "indexed": false,
          "internalType": "uint256",
          "name": "gas",
          "type": "uint256"
        }
      ],
      "name": "BatchReceived",
      "type": "event"
    },
    {
      "anonymous": false,
      "inputs": [
        {
          "indexed": false,
          "internalType": "address",
          "name": "operator",
          "type": "address"
        },
        {
          "indexed": false,
          "internalType": "address",
          "name": "from",
          "type": "address"
        },
        {
          "indexed": false,
          "internalType": "uint256",
          "name": "id",
          "type": "uint256"
        },
        {
          "indexed": false,
          "internalType": "uint256",
          "name": "value",
          "type": "uint256"
        },
        {
          "indexed": false,
          "internalType": "bytes",
          "name": "data",
          "type": "bytes"
        },
        {
          "indexed": false,
          "internalType": "uint256",
          "name": "gas",
          "type": "uint256"
        }
      ],
      "name": "Received",
      "type": "event"
    },
    {
      "inputs": [
        {
          "internalType": "address",
          "name": "operator",
          "type": "address"
        },
        {
          "internalType": "address",
          "name": "from",
          "type": "address"
        },
        {
          "internalType": "uint256[]",
          "name": "ids",
          "type": "uint256[]"
        },
        {
          "internalType": "uint256[]",
          "name": "values",
          "type": "uint256[]"
        },
        {
          "internalType": "bytes",
          "name": "data",
          "type": "bytes"
        }
      ],
      "name": "onERC1155BatchReceived",
      "outputs": [
        {
          "internalType": "bytes4",
          "name": "",
          "type": "bytes4"
        }
      ],
      "stateMutability": "nonpayable",
      "type": "function"
    },
    {
      "inputs": [
        {
          "internalType": "address",
          "name": "operator",
          "type": "address"
        },
        {
          "internalType": "address",
          "name": "from",
          "type": "address"
        },
        {
          "internalType": "uint256",
          "name": "id",
          "type": "uint256"
        },
        {
          "internalType": "uint256",
          "name": "value",
          "type": "uint256"
        },
        {
          "internalType": "bytes",
          "name": "data",
          "type": "bytes"
        }
      ],
      "name": "onERC1155Received",
      "outputs": [
        {
          "internalType": "bytes4",
          "name": "",
          "type": "bytes4"
        }
      ],
      "stateMutability": "nonpayable",
      "type": "function"
    },
    {
      "inputs": [
        {
          "internalType": "bytes4",
          "name": "interfaceId",
          "type": "bytes4"
        }
      ],
      "name": "registerInterface",
      "outputs": [],
      "stateMutability": "nonpayable",
      "type": "function"
    },
    {
      "inputs": [
        {
          "internalType": "bytes4",
          "name": "interfaceId",
          "type": "bytes4"
        }
      ],
      "name": "supportsInterface",
      "outputs": [
        {
          "internalType": "bool",
          "name": "",
          "type": "bool"
        }
      ],
      "stateMutability": "view",
      "type": "function"
    }
  ],
  "bytecode": "0x608060405234801561001057600080fd5b506040516108c23803806108c283398101604081905261002f9161012e565b61003f6301ffc9a760e01b6100a9565b6001805463ffffffff191660e095861c1760ff60201b1916640100000000941515949094029390931763ffffffff60281b1916650100000000009290941c919091029290921760ff60481b19166901000000000000000000921515929092029190911790556101b8565b6001600160e01b031980821614156100dc5760405162461bcd60e51b81526004016100d390610181565b60405180910390fd5b6001600160e01b0319166000908152602081905260409020805460ff19166001179055565b8051801515811461011157600080fd5b919050565b80516001600160e01b03198116811461011157600080fd5b60008060008060808587031215610143578384fd5b61014c85610116565b935061015a60208601610101565b925061016860408601610116565b915061017660608601610101565b905092959194509250565b6020808252601c908201527f4552433136353a20696e76616c696420696e7465726661636520696400000000604082015260600190565b6106fb806101c76000396000f3fe608060405234801561001057600080fd5b506004361061004c5760003560e01c806301ffc9a714610051578063214cdb801461007a578063bc197c811461008f578063f23a6e61146100af575b600080fd5b61006461005f36600461043b565b6100c2565b60405161007191906105b4565b60405180910390f35b61008d61008836600461043b565b6100e5565b005b6100a261009d36600461030e565b6100f1565b60405161007191906105bf565b6100a26100bd3660046103c5565b610190565b6001600160e01b0319811660009081526020819052604090205460ff165b919050565b6100ee81610212565b50565b6001546000906901000000000000000000900460ff161561012d5760405162461bcd60e51b815260040161012490610668565b60405180910390fd5b7f0bcad9224ba33b574e9c85298de2f44b4c80015a21aa5df474896444909863d889898989898989895a60405161016c999897969594939291906104e1565b60405180910390a15060015465010000000000900460e01b98975050505050505050565b600154600090640100000000900460ff16156101be5760405162461bcd60e51b81526004016101249061060b565b7f20dfa9f79060c8c4d7fe892c97c71bcf6e3b63d1dcf66fea7aefc0211628cf298787878787875a6040516101f9979695949392919061055a565b60405180910390a15060015460e01b9695505050505050565b6001600160e01b0319808216141561023c5760405162461bcd60e51b8152600401610124906105d4565b6001600160e01b0319166000908152602081905260409020805460ff19166001179055565b803573ffffffffffffffffffffffffffffffffffffffff811681146100e057600080fd5b60008083601f840112610296578182fd5b50813567ffffffffffffffff8111156102ad578182fd5b60208301915083602080830285010111156102c757600080fd5b9250929050565b60008083601f8401126102df578182fd5b50813567ffffffffffffffff8111156102f6578182fd5b6020830191508360208285010111156102c757600080fd5b60008060008060008060008060a0898b031215610329578384fd5b61033289610261565b975061034060208a01610261565b9650604089013567ffffffffffffffff8082111561035c578586fd5b6103688c838d01610285565b909850965060608b0135915080821115610380578586fd5b61038c8c838d01610285565b909650945060808b01359150808211156103a4578384fd5b506103b18b828c016102ce565b999c989b5096995094979396929594505050565b60008060008060008060a087890312156103dd578182fd5b6103e687610261565b95506103f460208801610261565b94506040870135935060608701359250608087013567ffffffffffffffff81111561041d578283fd5b61042989828a016102ce565b979a9699509497509295939492505050565b60006020828403121561044c578081fd5b81356001600160e01b031981168114610463578182fd5b9392505050565b60008284527f07ffffffffffffffffffffffffffffffffffffffffffffffffffffffffffffff83111561049b578081fd5b6020830280836020870137939093016020019283525090919050565b60008284528282602086013780602084860101526020601f19601f85011685010190509392505050565b600073ffffffffffffffffffffffffffffffffffffffff808c168352808b1660208401525060c0604083015261051b60c08301898b61046a565b828103606084015261052e81888a61046a565b905082810360808401526105438186886104b7565b9150508260a08301529a9950505050505050505050565b600073ffffffffffffffffffffffffffffffffffffffff808a16835280891660208401525086604083015285606083015260c060808301526105a060c0830185876104b7565b90508260a083015298975050505050505050565b901515815260200190565b6001600160e01b031991909116815260200190565b6020808252601c908201527f4552433136353a20696e76616c696420696e7465726661636520696400000000604082015260600190565b60208082526029908201527f4552433131353552656365697665724d6f636b3a20726576657274696e67206f60408201527f6e20726563656976650000000000000000000000000000000000000000000000606082015260800190565b6020808252602f908201527f4552433131353552656365697665724d6f636b3a20726576657274696e67206f60408201527f6e2062617463682072656365697665000000000000000000000000000000000060608201526080019056fea264697066735822122002329a1244245cabe4eb63eff8ee491acf1cfc0b4f9aa5281808bd8077574f6e64736f6c63430008000033",
  "linkReferences": {},
  "deployedLinkReferences": {}
}