{
  "_format": "hh-sol-artifact-1",
  "contractName": "ERC721PausableMock",
  "sourceName": "contracts/OpenZeppelin/mocks/ERC721PausableMock.sol",
  "abi": [
    {
      "inputs": [
        {
          "internalType": "string",
          "name": "name",
          "type": "string"
        },
        {
          "internalType": "string",
          "name": "symbol",
          "type": "string"
        }
      ],
      "stateMutability": "nonpayable",
      "type": "constructor"
    },
    {
      "anonymous": false,
      "inputs": [
        {
          "indexed": true,
          "internalType": "address",
          "name": "owner",
          "type": "address"
        },
        {
          "indexed": true,
          "internalType": "address",
          "name": "approved",
          "type": "address"
        },
        {
          "indexed": true,
          "internalType": "uint256",
          "name": "tokenId",
          "type": "uint256"
        }
      ],
      "name": "Approval",
      "type": "event"
    },
    {
      "anonymous": false,
      "inputs": [
        {
          "indexed": true,
          "internalType": "address",
          "name": "owner",
          "type": "address"
        },
        {
          "indexed": true,
          "internalType": "address",
          "name": "operator",
          "type": "address"
        },
        {
          "indexed": false,
          "internalType": "bool",
          "name": "approved",
          "type": "bool"
        }
      ],
      "name": "ApprovalForAll",
      "type": "event"
    },
    {
      "anonymous": false,
      "inputs": [
        {
          "indexed": false,
          "internalType": "address",
          "name": "account",
          "type": "address"
        }
      ],
      "name": "Paused",
      "type": "event"
    },
    {
      "anonymous": false,
      "inputs": [
        {
          "indexed": true,
          "internalType": "address",
          "name": "from",
          "type": "address"
        },
        {
          "indexed": true,
          "internalType": "address",
          "name": "to",
          "type": "address"
        },
        {
          "indexed": true,
          "internalType": "uint256",
          "name": "tokenId",
          "type": "uint256"
        }
      ],
      "name": "Transfer",
      "type": "event"
    },
    {
      "anonymous": false,
      "inputs": [
        {
          "indexed": false,
          "internalType": "address",
          "name": "account",
          "type": "address"
        }
      ],
      "name": "Unpaused",
      "type": "event"
    },
    {
      "inputs": [
        {
          "internalType": "address",
          "name": "to",
          "type": "address"
        },
        {
          "internalType": "uint256",
          "name": "tokenId",
          "type": "uint256"
        }
      ],
      "name": "approve",
      "outputs": [],
      "stateMutability": "nonpayable",
      "type": "function"
    },
    {
      "inputs": [
        {
          "internalType": "address",
          "name": "owner",
          "type": "address"
        }
      ],
      "name": "balanceOf",
      "outputs": [
        {
          "internalType": "uint256",
          "name": "",
          "type": "uint256"
        }
      ],
      "stateMutability": "view",
      "type": "function"
    },
    {
      "inputs": [],
      "name": "baseURI",
      "outputs": [
        {
          "internalType": "string",
          "name": "",
          "type": "string"
        }
      ],
      "stateMutability": "view",
      "type": "function"
    },
    {
      "inputs": [
        {
          "internalType": "uint256",
          "name": "tokenId",
          "type": "uint256"
        }
      ],
      "name": "burn",
      "outputs": [],
      "stateMutability": "nonpayable",
      "type": "function"
    },
    {
      "inputs": [
        {
          "internalType": "uint256",
          "name": "tokenId",
          "type": "uint256"
        }
      ],
      "name": "exists",
      "outputs": [
        {
          "internalType": "bool",
          "name": "",
          "type": "bool"
        }
      ],
      "stateMutability": "view",
      "type": "function"
    },
    {
      "inputs": [
        {
          "internalType": "uint256",
          "name": "tokenId",
          "type": "uint256"
        }
      ],
      "name": "getApproved",
      "outputs": [
        {
          "internalType": "address",
          "name": "",
          "type": "address"
        }
      ],
      "stateMutability": "view",
      "type": "function"
    },
    {
      "inputs": [
        {
          "internalType": "address",
          "name": "owner",
          "type": "address"
        },
        {
          "internalType": "address",
          "name": "operator",
          "type": "address"
        }
      ],
      "name": "isApprovedForAll",
      "outputs": [
        {
          "internalType": "bool",
          "name": "",
          "type": "bool"
        }
      ],
      "stateMutability": "view",
      "type": "function"
    },
    {
      "inputs": [
        {
          "internalType": "address",
          "name": "to",
          "type": "address"
        },
        {
          "internalType": "uint256",
          "name": "tokenId",
          "type": "uint256"
        }
      ],
      "name": "mint",
      "outputs": [],
      "stateMutability": "nonpayable",
      "type": "function"
    },
    {
      "inputs": [],
      "name": "name",
      "outputs": [
        {
          "internalType": "string",
          "name": "",
          "type": "string"
        }
      ],
      "stateMutability": "view",
      "type": "function"
    },
    {
      "inputs": [
        {
          "internalType": "uint256",
          "name": "tokenId",
          "type": "uint256"
        }
      ],
      "name": "ownerOf",
      "outputs": [
        {
          "internalType": "address",
          "name": "",
          "type": "address"
        }
      ],
      "stateMutability": "view",
      "type": "function"
    },
    {
      "inputs": [],
      "name": "pause",
      "outputs": [],
      "stateMutability": "nonpayable",
      "type": "function"
    },
    {
      "inputs": [],
      "name": "paused",
      "outputs": [
        {
          "internalType": "bool",
          "name": "",
          "type": "bool"
        }
      ],
      "stateMutability": "view",
      "type": "function"
    },
    {
      "inputs": [
        {
          "internalType": "address",
          "name": "from",
          "type": "address"
        },
        {
          "internalType": "address",
          "name": "to",
          "type": "address"
        },
        {
          "internalType": "uint256",
          "name": "tokenId",
          "type": "uint256"
        }
      ],
      "name": "safeTransferFrom",
      "outputs": [],
      "stateMutability": "nonpayable",
      "type": "function"
    },
    {
      "inputs": [
        {
          "internalType": "address",
          "name": "from",
          "type": "address"
        },
        {
          "internalType": "address",
          "name": "to",
          "type": "address"
        },
        {
          "internalType": "uint256",
          "name": "tokenId",
          "type": "uint256"
        },
        {
          "internalType": "bytes",
          "name": "_data",
          "type": "bytes"
        }
      ],
      "name": "safeTransferFrom",
      "outputs": [],
      "stateMutability": "nonpayable",
      "type": "function"
    },
    {
      "inputs": [
        {
          "internalType": "address",
          "name": "operator",
          "type": "address"
        },
        {
          "internalType": "bool",
          "name": "approved",
          "type": "bool"
        }
      ],
      "name": "setApprovalForAll",
      "outputs": [],
      "stateMutability": "nonpayable",
      "type": "function"
    },
    {
      "inputs": [
        {
          "internalType": "bytes4",
          "name": "interfaceId",
          "type": "bytes4"
        }
      ],
      "name": "supportsInterface",
      "outputs": [
        {
          "internalType": "bool",
          "name": "",
          "type": "bool"
        }
      ],
      "stateMutability": "view",
      "type": "function"
    },
    {
      "inputs": [],
      "name": "symbol",
      "outputs": [
        {
          "internalType": "string",
          "name": "",
          "type": "string"
        }
      ],
      "stateMutability": "view",
      "type": "function"
    },
    {
      "inputs": [
        {
          "internalType": "uint256",
          "name": "index",
          "type": "uint256"
        }
      ],
      "name": "tokenByIndex",
      "outputs": [
        {
          "internalType": "uint256",
          "name": "",
          "type": "uint256"
        }
      ],
      "stateMutability": "view",
      "type": "function"
    },
    {
      "inputs": [
        {
          "internalType": "address",
          "name": "owner",
          "type": "address"
        },
        {
          "internalType": "uint256",
          "name": "index",
          "type": "uint256"
        }
      ],
      "name": "tokenOfOwnerByIndex",
      "outputs": [
        {
          "internalType": "uint256",
          "name": "",
          "type": "uint256"
        }
      ],
      "stateMutability": "view",
      "type": "function"
    },
    {
      "inputs": [
        {
          "internalType": "uint256",
          "name": "tokenId",
          "type": "uint256"
        }
      ],
      "name": "tokenURI",
      "outputs": [
        {
          "internalType": "string",
          "name": "",
          "type": "string"
        }
      ],
      "stateMutability": "view",
      "type": "function"
    },
    {
      "inputs": [],
      "name": "totalSupply",
      "outputs": [
        {
          "internalType": "uint256",
          "name": "",
          "type": "uint256"
        }
      ],
      "stateMutability": "view",
      "type": "function"
    },
    {
      "inputs": [
        {
          "internalType": "address",
          "name": "from",
          "type": "address"
        },
        {
          "internalType": "address",
          "name": "to",
          "type": "address"
        },
        {
          "internalType": "uint256",
          "name": "tokenId",
          "type": "uint256"
        }
      ],
      "name": "transferFrom",
      "outputs": [],
      "stateMutability": "nonpayable",
      "type": "function"
    },
    {
      "inputs": [],
      "name": "unpause",
      "outputs": [],
      "stateMutability": "nonpayable",
      "type": "function"
    }
  ],
  "bytecode": "0x60806040523480156200001157600080fd5b50604051620023553803806200235583398101604081905262000034916200026b565b8181620000486301ffc9a760e01b620000bf565b81516200005d9060069060208501906200011a565b508051620000739060079060208401906200011a565b50620000866380ac58cd60e01b620000bf565b62000098635b5e139f60e01b620000bf565b620000aa63780e9d6360e01b620000bf565b5050600a805460ff19169055506200035c9050565b6001600160e01b03198082161415620000f55760405162461bcd60e51b8152600401620000ec90620002d2565b60405180910390fd5b6001600160e01b0319166000908152602081905260409020805460ff19166001179055565b828054620001289062000309565b90600052602060002090601f0160209004810192826200014c576000855562000197565b82601f106200016757805160ff191683800117855562000197565b8280016001018555821562000197579182015b82811115620001975782518255916020019190600101906200017a565b50620001a5929150620001a9565b5090565b5b80821115620001a55760008155600101620001aa565b600082601f830112620001d1578081fd5b81516001600160401b0380821115620001ee57620001ee62000346565b6040516020601f8401601f191682018101838111838210171562000216576200021662000346565b60405283825285840181018710156200022d578485fd5b8492505b8383101562000250578583018101518284018201529182019162000231565b838311156200026157848185840101525b5095945050505050565b600080604083850312156200027e578182fd5b82516001600160401b038082111562000295578384fd5b620002a386838701620001c0565b93506020850151915080821115620002b9578283fd5b50620002c885828601620001c0565b9150509250929050565b6020808252601c908201527f4552433136353a20696e76616c696420696e7465726661636520696400000000604082015260600190565b6002810460018216806200031e57607f821691505b602082108114156200034057634e487b7160e01b600052602260045260246000fd5b50919050565b634e487b7160e01b600052604160045260246000fd5b611fe9806200036c6000396000f3fe608060405234801561001057600080fd5b506004361061018d5760003560e01c80634f558e79116100e35780638456cb591161008c578063b88d4fde11610066578063b88d4fde14610300578063c87b56dd14610313578063e985e9c5146103265761018d565b80638456cb59146102dd57806395d89b41146102e5578063a22cb465146102ed5761018d565b80636352211e116100bd5780636352211e146102af5780636c0360eb146102c257806370a08231146102ca5761018d565b80634f558e79146102815780634f6ccce7146102945780635c975abb146102a75761018d565b806323b872dd1161014557806340c10f191161011f57806340c10f191461024857806342842e0e1461025b57806342966c681461026e5761018d565b806323b872dd1461021a5780632f745c591461022d5780633f4ba83a146102405761018d565b8063081812fc11610176578063081812fc146101d0578063095ea7b3146101f057806318160ddd146102055761018d565b806301ffc9a71461019257806306fdde03146101bb575b600080fd5b6101a56101a03660046117ad565b610339565b6040516101b291906118a8565b60405180910390f35b6101c3610374565b6040516101b291906118b3565b6101e36101de3660046117e5565b610406565b6040516101b29190611858565b6102036101fe366004611784565b610452565b005b61020d6104ea565b6040516101b29190611e38565b610203610228366004611643565b6104fb565b61020d61023b366004611784565b610533565b61020361055e565b610203610256366004611784565b610568565b610203610269366004611643565b610576565b61020361027c3660046117e5565b610591565b6101a561028f3660046117e5565b61059d565b61020d6102a23660046117e5565b6105a8565b6101a56105be565b6101e36102bd3660046117e5565b6105c7565b6101c36105ef565b61020d6102d83660046115f7565b6105fe565b610203610647565b6101c361064f565b6102036102fb36600461174a565b61065e565b61020361030e36600461167e565b61072c565b6101c36103213660046117e5565b61076b565b6101a5610334366004611611565b6108ae565b7fffffffff00000000000000000000000000000000000000000000000000000000811660009081526020819052604090205460ff165b919050565b60606006805461038390611eb0565b80601f01602080910402602001604051908101604052809291908181526020018280546103af90611eb0565b80156103fc5780601f106103d1576101008083540402835291602001916103fc565b820191906000526020600020905b8154815290600101906020018083116103df57829003601f168201915b5050505050905090565b6000610411826108dc565b6104365760405162461bcd60e51b815260040161042d90611c78565b60405180910390fd5b506000908152600460205260409020546001600160a01b031690565b600061045d826105c7565b9050806001600160a01b0316836001600160a01b031614156104915760405162461bcd60e51b815260040161042d90611d7e565b806001600160a01b03166104a36108e9565b6001600160a01b031614806104bf57506104bf816103346108e9565b6104db5760405162461bcd60e51b815260040161042d90611b47565b6104e583836108ed565b505050565b60006104f66002610973565b905090565b61050c6105066108e9565b8261097e565b6105285760405162461bcd60e51b815260040161042d90611ddb565b6104e5838383610a03565b6001600160a01b03821660009081526001602052604081206105559083610b11565b90505b92915050565b610566610b1d565b565b6105728282610b8b565b5050565b6104e58383836040518060200160405280600081525061072c565b61059a81610c4f565b50565b6000610558826108dc565b6000806105b6600284610d15565b509392505050565b600a5460ff1690565b600061055882604051806060016040528060298152602001611f8b6029913960029190610d31565b60606009805461038390611eb0565b60006001600160a01b0382166106265760405162461bcd60e51b815260040161042d90611ba4565b6001600160a01b038216600090815260016020526040902061055890610973565b610566610d48565b60606007805461038390611eb0565b6106666108e9565b6001600160a01b0316826001600160a01b031614156106975760405162461bcd60e51b815260040161042d90611a8d565b80600560006106a46108e9565b6001600160a01b03908116825260208083019390935260409182016000908120918716808252919093529120805460ff1916921515929092179091556106e86108e9565b6001600160a01b03167f17307eab39ab6107e8899845ad3d59bd9653f200f220920489ca2b5937696c318360405161072091906118a8565b60405180910390a35050565b61073d6107376108e9565b8361097e565b6107595760405162461bcd60e51b815260040161042d90611ddb565b61076584848484610da3565b50505050565b6060610776826108dc565b6107925760405162461bcd60e51b815260040161042d90611d21565b600082815260086020526040812080546107ab90611eb0565b80601f01602080910402602001604051908101604052809291908181526020018280546107d790611eb0565b80156108245780601f106107f957610100808354040283529160200191610824565b820191906000526020600020905b81548152906001019060200180831161080757829003601f168201915b5050505050905060006108356105ef565b90508051600014156108495750905061036f565b81511561087b578082604051602001610863929190611829565b6040516020818303038152906040529250505061036f565b8061088585610dd6565b604051602001610896929190611829565b60405160208183030381529060405292505050919050565b6001600160a01b03918216600090815260056020908152604080832093909416825291909152205460ff1690565b6000610558600283610f25565b3390565b600081815260046020526040902080547fffffffffffffffffffffffff0000000000000000000000000000000000000000166001600160a01b038416908117909155819061093a826105c7565b6001600160a01b03167f8c5be1e5ebec7d5bd14f71427d1e84f3dd0314c0f7b2291e5b200ac8c7c3b92560405160405180910390a45050565b600061055882610f31565b6000610989826108dc565b6109a55760405162461bcd60e51b815260040161042d90611ac4565b60006109b0836105c7565b9050806001600160a01b0316846001600160a01b031614806109eb5750836001600160a01b03166109e084610406565b6001600160a01b0316145b806109fb57506109fb81856108ae565b949350505050565b826001600160a01b0316610a16826105c7565b6001600160a01b031614610a3c5760405162461bcd60e51b815260040161042d90611cc4565b6001600160a01b038216610a625760405162461bcd60e51b815260040161042d90611a30565b610a6d838383610f35565b610a786000826108ed565b6001600160a01b0383166000908152600160205260409020610a9a9082610f65565b506001600160a01b0382166000908152600160205260409020610abd9082610f71565b50610aca60028284610f7d565b5080826001600160a01b0316846001600160a01b03167fddf252ad1be2c89b69c2b068fc378daa952ba7f163c4a11628f55a4df523b3ef60405160405180910390a4505050565b60006105558383610f93565b610b256105be565b610b415760405162461bcd60e51b815260040161042d90611965565b600a805460ff191690557f5db9ee0a495bf2e6ff9c91a7834c1ba4fdd244a5e8aa4e537bd38aeae4b073aa610b746108e9565b604051610b819190611858565b60405180910390a1565b6001600160a01b038216610bb15760405162461bcd60e51b815260040161042d90611c43565b610bba816108dc565b15610bd75760405162461bcd60e51b815260040161042d906119f9565b610be360008383610f35565b6001600160a01b0382166000908152600160205260409020610c059082610f71565b50610c1260028284610f7d565b5060405181906001600160a01b038416906000907fddf252ad1be2c89b69c2b068fc378daa952ba7f163c4a11628f55a4df523b3ef908290a45050565b6000610c5a826105c7565b9050610c6881600084610f35565b610c736000836108ed565b60008281526008602052604090208054610c8c90611eb0565b159050610caa576000828152600860205260408120610caa91611590565b6001600160a01b0381166000908152600160205260409020610ccc9083610f65565b50610cd8600283610fec565b5060405182906000906001600160a01b038416907fddf252ad1be2c89b69c2b068fc378daa952ba7f163c4a11628f55a4df523b3ef908390a45050565b6000808080610d248686610ff8565b9097909650945050505050565b6000610d3e848484611068565b90505b9392505050565b610d506105be565b15610d6d5760405162461bcd60e51b815260040161042d90611b10565b600a805460ff191660011790557f62e78cea01bee320cd4e420270b5ea74000d11b0c9f74754ebdbfc544b05a258610b746108e9565b610dae848484610a03565b610dba848484846110df565b6107655760405162461bcd60e51b815260040161042d9061199c565b606081610e17575060408051808201909152600181527f3000000000000000000000000000000000000000000000000000000000000000602082015261036f565b8160005b8115610e415780610e2b81611eeb565b9150610e3a9050600a83611e59565b9150610e1b565b60008167ffffffffffffffff811115610e6a57634e487b7160e01b600052604160045260246000fd5b6040519080825280601f01601f191660200182016040528015610e94576020820181803683370190505b5090505b84156109fb57610ea9600183611e6d565b9150610eb6600a86611f06565b610ec1906030611e41565b60f81b818381518110610ee457634e487b7160e01b600052603260045260246000fd5b60200101907effffffffffffffffffffffffffffffffffffffffffffffffffffffffffffff1916908160001a905350610f1e600a86611e59565b9450610e98565b6000610555838361122b565b5490565b610f408383836104e5565b610f486105be565b156104e55760405162461bcd60e51b815260040161042d90611908565b60006105558383611243565b60006105558383611360565b6000610d3e84846001600160a01b0385166113aa565b81546000908210610fb65760405162461bcd60e51b815260040161042d906118c6565b826000018281548110610fd957634e487b7160e01b600052603260045260246000fd5b9060005260206000200154905092915050565b60006105558383611459565b81546000908190831061101d5760405162461bcd60e51b815260040161042d90611c01565b600084600001848154811061104257634e487b7160e01b600052603260045260246000fd5b906000526020600020906002020190508060000154816001015492509250509250929050565b600082815260018401602052604081205482816110985760405162461bcd60e51b815260040161042d91906118b3565b50846110a5600183611e6d565b815481106110c357634e487b7160e01b600052603260045260246000fd5b9060005260206000209060020201600101549150509392505050565b60006110f3846001600160a01b031661158a565b1561122057836001600160a01b031663150b7a0261110f6108e9565b8786866040518563ffffffff1660e01b8152600401611131949392919061186c565b602060405180830381600087803b15801561114b57600080fd5b505af192505050801561117b575060408051601f3d908101601f19168201909252611178918101906117c9565b60015b6111d5573d8080156111a9576040519150601f19603f3d011682016040523d82523d6000602084013e6111ae565b606091505b5080516111cd5760405162461bcd60e51b815260040161042d9061199c565b805181602001fd5b7fffffffff00000000000000000000000000000000000000000000000000000000167f150b7a02000000000000000000000000000000000000000000000000000000001490506109fb565b506001949350505050565b60009081526001919091016020526040902054151590565b60008181526001830160205260408120548015611356576000611267600183611e6d565b855490915060009061127b90600190611e6d565b905060008660000182815481106112a257634e487b7160e01b600052603260045260246000fd5b90600052602060002001549050808760000184815481106112d357634e487b7160e01b600052603260045260246000fd5b6000918252602090912001556112ea836001611e41565b6000828152600189016020526040902055865487908061131a57634e487b7160e01b600052603160045260246000fd5b60019003818190600052602060002001600090559055866001016000878152602001908152602001600020600090556001945050505050610558565b6000915050610558565b600061136c838361122b565b6113a257508154600181810184556000848152602080822090930184905584548482528286019093526040902091909155610558565b506000610558565b60008281526001840160205260408120548061140f575050604080518082018252838152602080820184815286546001818101895560008981528481209551600290930290950191825591519082015586548684528188019092529290912055610d41565b828561141c600184611e6d565b8154811061143a57634e487b7160e01b600052603260045260246000fd5b9060005260206000209060020201600101819055506000915050610d41565b6000818152600183016020526040812054801561135657600061147d600183611e6d565b855490915060009061149190600190611e6d565b905060008660000182815481106114b857634e487b7160e01b600052603260045260246000fd5b90600052602060002090600202019050808760000184815481106114ec57634e487b7160e01b600052603260045260246000fd5b60009182526020909120825460029092020190815560019182015490820155611516908490611e41565b81546000908152600189016020526040902055865487908061154857634e487b7160e01b600052603160045260246000fd5b60008281526020808220600260001990940193840201828155600190810183905592909355888152898201909252604082209190915594506105589350505050565b3b151590565b50805461159c90611eb0565b6000825580601f106115ae575061059a565b601f01602090049060005260206000209081019061059a91905b808211156115dc57600081556001016115c8565b5090565b80356001600160a01b038116811461036f57600080fd5b600060208284031215611608578081fd5b610555826115e0565b60008060408385031215611623578081fd5b61162c836115e0565b915061163a602084016115e0565b90509250929050565b600080600060608486031215611657578081fd5b611660846115e0565b925061166e602085016115e0565b9150604084013590509250925092565b60008060008060808587031215611693578081fd5b61169c856115e0565b935060206116ab8187016115e0565b935060408601359250606086013567ffffffffffffffff808211156116ce578384fd5b818801915088601f8301126116e1578384fd5b8135818111156116f3576116f3611f46565b604051601f8201601f191681018501838111828210171561171657611716611f46565b60405281815283820185018b101561172c578586fd5b81858501868301379081019093019390935250939692955090935050565b6000806040838503121561175c578182fd5b611765836115e0565b915060208301358015158114611779578182fd5b809150509250929050565b60008060408385031215611796578182fd5b61179f836115e0565b946020939093013593505050565b6000602082840312156117be578081fd5b8135610d4181611f5c565b6000602082840312156117da578081fd5b8151610d4181611f5c565b6000602082840312156117f6578081fd5b5035919050565b60008151808452611815816020860160208601611e84565b601f01601f19169290920160200192915050565b6000835161183b818460208801611e84565b83519083019061184f818360208801611e84565b01949350505050565b6001600160a01b0391909116815260200190565b60006001600160a01b0380871683528086166020840152508360408301526080606083015261189e60808301846117fd565b9695505050505050565b901515815260200190565b60006020825261055560208301846117fd565b60208082526022908201527f456e756d657261626c655365743a20696e646578206f7574206f6620626f756e604082015261647360f01b606082015260800190565b6020808252602b908201527f4552433732315061757361626c653a20746f6b656e207472616e73666572207760408201527f68696c6520706175736564000000000000000000000000000000000000000000606082015260800190565b60208082526014908201527f5061757361626c653a206e6f7420706175736564000000000000000000000000604082015260600190565b60208082526032908201527f4552433732313a207472616e7366657220746f206e6f6e20455243373231526560408201527f63656976657220696d706c656d656e7465720000000000000000000000000000606082015260800190565b6020808252601c908201527f4552433732313a20746f6b656e20616c7265616479206d696e74656400000000604082015260600190565b60208082526024908201527f4552433732313a207472616e7366657220746f20746865207a65726f2061646460408201527f7265737300000000000000000000000000000000000000000000000000000000606082015260800190565b60208082526019908201527f4552433732313a20617070726f766520746f2063616c6c657200000000000000604082015260600190565b6020808252602c908201527f4552433732313a206f70657261746f7220717565727920666f72206e6f6e657860408201526b34b9ba32b73a103a37b5b2b760a11b606082015260800190565b60208082526010908201527f5061757361626c653a2070617573656400000000000000000000000000000000604082015260600190565b60208082526038908201527f4552433732313a20617070726f76652063616c6c6572206973206e6f74206f7760408201527f6e6572206e6f7220617070726f76656420666f7220616c6c0000000000000000606082015260800190565b6020808252602a908201527f4552433732313a2062616c616e636520717565727920666f7220746865207a6560408201527f726f206164647265737300000000000000000000000000000000000000000000606082015260800190565b60208082526022908201527f456e756d657261626c654d61703a20696e646578206f7574206f6620626f756e604082015261647360f01b606082015260800190565b6020808252818101527f4552433732313a206d696e7420746f20746865207a65726f2061646472657373604082015260600190565b6020808252602c908201527f4552433732313a20617070726f76656420717565727920666f72206e6f6e657860408201526b34b9ba32b73a103a37b5b2b760a11b606082015260800190565b60208082526029908201527f4552433732313a207472616e73666572206f6620746f6b656e2074686174206960408201527f73206e6f74206f776e0000000000000000000000000000000000000000000000606082015260800190565b6020808252602f908201527f4552433732314d657461646174613a2055524920717565727920666f72206e6f60408201527f6e6578697374656e7420746f6b656e0000000000000000000000000000000000606082015260800190565b60208082526021908201527f4552433732313a20617070726f76616c20746f2063757272656e74206f776e6560408201527f7200000000000000000000000000000000000000000000000000000000000000606082015260800190565b60208082526031908201527f4552433732313a207472616e736665722063616c6c6572206973206e6f74206f60408201527f776e6572206e6f7220617070726f766564000000000000000000000000000000606082015260800190565b90815260200190565b60008219821115611e5457611e54611f1a565b500190565b600082611e6857611e68611f30565b500490565b600082821015611e7f57611e7f611f1a565b500390565b60005b83811015611e9f578181015183820152602001611e87565b838111156107655750506000910152565b600281046001821680611ec457607f821691505b60208210811415611ee557634e487b7160e01b600052602260045260246000fd5b50919050565b6000600019821415611eff57611eff611f1a565b5060010190565b600082611f1557611f15611f30565b500690565b634e487b7160e01b600052601160045260246000fd5b634e487b7160e01b600052601260045260246000fd5b634e487b7160e01b600052604160045260246000fd5b7fffffffff000000000000000000000000000000000000000000000000000000008116811461059a57600080fdfe4552433732313a206f776e657220717565727920666f72206e6f6e6578697374656e7420746f6b656ea26469706673582212207e293ab2796f436a6f0f79b88fac55d4af2189ec835e972a276c31be168d80bc64736f6c63430008000033",
  "linkReferences": {},
  "deployedLinkReferences": {}
}