{
  "_format": "hh-sol-artifact-1",
  "contractName": "ERC165InterfacesSupported",
  "sourceName": "contracts/OpenZeppelin/mocks/ERC165/ERC165InterfacesSupported.sol",
  "abi": [
    {
      "inputs": [
        {
          "internalType": "bytes4[]",
          "name": "interfaceIds",
          "type": "bytes4[]"
        }
      ],
      "stateMutability": "nonpayable",
      "type": "constructor"
    },
    {
      "inputs": [],
      "name": "INTERFACE_ID_ERC165",
      "outputs": [
        {
          "internalType": "bytes4",
          "name": "",
          "type": "bytes4"
        }
      ],
      "stateMutability": "view",
      "type": "function"
    },
    {
      "inputs": [
        {
          "internalType": "bytes4",
          "name": "interfaceId",
          "type": "bytes4"
        }
      ],
      "name": "supportsInterface",
      "outputs": [
        {
          "internalType": "bool",
          "name": "",
          "type": "bool"
        }
      ],
      "stateMutability": "view",
      "type": "function"
    }
  ],
  "bytecode": "0x608060405234801561001057600080fd5b506040516103f33803806103f383398101604081905261002f9161010f565b61003f6301ffc9a760e01b61009a565b60005b81518110156100935761008182828151811061006e57634e487b7160e01b600052603260045260246000fd5b602002602001015161009a60201b60201c565b8061008b8161021e565b915050610042565b505061025b565b6001600160e01b031980821614156100cd5760405162461bcd60e51b81526004016100c4906101cf565b60405180910390fd5b6001600160e01b0319166000908152602081905260409020805460ff19166001179055565b80516001600160e01b03198116811461010a57600080fd5b919050565b60006020808385031215610121578182fd5b82516001600160401b0380821115610137578384fd5b818501915085601f83011261014a578384fd5b81518181111561015c5761015c610245565b8381026040518582820101818110858211171561017b5761017b610245565b604052828152858101935084860182860187018a1015610199578788fd5b8795505b838610156101c2576101ae816100f2565b85526001959095019493860193860161019d565b5098975050505050505050565b6020808252602f908201527f455243313635496e7465726661636573537570706f727465643a20696e76616c60408201526e1a59081a5b9d195c999858d9481a59608a1b606082015260800190565b600060001982141561023e57634e487b7160e01b81526011600452602481fd5b5060010190565b634e487b7160e01b600052604160045260246000fd5b6101898061026a6000396000f3fe608060405234801561001057600080fd5b50600436106100365760003560e01c806301ffc9a71461003b57806334d7006c14610064575b600080fd5b61004e6100493660046100d4565b610079565b60405161005b919061011b565b60405180910390f35b61006c6100b0565b60405161005b9190610126565b7fffffffff000000000000000000000000000000000000000000000000000000001660009081526020819052604090205460ff1690565b7f01ffc9a70000000000000000000000000000000000000000000000000000000081565b6000602082840312156100e5578081fd5b81357fffffffff0000000000000000000000000000000000000000000000000000000081168114610114578182fd5b9392505050565b901515815260200190565b7fffffffff000000000000000000000000000000000000000000000000000000009190911681526020019056fea2646970667358221220c0ea1ca30dba3046725c5ee8ca9291fab844a4e40186f1ee2e7412e37127afbb64736f6c63430008000033",
  "linkReferences": {},
  "deployedLinkReferences": {}
}