{
  "_format": "hh-sol-artifact-1",
  "contractName": "ClonesMock",
  "sourceName": "contracts/OpenZeppelin/mocks/ClonesMock.sol",
  "abi": [
    {
      "anonymous": false,
      "inputs": [
        {
          "indexed": false,
          "internalType": "address",
          "name": "instance",
          "type": "address"
        }
      ],
      "name": "NewInstance",
      "type": "event"
    },
    {
      "inputs": [
        {
          "internalType": "address",
          "name": "master",
          "type": "address"
        },
        {
          "internalType": "bytes",
          "name": "initdata",
          "type": "bytes"
        }
      ],
      "name": "clone",
      "outputs": [],
      "stateMutability": "payable",
      "type": "function"
    },
    {
      "inputs": [
        {
          "internalType": "address",
          "name": "master",
          "type": "address"
        },
        {
          "internalType": "bytes32",
          "name": "salt",
          "type": "bytes32"
        },
        {
          "internalType": "bytes",
          "name": "initdata",
          "type": "bytes"
        }
      ],
      "name": "cloneDeterministic",
      "outputs": [],
      "stateMutability": "payable",
      "type": "function"
    },
    {
      "inputs": [
        {
          "internalType": "address",
          "name": "master",
          "type": "address"
        },
        {
          "internalType": "bytes32",
          "name": "salt",
          "type": "bytes32"
        }
      ],
      "name": "predictDeterministicAddress",
      "outputs": [
        {
          "internalType": "address",
          "name": "predicted",
          "type": "address"
        }
      ],
      "stateMutability": "view",
      "type": "function"
    }
  ],
  "bytecode": "0x608060405234801561001057600080fd5b5061076a806100206000396000f3fe6080604052600436106100345760003560e01c80630fbe133c14610039578063360d0fad1461004e5780636e9ebc8114610084575b600080fd5b61004c610047366004610529565b610097565b005b34801561005a57600080fd5b5061006e6100693660046104a8565b6100ed565b60405161007b9190610596565b60405180910390f35b61004c6100923660046104d1565b61010b565b6100e86100ac846001600160a01b0316610127565b83838080601f0160208091040260200160405190810160405280939291908181526020018383808284376000920191909152506101bb92505050565b505050565b60006101026001600160a01b03841683610213565b90505b92915050565b6101216100ac6001600160a01b03861685610220565b50505050565b60006040517f3d602d80600a3d3981f3363d3d373d3d3d363d7300000000000000000000000081528260601b60148201527f5af43d82803e903d91602b57fd5bf3000000000000000000000000000000000060288201526037816000f09150506001600160a01b0381166101b65760405162461bcd60e51b81526004016101ad90610671565b60405180910390fd5b919050565b8051156101d8576101d66001600160a01b03831682346102a7565b505b7f39a773f10839d86923d91d5ce7d6642f2f63a95d850495abb1f162e38aa04ea5826040516102079190610596565b60405180910390a15050565b60006101028383306102d7565b60006040517f3d602d80600a3d3981f3363d3d373d3d3d363d7300000000000000000000000081528360601b60148201527f5af43d82803e903d91602b57fd5bf300000000000000000000000000000000006028820152826037826000f59150506001600160a01b0381166101055760405162461bcd60e51b81526004016101ad906105dd565b60606102cd84848460405180606001604052806029815260200161070c6029913961034b565b90505b9392505050565b6040517f3d602d80600a3d3981f3363d3d373d3d3d363d730000000000000000000000008152606093841b60148201527f5af43d82803e903d91602b57fd5bf3ff000000000000000000000000000000006028820152921b6038830152604c8201526037808220606c830152605591012090565b60608247101561036d5760405162461bcd60e51b81526004016101ad90610614565b6103768561040b565b6103925760405162461bcd60e51b81526004016101ad906106a8565b600080866001600160a01b031685876040516103ae919061057a565b60006040518083038185875af1925050503d80600081146103eb576040519150601f19603f3d011682016040523d82523d6000602084013e6103f0565b606091505b5091509150610400828286610411565b979650505050505050565b3b151590565b606083156104205750816102d0565b8251156104305782518084602001fd5b8160405162461bcd60e51b81526004016101ad91906105aa565b80356001600160a01b03811681146101b657600080fd5b60008083601f840112610472578182fd5b50813567ffffffffffffffff811115610489578182fd5b6020830191508360208285010111156104a157600080fd5b9250929050565b600080604083850312156104ba578182fd5b6104c38361044a565b946020939093013593505050565b600080600080606085870312156104e6578182fd5b6104ef8561044a565b935060208501359250604085013567ffffffffffffffff811115610511578283fd5b61051d87828801610461565b95989497509550505050565b60008060006040848603121561053d578283fd5b6105468461044a565b9250602084013567ffffffffffffffff811115610561578283fd5b61056d86828701610461565b9497909650939450505050565b6000825161058c8184602087016106df565b9190910192915050565b6001600160a01b0391909116815260200190565b60006020825282518060208401526105c98160408501602087016106df565b601f01601f19169190910160400192915050565b60208082526017908201527f455243313136373a2063726561746532206661696c6564000000000000000000604082015260600190565b60208082526026908201527f416464726573733a20696e73756666696369656e742062616c616e636520666f60408201527f722063616c6c0000000000000000000000000000000000000000000000000000606082015260800190565b60208082526016908201527f455243313136373a20637265617465206661696c656400000000000000000000604082015260600190565b6020808252601d908201527f416464726573733a2063616c6c20746f206e6f6e2d636f6e7472616374000000604082015260600190565b60005b838110156106fa5781810151838201526020016106e2565b83811115610121575050600091015256fe416464726573733a206c6f772d6c6576656c2063616c6c20776974682076616c7565206661696c6564a2646970667358221220f8e78110aa1e17e28383548c7f530f141e5d755d5c533a747f11c5605fdbdd5864736f6c63430008000033",
  "linkReferences": {},
  "deployedLinkReferences": {}
}