{
  "_format": "hh-sol-artifact-1",
  "contractName": "GSNRecipientERC20FeeMock",
  "sourceName": "contracts/OpenZeppelin/mocks/GSNRecipientERC20FeeMock.sol",
  "abi": [
    {
      "inputs": [
        {
          "internalType": "string",
          "name": "name",
          "type": "string"
        },
        {
          "internalType": "string",
          "name": "symbol",
          "type": "string"
        }
      ],
      "stateMutability": "nonpayable",
      "type": "constructor"
    },
    {
      "anonymous": false,
      "inputs": [
        {
          "indexed": false,
          "internalType": "uint256",
          "name": "senderBalance",
          "type": "uint256"
        }
      ],
      "name": "MockFunctionCalled",
      "type": "event"
    },
    {
      "anonymous": false,
      "inputs": [
        {
          "indexed": true,
          "internalType": "address",
          "name": "oldRelayHub",
          "type": "address"
        },
        {
          "indexed": true,
          "internalType": "address",
          "name": "newRelayHub",
          "type": "address"
        }
      ],
      "name": "RelayHubChanged",
      "type": "event"
    },
    {
      "inputs": [
        {
          "internalType": "address",
          "name": "",
          "type": "address"
        },
        {
          "internalType": "address",
          "name": "from",
          "type": "address"
        },
        {
          "internalType": "bytes",
          "name": "",
          "type": "bytes"
        },
        {
          "internalType": "uint256",
          "name": "transactionFee",
          "type": "uint256"
        },
        {
          "internalType": "uint256",
          "name": "gasPrice",
          "type": "uint256"
        },
        {
          "internalType": "uint256",
          "name": "",
          "type": "uint256"
        },
        {
          "internalType": "uint256",
          "name": "",
          "type": "uint256"
        },
        {
          "internalType": "bytes",
          "name": "",
          "type": "bytes"
        },
        {
          "internalType": "uint256",
          "name": "maxPossibleCharge",
          "type": "uint256"
        }
      ],
      "name": "acceptRelayedCall",
      "outputs": [
        {
          "internalType": "uint256",
          "name": "",
          "type": "uint256"
        },
        {
          "internalType": "bytes",
          "name": "",
          "type": "bytes"
        }
      ],
      "stateMutability": "view",
      "type": "function"
    },
    {
      "inputs": [],
      "name": "getHubAddr",
      "outputs": [
        {
          "internalType": "address",
          "name": "",
          "type": "address"
        }
      ],
      "stateMutability": "view",
      "type": "function"
    },
    {
      "inputs": [
        {
          "internalType": "address",
          "name": "account",
          "type": "address"
        },
        {
          "internalType": "uint256",
          "name": "amount",
          "type": "uint256"
        }
      ],
      "name": "mint",
      "outputs": [],
      "stateMutability": "nonpayable",
      "type": "function"
    },
    {
      "inputs": [],
      "name": "mockFunction",
      "outputs": [],
      "stateMutability": "nonpayable",
      "type": "function"
    },
    {
      "inputs": [
        {
          "internalType": "bytes",
          "name": "context",
          "type": "bytes"
        },
        {
          "internalType": "bool",
          "name": "success",
          "type": "bool"
        },
        {
          "internalType": "uint256",
          "name": "actualCharge",
          "type": "uint256"
        },
        {
          "internalType": "bytes32",
          "name": "preRetVal",
          "type": "bytes32"
        }
      ],
      "name": "postRelayedCall",
      "outputs": [],
      "stateMutability": "nonpayable",
      "type": "function"
    },
    {
      "inputs": [
        {
          "internalType": "bytes",
          "name": "context",
          "type": "bytes"
        }
      ],
      "name": "preRelayedCall",
      "outputs": [
        {
          "internalType": "bytes32",
          "name": "",
          "type": "bytes32"
        }
      ],
      "stateMutability": "nonpayable",
      "type": "function"
    },
    {
      "inputs": [],
      "name": "relayHubVersion",
      "outputs": [
        {
          "internalType": "string",
          "name": "",
          "type": "string"
        }
      ],
      "stateMutability": "view",
      "type": "function"
    },
    {
      "inputs": [],
      "name": "token",
      "outputs": [
        {
          "internalType": "contract __unstable__ERC20Owned",
          "name": "",
          "type": "address"
        }
      ],
      "stateMutability": "view",
      "type": "function"
    }
  ],
  "bytecode": "0x6080604052600080546001600160a01b03191673d216153c06e857cd7f72665e0af1d7d82172f4941790553480156200003757600080fd5b50604051620021f1380380620021f18339810160408190526200005a9162000159565b818181816040516200006c90620000c2565b62000079929190620001ee565b604051809103906000f08015801562000096573d6000803e3d6000fd5b50600180546001600160a01b0319166001600160a01b0392909216919091179055506200026092505050565b6112188062000fd983390190565b600082601f830112620000e1578081fd5b81516001600160401b0380821115620000fe57620000fe6200024a565b604051601f8301601f1916810160200182811182821017156200012557620001256200024a565b6040528281528483016020018610156200013d578384fd5b6200015083602083016020880162000217565b95945050505050565b600080604083850312156200016c578182fd5b82516001600160401b038082111562000183578384fd5b6200019186838701620000d0565b93506020850151915080821115620001a7578283fd5b50620001b685828601620000d0565b9150509250929050565b60008151808452620001da81602086016020860162000217565b601f01601f19169290920160200192915050565b600060408252620002036040830185620001c0565b8281036020840152620001508185620001c0565b60005b83811015620002345781810151838201526020016200021a565b8381111562000244576000848401525b50505050565b634e487b7160e01b600052604160045260246000fd5b610d6980620002706000396000f3fe608060405234801561001057600080fd5b50600436106100885760003560e01c806383947ea01161005b57806383947ea0146100e8578063ad61ccd514610109578063e06e0e221461011e578063fc0c546a1461013157610088565b80633e6fec041461008d57806340c10f191461009757806374e861d6146100aa57806380274db7146100c8575b600080fd5b610095610139565b005b6100956100a536600461096b565b6101fb565b6100b2610209565b6040516100bf9190610aaa565b60405180910390f35b6100db6100d63660046109b2565b610219565b6040516100bf9190610b21565b6100fb6100f63660046108b4565b61026b565b6040516100bf929190610c2e565b61011161034d565b6040516100bf9190610b2a565b61009561012c3660046109ed565b610384565b6100b26103ce565b7fde4813f7525e49908b98ef6c9c80c5bc8c7d0842981a49420eb45ef36a60e0c06101626103ce565b6001600160a01b03166370a082316101786103dd565b6040518263ffffffff1660e01b81526004016101949190610aaa565b60206040518083038186803b1580156101ac57600080fd5b505afa1580156101c0573d6000803e3d6000fd5b505050506040513d601f19601f820116820180604052508101906101e49190610a4a565b6040516101f19190610b21565b60405180910390a1565b6102058282610416565b5050565b6000546001600160a01b03165b90565b6000610223610209565b6001600160a01b0316336001600160a01b03161461025c5760405162461bcd60e51b815260040161025390610b3d565b60405180910390fd5b61026582610481565b92915050565b60006060826102786103ce565b6001600160a01b03166370a082318c6040518263ffffffff1660e01b81526004016102a39190610aaa565b60206040518083038186803b1580156102bb57600080fd5b505afa1580156102cf573d6000803e3d6000fd5b505050506040513d601f19601f820116820180604052508101906102f39190610a4a565b101561030c5761030360006104c7565b9150915061033f565b61033a8a848a8a6040516020016103269493929190610afb565b6040516020818303038152906040526104ef565b915091505b995099975050505050505050565b60408051808201909152600581527f312e302e30000000000000000000000000000000000000000000000000000000602082015290565b61038c610209565b6001600160a01b0316336001600160a01b0316146103bc5760405162461bcd60e51b815260040161025390610b3d565b6103c8848484846104f4565b50505050565b6001546001600160a01b031690565b60006103e7610209565b6001600160a01b0316336001600160a01b0316141561040f575060131936013560601c610216565b5033610216565b61041e6103ce565b6001600160a01b03166340c10f1983836040518363ffffffff1660e01b815260040161044b929190610ae2565b600060405180830381600087803b15801561046557600080fd5b505af1158015610479573d6000803e3d6000fd5b505050505050565b60008060008380602001905181019061049a9190610849565b915091506104bd8230836104ac6103ce565b6001600160a01b0316929190610572565b5060009392505050565b600060606104d683600b610c47565b6040518060200160405280600081525091509150915091565b600091565b6000806000808780602001905181019061050e9190610876565b93509350935093506000610533612710620186a061052c9190610c9e565b83856105f7565b905061053f8188610c9e565b96506105678561054f8987610c9e565b6105576103ce565b6001600160a01b0316919061062d565b505050505050505050565b6103c8846323b872dd60e01b85858560405160240161059393929190610abe565b60408051601f198184030181529190526020810180517bffffffffffffffffffffffffffffffffffffffffffffffffffffffff167fffffffff0000000000000000000000000000000000000000000000000000000090931692909217909152610651565b600060646106058382610c47565b61060f8587610c7f565b6106199190610c7f565b6106239190610c5f565b90505b9392505050565b61064c8363a9059cbb60e01b8484604051602401610593929190610ae2565b505050565b60006106a6826040518060400160405280602081526020017f5361666545524332303a206c6f772d6c6576656c2063616c6c206661696c6564815250856001600160a01b03166106e09092919063ffffffff16565b80519091501561064c57808060200190518101906106c49190610996565b61064c5760405162461bcd60e51b815260040161025390610bd1565b60606106238484600085856106f485610789565b6107105760405162461bcd60e51b815260040161025390610b9a565b600080866001600160a01b0316858760405161072c9190610a8e565b60006040518083038185875af1925050503d8060008114610769576040519150601f19603f3d011682016040523d82523d6000602084013e61076e565b606091505b509150915061077e82828661078f565b979650505050505050565b3b151590565b6060831561079e575081610626565b8251156107ae5782518084602001fd5b8160405162461bcd60e51b81526004016102539190610b2a565b600082601f8301126107d8578081fd5b813567ffffffffffffffff808211156107f3576107f3610cf7565b604051601f8301601f19168101602001828111828210171561081757610817610cf7565b60405282815284830160200186101561082e578384fd5b82602086016020830137918201602001929092529392505050565b6000806040838503121561085b578182fd5b825161086681610d0d565b6020939093015192949293505050565b6000806000806080858703121561088b578182fd5b845161089681610d0d565b60208601516040870151606090970151919890975090945092505050565b60008060008060008060008060006101208a8c0312156108d2578485fd5b89356108dd81610d0d565b985060208a01356108ed81610d0d565b975060408a013567ffffffffffffffff80821115610909578687fd5b6109158d838e016107c8565b985060608c0135975060808c0135965060a08c0135955060c08c0135945060e08c0135915080821115610946578384fd5b506109538c828d016107c8565b9250506101008a013590509295985092959850929598565b6000806040838503121561097d578182fd5b823561098881610d0d565b946020939093013593505050565b6000602082840312156109a7578081fd5b815161062681610d25565b6000602082840312156109c3578081fd5b813567ffffffffffffffff8111156109d9578182fd5b6109e5848285016107c8565b949350505050565b60008060008060808587031215610a02578384fd5b843567ffffffffffffffff811115610a18578485fd5b610a24878288016107c8565b9450506020850135610a3581610d25565b93969395505050506040820135916060013590565b600060208284031215610a5b578081fd5b5051919050565b60008151808452610a7a816020860160208601610cb5565b601f01601f19169290920160200192915050565b60008251610aa0818460208701610cb5565b9190910192915050565b6001600160a01b0391909116815260200190565b6001600160a01b039384168152919092166020820152604081019190915260600190565b6001600160a01b03929092168252602082015260400190565b6001600160a01b0394909416845260208401929092526040830152606082015260800190565b90815260200190565b6000602082526106266020830184610a62565b60208082526024908201527f47534e526563697069656e743a2063616c6c6572206973206e6f742052656c6160408201527f7948756200000000000000000000000000000000000000000000000000000000606082015260800190565b6020808252601d908201527f416464726573733a2063616c6c20746f206e6f6e2d636f6e7472616374000000604082015260600190565b6020808252602a908201527f5361666545524332303a204552433230206f7065726174696f6e20646964206e60408201527f6f74207375636365656400000000000000000000000000000000000000000000606082015260800190565b6000838252604060208301526106236040830184610a62565b60008219821115610c5a57610c5a610ce1565b500190565b600082610c7a57634e487b7160e01b81526012600452602481fd5b500490565b6000816000190483118215151615610c9957610c99610ce1565b500290565b600082821015610cb057610cb0610ce1565b500390565b60005b83811015610cd0578181015183820152602001610cb8565b838111156103c85750506000910152565b634e487b7160e01b600052601160045260246000fd5b634e487b7160e01b600052604160045260246000fd5b6001600160a01b0381168114610d2257600080fd5b50565b8015158114610d2257600080fdfea26469706673582212208671509376bbce75f217164fcc9263d8adc89979a7b13eccf49d684c0de574de64736f6c6343000800003360806040523480156200001157600080fd5b506040516200121838038062001218833981016040819052620000349162000223565b8151829082906200004d906003906020850190620000d2565b50805162000063906004906020840190620000d2565b505050600062000078620000ce60201b60201c565b600580546001600160a01b0319166001600160a01b038316908117909155604051919250906000907f8be0079c531659141344cd1fd0a4f28419497f9722a3daafe3b4186f6b6457e0908290a3505050620002dd565b3390565b828054620000e0906200028a565b90600052602060002090601f0160209004810192826200010457600085556200014f565b82601f106200011f57805160ff19168380011785556200014f565b828001600101855582156200014f579182015b828111156200014f57825182559160200191906001019062000132565b506200015d92915062000161565b5090565b5b808211156200015d576000815560010162000162565b600082601f83011262000189578081fd5b81516001600160401b0380821115620001a657620001a6620002c7565b6040516020601f8401601f1916820181018381118382101715620001ce57620001ce620002c7565b6040528382528584018101871015620001e5578485fd5b8492505b83831015620002085785830181015182840182015291820191620001e9565b838311156200021957848185840101525b5095945050505050565b6000806040838503121562000236578182fd5b82516001600160401b03808211156200024d578384fd5b6200025b8683870162000178565b9350602085015191508082111562000271578283fd5b50620002808582860162000178565b9150509250929050565b6002810460018216806200029f57607f821691505b60208210811415620002c157634e487b7160e01b600052602260045260246000fd5b50919050565b634e487b7160e01b600052604160045260246000fd5b610f2b80620002ed6000396000f3fe608060405234801561001057600080fd5b50600436106100f55760003560e01c806370a0823111610097578063a457c2d711610066578063a457c2d7146101d5578063a9059cbb146101e8578063dd62ed3e146101fb578063f2fde38b1461020e576100f5565b806370a082311461019d578063715018a6146101b05780638da5cb5b146101b857806395d89b41146101cd576100f5565b806323b872dd116100d357806323b872dd1461014d578063313ce56714610160578063395093511461017557806340c10f1914610188576100f5565b806306fdde03146100fa578063095ea7b31461011857806318160ddd14610138575b600080fd5b610102610221565b60405161010f9190610ab7565b60405180910390f35b61012b610126366004610a6f565b6102b3565b60405161010f9190610aac565b6101406102d1565b60405161010f9190610e5e565b61012b61015b366004610a34565b6102d7565b610168610322565b60405161010f9190610e67565b61012b610183366004610a6f565b610327565b61019b610196366004610a6f565b61037b565b005b6101406101ab3660046109e8565b6103d1565b61019b6103f0565b6101c0610486565b60405161010f9190610a98565b610102610495565b61012b6101e3366004610a6f565b6104a4565b61012b6101f6366004610a6f565b61051f565b610140610209366004610a02565b610533565b61019b61021c3660046109e8565b610570565b60606003805461023090610ea4565b80601f016020809104026020016040519081016040528092919081815260200182805461025c90610ea4565b80156102a95780601f1061027e576101008083540402835291602001916102a9565b820191906000526020600020905b81548152906001019060200180831161028c57829003601f168201915b5050505050905090565b60006102c76102c061063e565b8484610642565b5060015b92915050565b60025490565b60006102e1610486565b6001600160a01b0316836001600160a01b0316141561030d57610305848484610678565b50600161031b565b6103188484846107a0565b90505b9392505050565b601290565b60006102c761033461063e565b84846001600061034261063e565b6001600160a01b03908116825260208083019390935260409182016000908120918b16815292529020546103769190610e75565b610642565b61038361063e565b6001600160a01b0316610394610486565b6001600160a01b0316146103c35760405162461bcd60e51b81526004016103ba90610cdb565b60405180910390fd5b6103cd8282610832565b5050565b6001600160a01b0381166000908152602081905260409020545b919050565b6103f861063e565b6001600160a01b0316610409610486565b6001600160a01b03161461042f5760405162461bcd60e51b81526004016103ba90610cdb565b6005546040516000916001600160a01b0316907f8be0079c531659141344cd1fd0a4f28419497f9722a3daafe3b4186f6b6457e0908390a36005805473ffffffffffffffffffffffffffffffffffffffff19169055565b6005546001600160a01b031690565b60606004805461023090610ea4565b600080600160006104b361063e565b6001600160a01b03908116825260208083019390935260409182016000908120918816815292529020549050828110156104ff5760405162461bcd60e51b81526004016103ba90610dca565b61051561050a61063e565b856103768685610e8d565b5060019392505050565b60006102c761052c61063e565b8484610678565b600061053d610486565b6001600160a01b0316826001600160a01b0316141561055f57506000196102cb565b61056983836108f2565b90506102cb565b61057861063e565b6001600160a01b0316610589610486565b6001600160a01b0316146105af5760405162461bcd60e51b81526004016103ba90610cdb565b6001600160a01b0381166105d55760405162461bcd60e51b81526004016103ba90610b67565b6005546040516001600160a01b038084169216907f8be0079c531659141344cd1fd0a4f28419497f9722a3daafe3b4186f6b6457e090600090a36005805473ffffffffffffffffffffffffffffffffffffffff19166001600160a01b0392909216919091179055565b3390565b61064a610486565b6001600160a01b0316826001600160a01b0316141561066857610673565b61067383838361091d565b505050565b6001600160a01b03831661069e5760405162461bcd60e51b81526004016103ba90610d10565b6001600160a01b0382166106c45760405162461bcd60e51b81526004016103ba90610b0a565b6106cf838383610673565b6001600160a01b038316600090815260208190526040902054818110156107085760405162461bcd60e51b81526004016103ba90610c21565b6107128282610e8d565b6001600160a01b038086166000908152602081905260408082209390935590851681529081208054849290610748908490610e75565b92505081905550826001600160a01b0316846001600160a01b03167fddf252ad1be2c89b69c2b068fc378daa952ba7f163c4a11628f55a4df523b3ef846040516107929190610e5e565b60405180910390a350505050565b60006107ad848484610678565b6001600160a01b0384166000908152600160205260408120816107ce61063e565b6001600160a01b03166001600160a01b03168152602001908152602001600020549050828110156108115760405162461bcd60e51b81526004016103ba90610c7e565b6108278561081d61063e565b6103768685610e8d565b506001949350505050565b6001600160a01b0382166108585760405162461bcd60e51b81526004016103ba90610e27565b61086460008383610673565b80600260008282546108769190610e75565b90915550506001600160a01b038216600090815260208190526040812080548392906108a3908490610e75565b90915550506040516001600160a01b038316906000907fddf252ad1be2c89b69c2b068fc378daa952ba7f163c4a11628f55a4df523b3ef906108e6908590610e5e565b60405180910390a35050565b6001600160a01b03918216600090815260016020908152604080832093909416825291909152205490565b6001600160a01b0383166109435760405162461bcd60e51b81526004016103ba90610d6d565b6001600160a01b0382166109695760405162461bcd60e51b81526004016103ba90610bc4565b6001600160a01b0380841660008181526001602090815260408083209487168084529490915290819020849055517f8c5be1e5ebec7d5bd14f71427d1e84f3dd0314c0f7b2291e5b200ac8c7c3b925906109c4908590610e5e565b60405180910390a3505050565b80356001600160a01b03811681146103eb57600080fd5b6000602082840312156109f9578081fd5b61031b826109d1565b60008060408385031215610a14578081fd5b610a1d836109d1565b9150610a2b602084016109d1565b90509250929050565b600080600060608486031215610a48578081fd5b610a51846109d1565b9250610a5f602085016109d1565b9150604084013590509250925092565b60008060408385031215610a81578182fd5b610a8a836109d1565b946020939093013593505050565b6001600160a01b0391909116815260200190565b901515815260200190565b6000602080835283518082850152825b81811015610ae357858101830151858201604001528201610ac7565b81811115610af45783604083870101525b50601f01601f1916929092016040019392505050565b60208082526023908201527f45524332303a207472616e7366657220746f20746865207a65726f206164647260408201527f6573730000000000000000000000000000000000000000000000000000000000606082015260800190565b60208082526026908201527f4f776e61626c653a206e6577206f776e657220697320746865207a65726f206160408201527f6464726573730000000000000000000000000000000000000000000000000000606082015260800190565b60208082526022908201527f45524332303a20617070726f766520746f20746865207a65726f20616464726560408201527f7373000000000000000000000000000000000000000000000000000000000000606082015260800190565b60208082526026908201527f45524332303a207472616e7366657220616d6f756e742065786365656473206260408201527f616c616e63650000000000000000000000000000000000000000000000000000606082015260800190565b60208082526028908201527f45524332303a207472616e7366657220616d6f756e742065786365656473206160408201527f6c6c6f77616e6365000000000000000000000000000000000000000000000000606082015260800190565b6020808252818101527f4f776e61626c653a2063616c6c6572206973206e6f7420746865206f776e6572604082015260600190565b60208082526025908201527f45524332303a207472616e736665722066726f6d20746865207a65726f20616460408201527f6472657373000000000000000000000000000000000000000000000000000000606082015260800190565b60208082526024908201527f45524332303a20617070726f76652066726f6d20746865207a65726f2061646460408201527f7265737300000000000000000000000000000000000000000000000000000000606082015260800190565b60208082526025908201527f45524332303a2064656372656173656420616c6c6f77616e63652062656c6f7760408201527f207a65726f000000000000000000000000000000000000000000000000000000606082015260800190565b6020808252601f908201527f45524332303a206d696e7420746f20746865207a65726f206164647265737300604082015260600190565b90815260200190565b60ff91909116815260200190565b60008219821115610e8857610e88610edf565b500190565b600082821015610e9f57610e9f610edf565b500390565b600281046001821680610eb857607f821691505b60208210811415610ed957634e487b7160e01b600052602260045260246000fd5b50919050565b634e487b7160e01b600052601160045260246000fdfea26469706673582212204bd76bb1bd7fc63d3a929f6317eef7ec2f80374f313489e4819f01d7dfd43b8564736f6c63430008000033",
  "linkReferences": {},
  "deployedLinkReferences": {}
}