{
  "_format": "hh-sol-artifact-1",
  "contractName": "ERC20Mock",
  "sourceName": "contracts/OpenZeppelin/mocks/ERC20Mock.sol",
  "abi": [
    {
      "inputs": [
        {
          "internalType": "string",
          "name": "name",
          "type": "string"
        },
        {
          "internalType": "string",
          "name": "symbol",
          "type": "string"
        },
        {
          "internalType": "address",
          "name": "initialAccount",
          "type": "address"
        },
        {
          "internalType": "uint256",
          "name": "initialBalance",
          "type": "uint256"
        }
      ],
      "stateMutability": "payable",
      "type": "constructor"
    },
    {
      "anonymous": false,
      "inputs": [
        {
          "indexed": true,
          "internalType": "address",
          "name": "owner",
          "type": "address"
        },
        {
          "indexed": true,
          "internalType": "address",
          "name": "spender",
          "type": "address"
        },
        {
          "indexed": false,
          "internalType": "uint256",
          "name": "value",
          "type": "uint256"
        }
      ],
      "name": "Approval",
      "type": "event"
    },
    {
      "anonymous": false,
      "inputs": [
        {
          "indexed": true,
          "internalType": "address",
          "name": "from",
          "type": "address"
        },
        {
          "indexed": true,
          "internalType": "address",
          "name": "to",
          "type": "address"
        },
        {
          "indexed": false,
          "internalType": "uint256",
          "name": "value",
          "type": "uint256"
        }
      ],
      "name": "Transfer",
      "type": "event"
    },
    {
      "inputs": [
        {
          "internalType": "address",
          "name": "owner",
          "type": "address"
        },
        {
          "internalType": "address",
          "name": "spender",
          "type": "address"
        }
      ],
      "name": "allowance",
      "outputs": [
        {
          "internalType": "uint256",
          "name": "",
          "type": "uint256"
        }
      ],
      "stateMutability": "view",
      "type": "function"
    },
    {
      "inputs": [
        {
          "internalType": "address",
          "name": "spender",
          "type": "address"
        },
        {
          "internalType": "uint256",
          "name": "amount",
          "type": "uint256"
        }
      ],
      "name": "approve",
      "outputs": [
        {
          "internalType": "bool",
          "name": "",
          "type": "bool"
        }
      ],
      "stateMutability": "nonpayable",
      "type": "function"
    },
    {
      "inputs": [
        {
          "internalType": "address",
          "name": "owner",
          "type": "address"
        },
        {
          "internalType": "address",
          "name": "spender",
          "type": "address"
        },
        {
          "internalType": "uint256",
          "name": "value",
          "type": "uint256"
        }
      ],
      "name": "approveInternal",
      "outputs": [],
      "stateMutability": "nonpayable",
      "type": "function"
    },
    {
      "inputs": [
        {
          "internalType": "address",
          "name": "account",
          "type": "address"
        }
      ],
      "name": "balanceOf",
      "outputs": [
        {
          "internalType": "uint256",
          "name": "",
          "type": "uint256"
        }
      ],
      "stateMutability": "view",
      "type": "function"
    },
    {
      "inputs": [
        {
          "internalType": "address",
          "name": "account",
          "type": "address"
        },
        {
          "internalType": "uint256",
          "name": "amount",
          "type": "uint256"
        }
      ],
      "name": "burn",
      "outputs": [],
      "stateMutability": "nonpayable",
      "type": "function"
    },
    {
      "inputs": [],
      "name": "decimals",
      "outputs": [
        {
          "internalType": "uint8",
          "name": "",
          "type": "uint8"
        }
      ],
      "stateMutability": "view",
      "type": "function"
    },
    {
      "inputs": [
        {
          "internalType": "address",
          "name": "spender",
          "type": "address"
        },
        {
          "internalType": "uint256",
          "name": "subtractedValue",
          "type": "uint256"
        }
      ],
      "name": "decreaseAllowance",
      "outputs": [
        {
          "internalType": "bool",
          "name": "",
          "type": "bool"
        }
      ],
      "stateMutability": "nonpayable",
      "type": "function"
    },
    {
      "inputs": [
        {
          "internalType": "address",
          "name": "spender",
          "type": "address"
        },
        {
          "internalType": "uint256",
          "name": "addedValue",
          "type": "uint256"
        }
      ],
      "name": "increaseAllowance",
      "outputs": [
        {
          "internalType": "bool",
          "name": "",
          "type": "bool"
        }
      ],
      "stateMutability": "nonpayable",
      "type": "function"
    },
    {
      "inputs": [
        {
          "internalType": "address",
          "name": "account",
          "type": "address"
        },
        {
          "internalType": "uint256",
          "name": "amount",
          "type": "uint256"
        }
      ],
      "name": "mint",
      "outputs": [],
      "stateMutability": "nonpayable",
      "type": "function"
    },
    {
      "inputs": [],
      "name": "name",
      "outputs": [
        {
          "internalType": "string",
          "name": "",
          "type": "string"
        }
      ],
      "stateMutability": "view",
      "type": "function"
    },
    {
      "inputs": [],
      "name": "symbol",
      "outputs": [
        {
          "internalType": "string",
          "name": "",
          "type": "string"
        }
      ],
      "stateMutability": "view",
      "type": "function"
    },
    {
      "inputs": [],
      "name": "totalSupply",
      "outputs": [
        {
          "internalType": "uint256",
          "name": "",
          "type": "uint256"
        }
      ],
      "stateMutability": "view",
      "type": "function"
    },
    {
      "inputs": [
        {
          "internalType": "address",
          "name": "recipient",
          "type": "address"
        },
        {
          "internalType": "uint256",
          "name": "amount",
          "type": "uint256"
        }
      ],
      "name": "transfer",
      "outputs": [
        {
          "internalType": "bool",
          "name": "",
          "type": "bool"
        }
      ],
      "stateMutability": "nonpayable",
      "type": "function"
    },
    {
      "inputs": [
        {
          "internalType": "address",
          "name": "sender",
          "type": "address"
        },
        {
          "internalType": "address",
          "name": "recipient",
          "type": "address"
        },
        {
          "internalType": "uint256",
          "name": "amount",
          "type": "uint256"
        }
      ],
      "name": "transferFrom",
      "outputs": [
        {
          "internalType": "bool",
          "name": "",
          "type": "bool"
        }
      ],
      "stateMutability": "nonpayable",
      "type": "function"
    },
    {
      "inputs": [
        {
          "internalType": "address",
          "name": "from",
          "type": "address"
        },
        {
          "internalType": "address",
          "name": "to",
          "type": "address"
        },
        {
          "internalType": "uint256",
          "name": "value",
          "type": "uint256"
        }
      ],
      "name": "transferInternal",
      "outputs": [],
      "stateMutability": "nonpayable",
      "type": "function"
    }
  ],
  "bytecode": "0x6080604052604051620011de380380620011de83398101604081905262000026916200029e565b8351849084906200003f9060039060208501906200014d565b508051620000559060049060208401906200014d565b5050506200006a82826200007460201b60201c565b50505050620003e5565b6001600160a01b038216620000a65760405162461bcd60e51b81526004016200009d906200032d565b60405180910390fd5b620000b46000838362000148565b8060026000828254620000c891906200036d565b90915550506001600160a01b03821660009081526020819052604081208054839290620000f79084906200036d565b90915550506040516001600160a01b038316906000907fddf252ad1be2c89b69c2b068fc378daa952ba7f163c4a11628f55a4df523b3ef906200013c90859062000364565b60405180910390a35050565b505050565b8280546200015b9062000392565b90600052602060002090601f0160209004810192826200017f5760008555620001ca565b82601f106200019a57805160ff1916838001178555620001ca565b82800160010185558215620001ca579182015b82811115620001ca578251825591602001919060010190620001ad565b50620001d8929150620001dc565b5090565b5b80821115620001d85760008155600101620001dd565b600082601f83011262000204578081fd5b81516001600160401b0380821115620002215762000221620003cf565b6040516020601f8401601f1916820181018381118382101715620002495762000249620003cf565b604052838252858401810187101562000260578485fd5b8492505b8383101562000283578583018101518284018201529182019162000264565b838311156200029457848185840101525b5095945050505050565b60008060008060808587031215620002b4578384fd5b84516001600160401b0380821115620002cb578586fd5b620002d988838901620001f3565b95506020870151915080821115620002ef578485fd5b50620002fe87828801620001f3565b604087015190945090506001600160a01b03811681146200031d578283fd5b6060959095015193969295505050565b6020808252601f908201527f45524332303a206d696e7420746f20746865207a65726f206164647265737300604082015260600190565b90815260200190565b600082198211156200038d57634e487b7160e01b81526011600452602481fd5b500190565b600281046001821680620003a757607f821691505b60208210811415620003c957634e487b7160e01b600052602260045260246000fd5b50919050565b634e487b7160e01b600052604160045260246000fd5b610de980620003f56000396000f3fe608060405234801561001057600080fd5b50600436106100f55760003560e01c806340c10f19116100975780639dc29fac116100665780639dc29fac146101de578063a457c2d7146101f1578063a9059cbb14610204578063dd62ed3e14610217576100f5565b806340c10f191461019d57806356189cb4146101b057806370a08231146101c357806395d89b41146101d6576100f5565b8063222f5be0116100d3578063222f5be01461014d57806323b872dd14610162578063313ce56714610175578063395093511461018a576100f5565b806306fdde03146100fa578063095ea7b31461011857806318160ddd14610138575b600080fd5b61010261022a565b60405161010f919061094d565b60405180910390f35b61012b610126366004610919565b6102bc565b60405161010f9190610942565b6101406102d9565b60405161010f9190610d1c565b61016061015b3660046108de565b6102df565b005b61012b6101703660046108de565b6102ef565b61017d61038f565b60405161010f9190610d25565b61012b610198366004610919565b610394565b6101606101ab366004610919565b6103e3565b6101606101be3660046108de565b6103f1565b6101406101d136600461088b565b6103fc565b61010261041b565b6101606101ec366004610919565b61042a565b61012b6101ff366004610919565b610434565b61012b610212366004610919565b6104af565b6101406102253660046108ac565b6104c3565b60606003805461023990610d62565b80601f016020809104026020016040519081016040528092919081815260200182805461026590610d62565b80156102b25780601f10610287576101008083540402835291602001916102b2565b820191906000526020600020905b81548152906001019060200180831161029557829003601f168201915b5050505050905090565b60006102d06102c96104ee565b84846104f2565b50600192915050565b60025490565b6102ea8383836105a6565b505050565b60006102fc8484846105a6565b6001600160a01b03841660009081526001602052604081208161031d6104ee565b6001600160a01b03166001600160a01b03168152602001908152602001600020549050828110156103695760405162461bcd60e51b815260040161036090610b14565b60405180910390fd5b610384856103756104ee565b61037f8685610d4b565b6104f2565b506001949350505050565b601290565b60006102d06103a16104ee565b8484600160006103af6104ee565b6001600160a01b03908116825260208083019390935260409182016000908120918b168152925290205461037f9190610d33565b6103ed82826106ce565b5050565b6102ea8383836104f2565b6001600160a01b0381166000908152602081905260409020545b919050565b60606004805461023990610d62565b6103ed828261078e565b600080600160006104436104ee565b6001600160a01b039081168252602080830193909352604091820160009081209188168152925290205490508281101561048f5760405162461bcd60e51b815260040161036090610c88565b6104a561049a6104ee565b8561037f8685610d4b565b5060019392505050565b60006102d06104bc6104ee565b84846105a6565b6001600160a01b03918216600090815260016020908152604080832093909416825291909152205490565b3390565b6001600160a01b0383166105185760405162461bcd60e51b815260040161036090610c2b565b6001600160a01b03821661053e5760405162461bcd60e51b815260040161036090610a5a565b6001600160a01b0380841660008181526001602090815260408083209487168084529490915290819020849055517f8c5be1e5ebec7d5bd14f71427d1e84f3dd0314c0f7b2291e5b200ac8c7c3b92590610599908590610d1c565b60405180910390a3505050565b6001600160a01b0383166105cc5760405162461bcd60e51b815260040161036090610bce565b6001600160a01b0382166105f25760405162461bcd60e51b8152600401610360906109a0565b6105fd8383836102ea565b6001600160a01b038316600090815260208190526040902054818110156106365760405162461bcd60e51b815260040161036090610ab7565b6106408282610d4b565b6001600160a01b038086166000908152602081905260408082209390935590851681529081208054849290610676908490610d33565b92505081905550826001600160a01b0316846001600160a01b03167fddf252ad1be2c89b69c2b068fc378daa952ba7f163c4a11628f55a4df523b3ef846040516106c09190610d1c565b60405180910390a350505050565b6001600160a01b0382166106f45760405162461bcd60e51b815260040161036090610ce5565b610700600083836102ea565b80600260008282546107129190610d33565b90915550506001600160a01b0382166000908152602081905260408120805483929061073f908490610d33565b90915550506040516001600160a01b038316906000907fddf252ad1be2c89b69c2b068fc378daa952ba7f163c4a11628f55a4df523b3ef90610782908590610d1c565b60405180910390a35050565b6001600160a01b0382166107b45760405162461bcd60e51b815260040161036090610b71565b6107c0826000836102ea565b6001600160a01b038216600090815260208190526040902054818110156107f95760405162461bcd60e51b8152600401610360906109fd565b6108038282610d4b565b6001600160a01b03841660009081526020819052604081209190915560028054849290610831908490610d4b565b90915550506040516000906001600160a01b038516907fddf252ad1be2c89b69c2b068fc378daa952ba7f163c4a11628f55a4df523b3ef90610599908690610d1c565b80356001600160a01b038116811461041657600080fd5b60006020828403121561089c578081fd5b6108a582610874565b9392505050565b600080604083850312156108be578081fd5b6108c783610874565b91506108d560208401610874565b90509250929050565b6000806000606084860312156108f2578081fd5b6108fb84610874565b925061090960208501610874565b9150604084013590509250925092565b6000806040838503121561092b578182fd5b61093483610874565b946020939093013593505050565b901515815260200190565b6000602080835283518082850152825b818110156109795785810183015185820160400152820161095d565b8181111561098a5783604083870101525b50601f01601f1916929092016040019392505050565b60208082526023908201527f45524332303a207472616e7366657220746f20746865207a65726f206164647260408201527f6573730000000000000000000000000000000000000000000000000000000000606082015260800190565b60208082526022908201527f45524332303a206275726e20616d6f756e7420657863656564732062616c616e60408201527f6365000000000000000000000000000000000000000000000000000000000000606082015260800190565b60208082526022908201527f45524332303a20617070726f766520746f20746865207a65726f20616464726560408201527f7373000000000000000000000000000000000000000000000000000000000000606082015260800190565b60208082526026908201527f45524332303a207472616e7366657220616d6f756e742065786365656473206260408201527f616c616e63650000000000000000000000000000000000000000000000000000606082015260800190565b60208082526028908201527f45524332303a207472616e7366657220616d6f756e742065786365656473206160408201527f6c6c6f77616e6365000000000000000000000000000000000000000000000000606082015260800190565b60208082526021908201527f45524332303a206275726e2066726f6d20746865207a65726f2061646472657360408201527f7300000000000000000000000000000000000000000000000000000000000000606082015260800190565b60208082526025908201527f45524332303a207472616e736665722066726f6d20746865207a65726f20616460408201527f6472657373000000000000000000000000000000000000000000000000000000606082015260800190565b60208082526024908201527f45524332303a20617070726f76652066726f6d20746865207a65726f2061646460408201527f7265737300000000000000000000000000000000000000000000000000000000606082015260800190565b60208082526025908201527f45524332303a2064656372656173656420616c6c6f77616e63652062656c6f7760408201527f207a65726f000000000000000000000000000000000000000000000000000000606082015260800190565b6020808252601f908201527f45524332303a206d696e7420746f20746865207a65726f206164647265737300604082015260600190565b90815260200190565b60ff91909116815260200190565b60008219821115610d4657610d46610d9d565b500190565b600082821015610d5d57610d5d610d9d565b500390565b600281046001821680610d7657607f821691505b60208210811415610d9757634e487b7160e01b600052602260045260246000fd5b50919050565b634e487b7160e01b600052601160045260246000fdfea2646970667358221220e6c376d647a19a0469cab7d154ebf8e56b243daecbd869db860b69c13d1b4e6b64736f6c63430008000033",
  "linkReferences": {},
  "deployedLinkReferences": {}
}