{
  "_format": "hh-sol-artifact-1",
  "contractName": "SafeCastMock",
  "sourceName": "contracts/OpenZeppelin/mocks/SafeCastMock.sol",
  "abi": [
    {
      "inputs": [
        {
          "internalType": "int256",
          "name": "a",
          "type": "int256"
        }
      ],
      "name": "toInt128",
      "outputs": [
        {
          "internalType": "int128",
          "name": "",
          "type": "int128"
        }
      ],
      "stateMutability": "pure",
      "type": "function"
    },
    {
      "inputs": [
        {
          "internalType": "int256",
          "name": "a",
          "type": "int256"
        }
      ],
      "name": "toInt16",
      "outputs": [
        {
          "internalType": "int16",
          "name": "",
          "type": "int16"
        }
      ],
      "stateMutability": "pure",
      "type": "function"
    },
    {
      "inputs": [
        {
          "internalType": "uint256",
          "name": "a",
          "type": "uint256"
        }
      ],
      "name": "toInt256",
      "outputs": [
        {
          "internalType": "int256",
          "name": "",
          "type": "int256"
        }
      ],
      "stateMutability": "pure",
      "type": "function"
    },
    {
      "inputs": [
        {
          "internalType": "int256",
          "name": "a",
          "type": "int256"
        }
      ],
      "name": "toInt32",
      "outputs": [
        {
          "internalType": "int32",
          "name": "",
          "type": "int32"
        }
      ],
      "stateMutability": "pure",
      "type": "function"
    },
    {
      "inputs": [
        {
          "internalType": "int256",
          "name": "a",
          "type": "int256"
        }
      ],
      "name": "toInt64",
      "outputs": [
        {
          "internalType": "int64",
          "name": "",
          "type": "int64"
        }
      ],
      "stateMutability": "pure",
      "type": "function"
    },
    {
      "inputs": [
        {
          "internalType": "int256",
          "name": "a",
          "type": "int256"
        }
      ],
      "name": "toInt8",
      "outputs": [
        {
          "internalType": "int8",
          "name": "",
          "type": "int8"
        }
      ],
      "stateMutability": "pure",
      "type": "function"
    },
    {
      "inputs": [
        {
          "internalType": "uint256",
          "name": "a",
          "type": "uint256"
        }
      ],
      "name": "toUint128",
      "outputs": [
        {
          "internalType": "uint128",
          "name": "",
          "type": "uint128"
        }
      ],
      "stateMutability": "pure",
      "type": "function"
    },
    {
      "inputs": [
        {
          "internalType": "uint256",
          "name": "a",
          "type": "uint256"
        }
      ],
      "name": "toUint16",
      "outputs": [
        {
          "internalType": "uint16",
          "name": "",
          "type": "uint16"
        }
      ],
      "stateMutability": "pure",
      "type": "function"
    },
    {
      "inputs": [
        {
          "internalType": "int256",
          "name": "a",
          "type": "int256"
        }
      ],
      "name": "toUint256",
      "outputs": [
        {
          "internalType": "uint256",
          "name": "",
          "type": "uint256"
        }
      ],
      "stateMutability": "pure",
      "type": "function"
    },
    {
      "inputs": [
        {
          "internalType": "uint256",
          "name": "a",
          "type": "uint256"
        }
      ],
      "name": "toUint32",
      "outputs": [
        {
          "internalType": "uint32",
          "name": "",
          "type": "uint32"
        }
      ],
      "stateMutability": "pure",
      "type": "function"
    },
    {
      "inputs": [
        {
          "internalType": "uint256",
          "name": "a",
          "type": "uint256"
        }
      ],
      "name": "toUint64",
      "outputs": [
        {
          "internalType": "uint64",
          "name": "",
          "type": "uint64"
        }
      ],
      "stateMutability": "pure",
      "type": "function"
    },
    {
      "inputs": [
        {
          "internalType": "uint256",
          "name": "a",
          "type": "uint256"
        }
      ],
      "name": "toUint8",
      "outputs": [
        {
          "internalType": "uint8",
          "name": "",
          "type": "uint8"
        }
      ],
      "stateMutability": "pure",
      "type": "function"
    }
  ],
  "bytecode": "0x608060405234801561001057600080fd5b506108ab806100206000396000f3fe608060405234801561001057600080fd5b50600436106100d45760003560e01c8063cf65b4d311610081578063dfbe873b1161005b578063dfbe873b14610202578063f136dc0214610222578063fdcf791b14610242576100d4565b8063cf65b4d3146101a2578063d6bd32aa146101c2578063dd2a0316146101e2576100d4565b80639374068f116100b25780639374068f146101425780639c6f59be14610162578063c819325514610182576100d4565b80630cc4681e146100d95780632665fad014610102578063809fdd3314610122575b600080fd5b6100ec6100e736600461054b565b610255565b6040516100f99190610867565b60405180910390f35b61011561011036600461054b565b610266565b6040516100f99190610852565b61013561013036600461054b565b610271565b6040516100f99190610815565b61015561015036600461054b565b61027c565b6040516100f99190610832565b61017561017036600461054b565b610287565b6040516100f99190610588565b61019561019036600461054b565b610292565b6040516100f99190610841565b6101b56101b036600461054b565b61029d565b6040516100f99190610571565b6101d56101d036600461054b565b6102a8565b6040516100f99190610596565b6101f56101f036600461054b565b6102b3565b6040516100f99190610563565b61021561021036600461054b565b6102be565b6040516100f9919061057f565b61023561023036600461054b565b6102c9565b6040516100f991906105a4565b61021561025036600461054b565b6102d4565b6000610260826102df565b92915050565b60006102608261030f565b600061026082610339565b60006102608261036b565b60006102608261038f565b6000610260826103c5565b6000610260826103eb565b60006102608261041d565b60006102608261045b565b6000610260826104b8565b6000610260826104f9565b600061026082610529565b6000610100821061030b5760405162461bcd60e51b81526004016103029061060f565b60405180910390fd5b5090565b600068010000000000000000821061030b5760405162461bcd60e51b8152600401610302906106fe565b6000700100000000000000000000000000000000821061030b5760405162461bcd60e51b81526004016103029061066c565b600062010000821061030b5760405162461bcd60e51b8152600401610302906105b2565b6000637fffffff1982121580156103a95750638000000082125b61030b5760405162461bcd60e51b81526004016103029061075b565b6000640100000000821061030b5760405162461bcd60e51b81526004016103029061075b565b6000617fff198212158015610401575061800082125b61030b5760405162461bcd60e51b8152600401610302906105b2565b6000677fffffffffffffff19821215801561043f575067800000000000000082125b61030b5760405162461bcd60e51b8152600401610302906106fe565b60007fffffffffffffffffffffffffffffffff80000000000000000000000000000000821215801561049c57506f8000000000000000000000000000000082125b61030b5760405162461bcd60e51b81526004016103029061066c565b60007f8000000000000000000000000000000000000000000000000000000000000000821061030b5760405162461bcd60e51b8152600401610302906107b8565b6000607f19821215801561050d5750608082125b61030b5760405162461bcd60e51b81526004016103029061060f565b60008082121561030b5760405162461bcd60e51b8152600401610302906106c9565b60006020828403121561055c578081fd5b5035919050565b600f9190910b815260200190565b60019190910b815260200190565b90815260200190565b60039190910b815260200190565b60079190910b815260200190565b60009190910b815260200190565b60208082526026908201527f53616665436173743a2076616c756520646f65736e27742066697420696e203160408201527f3620626974730000000000000000000000000000000000000000000000000000606082015260800190565b60208082526025908201527f53616665436173743a2076616c756520646f65736e27742066697420696e203860408201527f2062697473000000000000000000000000000000000000000000000000000000606082015260800190565b60208082526027908201527f53616665436173743a2076616c756520646f65736e27742066697420696e203160408201527f3238206269747300000000000000000000000000000000000000000000000000606082015260800190565b6020808252818101527f53616665436173743a2076616c7565206d75737420626520706f736974697665604082015260600190565b60208082526026908201527f53616665436173743a2076616c756520646f65736e27742066697420696e203660408201527f3420626974730000000000000000000000000000000000000000000000000000606082015260800190565b60208082526026908201527f53616665436173743a2076616c756520646f65736e27742066697420696e203360408201527f3220626974730000000000000000000000000000000000000000000000000000606082015260800190565b60208082526028908201527f53616665436173743a2076616c756520646f65736e27742066697420696e206160408201527f6e20696e74323536000000000000000000000000000000000000000000000000606082015260800190565b6fffffffffffffffffffffffffffffffff91909116815260200190565b61ffff91909116815260200190565b63ffffffff91909116815260200190565b67ffffffffffffffff91909116815260200190565b60ff9190911681526020019056fea264697066735822122043bca66f008807e9c5e2a6c5510c9c430a267f38aeca58aa11e2180cdb686ee764736f6c63430008000033",
  "linkReferences": {},
  "deployedLinkReferences": {}
}