{
  "_format": "hh-sol-artifact-1",
  "contractName": "ERC20PermitMock",
  "sourceName": "contracts/OpenZeppelin/mocks/ERC20PermitMock.sol",
  "abi": [
    {
      "inputs": [
        {
          "internalType": "string",
          "name": "name",
          "type": "string"
        },
        {
          "internalType": "string",
          "name": "symbol",
          "type": "string"
        },
        {
          "internalType": "address",
          "name": "initialAccount",
          "type": "address"
        },
        {
          "internalType": "uint256",
          "name": "initialBalance",
          "type": "uint256"
        }
      ],
      "stateMutability": "payable",
      "type": "constructor"
    },
    {
      "anonymous": false,
      "inputs": [
        {
          "indexed": true,
          "internalType": "address",
          "name": "owner",
          "type": "address"
        },
        {
          "indexed": true,
          "internalType": "address",
          "name": "spender",
          "type": "address"
        },
        {
          "indexed": false,
          "internalType": "uint256",
          "name": "value",
          "type": "uint256"
        }
      ],
      "name": "Approval",
      "type": "event"
    },
    {
      "anonymous": false,
      "inputs": [
        {
          "indexed": true,
          "internalType": "address",
          "name": "from",
          "type": "address"
        },
        {
          "indexed": true,
          "internalType": "address",
          "name": "to",
          "type": "address"
        },
        {
          "indexed": false,
          "internalType": "uint256",
          "name": "value",
          "type": "uint256"
        }
      ],
      "name": "Transfer",
      "type": "event"
    },
    {
      "inputs": [],
      "name": "DOMAIN_SEPARATOR",
      "outputs": [
        {
          "internalType": "bytes32",
          "name": "",
          "type": "bytes32"
        }
      ],
      "stateMutability": "view",
      "type": "function"
    },
    {
      "inputs": [
        {
          "internalType": "address",
          "name": "owner",
          "type": "address"
        },
        {
          "internalType": "address",
          "name": "spender",
          "type": "address"
        }
      ],
      "name": "allowance",
      "outputs": [
        {
          "internalType": "uint256",
          "name": "",
          "type": "uint256"
        }
      ],
      "stateMutability": "view",
      "type": "function"
    },
    {
      "inputs": [
        {
          "internalType": "address",
          "name": "spender",
          "type": "address"
        },
        {
          "internalType": "uint256",
          "name": "amount",
          "type": "uint256"
        }
      ],
      "name": "approve",
      "outputs": [
        {
          "internalType": "bool",
          "name": "",
          "type": "bool"
        }
      ],
      "stateMutability": "nonpayable",
      "type": "function"
    },
    {
      "inputs": [
        {
          "internalType": "address",
          "name": "account",
          "type": "address"
        }
      ],
      "name": "balanceOf",
      "outputs": [
        {
          "internalType": "uint256",
          "name": "",
          "type": "uint256"
        }
      ],
      "stateMutability": "view",
      "type": "function"
    },
    {
      "inputs": [],
      "name": "decimals",
      "outputs": [
        {
          "internalType": "uint8",
          "name": "",
          "type": "uint8"
        }
      ],
      "stateMutability": "view",
      "type": "function"
    },
    {
      "inputs": [
        {
          "internalType": "address",
          "name": "spender",
          "type": "address"
        },
        {
          "internalType": "uint256",
          "name": "subtractedValue",
          "type": "uint256"
        }
      ],
      "name": "decreaseAllowance",
      "outputs": [
        {
          "internalType": "bool",
          "name": "",
          "type": "bool"
        }
      ],
      "stateMutability": "nonpayable",
      "type": "function"
    },
    {
      "inputs": [],
      "name": "getChainId",
      "outputs": [
        {
          "internalType": "uint256",
          "name": "",
          "type": "uint256"
        }
      ],
      "stateMutability": "view",
      "type": "function"
    },
    {
      "inputs": [
        {
          "internalType": "address",
          "name": "spender",
          "type": "address"
        },
        {
          "internalType": "uint256",
          "name": "addedValue",
          "type": "uint256"
        }
      ],
      "name": "increaseAllowance",
      "outputs": [
        {
          "internalType": "bool",
          "name": "",
          "type": "bool"
        }
      ],
      "stateMutability": "nonpayable",
      "type": "function"
    },
    {
      "inputs": [],
      "name": "name",
      "outputs": [
        {
          "internalType": "string",
          "name": "",
          "type": "string"
        }
      ],
      "stateMutability": "view",
      "type": "function"
    },
    {
      "inputs": [
        {
          "internalType": "address",
          "name": "owner",
          "type": "address"
        }
      ],
      "name": "nonces",
      "outputs": [
        {
          "internalType": "uint256",
          "name": "",
          "type": "uint256"
        }
      ],
      "stateMutability": "view",
      "type": "function"
    },
    {
      "inputs": [
        {
          "internalType": "address",
          "name": "owner",
          "type": "address"
        },
        {
          "internalType": "address",
          "name": "spender",
          "type": "address"
        },
        {
          "internalType": "uint256",
          "name": "value",
          "type": "uint256"
        },
        {
          "internalType": "uint256",
          "name": "deadline",
          "type": "uint256"
        },
        {
          "internalType": "uint8",
          "name": "v",
          "type": "uint8"
        },
        {
          "internalType": "bytes32",
          "name": "r",
          "type": "bytes32"
        },
        {
          "internalType": "bytes32",
          "name": "s",
          "type": "bytes32"
        }
      ],
      "name": "permit",
      "outputs": [],
      "stateMutability": "nonpayable",
      "type": "function"
    },
    {
      "inputs": [],
      "name": "symbol",
      "outputs": [
        {
          "internalType": "string",
          "name": "",
          "type": "string"
        }
      ],
      "stateMutability": "view",
      "type": "function"
    },
    {
      "inputs": [],
      "name": "totalSupply",
      "outputs": [
        {
          "internalType": "uint256",
          "name": "",
          "type": "uint256"
        }
      ],
      "stateMutability": "view",
      "type": "function"
    },
    {
      "inputs": [
        {
          "internalType": "address",
          "name": "recipient",
          "type": "address"
        },
        {
          "internalType": "uint256",
          "name": "amount",
          "type": "uint256"
        }
      ],
      "name": "transfer",
      "outputs": [
        {
          "internalType": "bool",
          "name": "",
          "type": "bool"
        }
      ],
      "stateMutability": "nonpayable",
      "type": "function"
    },
    {
      "inputs": [
        {
          "internalType": "address",
          "name": "sender",
          "type": "address"
        },
        {
          "internalType": "address",
          "name": "recipient",
          "type": "address"
        },
        {
          "internalType": "uint256",
          "name": "amount",
          "type": "uint256"
        }
      ],
      "name": "transferFrom",
      "outputs": [
        {
          "internalType": "bool",
          "name": "",
          "type": "bool"
        }
      ],
      "stateMutability": "nonpayable",
      "type": "function"
    }
  ],
  "bytecode": "0x6101406040527f6e71edae12b1b97f4d1f60370fef10105fa2faae0126114a169c64845d6126c9610120908152506040516200162b3803806200162b8339810160408190526200004f916200037b565b8380604051806040016040528060018152602001603160f81b81525086868160039080519060200190620000859291906200022a565b5080516200009b9060049060208401906200022a565b5050825160208085019190912083519184019190912060c082905260e08190524660a0529091507f8b73c3c69bb8fe3d512ecc4cf759cc79239f7b179b0ffacaa9a75d522b39400f620000f081848462000115565b60805261010052506200010b93508592508491505062000151565b50505050620004ee565b60008383834630604051602001620001329594939291906200040a565b6040516020818303038152906040528051906020012090509392505050565b6001600160a01b038216620001835760405162461bcd60e51b81526004016200017a9062000436565b60405180910390fd5b620001916000838362000225565b8060026000828254620001a5919062000476565b90915550506001600160a01b03821660009081526020819052604081208054839290620001d490849062000476565b90915550506040516001600160a01b038316906000907fddf252ad1be2c89b69c2b068fc378daa952ba7f163c4a11628f55a4df523b3ef90620002199085906200046d565b60405180910390a35050565b505050565b82805462000238906200049b565b90600052602060002090601f0160209004810192826200025c5760008555620002a7565b82601f106200027757805160ff1916838001178555620002a7565b82800160010185558215620002a7579182015b82811115620002a75782518255916020019190600101906200028a565b50620002b5929150620002b9565b5090565b5b80821115620002b55760008155600101620002ba565b600082601f830112620002e1578081fd5b81516001600160401b0380821115620002fe57620002fe620004d8565b6040516020601f8401601f1916820181018381118382101715620003265762000326620004d8565b60405283825285840181018710156200033d578485fd5b8492505b8383101562000360578583018101518284018201529182019162000341565b838311156200037157848185840101525b5095945050505050565b6000806000806080858703121562000391578384fd5b84516001600160401b0380821115620003a8578586fd5b620003b688838901620002d0565b95506020870151915080821115620003cc578485fd5b50620003db87828801620002d0565b604087015190945090506001600160a01b0381168114620003fa578283fd5b6060959095015193969295505050565b9485526020850193909352604084019190915260608301526001600160a01b0316608082015260a00190565b6020808252601f908201527f45524332303a206d696e7420746f20746865207a65726f206164647265737300604082015260600190565b90815260200190565b600082198211156200049657634e487b7160e01b81526011600452602481fd5b500190565b600281046001821680620004b057607f821691505b60208210811415620004d257634e487b7160e01b600052602260045260246000fd5b50919050565b634e487b7160e01b600052604160045260246000fd5b60805160a05160c05160e05161010051610120516110ed6200053e60003960006104ef015260006108330152600061087501526000610854015260006107e10152600061080a01526110ed6000f3fe608060405234801561001057600080fd5b50600436106100f55760003560e01c80633950935111610097578063a457c2d711610066578063a457c2d7146101c6578063a9059cbb146101d9578063d505accf146101ec578063dd62ed3e14610201576100f5565b8063395093511461018557806370a08231146101985780637ecebe00146101ab57806395d89b41146101be576100f5565b806323b872dd116100d357806323b872dd1461014d578063313ce567146101605780633408e470146101755780633644e5151461017d576100f5565b806306fdde03146100fa578063095ea7b31461011857806318160ddd14610138575b600080fd5b610102610214565b60405161010f9190610c22565b60405180910390f35b61012b610126366004610b31565b6102a7565b60405161010f9190610b90565b6101406102c4565b60405161010f9190610b9b565b61012b61015b366004610a85565b6102ca565b61016861036a565b60405161010f9190611029565b61014061036f565b610140610373565b61012b610193366004610b31565b610382565b6101406101a6366004610a32565b6103d1565b6101406101b9366004610a32565b6103f0565b610102610417565b61012b6101d4366004610b31565b610426565b61012b6101e7366004610b31565b6104a1565b6101ff6101fa366004610ac0565b6104b5565b005b61014061020f366004610a53565b6105d2565b60606003805461022390611066565b80601f016020809104026020016040519081016040528092919081815260200182805461024f90611066565b801561029c5780601f106102715761010080835404028352916020019161029c565b820191906000526020600020905b81548152906001019060200180831161027f57829003601f168201915b505050505090505b90565b60006102bb6102b46105fd565b8484610601565b50600192915050565b60025490565b60006102d78484846106b5565b6001600160a01b0384166000908152600160205260408120816102f86105fd565b6001600160a01b03166001600160a01b03168152602001908152602001600020549050828110156103445760405162461bcd60e51b815260040161033b90610eb5565b60405180910390fd5b61035f856103506105fd565b61035a868561104f565b610601565b506001949350505050565b601290565b4690565b600061037d6107dd565b905090565b60006102bb61038f6105fd565b84846001600061039d6105fd565b6001600160a01b03908116825260208083019390935260409182016000908120918b168152925290205461035a9190611037565b6001600160a01b0381166000908152602081905260409020545b919050565b6001600160a01b0381166000908152600560205260408120610411906108a0565b92915050565b60606004805461022390611066565b600080600160006104356105fd565b6001600160a01b03908116825260208083019390935260409182016000908120918816815292529020549050828110156104815760405162461bcd60e51b815260040161033b90610fcc565b61049761048c6105fd565b8561035a868561104f565b5060019392505050565b60006102bb6104ae6105fd565b84846106b5565b834211156104d55760405162461bcd60e51b815260040161033b90610d66565b6001600160a01b03871660009081526005602052604081207f00000000000000000000000000000000000000000000000000000000000000009089908990899061051e906108a0565b8960405160200161053496959493929190610ba4565b6040516020818303038152906040528051906020012090506000610557826108a4565b90506000610567828787876108dd565b9050896001600160a01b0316816001600160a01b03161461059a5760405162461bcd60e51b815260040161033b90610e7e565b6001600160a01b038a1660009081526005602052604090206105bb906109d3565b6105c68a8a8a610601565b50505050505050505050565b6001600160a01b03918216600090815260016020908152604080832093909416825291909152205490565b3390565b6001600160a01b0383166106275760405162461bcd60e51b815260040161033b90610f6f565b6001600160a01b03821661064d5760405162461bcd60e51b815260040161033b90610d09565b6001600160a01b0380841660008181526001602090815260408083209487168084529490915290819020849055517f8c5be1e5ebec7d5bd14f71427d1e84f3dd0314c0f7b2291e5b200ac8c7c3b925906106a8908590610b9b565b60405180910390a3505050565b6001600160a01b0383166106db5760405162461bcd60e51b815260040161033b90610f12565b6001600160a01b0382166107015760405162461bcd60e51b815260040161033b90610cac565b61070c8383836109dc565b6001600160a01b038316600090815260208190526040902054818110156107455760405162461bcd60e51b815260040161033b90610d9d565b61074f828261104f565b6001600160a01b038086166000908152602081905260408082209390935590851681529081208054849290610785908490611037565b92505081905550826001600160a01b0316846001600160a01b03167fddf252ad1be2c89b69c2b068fc378daa952ba7f163c4a11628f55a4df523b3ef846040516107cf9190610b9b565b60405180910390a350505050565b60007f000000000000000000000000000000000000000000000000000000000000000046141561082e57507f00000000000000000000000000000000000000000000000000000000000000006102a4565b6108997f00000000000000000000000000000000000000000000000000000000000000007f00000000000000000000000000000000000000000000000000000000000000007f00000000000000000000000000000000000000000000000000000000000000006109e1565b90506102a4565b5490565b60006108ae6107dd565b826040516020016108c0929190610b5a565b604051602081830303815290604052805190602001209050919050565b60007f7fffffffffffffffffffffffffffffff5d576e7357a4501ddfe92f46681b20a082111561091f5760405162461bcd60e51b815260040161033b90610dfa565b8360ff16601b148061093457508360ff16601c145b6109505760405162461bcd60e51b815260040161033b90610e3c565b6000600186868686604051600081526020016040526040516109759493929190610c04565b6020604051602081039080840390855afa158015610997573d6000803e3d6000fd5b5050604051601f1901519150506001600160a01b0381166109ca5760405162461bcd60e51b815260040161033b90610c75565b95945050505050565b80546001019055565b505050565b600083838346306040516020016109fc959493929190610bd8565b6040516020818303038152906040528051906020012090509392505050565b80356001600160a01b03811681146103eb57600080fd5b600060208284031215610a43578081fd5b610a4c82610a1b565b9392505050565b60008060408385031215610a65578081fd5b610a6e83610a1b565b9150610a7c60208401610a1b565b90509250929050565b600080600060608486031215610a99578081fd5b610aa284610a1b565b9250610ab060208501610a1b565b9150604084013590509250925092565b600080600080600080600060e0888a031215610ada578283fd5b610ae388610a1b565b9650610af160208901610a1b565b95506040880135945060608801359350608088013560ff81168114610b14578384fd5b9699959850939692959460a0840135945060c09093013592915050565b60008060408385031215610b43578182fd5b610b4c83610a1b565b946020939093013593505050565b7f190100000000000000000000000000000000000000000000000000000000000081526002810192909252602282015260420190565b901515815260200190565b90815260200190565b9586526001600160a01b0394851660208701529290931660408501526060840152608083019190915260a082015260c00190565b9485526020850193909352604084019190915260608301526001600160a01b0316608082015260a00190565b93845260ff9290921660208401526040830152606082015260800190565b6000602080835283518082850152825b81811015610c4e57858101830151858201604001528201610c32565b81811115610c5f5783604083870101525b50601f01601f1916929092016040019392505050565b60208082526018908201527f45434453413a20696e76616c6964207369676e61747572650000000000000000604082015260600190565b60208082526023908201527f45524332303a207472616e7366657220746f20746865207a65726f206164647260408201527f6573730000000000000000000000000000000000000000000000000000000000606082015260800190565b60208082526022908201527f45524332303a20617070726f766520746f20746865207a65726f20616464726560408201527f7373000000000000000000000000000000000000000000000000000000000000606082015260800190565b6020808252601d908201527f45524332305065726d69743a206578706972656420646561646c696e65000000604082015260600190565b60208082526026908201527f45524332303a207472616e7366657220616d6f756e742065786365656473206260408201527f616c616e63650000000000000000000000000000000000000000000000000000606082015260800190565b60208082526022908201527f45434453413a20696e76616c6964207369676e6174757265202773272076616c604082015261756560f01b606082015260800190565b60208082526022908201527f45434453413a20696e76616c6964207369676e6174757265202776272076616c604082015261756560f01b606082015260800190565b6020808252601e908201527f45524332305065726d69743a20696e76616c6964207369676e61747572650000604082015260600190565b60208082526028908201527f45524332303a207472616e7366657220616d6f756e742065786365656473206160408201527f6c6c6f77616e6365000000000000000000000000000000000000000000000000606082015260800190565b60208082526025908201527f45524332303a207472616e736665722066726f6d20746865207a65726f20616460408201527f6472657373000000000000000000000000000000000000000000000000000000606082015260800190565b60208082526024908201527f45524332303a20617070726f76652066726f6d20746865207a65726f2061646460408201527f7265737300000000000000000000000000000000000000000000000000000000606082015260800190565b60208082526025908201527f45524332303a2064656372656173656420616c6c6f77616e63652062656c6f7760408201527f207a65726f000000000000000000000000000000000000000000000000000000606082015260800190565b60ff91909116815260200190565b6000821982111561104a5761104a6110a1565b500190565b600082821015611061576110616110a1565b500390565b60028104600182168061107a57607f821691505b6020821081141561109b57634e487b7160e01b600052602260045260246000fd5b50919050565b634e487b7160e01b600052601160045260246000fdfea2646970667358221220034cd738ebebb7b4ac89fb6220fb0cc34a76828e25fb8a35dffa1047661f180d64736f6c63430008000033",
  "linkReferences": {},
  "deployedLinkReferences": {}
}