{
  "_format": "hh-sol-artifact-1",
  "contractName": "ERC777Mock",
  "sourceName": "contracts/OpenZeppelin/mocks/ERC777Mock.sol",
  "abi": [
    {
      "inputs": [
        {
          "internalType": "address",
          "name": "initialHolder",
          "type": "address"
        },
        {
          "internalType": "uint256",
          "name": "initialBalance",
          "type": "uint256"
        },
        {
          "internalType": "string",
          "name": "name",
          "type": "string"
        },
        {
          "internalType": "string",
          "name": "symbol",
          "type": "string"
        },
        {
          "internalType": "address[]",
          "name": "defaultOperators",
          "type": "address[]"
        }
      ],
      "stateMutability": "nonpayable",
      "type": "constructor"
    },
    {
      "anonymous": false,
      "inputs": [
        {
          "indexed": true,
          "internalType": "address",
          "name": "owner",
          "type": "address"
        },
        {
          "indexed": true,
          "internalType": "address",
          "name": "spender",
          "type": "address"
        },
        {
          "indexed": false,
          "internalType": "uint256",
          "name": "value",
          "type": "uint256"
        }
      ],
      "name": "Approval",
      "type": "event"
    },
    {
      "anonymous": false,
      "inputs": [
        {
          "indexed": true,
          "internalType": "address",
          "name": "operator",
          "type": "address"
        },
        {
          "indexed": true,
          "internalType": "address",
          "name": "tokenHolder",
          "type": "address"
        }
      ],
      "name": "AuthorizedOperator",
      "type": "event"
    },
    {
      "anonymous": false,
      "inputs": [],
      "name": "BeforeTokenTransfer",
      "type": "event"
    },
    {
      "anonymous": false,
      "inputs": [
        {
          "indexed": true,
          "internalType": "address",
          "name": "operator",
          "type": "address"
        },
        {
          "indexed": true,
          "internalType": "address",
          "name": "from",
          "type": "address"
        },
        {
          "indexed": false,
          "internalType": "uint256",
          "name": "amount",
          "type": "uint256"
        },
        {
          "indexed": false,
          "internalType": "bytes",
          "name": "data",
          "type": "bytes"
        },
        {
          "indexed": false,
          "internalType": "bytes",
          "name": "operatorData",
          "type": "bytes"
        }
      ],
      "name": "Burned",
      "type": "event"
    },
    {
      "anonymous": false,
      "inputs": [
        {
          "indexed": true,
          "internalType": "address",
          "name": "operator",
          "type": "address"
        },
        {
          "indexed": true,
          "internalType": "address",
          "name": "to",
          "type": "address"
        },
        {
          "indexed": false,
          "internalType": "uint256",
          "name": "amount",
          "type": "uint256"
        },
        {
          "indexed": false,
          "internalType": "bytes",
          "name": "data",
          "type": "bytes"
        },
        {
          "indexed": false,
          "internalType": "bytes",
          "name": "operatorData",
          "type": "bytes"
        }
      ],
      "name": "Minted",
      "type": "event"
    },
    {
      "anonymous": false,
      "inputs": [
        {
          "indexed": true,
          "internalType": "address",
          "name": "operator",
          "type": "address"
        },
        {
          "indexed": true,
          "internalType": "address",
          "name": "tokenHolder",
          "type": "address"
        }
      ],
      "name": "RevokedOperator",
      "type": "event"
    },
    {
      "anonymous": false,
      "inputs": [
        {
          "indexed": true,
          "internalType": "address",
          "name": "operator",
          "type": "address"
        },
        {
          "indexed": true,
          "internalType": "address",
          "name": "from",
          "type": "address"
        },
        {
          "indexed": true,
          "internalType": "address",
          "name": "to",
          "type": "address"
        },
        {
          "indexed": false,
          "internalType": "uint256",
          "name": "amount",
          "type": "uint256"
        },
        {
          "indexed": false,
          "internalType": "bytes",
          "name": "data",
          "type": "bytes"
        },
        {
          "indexed": false,
          "internalType": "bytes",
          "name": "operatorData",
          "type": "bytes"
        }
      ],
      "name": "Sent",
      "type": "event"
    },
    {
      "anonymous": false,
      "inputs": [
        {
          "indexed": true,
          "internalType": "address",
          "name": "from",
          "type": "address"
        },
        {
          "indexed": true,
          "internalType": "address",
          "name": "to",
          "type": "address"
        },
        {
          "indexed": false,
          "internalType": "uint256",
          "name": "value",
          "type": "uint256"
        }
      ],
      "name": "Transfer",
      "type": "event"
    },
    {
      "inputs": [
        {
          "internalType": "address",
          "name": "holder",
          "type": "address"
        },
        {
          "internalType": "address",
          "name": "spender",
          "type": "address"
        }
      ],
      "name": "allowance",
      "outputs": [
        {
          "internalType": "uint256",
          "name": "",
          "type": "uint256"
        }
      ],
      "stateMutability": "view",
      "type": "function"
    },
    {
      "inputs": [
        {
          "internalType": "address",
          "name": "spender",
          "type": "address"
        },
        {
          "internalType": "uint256",
          "name": "value",
          "type": "uint256"
        }
      ],
      "name": "approve",
      "outputs": [
        {
          "internalType": "bool",
          "name": "",
          "type": "bool"
        }
      ],
      "stateMutability": "nonpayable",
      "type": "function"
    },
    {
      "inputs": [
        {
          "internalType": "address",
          "name": "holder",
          "type": "address"
        },
        {
          "internalType": "address",
          "name": "spender",
          "type": "address"
        },
        {
          "internalType": "uint256",
          "name": "value",
          "type": "uint256"
        }
      ],
      "name": "approveInternal",
      "outputs": [],
      "stateMutability": "nonpayable",
      "type": "function"
    },
    {
      "inputs": [
        {
          "internalType": "address",
          "name": "operator",
          "type": "address"
        }
      ],
      "name": "authorizeOperator",
      "outputs": [],
      "stateMutability": "nonpayable",
      "type": "function"
    },
    {
      "inputs": [
        {
          "internalType": "address",
          "name": "tokenHolder",
          "type": "address"
        }
      ],
      "name": "balanceOf",
      "outputs": [
        {
          "internalType": "uint256",
          "name": "",
          "type": "uint256"
        }
      ],
      "stateMutability": "view",
      "type": "function"
    },
    {
      "inputs": [
        {
          "internalType": "uint256",
          "name": "amount",
          "type": "uint256"
        },
        {
          "internalType": "bytes",
          "name": "data",
          "type": "bytes"
        }
      ],
      "name": "burn",
      "outputs": [],
      "stateMutability": "nonpayable",
      "type": "function"
    },
    {
      "inputs": [],
      "name": "decimals",
      "outputs": [
        {
          "internalType": "uint8",
          "name": "",
          "type": "uint8"
        }
      ],
      "stateMutability": "pure",
      "type": "function"
    },
    {
      "inputs": [],
      "name": "defaultOperators",
      "outputs": [
        {
          "internalType": "address[]",
          "name": "",
          "type": "address[]"
        }
      ],
      "stateMutability": "view",
      "type": "function"
    },
    {
      "inputs": [],
      "name": "granularity",
      "outputs": [
        {
          "internalType": "uint256",
          "name": "",
          "type": "uint256"
        }
      ],
      "stateMutability": "view",
      "type": "function"
    },
    {
      "inputs": [
        {
          "internalType": "address",
          "name": "operator",
          "type": "address"
        },
        {
          "internalType": "address",
          "name": "tokenHolder",
          "type": "address"
        }
      ],
      "name": "isOperatorFor",
      "outputs": [
        {
          "internalType": "bool",
          "name": "",
          "type": "bool"
        }
      ],
      "stateMutability": "view",
      "type": "function"
    },
    {
      "inputs": [
        {
          "internalType": "address",
          "name": "to",
          "type": "address"
        },
        {
          "internalType": "uint256",
          "name": "amount",
          "type": "uint256"
        },
        {
          "internalType": "bytes",
          "name": "userData",
          "type": "bytes"
        },
        {
          "internalType": "bytes",
          "name": "operatorData",
          "type": "bytes"
        }
      ],
      "name": "mintInternal",
      "outputs": [],
      "stateMutability": "nonpayable",
      "type": "function"
    },
    {
      "inputs": [],
      "name": "name",
      "outputs": [
        {
          "internalType": "string",
          "name": "",
          "type": "string"
        }
      ],
      "stateMutability": "view",
      "type": "function"
    },
    {
      "inputs": [
        {
          "internalType": "address",
          "name": "account",
          "type": "address"
        },
        {
          "internalType": "uint256",
          "name": "amount",
          "type": "uint256"
        },
        {
          "internalType": "bytes",
          "name": "data",
          "type": "bytes"
        },
        {
          "internalType": "bytes",
          "name": "operatorData",
          "type": "bytes"
        }
      ],
      "name": "operatorBurn",
      "outputs": [],
      "stateMutability": "nonpayable",
      "type": "function"
    },
    {
      "inputs": [
        {
          "internalType": "address",
          "name": "sender",
          "type": "address"
        },
        {
          "internalType": "address",
          "name": "recipient",
          "type": "address"
        },
        {
          "internalType": "uint256",
          "name": "amount",
          "type": "uint256"
        },
        {
          "internalType": "bytes",
          "name": "data",
          "type": "bytes"
        },
        {
          "internalType": "bytes",
          "name": "operatorData",
          "type": "bytes"
        }
      ],
      "name": "operatorSend",
      "outputs": [],
      "stateMutability": "nonpayable",
      "type": "function"
    },
    {
      "inputs": [
        {
          "internalType": "address",
          "name": "operator",
          "type": "address"
        }
      ],
      "name": "revokeOperator",
      "outputs": [],
      "stateMutability": "nonpayable",
      "type": "function"
    },
    {
      "inputs": [
        {
          "internalType": "address",
          "name": "recipient",
          "type": "address"
        },
        {
          "internalType": "uint256",
          "name": "amount",
          "type": "uint256"
        },
        {
          "internalType": "bytes",
          "name": "data",
          "type": "bytes"
        }
      ],
      "name": "send",
      "outputs": [],
      "stateMutability": "nonpayable",
      "type": "function"
    },
    {
      "inputs": [],
      "name": "symbol",
      "outputs": [
        {
          "internalType": "string",
          "name": "",
          "type": "string"
        }
      ],
      "stateMutability": "view",
      "type": "function"
    },
    {
      "inputs": [],
      "name": "totalSupply",
      "outputs": [
        {
          "internalType": "uint256",
          "name": "",
          "type": "uint256"
        }
      ],
      "stateMutability": "view",
      "type": "function"
    },
    {
      "inputs": [
        {
          "internalType": "address",
          "name": "recipient",
          "type": "address"
        },
        {
          "internalType": "uint256",
          "name": "amount",
          "type": "uint256"
        }
      ],
      "name": "transfer",
      "outputs": [
        {
          "internalType": "bool",
          "name": "",
          "type": "bool"
        }
      ],
      "stateMutability": "nonpayable",
      "type": "function"
    },
    {
      "inputs": [
        {
          "internalType": "address",
          "name": "holder",
          "type": "address"
        },
        {
          "internalType": "address",
          "name": "recipient",
          "type": "address"
        },
        {
          "internalType": "uint256",
          "name": "amount",
          "type": "uint256"
        }
      ],
      "name": "transferFrom",
      "outputs": [
        {
          "internalType": "bool",
          "name": "",
          "type": "bool"
        }
      ],
      "stateMutability": "nonpayable",
      "type": "function"
    }
  ],
  "bytecode": "0x60806040523480156200001157600080fd5b50604051620027df380380620027df83398101604081905262000034916200071c565b82828282600290805190602001906200004f92919062000570565b5081516200006590600390602085019062000570565b5080516200007b906004906020840190620005ff565b5060005b600454811015620000fb5760016005600060048481548110620000b257634e487b7160e01b600052603260045260246000fd5b6000918252602080832091909101546001600160a01b031683528201929092526040019020805460ff191691151591909117905580620000f28162000aad565b9150506200007f565b506040516329965a1d60e01b8152731820a4b7618bde71dce8cdc73aab6c95905fad24906329965a1d90620001599030907fac7fbab5f54a3ca8194167523c6753bfeb96a445279294b6125b68cce2177054908290600401620008e9565b600060405180830381600087803b1580156200017457600080fd5b505af115801562000189573d6000803e3d6000fd5b50506040516329965a1d60e01b8152731820a4b7618bde71dce8cdc73aab6c95905fad2492506329965a1d9150620001ea9030907faea199e31a596269b42cdafd93407f14436db6e4cad65417994c2eb37381e05a908290600401620008e9565b600060405180830381600087803b1580156200020557600080fd5b505af11580156200021a573d6000803e3d6000fd5b5050505050505062000253858560405180602001604052806000815250604051806020016040528060008152506200025e60201b60201c565b505050505062000af7565b6001600160a01b038416620002905760405162461bcd60e51b815260040162000287906200090c565b60405180910390fd5b60006200029c620003af565b9050620002ad8160008787620003b3565b8360016000828254620002c1919062000a22565b90915550506001600160a01b03851660009081526020819052604081208054869290620002f090849062000a22565b90915550620003099050816000878787876001620003e2565b846001600160a01b0316816001600160a01b03167f2fe5be0146f74c5bce36c0b80911af6c7d86ff27e89d5cfa61fc681327954e5d8686866040516200035293929190620009bd565b60405180910390a3846001600160a01b031660006001600160a01b03167fddf252ad1be2c89b69c2b068fc378daa952ba7f163c4a11628f55a4df523b3ef86604051620003a09190620009b4565b60405180910390a35050505050565b3390565b6040517f52316ab8e8b0687ce803e403dfe429541bccd4f6c4683ec65d254d382f15a26590600090a150505050565b60405163555ddc6560e11b8152600090731820a4b7618bde71dce8cdc73aab6c95905fad249063aabbb8ca90620004409089907fb281fc8c12954d22544db45de3159a39272895b169a852b314f9cc762e44c53b90600401620008d0565b60206040518083038186803b1580156200045957600080fd5b505afa1580156200046e573d6000803e3d6000fd5b505050506040513d601f19601f82011682018060405250810190620004949190620006f8565b90506001600160a01b0381161562000516576040516223de2960e01b81526001600160a01b038216906223de2990620004dc908b908b908b908b908b908b9060040162000872565b600060405180830381600087803b158015620004f757600080fd5b505af11580156200050c573d6000803e3d6000fd5b505050506200055c565b81156200055c576200053c866001600160a01b03166200056660201b62000a571760201c565b156200055c5760405162461bcd60e51b8152600401620002879062000941565b5050505050505050565b803b15155b919050565b8280546200057e9062000a70565b90600052602060002090601f016020900481019282620005a25760008555620005ed565b82601f10620005bd57805160ff1916838001178555620005ed565b82800160010185558215620005ed579182015b82811115620005ed578251825591602001919060010190620005d0565b50620005fb92915062000657565b5090565b828054828255906000526020600020908101928215620005ed579160200282015b82811115620005ed57825182546001600160a01b0319166001600160a01b0390911617825560209092019160019091019062000620565b5b80821115620005fb576000815560010162000658565b80516001600160a01b03811681146200056b57600080fd5b600082601f83011262000697578081fd5b81516001600160401b03811115620006b357620006b362000ae1565b620006c8601f8201601f1916602001620009f6565b818152846020838601011115620006dd578283fd5b620006f082602083016020870162000a3d565b949350505050565b6000602082840312156200070a578081fd5b62000715826200066e565b9392505050565b600080600080600060a0868803121562000734578081fd5b6200073f866200066e565b60208781015160408901519297509550906001600160401b038082111562000765578384fd5b620007738a838b0162000686565b9550606089015191508082111562000789578384fd5b620007978a838b0162000686565b94506080890151915080821115620007ad578384fd5b818901915089601f830112620007c1578384fd5b815181811115620007d657620007d662000ae1565b8381029150620007e8848301620009f6565b8181528481019084860184860187018e101562000803578788fd5b8795505b8386101562000830576200081b816200066e565b83526001959095019491860191860162000807565b508096505050505050509295509295909350565b600081518084526200085e81602086016020860162000a3d565b601f01601f19169290920160200192915050565b6001600160a01b0387811682528681166020830152851660408201526060810184905260c060808201819052600090620008af9083018562000844565b82810360a0840152620008c3818562000844565b9998505050505050505050565b6001600160a01b03929092168252602082015260400190565b6001600160a01b0393841681526020810192909252909116604082015260600190565b6020808252818101527f4552433737373a206d696e7420746f20746865207a65726f2061646472657373604082015260600190565b6020808252604d908201527f4552433737373a20746f6b656e20726563697069656e7420636f6e747261637460408201527f20686173206e6f20696d706c656d656e74657220666f7220455243373737546f60608201526c1ad95b9cd49958da5c1a595b9d609a1b608082015260a00190565b90815260200190565b600084825260606020830152620009d8606083018562000844565b8281036040840152620009ec818562000844565b9695505050505050565b6040518181016001600160401b038111828210171562000a1a5762000a1a62000ae1565b604052919050565b6000821982111562000a385762000a3862000acb565b500190565b60005b8381101562000a5a57818101518382015260200162000a40565b8381111562000a6a576000848401525b50505050565b60028104600182168062000a8557607f821691505b6020821081141562000aa757634e487b7160e01b600052602260045260246000fd5b50919050565b600060001982141562000ac45762000ac462000acb565b5060010190565b634e487b7160e01b600052601160045260246000fd5b634e487b7160e01b600052604160045260246000fd5b611cd88062000b076000396000f3fe608060405234801561001057600080fd5b506004361061016c5760003560e01c8063959b8c3f116100cd578063d95b637111610081578063fad8b32a11610066578063fad8b32a146102be578063fc673c4f146102d1578063fe9d9303146102e45761016c565b8063d95b637114610298578063dd62ed3e146102ab5761016c565b80639bd9bbc6116100b25780639bd9bbc61461025f578063a9059cbb14610272578063b1f0b5be146102855761016c565b8063959b8c3f1461024457806395d89b41146102575761016c565b8063313ce5671161012457806356189cb41161010957806356189cb41461020957806362ad1b831461021e57806370a08231146102315761016c565b8063313ce567146101ec578063556f0dc7146102015761016c565b8063095ea7b311610155578063095ea7b3146101a457806318160ddd146101c457806323b872dd146101d95761016c565b806306e485381461017157806306fdde031461018f575b600080fd5b6101796102f7565b604051610186919061162a565b60405180910390f35b610197610359565b6040516101869190611682565b6101b76101b2366004611429565b6103e2565b6040516101869190611677565b6101cc610404565b6040516101869190611ba8565b6101b76101e7366004611359565b61040a565b6101f4610559565b6040516101869190611be6565b6101cc61055e565b61021c610217366004611359565b610563565b005b61021c61022c366004611399565b610573565b6101cc61023f3660046112e9565b6105b6565b61021c6102523660046112e9565b6105d1565b6101976106fe565b61021c61026d366004611454565b61070d565b6101b7610280366004611429565b610732565b61021c6102933660046114ab565b6107ec565b6101b76102a6366004611321565b6107fe565b6101cc6102b9366004611321565b6108a0565b61021c6102cc3660046112e9565b6108cb565b61021c6102df3660046114ab565b6109f8565b61021c6102f2366004611528565b610a31565b6060600480548060200260200160405190810160405280929190818152602001828054801561034f57602002820191906000526020600020905b81546001600160a01b03168152600190910190602001808311610331575b5050505050905090565b60606002805461036890611c23565b80601f016020809104026020016040519081016040528092919081815260200182805461039490611c23565b801561034f5780601f106103b65761010080835404028352916020019161034f565b820191906000526020600020905b8154815290600101906020018083116103c457509395945050505050565b6000806103ed610a5d565b90506103fa818585610a61565b5060019392505050565b60015490565b60006001600160a01b03831661043b5760405162461bcd60e51b815260040161043290611945565b60405180910390fd5b6001600160a01b0384166104615760405162461bcd60e51b815260040161043290611a5c565b600061046b610a5d565b9050610499818686866040518060200160405280600081525060405180602001604052806000815250610b15565b6104c5818686866040518060200160405280600081525060405180602001604052806000815250610c5d565b6001600160a01b038086166000908152600860209081526040808320938516835292905220548381101561050b5760405162461bcd60e51b8152600401610432906119ff565b61051f868361051a8785611c0c565b610a61565b61054d8287878760405180602001604052806000815250604051806020016040528060008152506000610d96565b50600195945050505050565b601290565b600190565b61056e838383610a61565b505050565b61058461057e610a5d565b866107fe565b6105a05760405162461bcd60e51b8152600401610432906119a2565b6105af85858585856001610f16565b5050505050565b6001600160a01b031660009081526020819052604090205490565b806001600160a01b03166105e3610a5d565b6001600160a01b0316141561060a5760405162461bcd60e51b8152600401610432906117d3565b6001600160a01b03811660009081526005602052604090205460ff161561066d5760076000610637610a5d565b6001600160a01b03908116825260208083019390935260409182016000908120918516815292529020805460ff191690556106b4565b60016006600061067b610a5d565b6001600160a01b03908116825260208083019390935260409182016000908120918616815292529020805460ff19169115159190911790555b6106bc610a5d565b6001600160a01b0316816001600160a01b03167ff4caeb2d6ca8932a215a353d0703c326ec2d81fc68170f320eb2ab49e9df61f960405160405180910390a350565b60606003805461036890611c23565b61056e610718610a5d565b848484604051806020016040528060008152506001610f16565b60006001600160a01b03831661075a5760405162461bcd60e51b815260040161043290611945565b6000610764610a5d565b9050610792818286866040518060200160405280600081525060405180602001604052806000815250610b15565b6107be818286866040518060200160405280600081525060405180602001604052806000815250610c5d565b6103fa8182868660405180602001604052806000815250604051806020016040528060008152506000610d96565b6107f884848484610f99565b50505050565b6000816001600160a01b0316836001600160a01b0316148061086957506001600160a01b03831660009081526005602052604090205460ff16801561086957506001600160a01b0380831660009081526007602090815260408083209387168352929052205460ff16155b8061089957506001600160a01b0380831660009081526006602090815260408083209387168352929052205460ff165b9392505050565b6001600160a01b03918216600090815260086020908152604080832093909416825291909152205490565b6108d3610a5d565b6001600160a01b0316816001600160a01b031614156109045760405162461bcd60e51b815260040161043290611830565b6001600160a01b03811660009081526005602052604090205460ff161561097057600160076000610933610a5d565b6001600160a01b03908116825260208083019390935260409182016000908120918616815292529020805460ff19169115159190911790556109ae565b6006600061097c610a5d565b6001600160a01b03908116825260208083019390935260409182016000908120918516815292529020805460ff191690555b6109b6610a5d565b6001600160a01b0316816001600160a01b03167f50546e66e5f44d728365dc3908c63bc5cfeeab470722c1677e3073a6ac294aa160405160405180910390a350565b610a09610a03610a5d565b856107fe565b610a255760405162461bcd60e51b8152600401610432906119a2565b6107f8848484846110d0565b610a53610a3c610a5d565b8383604051806020016040528060008152506110d0565b5050565b3b151590565b3390565b6001600160a01b038316610a875760405162461bcd60e51b815260040161043290611695565b6001600160a01b038216610aad5760405162461bcd60e51b815260040161043290611b4b565b6001600160a01b0380841660008181526008602090815260408083209487168084529490915290819020849055517f8c5be1e5ebec7d5bd14f71427d1e84f3dd0314c0f7b2291e5b200ac8c7c3b92590610b08908590611ba8565b60405180910390a3505050565b60405163555ddc6560e11b8152600090731820a4b7618bde71dce8cdc73aab6c95905fad249063aabbb8ca90610b719089907f29ddb589b1fb5fc7cf394961c1adf5f8c6454761adf795e67fe149f658abe89590600401611611565b60206040518083038186803b158015610b8957600080fd5b505afa158015610b9d573d6000803e3d6000fd5b505050506040513d601f19601f82011682018060405250810190610bc19190611305565b90506001600160a01b03811615610c54576040517f75ab97820000000000000000000000000000000000000000000000000000000081526001600160a01b038216906375ab978290610c21908a908a908a908a908a908a906004016115b8565b600060405180830381600087803b158015610c3b57600080fd5b505af1158015610c4f573d6000803e3d6000fd5b505050505b50505050505050565b610c6986868686611239565b6001600160a01b03851660009081526020819052604090205483811015610ca25760405162461bcd60e51b815260040161043290611734565b610cac8482611c0c565b6001600160a01b038088166000908152602081905260408082209390935590871681529081208054869290610ce2908490611bf4565b92505081905550846001600160a01b0316866001600160a01b0316886001600160a01b03167f06b541ddaa720db2b10a4d0cdac39b8d360425fc073085fac19bc82614677987878787604051610d3a93929190611bb1565b60405180910390a4846001600160a01b0316866001600160a01b03167fddf252ad1be2c89b69c2b068fc378daa952ba7f163c4a11628f55a4df523b3ef86604051610d859190611ba8565b60405180910390a350505050505050565b60405163555ddc6560e11b8152600090731820a4b7618bde71dce8cdc73aab6c95905fad249063aabbb8ca90610df29089907fb281fc8c12954d22544db45de3159a39272895b169a852b314f9cc762e44c53b90600401611611565b60206040518083038186803b158015610e0a57600080fd5b505afa158015610e1e573d6000803e3d6000fd5b505050506040513d601f19601f82011682018060405250810190610e429190611305565b90506001600160a01b03811615610ed7576040517e23de290000000000000000000000000000000000000000000000000000000081526001600160a01b038216906223de2990610ea0908b908b908b908b908b908b906004016115b8565b600060405180830381600087803b158015610eba57600080fd5b505af1158015610ece573d6000803e3d6000fd5b50505050610f0c565b8115610f0c57610eef866001600160a01b0316610a57565b15610f0c5760405162461bcd60e51b8152600401610432906118c2565b5050505050505050565b6001600160a01b038616610f3c5760405162461bcd60e51b8152600401610432906116f2565b6001600160a01b038516610f625760405162461bcd60e51b815260040161043290611b16565b6000610f6c610a5d565b9050610f7c818888888888610b15565b610f8a818888888888610c5d565b610c5481888888888888610d96565b6001600160a01b038416610fbf5760405162461bcd60e51b81526004016104329061188d565b6000610fc9610a5d565b9050610fd88160008787611239565b8360016000828254610fea9190611bf4565b90915550506001600160a01b03851660009081526020819052604081208054869290611017908490611bf4565b9091555061102e9050816000878787876001610d96565b846001600160a01b0316816001600160a01b03167f2fe5be0146f74c5bce36c0b80911af6c7d86ff27e89d5cfa61fc681327954e5d86868660405161107593929190611bb1565b60405180910390a3846001600160a01b031660006001600160a01b03167fddf252ad1be2c89b69c2b068fc378daa952ba7f163c4a11628f55a4df523b3ef866040516110c19190611ba8565b60405180910390a35050505050565b6001600160a01b0384166110f65760405162461bcd60e51b815260040161043290611791565b6000611100610a5d565b905061111181866000878787610b15565b61111e8186600087611239565b6001600160a01b038516600090815260208190526040902054848110156111575760405162461bcd60e51b815260040161043290611ab9565b6111618582611c0c565b6001600160a01b0387166000908152602081905260408120919091556001805487929061118f908490611c0c565b92505081905550856001600160a01b0316826001600160a01b03167fa78a9be3a7b862d26933ad85fb11d80ef66b8f972d7cbba06621d583943a40988787876040516111dd93929190611bb1565b60405180910390a360006001600160a01b0316866001600160a01b03167fddf252ad1be2c89b69c2b068fc378daa952ba7f163c4a11628f55a4df523b3ef876040516112299190611ba8565b60405180910390a3505050505050565b6040517f52316ab8e8b0687ce803e403dfe429541bccd4f6c4683ec65d254d382f15a26590600090a150505050565b600082601f830112611278578081fd5b813567ffffffffffffffff8082111561129357611293611c74565b604051601f8301601f1916810160200182811182821017156112b7576112b7611c74565b6040528281528483016020018610156112ce578384fd5b82602086016020830137918201602001929092529392505050565b6000602082840312156112fa578081fd5b813561089981611c8a565b600060208284031215611316578081fd5b815161089981611c8a565b60008060408385031215611333578081fd5b823561133e81611c8a565b9150602083013561134e81611c8a565b809150509250929050565b60008060006060848603121561136d578081fd5b833561137881611c8a565b9250602084013561138881611c8a565b929592945050506040919091013590565b600080600080600060a086880312156113b0578081fd5b85356113bb81611c8a565b945060208601356113cb81611c8a565b935060408601359250606086013567ffffffffffffffff808211156113ee578283fd5b6113fa89838a01611268565b9350608088013591508082111561140f578283fd5b5061141c88828901611268565b9150509295509295909350565b6000806040838503121561143b578182fd5b823561144681611c8a565b946020939093013593505050565b600080600060608486031215611468578283fd5b833561147381611c8a565b925060208401359150604084013567ffffffffffffffff811115611495578182fd5b6114a186828701611268565b9150509250925092565b600080600080608085870312156114c0578384fd5b84356114cb81611c8a565b935060208501359250604085013567ffffffffffffffff808211156114ee578384fd5b6114fa88838901611268565b9350606087013591508082111561150f578283fd5b5061151c87828801611268565b91505092959194509250565b6000806040838503121561153a578182fd5b82359150602083013567ffffffffffffffff811115611557578182fd5b61156385828601611268565b9150509250929050565b60008151808452815b8181101561159257602081850181015186830182015201611576565b818111156115a35782602083870101525b50601f01601f19169290920160200192915050565b60006001600160a01b038089168352808816602084015280871660408401525084606083015260c060808301526115f260c083018561156d565b82810360a0840152611604818561156d565b9998505050505050505050565b6001600160a01b03929092168252602082015260400190565b6020808252825182820181905260009190848201906040850190845b8181101561166b5783516001600160a01b031683529284019291840191600101611646565b50909695505050505050565b901515815260200190565b600060208252610899602083018461156d565b60208082526025908201527f4552433737373a20617070726f76652066726f6d20746865207a65726f20616460408201527f6472657373000000000000000000000000000000000000000000000000000000606082015260800190565b60208082526022908201527f4552433737373a2073656e642066726f6d20746865207a65726f206164647265604082015261737360f01b606082015260800190565b60208082526027908201527f4552433737373a207472616e7366657220616d6f756e7420657863656564732060408201527f62616c616e636500000000000000000000000000000000000000000000000000606082015260800190565b60208082526022908201527f4552433737373a206275726e2066726f6d20746865207a65726f206164647265604082015261737360f01b606082015260800190565b60208082526024908201527f4552433737373a20617574686f72697a696e672073656c66206173206f70657260408201527f61746f7200000000000000000000000000000000000000000000000000000000606082015260800190565b60208082526021908201527f4552433737373a207265766f6b696e672073656c66206173206f70657261746f60408201527f7200000000000000000000000000000000000000000000000000000000000000606082015260800190565b6020808252818101527f4552433737373a206d696e7420746f20746865207a65726f2061646472657373604082015260600190565b6020808252604d908201527f4552433737373a20746f6b656e20726563697069656e7420636f6e747261637460408201527f20686173206e6f20696d706c656d656e74657220666f7220455243373737546f60608201527f6b656e73526563697069656e7400000000000000000000000000000000000000608082015260a00190565b60208082526024908201527f4552433737373a207472616e7366657220746f20746865207a65726f2061646460408201527f7265737300000000000000000000000000000000000000000000000000000000606082015260800190565b6020808252602c908201527f4552433737373a2063616c6c6572206973206e6f7420616e206f70657261746f60408201527f7220666f7220686f6c6465720000000000000000000000000000000000000000606082015260800190565b60208082526029908201527f4552433737373a207472616e7366657220616d6f756e7420657863656564732060408201527f616c6c6f77616e63650000000000000000000000000000000000000000000000606082015260800190565b60208082526026908201527f4552433737373a207472616e736665722066726f6d20746865207a65726f206160408201527f6464726573730000000000000000000000000000000000000000000000000000606082015260800190565b60208082526023908201527f4552433737373a206275726e20616d6f756e7420657863656564732062616c6160408201527f6e63650000000000000000000000000000000000000000000000000000000000606082015260800190565b6020808252818101527f4552433737373a2073656e6420746f20746865207a65726f2061646472657373604082015260600190565b60208082526023908201527f4552433737373a20617070726f766520746f20746865207a65726f206164647260408201527f6573730000000000000000000000000000000000000000000000000000000000606082015260800190565b90815260200190565b600084825260606020830152611bca606083018561156d565b8281036040840152611bdc818561156d565b9695505050505050565b60ff91909116815260200190565b60008219821115611c0757611c07611c5e565b500190565b600082821015611c1e57611c1e611c5e565b500390565b600281046001821680611c3757607f821691505b60208210811415611c5857634e487b7160e01b600052602260045260246000fd5b50919050565b634e487b7160e01b600052601160045260246000fd5b634e487b7160e01b600052604160045260246000fd5b6001600160a01b0381168114611c9f57600080fd5b5056fea26469706673582212205fd95092c789d186a587b5df857bef94fff367883bf88a284012fe36b12d9b9164736f6c63430008000033",
  "linkReferences": {},
  "deployedLinkReferences": {}
}