{
  "_format": "hh-sol-artifact-1",
  "contractName": "EnumerableMapMock",
  "sourceName": "contracts/OpenZeppelin/mocks/EnumerableMapMock.sol",
  "abi": [
    {
      "anonymous": false,
      "inputs": [
        {
          "indexed": false,
          "internalType": "bool",
          "name": "result",
          "type": "bool"
        }
      ],
      "name": "OperationResult",
      "type": "event"
    },
    {
      "inputs": [
        {
          "internalType": "uint256",
          "name": "index",
          "type": "uint256"
        }
      ],
      "name": "at",
      "outputs": [
        {
          "internalType": "uint256",
          "name": "key",
          "type": "uint256"
        },
        {
          "internalType": "address",
          "name": "value",
          "type": "address"
        }
      ],
      "stateMutability": "view",
      "type": "function"
    },
    {
      "inputs": [
        {
          "internalType": "uint256",
          "name": "key",
          "type": "uint256"
        }
      ],
      "name": "contains",
      "outputs": [
        {
          "internalType": "bool",
          "name": "",
          "type": "bool"
        }
      ],
      "stateMutability": "view",
      "type": "function"
    },
    {
      "inputs": [
        {
          "internalType": "uint256",
          "name": "key",
          "type": "uint256"
        }
      ],
      "name": "get",
      "outputs": [
        {
          "internalType": "address",
          "name": "",
          "type": "address"
        }
      ],
      "stateMutability": "view",
      "type": "function"
    },
    {
      "inputs": [
        {
          "internalType": "uint256",
          "name": "key",
          "type": "uint256"
        },
        {
          "internalType": "string",
          "name": "errorMessage",
          "type": "string"
        }
      ],
      "name": "getWithMessage",
      "outputs": [
        {
          "internalType": "address",
          "name": "",
          "type": "address"
        }
      ],
      "stateMutability": "view",
      "type": "function"
    },
    {
      "inputs": [],
      "name": "length",
      "outputs": [
        {
          "internalType": "uint256",
          "name": "",
          "type": "uint256"
        }
      ],
      "stateMutability": "view",
      "type": "function"
    },
    {
      "inputs": [
        {
          "internalType": "uint256",
          "name": "key",
          "type": "uint256"
        }
      ],
      "name": "remove",
      "outputs": [],
      "stateMutability": "nonpayable",
      "type": "function"
    },
    {
      "inputs": [
        {
          "internalType": "uint256",
          "name": "key",
          "type": "uint256"
        },
        {
          "internalType": "address",
          "name": "value",
          "type": "address"
        }
      ],
      "name": "set",
      "outputs": [],
      "stateMutability": "nonpayable",
      "type": "function"
    },
    {
      "inputs": [
        {
          "internalType": "uint256",
          "name": "key",
          "type": "uint256"
        }
      ],
      "name": "tryGet",
      "outputs": [
        {
          "internalType": "bool",
          "name": "",
          "type": "bool"
        },
        {
          "internalType": "address",
          "name": "",
          "type": "address"
        }
      ],
      "stateMutability": "view",
      "type": "function"
    }
  ],
  "bytecode": "0x608060405234801561001057600080fd5b50610975806100206000396000f3fe608060405234801561001057600080fd5b50600436106100885760003560e01c80639507d39a1161005b5780639507d39a146100f4578063c051a3a614610114578063c34052e014610127578063e0886f901461014757610088565b80631f7b6d321461008d5780632f30c6f6146100ab5780634cc82215146100c0578063871394d9146100d3575b600080fd5b610095610168565b6040516100a291906108da565b60405180910390f35b6100be6100b936600461070a565b610179565b005b6100be6100ce3660046106f2565b6101c4565b6100e66100e13660046106f2565b61020d565b6040516100a29291906107da565b6101076101023660046106f2565b610223565b6040516100a291906107bb565b610107610122366004610744565b610235565b61013a6101353660046106f2565b610283565b6040516100a291906107cf565b61015a6101553660046106f2565b61028f565b6040516100a29291906108e3565b6000610174600061029c565b905090565b60006101868184846102a7565b90507fed9840e0775590557ad736875d96c95cf1458b766335f74339951a32c82a9e33816040516101b791906107cf565b60405180910390a1505050565b60006101d081836102bd565b90507fed9840e0775590557ad736875d96c95cf1458b766335f74339951a32c82a9e338160405161020191906107cf565b60405180910390a15050565b60008061021a81846102c9565b91509150915091565b600061022f81836102e7565b92915050565b60006102798484848080601f016020809104026020016040519081016040528093929190818152602001838380828437600092018290525094939250506102f39050565b90505b9392505050565b600061022f8183610300565b60008061021a818461030c565b600061022f8261031b565b600061027984846001600160a01b03851661031f565b600061027c83836103ce565b60008080806102d88686610509565b909450925050505b9250929050565b600061027c8383610577565b60006102798484846105f3565b600061027c838361066a565b60008080806102d88686610682565b5490565b60008281526001840160205260408120548061038457505060408051808201825283815260208082018481528654600181810189556000898152848120955160029093029095019182559151908201558654868452818801909252929091205561027c565b8285610391600184610912565b815481106103af57634e487b7160e01b600052603260045260246000fd5b906000526020600020906002020160010181905550600091505061027c565b600081815260018301602052604081205480156104ff5760006103f2600183610912565b855490915060009061040690600190610912565b9050600086600001828154811061042d57634e487b7160e01b600052603260045260246000fd5b906000526020600020906002020190508087600001848154811061046157634e487b7160e01b600052603260045260246000fd5b6000918252602090912082546002909202019081556001918201549082015561048b9084906108fa565b8154600090815260018901602052604090205586548790806104bd57634e487b7160e01b600052603160045260246000fd5b600082815260208082206002600019909401938402018281556001908101839055929093558881528982019092526040822091909155945061022f9350505050565b600091505061022f565b600081815260018301602052604081205481908061052e5750600091508190506102e0565b60018561053b8284610912565b8154811061055957634e487b7160e01b600052603260045260246000fd5b90600052602060002090600202016001015492509250509250929050565b6000818152600183016020526040812054806105ae5760405162461bcd60e51b81526004016105a5906108a3565b60405180910390fd5b836105ba600183610912565b815481106105d857634e487b7160e01b600052603260045260246000fd5b90600052602060002090600202016001015491505092915050565b600082815260018401602052604081205482816106235760405162461bcd60e51b81526004016105a591906107f3565b5084610630600183610912565b8154811061064e57634e487b7160e01b600052603260045260246000fd5b9060005260206000209060020201600101549150509392505050565b60009081526001919091016020526040902054151590565b8154600090819083106106a75760405162461bcd60e51b81526004016105a590610846565b60008460000184815481106106cc57634e487b7160e01b600052603260045260246000fd5b906000526020600020906002020190508060000154816001015492509250509250929050565b600060208284031215610703578081fd5b5035919050565b6000806040838503121561071c578081fd5b8235915060208301356001600160a01b0381168114610739578182fd5b809150509250929050565b600080600060408486031215610758578081fd5b83359250602084013567ffffffffffffffff80821115610776578283fd5b818601915086601f830112610789578283fd5b813581811115610797578384fd5b8760208285010111156107a8578384fd5b6020830194508093505050509250925092565b6001600160a01b0391909116815260200190565b901515815260200190565b91151582526001600160a01b0316602082015260400190565b6000602080835283518082850152825b8181101561081f57858101830151858201604001528201610803565b818111156108305783604083870101525b50601f01601f1916929092016040019392505050565b60208082526022908201527f456e756d657261626c654d61703a20696e646578206f7574206f6620626f756e60408201527f6473000000000000000000000000000000000000000000000000000000000000606082015260800190565b6020808252601e908201527f456e756d657261626c654d61703a206e6f6e6578697374656e74206b65790000604082015260600190565b90815260200190565b9182526001600160a01b0316602082015260400190565b6000821982111561090d5761090d610929565b500190565b60008282101561092457610924610929565b500390565b634e487b7160e01b600052601160045260246000fdfea26469706673582212206138c4a00b35b1be08bf30f2abc45554df747c6eb0288e963f7b81ebde4901ec64736f6c63430008000033",
  "linkReferences": {},
  "deployedLinkReferences": {}
}