{
  "_format": "hh-sol-artifact-1",
  "contractName": "ERC721GSNRecipientMock",
  "sourceName": "contracts/OpenZeppelin/mocks/ERC721GSNRecipientMock.sol",
  "abi": [
    {
      "inputs": [
        {
          "internalType": "string",
          "name": "name",
          "type": "string"
        },
        {
          "internalType": "string",
          "name": "symbol",
          "type": "string"
        },
        {
          "internalType": "address",
          "name": "trustedSigner",
          "type": "address"
        }
      ],
      "stateMutability": "nonpayable",
      "type": "constructor"
    },
    {
      "anonymous": false,
      "inputs": [
        {
          "indexed": true,
          "internalType": "address",
          "name": "owner",
          "type": "address"
        },
        {
          "indexed": true,
          "internalType": "address",
          "name": "approved",
          "type": "address"
        },
        {
          "indexed": true,
          "internalType": "uint256",
          "name": "tokenId",
          "type": "uint256"
        }
      ],
      "name": "Approval",
      "type": "event"
    },
    {
      "anonymous": false,
      "inputs": [
        {
          "indexed": true,
          "internalType": "address",
          "name": "owner",
          "type": "address"
        },
        {
          "indexed": true,
          "internalType": "address",
          "name": "operator",
          "type": "address"
        },
        {
          "indexed": false,
          "internalType": "bool",
          "name": "approved",
          "type": "bool"
        }
      ],
      "name": "ApprovalForAll",
      "type": "event"
    },
    {
      "anonymous": false,
      "inputs": [
        {
          "indexed": true,
          "internalType": "address",
          "name": "oldRelayHub",
          "type": "address"
        },
        {
          "indexed": true,
          "internalType": "address",
          "name": "newRelayHub",
          "type": "address"
        }
      ],
      "name": "RelayHubChanged",
      "type": "event"
    },
    {
      "anonymous": false,
      "inputs": [
        {
          "indexed": true,
          "internalType": "address",
          "name": "from",
          "type": "address"
        },
        {
          "indexed": true,
          "internalType": "address",
          "name": "to",
          "type": "address"
        },
        {
          "indexed": true,
          "internalType": "uint256",
          "name": "tokenId",
          "type": "uint256"
        }
      ],
      "name": "Transfer",
      "type": "event"
    },
    {
      "inputs": [
        {
          "internalType": "address",
          "name": "relay",
          "type": "address"
        },
        {
          "internalType": "address",
          "name": "from",
          "type": "address"
        },
        {
          "internalType": "bytes",
          "name": "encodedFunction",
          "type": "bytes"
        },
        {
          "internalType": "uint256",
          "name": "transactionFee",
          "type": "uint256"
        },
        {
          "internalType": "uint256",
          "name": "gasPrice",
          "type": "uint256"
        },
        {
          "internalType": "uint256",
          "name": "gasLimit",
          "type": "uint256"
        },
        {
          "internalType": "uint256",
          "name": "nonce",
          "type": "uint256"
        },
        {
          "internalType": "bytes",
          "name": "approvalData",
          "type": "bytes"
        },
        {
          "internalType": "uint256",
          "name": "",
          "type": "uint256"
        }
      ],
      "name": "acceptRelayedCall",
      "outputs": [
        {
          "internalType": "uint256",
          "name": "",
          "type": "uint256"
        },
        {
          "internalType": "bytes",
          "name": "",
          "type": "bytes"
        }
      ],
      "stateMutability": "view",
      "type": "function"
    },
    {
      "inputs": [
        {
          "internalType": "address",
          "name": "to",
          "type": "address"
        },
        {
          "internalType": "uint256",
          "name": "tokenId",
          "type": "uint256"
        }
      ],
      "name": "approve",
      "outputs": [],
      "stateMutability": "nonpayable",
      "type": "function"
    },
    {
      "inputs": [
        {
          "internalType": "address",
          "name": "owner",
          "type": "address"
        }
      ],
      "name": "balanceOf",
      "outputs": [
        {
          "internalType": "uint256",
          "name": "",
          "type": "uint256"
        }
      ],
      "stateMutability": "view",
      "type": "function"
    },
    {
      "inputs": [],
      "name": "baseURI",
      "outputs": [
        {
          "internalType": "string",
          "name": "",
          "type": "string"
        }
      ],
      "stateMutability": "view",
      "type": "function"
    },
    {
      "inputs": [
        {
          "internalType": "uint256",
          "name": "tokenId",
          "type": "uint256"
        }
      ],
      "name": "getApproved",
      "outputs": [
        {
          "internalType": "address",
          "name": "",
          "type": "address"
        }
      ],
      "stateMutability": "view",
      "type": "function"
    },
    {
      "inputs": [],
      "name": "getHubAddr",
      "outputs": [
        {
          "internalType": "address",
          "name": "",
          "type": "address"
        }
      ],
      "stateMutability": "view",
      "type": "function"
    },
    {
      "inputs": [
        {
          "internalType": "address",
          "name": "owner",
          "type": "address"
        },
        {
          "internalType": "address",
          "name": "operator",
          "type": "address"
        }
      ],
      "name": "isApprovedForAll",
      "outputs": [
        {
          "internalType": "bool",
          "name": "",
          "type": "bool"
        }
      ],
      "stateMutability": "view",
      "type": "function"
    },
    {
      "inputs": [
        {
          "internalType": "uint256",
          "name": "tokenId",
          "type": "uint256"
        }
      ],
      "name": "mint",
      "outputs": [],
      "stateMutability": "nonpayable",
      "type": "function"
    },
    {
      "inputs": [],
      "name": "name",
      "outputs": [
        {
          "internalType": "string",
          "name": "",
          "type": "string"
        }
      ],
      "stateMutability": "view",
      "type": "function"
    },
    {
      "inputs": [
        {
          "internalType": "uint256",
          "name": "tokenId",
          "type": "uint256"
        }
      ],
      "name": "ownerOf",
      "outputs": [
        {
          "internalType": "address",
          "name": "",
          "type": "address"
        }
      ],
      "stateMutability": "view",
      "type": "function"
    },
    {
      "inputs": [
        {
          "internalType": "bytes",
          "name": "context",
          "type": "bytes"
        },
        {
          "internalType": "bool",
          "name": "success",
          "type": "bool"
        },
        {
          "internalType": "uint256",
          "name": "actualCharge",
          "type": "uint256"
        },
        {
          "internalType": "bytes32",
          "name": "preRetVal",
          "type": "bytes32"
        }
      ],
      "name": "postRelayedCall",
      "outputs": [],
      "stateMutability": "nonpayable",
      "type": "function"
    },
    {
      "inputs": [
        {
          "internalType": "bytes",
          "name": "context",
          "type": "bytes"
        }
      ],
      "name": "preRelayedCall",
      "outputs": [
        {
          "internalType": "bytes32",
          "name": "",
          "type": "bytes32"
        }
      ],
      "stateMutability": "nonpayable",
      "type": "function"
    },
    {
      "inputs": [],
      "name": "relayHubVersion",
      "outputs": [
        {
          "internalType": "string",
          "name": "",
          "type": "string"
        }
      ],
      "stateMutability": "view",
      "type": "function"
    },
    {
      "inputs": [
        {
          "internalType": "address",
          "name": "from",
          "type": "address"
        },
        {
          "internalType": "address",
          "name": "to",
          "type": "address"
        },
        {
          "internalType": "uint256",
          "name": "tokenId",
          "type": "uint256"
        }
      ],
      "name": "safeTransferFrom",
      "outputs": [],
      "stateMutability": "nonpayable",
      "type": "function"
    },
    {
      "inputs": [
        {
          "internalType": "address",
          "name": "from",
          "type": "address"
        },
        {
          "internalType": "address",
          "name": "to",
          "type": "address"
        },
        {
          "internalType": "uint256",
          "name": "tokenId",
          "type": "uint256"
        },
        {
          "internalType": "bytes",
          "name": "_data",
          "type": "bytes"
        }
      ],
      "name": "safeTransferFrom",
      "outputs": [],
      "stateMutability": "nonpayable",
      "type": "function"
    },
    {
      "inputs": [
        {
          "internalType": "address",
          "name": "operator",
          "type": "address"
        },
        {
          "internalType": "bool",
          "name": "approved",
          "type": "bool"
        }
      ],
      "name": "setApprovalForAll",
      "outputs": [],
      "stateMutability": "nonpayable",
      "type": "function"
    },
    {
      "inputs": [
        {
          "internalType": "bytes4",
          "name": "interfaceId",
          "type": "bytes4"
        }
      ],
      "name": "supportsInterface",
      "outputs": [
        {
          "internalType": "bool",
          "name": "",
          "type": "bool"
        }
      ],
      "stateMutability": "view",
      "type": "function"
    },
    {
      "inputs": [],
      "name": "symbol",
      "outputs": [
        {
          "internalType": "string",
          "name": "",
          "type": "string"
        }
      ],
      "stateMutability": "view",
      "type": "function"
    },
    {
      "inputs": [
        {
          "internalType": "uint256",
          "name": "index",
          "type": "uint256"
        }
      ],
      "name": "tokenByIndex",
      "outputs": [
        {
          "internalType": "uint256",
          "name": "",
          "type": "uint256"
        }
      ],
      "stateMutability": "view",
      "type": "function"
    },
    {
      "inputs": [
        {
          "internalType": "address",
          "name": "owner",
          "type": "address"
        },
        {
          "internalType": "uint256",
          "name": "index",
          "type": "uint256"
        }
      ],
      "name": "tokenOfOwnerByIndex",
      "outputs": [
        {
          "internalType": "uint256",
          "name": "",
          "type": "uint256"
        }
      ],
      "stateMutability": "view",
      "type": "function"
    },
    {
      "inputs": [
        {
          "internalType": "uint256",
          "name": "tokenId",
          "type": "uint256"
        }
      ],
      "name": "tokenURI",
      "outputs": [
        {
          "internalType": "string",
          "name": "",
          "type": "string"
        }
      ],
      "stateMutability": "view",
      "type": "function"
    },
    {
      "inputs": [],
      "name": "totalSupply",
      "outputs": [
        {
          "internalType": "uint256",
          "name": "",
          "type": "uint256"
        }
      ],
      "stateMutability": "view",
      "type": "function"
    },
    {
      "inputs": [
        {
          "internalType": "address",
          "name": "from",
          "type": "address"
        },
        {
          "internalType": "address",
          "name": "to",
          "type": "address"
        },
        {
          "internalType": "uint256",
          "name": "tokenId",
          "type": "uint256"
        }
      ],
      "name": "transferFrom",
      "outputs": [],
      "stateMutability": "nonpayable",
      "type": "function"
    }
  ],
  "bytecode": "0x6080604052600a80546001600160a01b03191673d216153c06e857cd7f72665e0af1d7d82172f4941790553480156200003757600080fd5b5060405162002705380380620027058339810160408190526200005a91620002d2565b8083836200006f6301ffc9a760e01b6200012f565b81516200008490600690602085019062000181565b5080516200009a90600790602084019062000181565b50620000ad6380ac58cd60e01b6200012f565b620000bf635b5e139f60e01b6200012f565b620000d163780e9d6360e01b6200012f565b50506001600160a01b038116620001055760405162461bcd60e51b8152600401620000fc9062000392565b60405180910390fd5b600b80546001600160a01b0319166001600160a01b03929092169190911790555062000442915050565b6001600160e01b031980821614156200015c5760405162461bcd60e51b8152600401620000fc906200035b565b6001600160e01b0319166000908152602081905260409020805460ff19166001179055565b8280546200018f90620003ef565b90600052602060002090601f016020900481019282620001b35760008555620001fe565b82601f10620001ce57805160ff1916838001178555620001fe565b82800160010185558215620001fe579182015b82811115620001fe578251825591602001919060010190620001e1565b506200020c92915062000210565b5090565b5b808211156200020c576000815560010162000211565b600082601f83011262000238578081fd5b81516001600160401b03808211156200025557620002556200042c565b6040516020601f8401601f19168201810183811183821017156200027d576200027d6200042c565b604052838252858401810187101562000294578485fd5b8492505b83831015620002b7578583018101518284018201529182019162000298565b83831115620002c857848185840101525b5095945050505050565b600080600060608486031215620002e7578283fd5b83516001600160401b0380821115620002fe578485fd5b6200030c8783880162000227565b9450602086015191508082111562000322578384fd5b50620003318682870162000227565b604086015190935090506001600160a01b038116811462000350578182fd5b809150509250925092565b6020808252601c908201527f4552433136353a20696e76616c696420696e7465726661636520696400000000604082015260600190565b60208082526039908201527f47534e526563697069656e745369676e61747572653a2074727573746564207360408201527f69676e657220697320746865207a65726f206164647265737300000000000000606082015260800190565b6002810460018216806200040457607f821691505b602082108114156200042657634e487b7160e01b600052602260045260246000fd5b50919050565b634e487b7160e01b600052604160045260246000fd5b6122b380620004526000396000f3fe608060405234801561001057600080fd5b506004361061018d5760003560e01c806370a08231116100e3578063a22cb4651161008c578063c87b56dd11610066578063c87b56dd14610319578063e06e0e221461032c578063e985e9c51461033f5761018d565b8063a22cb465146102eb578063ad61ccd5146102fe578063b88d4fde146103065761018d565b806383947ea0116100bd57806383947ea0146102af57806395d89b41146102d0578063a0712d68146102d85761018d565b806370a082311461028157806374e861d61461029457806380274db71461029c5761018d565b806323b872dd116101455780634f6ccce71161011f5780634f6ccce7146102535780636352211e146102665780636c0360eb146102795761018d565b806323b872dd1461021a5780632f745c591461022d57806342842e0e146102405761018d565b8063081812fc11610176578063081812fc146101d0578063095ea7b3146101f057806318160ddd146102055761018d565b806301ffc9a71461019257806306fdde03146101bb575b600080fd5b6101a56101a0366004611890565b610352565b6040516101b29190611ab7565b60405180910390f35b6101c361038d565b6040516101b29190611ae9565b6101e36101de366004611956565b610420565b6040516101b29190611a71565b6102036101fe366004611867565b61046c565b005b61020d610504565b6040516101b29190611ac2565b61020361022836600461179d565b610515565b61020d61023b366004611867565b61054d565b61020361024e36600461179d565b610578565b61020d610261366004611956565b610593565b6101e3610274366004611956565b6105a9565b6101c36105d1565b61020d61028f36600461169e565b6105e0565b6101e3610629565b61020d6102aa3660046118c8565b610638565b6102c26102bd3660046116ea565b61067b565b6040516101b29291906120f2565b6101c361071e565b6102036102e6366004611956565b61072d565b6102036102f936600461183e565b610741565b6101c361080f565b6102036103143660046117d8565b610846565b6101c3610327366004611956565b610885565b61020361033a3660046118fb565b6109c8565b6101a561034d3660046116b8565b610a0c565b7fffffffff00000000000000000000000000000000000000000000000000000000811660009081526020819052604090205460ff165b919050565b60606006805461039c9061217a565b80601f01602080910402602001604051908101604052809291908181526020018280546103c89061217a565b80156104155780601f106103ea57610100808354040283529160200191610415565b820191906000526020600020905b8154815290600101906020018083116103f857829003601f168201915b505050505090505b90565b600061042b82610a3a565b6104505760405162461bcd60e51b815260040161044790611ed5565b60405180910390fd5b506000908152600460205260409020546001600160a01b031690565b6000610477826105a9565b9050806001600160a01b0316836001600160a01b031614156104ab5760405162461bcd60e51b815260040161044790611fdb565b806001600160a01b03166104bd610a47565b6001600160a01b031614806104d957506104d98161034d610a47565b6104f55760405162461bcd60e51b815260040161044790611d62565b6104ff8383610a51565b505050565b60006105106002610ad7565b905090565b610526610520610a47565b82610ae2565b6105425760405162461bcd60e51b815260040161044790612095565b6104ff838383610b67565b6001600160a01b038216600090815260016020526040812061056f9083610c75565b90505b92915050565b6104ff83838360405180602001604052806000815250610846565b6000806105a1600284610c81565b509392505050565b6000610572826040518060600160405280602981526020016122556029913960029190610c9d565b60606009805461039c9061217a565b60006001600160a01b0382166106085760405162461bcd60e51b815260040161044790611dbf565b6001600160a01b038216600090815260016020526040902061057290610ad7565b600a546001600160a01b031690565b6000610642610629565b6001600160a01b0316336001600160a01b0316146106725760405162461bcd60e51b815260040161044790612038565b61057282610cb4565b6000606060008b8b8b8b8b8b8b610690610629565b306040516020016106a99998979695949392919061199a565b60408051601f19818403018152919052600b54815160208301209192506001600160a01b0316906106e59087906106df90610cba565b90610cea565b6001600160a01b03161415610706576106fc610d35565b9250925050610710565b6106fc6000610d59565b995099975050505050505050565b60606007805461039c9061217a565b61073e610738610a47565b82610d81565b50565b610749610a47565b6001600160a01b0316826001600160a01b0316141561077a5760405162461bcd60e51b815260040161044790611c9d565b8060056000610787610a47565b6001600160a01b03908116825260208083019390935260409182016000908120918716808252919093529120805460ff1916921515929092179091556107cb610a47565b6001600160a01b03167f17307eab39ab6107e8899845ad3d59bd9653f200f220920489ca2b5937696c31836040516108039190611ab7565b60405180910390a35050565b60408051808201909152600581527f312e302e30000000000000000000000000000000000000000000000000000000602082015290565b610857610851610a47565b83610ae2565b6108735760405162461bcd60e51b815260040161044790612095565b61087f84848484610e45565b50505050565b606061089082610a3a565b6108ac5760405162461bcd60e51b815260040161044790611f7e565b600082815260086020526040812080546108c59061217a565b80601f01602080910402602001604051908101604052809291908181526020018280546108f19061217a565b801561093e5780601f106109135761010080835404028352916020019161093e565b820191906000526020600020905b81548152906001019060200180831161092157829003601f168201915b50505050509050600061094f6105d1565b905080516000141561096357509050610388565b81511561099557808260405160200161097d929190611a11565b60405160208183030381529060405292505050610388565b8061099f85610e78565b6040516020016109b0929190611a11565b60405160208183030381529060405292505050919050565b6109d0610629565b6001600160a01b0316336001600160a01b031614610a005760405162461bcd60e51b815260040161044790612038565b61087f8484848461087f565b6001600160a01b03918216600090815260056020908152604080832093909416825291909152205460ff1690565b6000610572600283610fc7565b6000610510610fd3565b600081815260046020526040902080547fffffffffffffffffffffffff0000000000000000000000000000000000000000166001600160a01b0384169081179091558190610a9e826105a9565b6001600160a01b03167f8c5be1e5ebec7d5bd14f71427d1e84f3dd0314c0f7b2291e5b200ac8c7c3b92560405160405180910390a45050565b60006105728261100c565b6000610aed82610a3a565b610b095760405162461bcd60e51b815260040161044790611d16565b6000610b14836105a9565b9050806001600160a01b0316846001600160a01b03161480610b4f5750836001600160a01b0316610b4484610420565b6001600160a01b0316145b80610b5f5750610b5f8185610a0c565b949350505050565b826001600160a01b0316610b7a826105a9565b6001600160a01b031614610ba05760405162461bcd60e51b815260040161044790611f21565b6001600160a01b038216610bc65760405162461bcd60e51b815260040161044790611c40565b610bd18383836104ff565b610bdc600082610a51565b6001600160a01b0383166000908152600160205260409020610bfe9082611010565b506001600160a01b0382166000908152600160205260409020610c21908261101c565b50610c2e60028284611028565b5080826001600160a01b0316846001600160a01b03167fddf252ad1be2c89b69c2b068fc378daa952ba7f163c4a11628f55a4df523b3ef60405160405180910390a4505050565b600061056f838361103e565b6000808080610c908686611097565b9097909650945050505050565b6000610caa848484611107565b90505b9392505050565b50600090565b600081604051602001610ccd9190611a40565b604051602081830303815290604052805190602001209050919050565b60008151604114610d0d5760405162461bcd60e51b815260040161044790611b75565b60208201516040830151606084015160001a610d2b8682858561117e565b9695505050505050565b60006060610d5160405180602001604052806000815250611274565b915091509091565b60006060610d6883600b61210b565b6040518060200160405280600081525091509150915091565b6001600160a01b038216610da75760405162461bcd60e51b815260040161044790611ea0565b610db081610a3a565b15610dcd5760405162461bcd60e51b815260040161044790611c09565b610dd9600083836104ff565b6001600160a01b0382166000908152600160205260409020610dfb908261101c565b50610e0860028284611028565b5060405181906001600160a01b038416906000907fddf252ad1be2c89b69c2b068fc378daa952ba7f163c4a11628f55a4df523b3ef908290a45050565b610e50848484610b67565b610e5c84848484611279565b61087f5760405162461bcd60e51b815260040161044790611bac565b606081610eb9575060408051808201909152600181527f30000000000000000000000000000000000000000000000000000000000000006020820152610388565b8160005b8115610ee35780610ecd816121b5565b9150610edc9050600a83612123565b9150610ebd565b60008167ffffffffffffffff811115610f0c57634e487b7160e01b600052604160045260246000fd5b6040519080825280601f01601f191660200182016040528015610f36576020820181803683370190505b5090505b8415610b5f57610f4b600183612137565b9150610f58600a866121d0565b610f6390603061210b565b60f81b818381518110610f8657634e487b7160e01b600052603260045260246000fd5b60200101907effffffffffffffffffffffffffffffffffffffffffffffffffffffffffffff1916908160001a905350610fc0600a86612123565b9450610f3a565b600061056f83836113c2565b6000610fdd610629565b6001600160a01b0316336001600160a01b03161415611005575060131936013560601c61041d565b503361041d565b5490565b600061056f83836113da565b600061056f83836114f7565b6000610caa84846001600160a01b038516611541565b815460009082106110615760405162461bcd60e51b815260040161044790611b33565b82600001828154811061108457634e487b7160e01b600052603260045260246000fd5b9060005260206000200154905092915050565b8154600090819083106110bc5760405162461bcd60e51b815260040161044790611e5e565b60008460000184815481106110e157634e487b7160e01b600052603260045260246000fd5b906000526020600020906002020190508060000154816001015492509250509250929050565b600082815260018401602052604081205482816111375760405162461bcd60e51b81526004016104479190611ae9565b5084611144600183612137565b8154811061116257634e487b7160e01b600052603260045260246000fd5b9060005260206000209060020201600101549150509392505050565b60007f7fffffffffffffffffffffffffffffff5d576e7357a4501ddfe92f46681b20a08211156111c05760405162461bcd60e51b815260040161044790611cd4565b8360ff16601b14806111d557508360ff16601c145b6111f15760405162461bcd60e51b815260040161044790611e1c565b6000600186868686604051600081526020016040526040516112169493929190611acb565b6020604051602081039080840390855afa158015611238573d6000803e3d6000fd5b5050604051601f1901519150506001600160a01b03811661126b5760405162461bcd60e51b815260040161044790611afc565b95945050505050565b600091565b600061128d846001600160a01b03166115f0565b156113ba57836001600160a01b031663150b7a026112a9610a47565b8786866040518563ffffffff1660e01b81526004016112cb9493929190611a85565b602060405180830381600087803b1580156112e557600080fd5b505af1925050508015611315575060408051601f3d908101601f19168201909252611312918101906118ac565b60015b61136f573d808015611343576040519150601f19603f3d011682016040523d82523d6000602084013e611348565b606091505b5080516113675760405162461bcd60e51b815260040161044790611bac565b805181602001fd5b7fffffffff00000000000000000000000000000000000000000000000000000000167f150b7a0200000000000000000000000000000000000000000000000000000000149050610b5f565b506001610b5f565b60009081526001919091016020526040902054151590565b600081815260018301602052604081205480156114ed5760006113fe600183612137565b855490915060009061141290600190612137565b9050600086600001828154811061143957634e487b7160e01b600052603260045260246000fd5b906000526020600020015490508087600001848154811061146a57634e487b7160e01b600052603260045260246000fd5b60009182526020909120015561148183600161210b565b600082815260018901602052604090205586548790806114b157634e487b7160e01b600052603160045260246000fd5b60019003818190600052602060002001600090559055866001016000878152602001908152602001600020600090556001945050505050610572565b6000915050610572565b600061150383836113c2565b61153957508154600181810184556000848152602080822090930184905584548482528286019093526040902091909155610572565b506000610572565b6000828152600184016020526040812054806115a6575050604080518082018252838152602080820184815286546001818101895560008981528481209551600290930290950191825591519082015586548684528188019092529290912055610cad565b82856115b3600184612137565b815481106115d157634e487b7160e01b600052603260045260246000fd5b9060005260206000209060020201600101819055506000915050610cad565b3b151590565b80356001600160a01b038116811461038857600080fd5b8035801515811461038857600080fd5b600082601f83011261162d578081fd5b813567ffffffffffffffff8082111561164857611648612210565b604051601f8301601f19168101602001828111828210171561166c5761166c612210565b604052828152848301602001861015611683578384fd5b82602086016020830137918201602001929092529392505050565b6000602082840312156116af578081fd5b61056f826115f6565b600080604083850312156116ca578081fd5b6116d3836115f6565b91506116e1602084016115f6565b90509250929050565b60008060008060008060008060006101208a8c031215611708578485fd5b6117118a6115f6565b985061171f60208b016115f6565b975060408a013567ffffffffffffffff8082111561173b578687fd5b6117478d838e0161161d565b985060608c0135975060808c0135965060a08c0135955060c08c0135945060e08c0135915080821115611778578384fd5b506117858c828d0161161d565b9250506101008a013590509295985092959850929598565b6000806000606084860312156117b1578283fd5b6117ba846115f6565b92506117c8602085016115f6565b9150604084013590509250925092565b600080600080608085870312156117ed578384fd5b6117f6856115f6565b9350611804602086016115f6565b925060408501359150606085013567ffffffffffffffff811115611826578182fd5b6118328782880161161d565b91505092959194509250565b60008060408385031215611850578182fd5b611859836115f6565b91506116e16020840161160d565b60008060408385031215611879578182fd5b611882836115f6565b946020939093013593505050565b6000602082840312156118a1578081fd5b8135610cad81612226565b6000602082840312156118bd578081fd5b8151610cad81612226565b6000602082840312156118d9578081fd5b813567ffffffffffffffff8111156118ef578182fd5b610b5f8482850161161d565b60008060008060808587031215611910578384fd5b843567ffffffffffffffff811115611926578485fd5b6119328782880161161d565b9450506119416020860161160d565b93969395505050506040820135916060013590565b600060208284031215611967578081fd5b5035919050565b6000815180845261198681602086016020860161214e565b601f01601f19169290920160200192915050565b60006bffffffffffffffffffffffff19808c60601b168352808b60601b16601484015289516119d0816028860160208e0161214e565b909201602881019890985250604887019590955260688601939093526088850191909152606090811b831660a88501521b1660bc82015260d0019392505050565b60008351611a2381846020880161214e565b835190830190611a3781836020880161214e565b01949350505050565b7f19457468657265756d205369676e6564204d6573736167653a0a3332000000008152601c810191909152603c0190565b6001600160a01b0391909116815260200190565b60006001600160a01b03808716835280861660208401525083604083015260806060830152610d2b608083018461196e565b901515815260200190565b90815260200190565b93845260ff9290921660208401526040830152606082015260800190565b60006020825261056f602083018461196e565b60208082526018908201527f45434453413a20696e76616c6964207369676e61747572650000000000000000604082015260600190565b60208082526022908201527f456e756d657261626c655365743a20696e646578206f7574206f6620626f756e604082015261647360f01b606082015260800190565b6020808252601f908201527f45434453413a20696e76616c6964207369676e6174757265206c656e67746800604082015260600190565b60208082526032908201527f4552433732313a207472616e7366657220746f206e6f6e20455243373231526560408201527f63656976657220696d706c656d656e7465720000000000000000000000000000606082015260800190565b6020808252601c908201527f4552433732313a20746f6b656e20616c7265616479206d696e74656400000000604082015260600190565b60208082526024908201527f4552433732313a207472616e7366657220746f20746865207a65726f2061646460408201527f7265737300000000000000000000000000000000000000000000000000000000606082015260800190565b60208082526019908201527f4552433732313a20617070726f766520746f2063616c6c657200000000000000604082015260600190565b60208082526022908201527f45434453413a20696e76616c6964207369676e6174757265202773272076616c604082015261756560f01b606082015260800190565b6020808252602c908201527f4552433732313a206f70657261746f7220717565727920666f72206e6f6e657860408201526b34b9ba32b73a103a37b5b2b760a11b606082015260800190565b60208082526038908201527f4552433732313a20617070726f76652063616c6c6572206973206e6f74206f7760408201527f6e6572206e6f7220617070726f76656420666f7220616c6c0000000000000000606082015260800190565b6020808252602a908201527f4552433732313a2062616c616e636520717565727920666f7220746865207a6560408201527f726f206164647265737300000000000000000000000000000000000000000000606082015260800190565b60208082526022908201527f45434453413a20696e76616c6964207369676e6174757265202776272076616c604082015261756560f01b606082015260800190565b60208082526022908201527f456e756d657261626c654d61703a20696e646578206f7574206f6620626f756e604082015261647360f01b606082015260800190565b6020808252818101527f4552433732313a206d696e7420746f20746865207a65726f2061646472657373604082015260600190565b6020808252602c908201527f4552433732313a20617070726f76656420717565727920666f72206e6f6e657860408201526b34b9ba32b73a103a37b5b2b760a11b606082015260800190565b60208082526029908201527f4552433732313a207472616e73666572206f6620746f6b656e2074686174206960408201527f73206e6f74206f776e0000000000000000000000000000000000000000000000606082015260800190565b6020808252602f908201527f4552433732314d657461646174613a2055524920717565727920666f72206e6f60408201527f6e6578697374656e7420746f6b656e0000000000000000000000000000000000606082015260800190565b60208082526021908201527f4552433732313a20617070726f76616c20746f2063757272656e74206f776e6560408201527f7200000000000000000000000000000000000000000000000000000000000000606082015260800190565b60208082526024908201527f47534e526563697069656e743a2063616c6c6572206973206e6f742052656c6160408201527f7948756200000000000000000000000000000000000000000000000000000000606082015260800190565b60208082526031908201527f4552433732313a207472616e736665722063616c6c6572206973206e6f74206f60408201527f776e6572206e6f7220617070726f766564000000000000000000000000000000606082015260800190565b600083825260406020830152610caa604083018461196e565b6000821982111561211e5761211e6121e4565b500190565b600082612132576121326121fa565b500490565b600082821015612149576121496121e4565b500390565b60005b83811015612169578181015183820152602001612151565b8381111561087f5750506000910152565b60028104600182168061218e57607f821691505b602082108114156121af57634e487b7160e01b600052602260045260246000fd5b50919050565b60006000198214156121c9576121c96121e4565b5060010190565b6000826121df576121df6121fa565b500690565b634e487b7160e01b600052601160045260246000fd5b634e487b7160e01b600052601260045260246000fd5b634e487b7160e01b600052604160045260246000fd5b7fffffffff000000000000000000000000000000000000000000000000000000008116811461073e57600080fdfe4552433732313a206f776e657220717565727920666f72206e6f6e6578697374656e7420746f6b656ea26469706673582212206dabb2635c9ec7de3b33004fbab3af1404ac08d33ffe6451fdebfcad4e44bcb064736f6c63430008000033",
  "linkReferences": {},
  "deployedLinkReferences": {}
}