{
  "_format": "hh-sol-artifact-1",
  "contractName": "SampleGramps",
  "sourceName": "contracts/OpenZeppelin/mocks/MultipleInheritanceInitializableMocks.sol",
  "abi": [
    {
      "inputs": [],
      "name": "gramps",
      "outputs": [
        {
          "internalType": "string",
          "name": "",
          "type": "string"
        }
      ],
      "stateMutability": "view",
      "type": "function"
    },
    {
      "inputs": [],
      "name": "initialize",
      "outputs": [],
      "stateMutability": "nonpayable",
      "type": "function"
    },
    {
      "inputs": [
        {
          "internalType": "string",
          "name": "value",
          "type": "string"
        }
      ],
      "name": "initialize",
      "outputs": [],
      "stateMutability": "nonpayable",
      "type": "function"
    },
    {
      "inputs": [],
      "name": "isHuman",
      "outputs": [
        {
          "internalType": "bool",
          "name": "",
          "type": "bool"
        }
      ],
      "stateMutability": "view",
      "type": "function"
    }
  ],
  "bytecode": "0x608060405234801561001057600080fd5b5061050e806100206000396000f3fe608060405234801561001057600080fd5b506004361061004c5760003560e01c80634a6c9db6146100515780638129fc1c1461006f578063f62d188814610079578063fa39851f1461008c575b600080fd5b6100596100a1565b60405161006691906103cc565b60405180910390f35b6100776100b0565b005b61007761008736600461032b565b61014d565b6100946101ed565b60405161006691906103d7565b60005462010000900460ff1681565b600054610100900460ff16806100c957506100c961027b565b806100d7575060005460ff16155b6100fc5760405162461bcd60e51b81526004016100f39061042a565b60405180910390fd5b600054610100900460ff16158015610127576000805460ff1961ff0019909116610100171660011790555b6000805462ff0000191662010000179055801561014a576000805461ff00191690555b50565b600054610100900460ff1680610166575061016661027b565b80610174575060005460ff16155b6101905760405162461bcd60e51b81526004016100f39061042a565b600054610100900460ff161580156101bb576000805460ff1961ff0019909116610100171660011790555b6101c36100b0565b81516101d6906001906020850190610292565b5080156101e9576000805461ff00191690555b5050565b600180546101fa90610487565b80601f016020809104026020016040519081016040528092919081815260200182805461022690610487565b80156102735780601f1061024857610100808354040283529160200191610273565b820191906000526020600020905b81548152906001019060200180831161025657829003601f168201915b505050505081565b60006102863061028c565b15905090565b3b151590565b82805461029e90610487565b90600052602060002090601f0160209004810192826102c05760008555610306565b82601f106102d957805160ff1916838001178555610306565b82800160010185558215610306579182015b828111156103065782518255916020019190600101906102eb565b50610312929150610316565b5090565b5b808211156103125760008155600101610317565b6000602080838503121561033d578182fd5b823567ffffffffffffffff80821115610354578384fd5b818501915085601f830112610367578384fd5b813581811115610379576103796104c2565b604051601f8201601f191681018501838111828210171561039c5761039c6104c2565b60405281815283820185018810156103b2578586fd5b818585018683013790810190930193909352509392505050565b901515815260200190565b6000602080835283518082850152825b81811015610403578581018301518582016040015282016103e7565b818111156104145783604083870101525b50601f01601f1916929092016040019392505050565b6020808252602e908201527f496e697469616c697a61626c653a20636f6e747261637420697320616c72656160408201527f647920696e697469616c697a6564000000000000000000000000000000000000606082015260800190565b60028104600182168061049b57607f821691505b602082108114156104bc57634e487b7160e01b600052602260045260246000fd5b50919050565b634e487b7160e01b600052604160045260246000fdfea2646970667358221220fe1b4811c11c823508c7d333f1560fbd9a4109f7cb4326b1f1a7b0a0927d55c664736f6c63430008000033",
  "linkReferences": {},
  "deployedLinkReferences": {}
}