{
  "_format": "hh-sol-artifact-1",
  "contractName": "CountersImpl",
  "sourceName": "contracts/OpenZeppelin/mocks/CountersImpl.sol",
  "abi": [
    {
      "inputs": [],
      "name": "current",
      "outputs": [
        {
          "internalType": "uint256",
          "name": "",
          "type": "uint256"
        }
      ],
      "stateMutability": "view",
      "type": "function"
    },
    {
      "inputs": [],
      "name": "decrement",
      "outputs": [],
      "stateMutability": "nonpayable",
      "type": "function"
    },
    {
      "inputs": [],
      "name": "increment",
      "outputs": [],
      "stateMutability": "nonpayable",
      "type": "function"
    }
  ],
  "bytecode": "0x608060405234801561001057600080fd5b5061016a806100206000396000f3fe608060405234801561001057600080fd5b50600436106100415760003560e01c80632baeceb7146100465780639fa6a6e314610050578063d09de08a1461006e575b600080fd5b61004e610076565b005b610058610082565b604051610065919061012b565b60405180910390f35b61004e610093565b610080600061009d565b565b600061008e60006100e7565b905090565b61008060006100eb565b8054806100df576040517f08c379a00000000000000000000000000000000000000000000000000000000081526004016100d6906100f4565b60405180910390fd5b600019019055565b5490565b80546001019055565b6020808252601b908201527f436f756e7465723a2064656372656d656e74206f766572666c6f770000000000604082015260600190565b9081526020019056fea2646970667358221220ab03d1ff0117735963efdfdf2dfda841c8a36080656269228b0ef654b4e1322e64736f6c63430008000033",
  "linkReferences": {},
  "deployedLinkReferences": {}
}