{
  "_format": "hh-sol-artifact-1",
  "contractName": "Settings",
  "sourceName": "contracts/Settings.sol",
  "abi": [
    {
      "inputs": [],
      "stateMutability": "nonpayable",
      "type": "constructor"
    },
    {
      "anonymous": false,
      "inputs": [
        {
          "indexed": true,
          "internalType": "address",
          "name": "previousOwner",
          "type": "address"
        },
        {
          "indexed": true,
          "internalType": "address",
          "name": "newOwner",
          "type": "address"
        }
      ],
      "name": "OwnershipTransferred",
      "type": "event"
    },
    {
      "anonymous": false,
      "inputs": [
        {
          "indexed": false,
          "internalType": "address",
          "name": "_nft",
          "type": "address"
        },
        {
          "indexed": false,
          "internalType": "bool",
          "name": "_allowed",
          "type": "bool"
        }
      ],
      "name": "UpdateAllowedNFT",
      "type": "event"
    },
    {
      "anonymous": false,
      "inputs": [
        {
          "indexed": false,
          "internalType": "uint256",
          "name": "_old",
          "type": "uint256"
        },
        {
          "indexed": false,
          "internalType": "uint256",
          "name": "_new",
          "type": "uint256"
        }
      ],
      "name": "UpdateCuratorFee",
      "type": "event"
    },
    {
      "anonymous": false,
      "inputs": [
        {
          "indexed": false,
          "internalType": "address",
          "name": "_old",
          "type": "address"
        },
        {
          "indexed": false,
          "internalType": "address",
          "name": "_new",
          "type": "address"
        }
      ],
      "name": "UpdateFeeReceiver",
      "type": "event"
    },
    {
      "anonymous": false,
      "inputs": [
        {
          "indexed": false,
          "internalType": "uint256",
          "name": "_old",
          "type": "uint256"
        },
        {
          "indexed": false,
          "internalType": "uint256",
          "name": "_new",
          "type": "uint256"
        }
      ],
      "name": "UpdateGovernanceFee",
      "type": "event"
    },
    {
      "anonymous": false,
      "inputs": [
        {
          "indexed": false,
          "internalType": "uint256",
          "name": "_old",
          "type": "uint256"
        },
        {
          "indexed": false,
          "internalType": "uint256",
          "name": "_new",
          "type": "uint256"
        }
      ],
      "name": "UpdateMaxAuctionLength",
      "type": "event"
    },
    {
      "anonymous": false,
      "inputs": [
        {
          "indexed": false,
          "internalType": "uint256",
          "name": "_old",
          "type": "uint256"
        },
        {
          "indexed": false,
          "internalType": "uint256",
          "name": "_new",
          "type": "uint256"
        }
      ],
      "name": "UpdateMaxReserveFactor",
      "type": "event"
    },
    {
      "anonymous": false,
      "inputs": [
        {
          "indexed": false,
          "internalType": "uint256",
          "name": "_old",
          "type": "uint256"
        },
        {
          "indexed": false,
          "internalType": "uint256",
          "name": "_new",
          "type": "uint256"
        }
      ],
      "name": "UpdateMinAuctionLength",
      "type": "event"
    },
    {
      "anonymous": false,
      "inputs": [
        {
          "indexed": false,
          "internalType": "uint256",
          "name": "_old",
          "type": "uint256"
        },
        {
          "indexed": false,
          "internalType": "uint256",
          "name": "_new",
          "type": "uint256"
        }
      ],
      "name": "UpdateMinBidIncrease",
      "type": "event"
    },
    {
      "anonymous": false,
      "inputs": [
        {
          "indexed": false,
          "internalType": "uint256",
          "name": "_old",
          "type": "uint256"
        },
        {
          "indexed": false,
          "internalType": "uint256",
          "name": "_new",
          "type": "uint256"
        }
      ],
      "name": "UpdateMinReserveFactor",
      "type": "event"
    },
    {
      "anonymous": false,
      "inputs": [
        {
          "indexed": false,
          "internalType": "uint256",
          "name": "_old",
          "type": "uint256"
        },
        {
          "indexed": false,
          "internalType": "uint256",
          "name": "_new",
          "type": "uint256"
        }
      ],
      "name": "UpdateMinVotePercentage",
      "type": "event"
    },
    {
      "inputs": [
        {
          "internalType": "address",
          "name": "_nft",
          "type": "address"
        }
      ],
      "name": "addAllowedNFT",
      "outputs": [],
      "stateMutability": "nonpayable",
      "type": "function"
    },
    {
      "inputs": [
        {
          "internalType": "address",
          "name": "",
          "type": "address"
        }
      ],
      "name": "allowedNFTs",
      "outputs": [
        {
          "internalType": "bool",
          "name": "",
          "type": "bool"
        }
      ],
      "stateMutability": "view",
      "type": "function"
    },
    {
      "inputs": [],
      "name": "feeReceiver",
      "outputs": [
        {
          "internalType": "address payable",
          "name": "",
          "type": "address"
        }
      ],
      "stateMutability": "view",
      "type": "function"
    },
    {
      "inputs": [],
      "name": "governanceFee",
      "outputs": [
        {
          "internalType": "uint256",
          "name": "",
          "type": "uint256"
        }
      ],
      "stateMutability": "view",
      "type": "function"
    },
    {
      "inputs": [],
      "name": "maxAuctionLength",
      "outputs": [
        {
          "internalType": "uint256",
          "name": "",
          "type": "uint256"
        }
      ],
      "stateMutability": "view",
      "type": "function"
    },
    {
      "inputs": [],
      "name": "maxCuratorFee",
      "outputs": [
        {
          "internalType": "uint256",
          "name": "",
          "type": "uint256"
        }
      ],
      "stateMutability": "view",
      "type": "function"
    },
    {
      "inputs": [],
      "name": "maxGovFee",
      "outputs": [
        {
          "internalType": "uint256",
          "name": "",
          "type": "uint256"
        }
      ],
      "stateMutability": "view",
      "type": "function"
    },
    {
      "inputs": [],
      "name": "maxMaxAuctionLength",
      "outputs": [
        {
          "internalType": "uint256",
          "name": "",
          "type": "uint256"
        }
      ],
      "stateMutability": "view",
      "type": "function"
    },
    {
      "inputs": [],
      "name": "maxMinBidIncrease",
      "outputs": [
        {
          "internalType": "uint256",
          "name": "",
          "type": "uint256"
        }
      ],
      "stateMutability": "view",
      "type": "function"
    },
    {
      "inputs": [],
      "name": "maxReserveFactor",
      "outputs": [
        {
          "internalType": "uint256",
          "name": "",
          "type": "uint256"
        }
      ],
      "stateMutability": "view",
      "type": "function"
    },
    {
      "inputs": [],
      "name": "minAuctionLength",
      "outputs": [
        {
          "internalType": "uint256",
          "name": "",
          "type": "uint256"
        }
      ],
      "stateMutability": "view",
      "type": "function"
    },
    {
      "inputs": [],
      "name": "minBidIncrease",
      "outputs": [
        {
          "internalType": "uint256",
          "name": "",
          "type": "uint256"
        }
      ],
      "stateMutability": "view",
      "type": "function"
    },
    {
      "inputs": [],
      "name": "minMinAuctionLength",
      "outputs": [
        {
          "internalType": "uint256",
          "name": "",
          "type": "uint256"
        }
      ],
      "stateMutability": "view",
      "type": "function"
    },
    {
      "inputs": [],
      "name": "minMinBidIncrease",
      "outputs": [
        {
          "internalType": "uint256",
          "name": "",
          "type": "uint256"
        }
      ],
      "stateMutability": "view",
      "type": "function"
    },
    {
      "inputs": [],
      "name": "minReserveFactor",
      "outputs": [
        {
          "internalType": "uint256",
          "name": "",
          "type": "uint256"
        }
      ],
      "stateMutability": "view",
      "type": "function"
    },
    {
      "inputs": [],
      "name": "minVotePercentage",
      "outputs": [
        {
          "internalType": "uint256",
          "name": "",
          "type": "uint256"
        }
      ],
      "stateMutability": "view",
      "type": "function"
    },
    {
      "inputs": [],
      "name": "owner",
      "outputs": [
        {
          "internalType": "address",
          "name": "",
          "type": "address"
        }
      ],
      "stateMutability": "view",
      "type": "function"
    },
    {
      "inputs": [
        {
          "internalType": "address",
          "name": "_nft",
          "type": "address"
        }
      ],
      "name": "removeAllowedNFT",
      "outputs": [],
      "stateMutability": "nonpayable",
      "type": "function"
    },
    {
      "inputs": [],
      "name": "renounceOwnership",
      "outputs": [],
      "stateMutability": "nonpayable",
      "type": "function"
    },
    {
      "inputs": [
        {
          "internalType": "address payable",
          "name": "_receiver",
          "type": "address"
        }
      ],
      "name": "setFeeReceiver",
      "outputs": [],
      "stateMutability": "nonpayable",
      "type": "function"
    },
    {
      "inputs": [
        {
          "internalType": "uint256",
          "name": "_fee",
          "type": "uint256"
        }
      ],
      "name": "setGovernanceFee",
      "outputs": [],
      "stateMutability": "nonpayable",
      "type": "function"
    },
    {
      "inputs": [
        {
          "internalType": "uint256",
          "name": "_length",
          "type": "uint256"
        }
      ],
      "name": "setMaxAuctionLength",
      "outputs": [],
      "stateMutability": "nonpayable",
      "type": "function"
    },
    {
      "inputs": [
        {
          "internalType": "uint256",
          "name": "_fee",
          "type": "uint256"
        }
      ],
      "name": "setMaxCuratorFee",
      "outputs": [],
      "stateMutability": "nonpayable",
      "type": "function"
    },
    {
      "inputs": [
        {
          "internalType": "uint256",
          "name": "_factor",
          "type": "uint256"
        }
      ],
      "name": "setMaxReserveFactor",
      "outputs": [],
      "stateMutability": "nonpayable",
      "type": "function"
    },
    {
      "inputs": [
        {
          "internalType": "uint256",
          "name": "_length",
          "type": "uint256"
        }
      ],
      "name": "setMinAuctionLength",
      "outputs": [],
      "stateMutability": "nonpayable",
      "type": "function"
    },
    {
      "inputs": [
        {
          "internalType": "uint256",
          "name": "_min",
          "type": "uint256"
        }
      ],
      "name": "setMinBidIncrease",
      "outputs": [],
      "stateMutability": "nonpayable",
      "type": "function"
    },
    {
      "inputs": [
        {
          "internalType": "uint256",
          "name": "_factor",
          "type": "uint256"
        }
      ],
      "name": "setMinReserveFactor",
      "outputs": [],
      "stateMutability": "nonpayable",
      "type": "function"
    },
    {
      "inputs": [
        {
          "internalType": "uint256",
          "name": "_min",
          "type": "uint256"
        }
      ],
      "name": "setMinVotePercentage",
      "outputs": [],
      "stateMutability": "nonpayable",
      "type": "function"
    },
    {
      "inputs": [
        {
          "internalType": "address",
          "name": "newOwner",
          "type": "address"
        }
      ],
      "name": "transferOwnership",
      "outputs": [],
      "stateMutability": "nonpayable",
      "type": "function"
    }
  ],
  "bytecode": "0x608060405234801561001057600080fd5b50600061001b6100a4565b600080546001600160a01b0319166001600160a01b0383169081178255604051929350917f8be0079c531659141344cd1fd0a4f28419497f9722a3daafe3b4186f6b6457e0908290a350621275006001556203f480600255600980546001600160a01b0319163317905560c86008556113886007556032600555606460045560fa6006556100a8565b3390565b611096806100b76000396000f3fe608060405234801561001057600080fd5b50600436106101cf5760003560e01c80636fc83db3116101045780639665eb0f116100a2578063d213b90011610071578063d213b90014610347578063efdcd9741461034f578063f2fde38b14610362578063fcd81e32146102d9576101cf565b80639665eb0f14610311578063a0b335e314610324578063affdafd81461032c578063b3f006741461033f576101cf565b8063846a4dd2116100de578063846a4dd2146102d957806384810309146102e15780638a364bc1146102f45780638da5cb5b146102fc576101cf565b80636fc83db3146102b6578063715018a6146102c95780637c513c0f146102d1576101cf565b80632c92772411610171578063339f87ed1161014b578063339f87ed146102805780635410bfc91461028857806357c74c6c146102905780636109f5b5146102a3576101cf565b80632c9277241461025257806332977c731461026557806332a693301461026d576101cf565b80630ea90a12116101ad5780630ea90a121461020f57806312381ec21461021757806318fee3bf146102375780631a58364c1461024a576101cf565b806309990a96146101d45780630ba119cd146101f25780630e519ef914610207575b600080fd5b6101dc610375565b6040516101e99190611031565b60405180910390f35b610205610200366004610cb3565b61037b565b005b6101dc610426565b6101dc61042c565b61022a610225366004610cb3565b610432565b6040516101e99190610d37565b610205610245366004610cd6565b610447565b6101dc6104e7565b610205610260366004610cb3565b6104ee565b6101dc61057d565b61020561027b366004610cd6565b610583565b6101dc610623565b6101dc610628565b61020561029e366004610cd6565b61062e565b6102056102b1366004610cd6565b6106cf565b6102056102c4366004610cd6565b61074e565b610205610811565b6101dc6108a7565b6101dc6108ad565b6102056102ef366004610cd6565b6108b2565b6101dc610952565b610304610958565b6040516101e99190610cee565b61020561031f366004610cd6565b610967565b6101dc610a28565b61020561033a366004610cd6565b610a2e565b610304610af1565b6101dc610b00565b61020561035d366004610cb3565b610b07565b610205610370366004610cb3565b610be2565b60085481565b610383610caf565b6001600160a01b0316610394610958565b6001600160a01b0316146103c35760405162461bcd60e51b81526004016103ba90610ee9565b60405180910390fd5b6001600160a01b0381166000908152600a602052604090819020805460ff1916600190811790915590517ff7180c8ea64d0423c571d9b660b78ae6fc562fbb3e1cc01fe350f769978b20f79161041b91849190610d1c565b60405180910390a150565b60015481565b60035481565b600a6020526000908152604090205460ff1681565b61044f610caf565b6001600160a01b0316610460610958565b6001600160a01b0316146104865760405162461bcd60e51b81526004016103ba90610ee9565b60075481106104a75760405162461bcd60e51b81526004016103ba90610d79565b7fa93910a1e82dcd753b639a2ff1def7bf84d6bb1bf6fe79212d0d9ae72afc6cfa600854826040516104da92919061103a565b60405180910390a1600855565b6249d40081565b6104f6610caf565b6001600160a01b0316610507610958565b6001600160a01b03161461052d5760405162461bcd60e51b81526004016103ba90610ee9565b6001600160a01b0381166000908152600a6020526040808220805460ff19169055517ff7180c8ea64d0423c571d9b660b78ae6fc562fbb3e1cc01fe350f769978b20f79161041b91849190610d1c565b60065481565b61058b610caf565b6001600160a01b031661059c610958565b6001600160a01b0316146105c25760405162461bcd60e51b81526004016103ba90610ee9565b60648111156105e35760405162461bcd60e51b81526004016103ba90610f8c565b7f11b96af861c45de0c17127383516c92fc2a9d50eff86ea831b69e76a3fa87e2f6003548260405161061692919061103a565b60405180910390a1600355565b600a81565b60075481565b610636610caf565b6001600160a01b0316610647610958565b6001600160a01b03161461066d5760405162461bcd60e51b81526004016103ba90610ee9565b6103e881111561068f5760405162461bcd60e51b81526004016103ba90610ffa565b7ff8298d9709c2527c6ec1e2c605c5a163b44b0520bdd80335d5faba17e3f38fb8600654826040516106c292919061103a565b60405180910390a1600655565b6106d7610caf565b6001600160a01b03166106e8610958565b6001600160a01b03161461070e5760405162461bcd60e51b81526004016103ba90610ee9565b7f283f7179cc13a8f90c3123b415b98ca8a0ca9619eed3c981db52809ab62700f96003548260405161074192919061103a565b60405180910390a1600455565b610756610caf565b6001600160a01b0316610767610958565b6001600160a01b03161461078d5760405162461bcd60e51b81526004016103ba90610ee9565b620151808110156107b05760405162461bcd60e51b81526004016103ba90610f1e565b60015481106107d15760405162461bcd60e51b81526004016103ba90610f55565b7f055017e5b2f20973817c668e2f744e7c1b68a6f20332f25bb7b9bbb2f0c7eca76002548260405161080492919061103a565b60405180910390a1600255565b610819610caf565b6001600160a01b031661082a610958565b6001600160a01b0316146108505760405162461bcd60e51b81526004016103ba90610ee9565b600080546040516001600160a01b03909116907f8be0079c531659141344cd1fd0a4f28419497f9722a3daafe3b4186f6b6457e0908390a36000805473ffffffffffffffffffffffffffffffffffffffff19169055565b60055481565b606481565b6108ba610caf565b6001600160a01b03166108cb610958565b6001600160a01b0316146108f15760405162461bcd60e51b81526004016103ba90610ee9565b60085481116109125760405162461bcd60e51b81526004016103ba90610eb2565b7febec08ac4f5f91f0463f6e09a9b1729f1cbea09d240d8a1807ed6b9cd171ef196007548260405161094592919061103a565b60405180910390a1600755565b60045481565b6000546001600160a01b031690565b61096f610caf565b6001600160a01b0316610980610958565b6001600160a01b0316146109a65760405162461bcd60e51b81526004016103ba90610ee9565b60648111156109c75760405162461bcd60e51b81526004016103ba90610e44565b600a8110156109e85760405162461bcd60e51b81526004016103ba90610e0d565b7f3995c181714327dbf0232c3b20873e87ca6978b6418eec0f97a1447c5a4c43fc60055482604051610a1b92919061103a565b60405180910390a1600555565b60025481565b610a36610caf565b6001600160a01b0316610a47610958565b6001600160a01b031614610a6d5760405162461bcd60e51b81526004016103ba90610ee9565b6249d400811115610a905760405162461bcd60e51b81526004016103ba90610d42565b6002548111610ab15760405162461bcd60e51b81526004016103ba90610e7b565b7f06684837277f012a4c3a13c8ec0e53d85b843e328a811a8f5f25f5e1456d9f5960015482604051610ae492919061103a565b60405180910390a1600155565b6009546001600160a01b031681565b6201518081565b610b0f610caf565b6001600160a01b0316610b20610958565b6001600160a01b031614610b465760405162461bcd60e51b81526004016103ba90610ee9565b6001600160a01b038116610b6c5760405162461bcd60e51b81526004016103ba90610fc3565b6009546040517f2861448678f0be67f11bfb5481b3e3b4cfeb3acc6126ad60a05f95bfc653066691610bab916001600160a01b03909116908490610d02565b60405180910390a16009805473ffffffffffffffffffffffffffffffffffffffff19166001600160a01b0392909216919091179055565b610bea610caf565b6001600160a01b0316610bfb610958565b6001600160a01b031614610c215760405162461bcd60e51b81526004016103ba90610ee9565b6001600160a01b038116610c475760405162461bcd60e51b81526004016103ba90610db0565b600080546040516001600160a01b03808516939216917f8be0079c531659141344cd1fd0a4f28419497f9722a3daafe3b4186f6b6457e091a36000805473ffffffffffffffffffffffffffffffffffffffff19166001600160a01b0392909216919091179055565b3390565b600060208284031215610cc4578081fd5b8135610ccf81611048565b9392505050565b600060208284031215610ce7578081fd5b5035919050565b6001600160a01b0391909116815260200190565b6001600160a01b0392831681529116602082015260400190565b6001600160a01b039290921682521515602082015260400190565b901515815260200190565b6020808252601b908201527f6d61782061756374696f6e206c656e67746820746f6f20686967680000000000604082015260600190565b6020808252601b908201527f6d696e207265736572766520666163746f7220746f6f20686967680000000000604082015260600190565b60208082526026908201527f4f776e61626c653a206e6577206f776e657220697320746865207a65726f206160408201527f6464726573730000000000000000000000000000000000000000000000000000606082015260800190565b60208082526018908201527f6d696e2062696420696e63726561736520746f6f206c6f770000000000000000604082015260600190565b60208082526019908201527f6d696e2062696420696e63726561736520746f6f206869676800000000000000604082015260600190565b6020808252601a908201527f6d61782061756374696f6e206c656e67746820746f6f206c6f77000000000000604082015260600190565b6020808252601a908201527f6d6178207265736572766520666163746f7220746f6f206c6f77000000000000604082015260600190565b6020808252818101527f4f776e61626c653a2063616c6c6572206973206e6f7420746865206f776e6572604082015260600190565b6020808252601a908201527f6d696e2061756374696f6e206c656e67746820746f6f206c6f77000000000000604082015260600190565b6020808252601b908201527f6d696e2061756374696f6e206c656e67746820746f6f20686967680000000000604082015260600190565b6020808252600c908201527f66656520746f6f20686967680000000000000000000000000000000000000000604082015260600190565b6020808252601b908201527f666565732063616e6e6f7420676f20746f203020616464726573730000000000604082015260600190565b6020808252601c908201527f6d696e20766f74652070657263656e7461676520746f6f206869676800000000604082015260600190565b90815260200190565b918252602082015260400190565b6001600160a01b038116811461105d57600080fd5b5056fea26469706673582212202d7bc09f9f61e9193ca93db69daae2bd334eac1506b435f2be0cc6abf09f20bb64736f6c63430008000033",
  "linkReferences": {},
  "deployedLinkReferences": {}
}