{
  "_format": "hh-sol-artifact-1",
  "contractName": "AccessControlMock",
  "sourceName": "contracts/OpenZeppelin/mocks/AccessControlMock.sol",
  "abi": [
    {
      "inputs": [],
      "stateMutability": "nonpayable",
      "type": "constructor"
    },
    {
      "anonymous": false,
      "inputs": [
        {
          "indexed": true,
          "internalType": "bytes32",
          "name": "role",
          "type": "bytes32"
        },
        {
          "indexed": true,
          "internalType": "bytes32",
          "name": "previousAdminRole",
          "type": "bytes32"
        },
        {
          "indexed": true,
          "internalType": "bytes32",
          "name": "newAdminRole",
          "type": "bytes32"
        }
      ],
      "name": "RoleAdminChanged",
      "type": "event"
    },
    {
      "anonymous": false,
      "inputs": [
        {
          "indexed": true,
          "internalType": "bytes32",
          "name": "role",
          "type": "bytes32"
        },
        {
          "indexed": true,
          "internalType": "address",
          "name": "account",
          "type": "address"
        },
        {
          "indexed": true,
          "internalType": "address",
          "name": "sender",
          "type": "address"
        }
      ],
      "name": "RoleGranted",
      "type": "event"
    },
    {
      "anonymous": false,
      "inputs": [
        {
          "indexed": true,
          "internalType": "bytes32",
          "name": "role",
          "type": "bytes32"
        },
        {
          "indexed": true,
          "internalType": "address",
          "name": "account",
          "type": "address"
        },
        {
          "indexed": true,
          "internalType": "address",
          "name": "sender",
          "type": "address"
        }
      ],
      "name": "RoleRevoked",
      "type": "event"
    },
    {
      "inputs": [],
      "name": "DEFAULT_ADMIN_ROLE",
      "outputs": [
        {
          "internalType": "bytes32",
          "name": "",
          "type": "bytes32"
        }
      ],
      "stateMutability": "view",
      "type": "function"
    },
    {
      "inputs": [
        {
          "internalType": "bytes32",
          "name": "role",
          "type": "bytes32"
        }
      ],
      "name": "getRoleAdmin",
      "outputs": [
        {
          "internalType": "bytes32",
          "name": "",
          "type": "bytes32"
        }
      ],
      "stateMutability": "view",
      "type": "function"
    },
    {
      "inputs": [
        {
          "internalType": "bytes32",
          "name": "role",
          "type": "bytes32"
        },
        {
          "internalType": "uint256",
          "name": "index",
          "type": "uint256"
        }
      ],
      "name": "getRoleMember",
      "outputs": [
        {
          "internalType": "address",
          "name": "",
          "type": "address"
        }
      ],
      "stateMutability": "view",
      "type": "function"
    },
    {
      "inputs": [
        {
          "internalType": "bytes32",
          "name": "role",
          "type": "bytes32"
        }
      ],
      "name": "getRoleMemberCount",
      "outputs": [
        {
          "internalType": "uint256",
          "name": "",
          "type": "uint256"
        }
      ],
      "stateMutability": "view",
      "type": "function"
    },
    {
      "inputs": [
        {
          "internalType": "bytes32",
          "name": "role",
          "type": "bytes32"
        },
        {
          "internalType": "address",
          "name": "account",
          "type": "address"
        }
      ],
      "name": "grantRole",
      "outputs": [],
      "stateMutability": "nonpayable",
      "type": "function"
    },
    {
      "inputs": [
        {
          "internalType": "bytes32",
          "name": "role",
          "type": "bytes32"
        },
        {
          "internalType": "address",
          "name": "account",
          "type": "address"
        }
      ],
      "name": "hasRole",
      "outputs": [
        {
          "internalType": "bool",
          "name": "",
          "type": "bool"
        }
      ],
      "stateMutability": "view",
      "type": "function"
    },
    {
      "inputs": [
        {
          "internalType": "bytes32",
          "name": "role",
          "type": "bytes32"
        },
        {
          "internalType": "address",
          "name": "account",
          "type": "address"
        }
      ],
      "name": "renounceRole",
      "outputs": [],
      "stateMutability": "nonpayable",
      "type": "function"
    },
    {
      "inputs": [
        {
          "internalType": "bytes32",
          "name": "role",
          "type": "bytes32"
        },
        {
          "internalType": "address",
          "name": "account",
          "type": "address"
        }
      ],
      "name": "revokeRole",
      "outputs": [],
      "stateMutability": "nonpayable",
      "type": "function"
    },
    {
      "inputs": [
        {
          "internalType": "bytes32",
          "name": "roleId",
          "type": "bytes32"
        },
        {
          "internalType": "bytes32",
          "name": "adminRoleId",
          "type": "bytes32"
        }
      ],
      "name": "setRoleAdmin",
      "outputs": [],
      "stateMutability": "nonpayable",
      "type": "function"
    }
  ],
  "bytecode": "0x608060405234801561001057600080fd5b50610023600061001e610028565b61002c565b61012d565b3390565b610036828261003a565b5050565b60008281526020818152604090912061005c9183906102bb6100ad821b17901c565b1561003657610069610028565b6001600160a01b0316816001600160a01b0316837f2f8788117e7eff1d82e926ec794901d17c78024a50270940304540a733656f0d60405160405180910390a45050565b60006100c2836001600160a01b0384166100cb565b90505b92915050565b60006100d78383610115565b61010d575081546001818101845560008481526020808220909301849055845484825282860190935260409020919091556100c5565b5060006100c5565b60009081526001919091016020526040902054151590565b61089f8061013c6000396000f3fe608060405234801561001057600080fd5b50600436106100a35760003560e01c80639010d07c11610076578063a217fddf1161005b578063a217fddf1461014c578063ca15c87314610154578063d547741f14610167576100a3565b80639010d07c1461010c57806391d148541461012c576100a3565b80631e4e0091146100a8578063248a9ca3146100bd5780632f2ff15d146100e657806336568abe146100f9575b600080fd5b6100bb6100b6366004610667565b61017a565b005b6100d06100cb366004610615565b610188565b6040516100dd91906106a7565b60405180910390f35b6100bb6100f436600461062d565b61019d565b6100bb61010736600461062d565b6101ea565b61011f61011a366004610667565b61022c565b6040516100dd9190610688565b61013f61013a36600461062d565b61024d565b6040516100dd919061069c565b6100d0610265565b6100d0610162366004610615565b61026a565b6100bb61017536600461062d565b610281565b61018482826102d0565b5050565b60009081526020819052604090206002015490565b6000828152602081905260409020600201546101bb9061013a610322565b6101e05760405162461bcd60e51b81526004016101d79061070d565b60405180910390fd5b6101848282610326565b6101f2610322565b6001600160a01b0316816001600160a01b0316146102225760405162461bcd60e51b81526004016101d7906107c7565b610184828261038f565b600082815260208190526040812061024490836103f8565b90505b92915050565b60008281526020819052604081206102449083610404565b600081565b600081815260208190526040812061024790610419565b60008281526020819052604090206002015461029f9061013a610322565b6102225760405162461bcd60e51b81526004016101d79061076a565b6000610244836001600160a01b038416610424565b600082815260208190526040808220600201549051839285917fbd79b86ffe0ab8e8776151514217cd7cacd52c909f66475c3af44e129f0b00ff9190a460009182526020829052604090912060020155565b3390565b600082815260208190526040902061033e90826102bb565b156101845761034b610322565b6001600160a01b0316816001600160a01b0316837f2f8788117e7eff1d82e926ec794901d17c78024a50270940304540a733656f0d60405160405180910390a45050565b60008281526020819052604090206103a7908261046e565b15610184576103b4610322565b6001600160a01b0316816001600160a01b0316837ff6391f5c32d9c69d2a47ea670b442974b53935d1edc7fd64eb21e047a839171b60405160405180910390a45050565b60006102448383610483565b6000610244836001600160a01b0384166104dc565b6000610247826104f4565b600061043083836104dc565b61046657508154600181810184556000848152602080822090930184905584548482528286019093526040902091909155610247565b506000610247565b6000610244836001600160a01b0384166104f8565b815460009082106104a65760405162461bcd60e51b81526004016101d7906106b0565b8260000182815481106104c957634e487b7160e01b600052603260045260246000fd5b9060005260206000200154905092915050565b60009081526001919091016020526040902054151590565b5490565b6000818152600183016020526040812054801561060b57600061051c60018361083c565b85549091506000906105309060019061083c565b9050600086600001828154811061055757634e487b7160e01b600052603260045260246000fd5b906000526020600020015490508087600001848154811061058857634e487b7160e01b600052603260045260246000fd5b60009182526020909120015561059f836001610824565b600082815260018901602052604090205586548790806105cf57634e487b7160e01b600052603160045260246000fd5b60019003818190600052602060002001600090559055866001016000878152602001908152602001600020600090556001945050505050610247565b6000915050610247565b600060208284031215610626578081fd5b5035919050565b6000806040838503121561063f578081fd5b8235915060208301356001600160a01b038116811461065c578182fd5b809150509250929050565b60008060408385031215610679578182fd5b50508035926020909101359150565b6001600160a01b0391909116815260200190565b901515815260200190565b90815260200190565b60208082526022908201527f456e756d657261626c655365743a20696e646578206f7574206f6620626f756e60408201527f6473000000000000000000000000000000000000000000000000000000000000606082015260800190565b6020808252602f908201527f416363657373436f6e74726f6c3a2073656e646572206d75737420626520616e60408201527f2061646d696e20746f206772616e740000000000000000000000000000000000606082015260800190565b60208082526030908201527f416363657373436f6e74726f6c3a2073656e646572206d75737420626520616e60408201527f2061646d696e20746f207265766f6b6500000000000000000000000000000000606082015260800190565b6020808252602f908201527f416363657373436f6e74726f6c3a2063616e206f6e6c792072656e6f756e636560408201527f20726f6c657320666f722073656c660000000000000000000000000000000000606082015260800190565b6000821982111561083757610837610853565b500190565b60008282101561084e5761084e610853565b500390565b634e487b7160e01b600052601160045260246000fdfea2646970667358221220019cc2994aa347146bd6ca6394aa2d6dec40a0a80e94f3ea7dcf34561054308064736f6c63430008000033",
  "linkReferences": {},
  "deployedLinkReferences": {}
}