{
  "_format": "hh-sol-artifact-1",
  "contractName": "ClashingImplementation",
  "sourceName": "contracts/OpenZeppelin/mocks/ClashingImplementation.sol",
  "abi": [
    {
      "inputs": [],
      "name": "admin",
      "outputs": [
        {
          "internalType": "address",
          "name": "",
          "type": "address"
        }
      ],
      "stateMutability": "pure",
      "type": "function"
    },
    {
      "inputs": [],
      "name": "delegatedFunction",
      "outputs": [
        {
          "internalType": "bool",
          "name": "",
          "type": "bool"
        }
      ],
      "stateMutability": "pure",
      "type": "function"
    }
  ],
  "bytecode": "0x608060405234801561001057600080fd5b5060d18061001f6000396000f3fe6080604052348015600f57600080fd5b506004361060325760003560e01c8063abf8e0e7146037578063f851a440146051575b600080fd5b603d6062565b604051604891906090565b60405180910390f35b60576067565b60405160489190606f565b600190565b631111114290565b73ffffffffffffffffffffffffffffffffffffffff91909116815260200190565b90151581526020019056fea2646970667358221220a9317f575fd55387defa7e82d502861e49a350f590c88c539006e9ec0a25759264736f6c63430008000033",
  "linkReferences": {},
  "deployedLinkReferences": {}
}