{
  "_format": "hh-sol-artifact-1",
  "contractName": "ERC721PresetMinterPauserAutoId",
  "sourceName": "contracts/OpenZeppelin/presets/ERC721PresetMinterPauserAutoId.sol",
  "abi": [
    {
      "inputs": [
        {
          "internalType": "string",
          "name": "name",
          "type": "string"
        },
        {
          "internalType": "string",
          "name": "symbol",
          "type": "string"
        },
        {
          "internalType": "string",
          "name": "baseURI",
          "type": "string"
        }
      ],
      "stateMutability": "nonpayable",
      "type": "constructor"
    },
    {
      "anonymous": false,
      "inputs": [
        {
          "indexed": true,
          "internalType": "address",
          "name": "owner",
          "type": "address"
        },
        {
          "indexed": true,
          "internalType": "address",
          "name": "approved",
          "type": "address"
        },
        {
          "indexed": true,
          "internalType": "uint256",
          "name": "tokenId",
          "type": "uint256"
        }
      ],
      "name": "Approval",
      "type": "event"
    },
    {
      "anonymous": false,
      "inputs": [
        {
          "indexed": true,
          "internalType": "address",
          "name": "owner",
          "type": "address"
        },
        {
          "indexed": true,
          "internalType": "address",
          "name": "operator",
          "type": "address"
        },
        {
          "indexed": false,
          "internalType": "bool",
          "name": "approved",
          "type": "bool"
        }
      ],
      "name": "ApprovalForAll",
      "type": "event"
    },
    {
      "anonymous": false,
      "inputs": [
        {
          "indexed": false,
          "internalType": "address",
          "name": "account",
          "type": "address"
        }
      ],
      "name": "Paused",
      "type": "event"
    },
    {
      "anonymous": false,
      "inputs": [
        {
          "indexed": true,
          "internalType": "bytes32",
          "name": "role",
          "type": "bytes32"
        },
        {
          "indexed": true,
          "internalType": "bytes32",
          "name": "previousAdminRole",
          "type": "bytes32"
        },
        {
          "indexed": true,
          "internalType": "bytes32",
          "name": "newAdminRole",
          "type": "bytes32"
        }
      ],
      "name": "RoleAdminChanged",
      "type": "event"
    },
    {
      "anonymous": false,
      "inputs": [
        {
          "indexed": true,
          "internalType": "bytes32",
          "name": "role",
          "type": "bytes32"
        },
        {
          "indexed": true,
          "internalType": "address",
          "name": "account",
          "type": "address"
        },
        {
          "indexed": true,
          "internalType": "address",
          "name": "sender",
          "type": "address"
        }
      ],
      "name": "RoleGranted",
      "type": "event"
    },
    {
      "anonymous": false,
      "inputs": [
        {
          "indexed": true,
          "internalType": "bytes32",
          "name": "role",
          "type": "bytes32"
        },
        {
          "indexed": true,
          "internalType": "address",
          "name": "account",
          "type": "address"
        },
        {
          "indexed": true,
          "internalType": "address",
          "name": "sender",
          "type": "address"
        }
      ],
      "name": "RoleRevoked",
      "type": "event"
    },
    {
      "anonymous": false,
      "inputs": [
        {
          "indexed": true,
          "internalType": "address",
          "name": "from",
          "type": "address"
        },
        {
          "indexed": true,
          "internalType": "address",
          "name": "to",
          "type": "address"
        },
        {
          "indexed": true,
          "internalType": "uint256",
          "name": "tokenId",
          "type": "uint256"
        }
      ],
      "name": "Transfer",
      "type": "event"
    },
    {
      "anonymous": false,
      "inputs": [
        {
          "indexed": false,
          "internalType": "address",
          "name": "account",
          "type": "address"
        }
      ],
      "name": "Unpaused",
      "type": "event"
    },
    {
      "inputs": [],
      "name": "DEFAULT_ADMIN_ROLE",
      "outputs": [
        {
          "internalType": "bytes32",
          "name": "",
          "type": "bytes32"
        }
      ],
      "stateMutability": "view",
      "type": "function"
    },
    {
      "inputs": [],
      "name": "MINTER_ROLE",
      "outputs": [
        {
          "internalType": "bytes32",
          "name": "",
          "type": "bytes32"
        }
      ],
      "stateMutability": "view",
      "type": "function"
    },
    {
      "inputs": [],
      "name": "PAUSER_ROLE",
      "outputs": [
        {
          "internalType": "bytes32",
          "name": "",
          "type": "bytes32"
        }
      ],
      "stateMutability": "view",
      "type": "function"
    },
    {
      "inputs": [
        {
          "internalType": "address",
          "name": "to",
          "type": "address"
        },
        {
          "internalType": "uint256",
          "name": "tokenId",
          "type": "uint256"
        }
      ],
      "name": "approve",
      "outputs": [],
      "stateMutability": "nonpayable",
      "type": "function"
    },
    {
      "inputs": [
        {
          "internalType": "address",
          "name": "owner",
          "type": "address"
        }
      ],
      "name": "balanceOf",
      "outputs": [
        {
          "internalType": "uint256",
          "name": "",
          "type": "uint256"
        }
      ],
      "stateMutability": "view",
      "type": "function"
    },
    {
      "inputs": [],
      "name": "baseURI",
      "outputs": [
        {
          "internalType": "string",
          "name": "",
          "type": "string"
        }
      ],
      "stateMutability": "view",
      "type": "function"
    },
    {
      "inputs": [
        {
          "internalType": "uint256",
          "name": "tokenId",
          "type": "uint256"
        }
      ],
      "name": "burn",
      "outputs": [],
      "stateMutability": "nonpayable",
      "type": "function"
    },
    {
      "inputs": [
        {
          "internalType": "uint256",
          "name": "tokenId",
          "type": "uint256"
        }
      ],
      "name": "getApproved",
      "outputs": [
        {
          "internalType": "address",
          "name": "",
          "type": "address"
        }
      ],
      "stateMutability": "view",
      "type": "function"
    },
    {
      "inputs": [
        {
          "internalType": "bytes32",
          "name": "role",
          "type": "bytes32"
        }
      ],
      "name": "getRoleAdmin",
      "outputs": [
        {
          "internalType": "bytes32",
          "name": "",
          "type": "bytes32"
        }
      ],
      "stateMutability": "view",
      "type": "function"
    },
    {
      "inputs": [
        {
          "internalType": "bytes32",
          "name": "role",
          "type": "bytes32"
        },
        {
          "internalType": "uint256",
          "name": "index",
          "type": "uint256"
        }
      ],
      "name": "getRoleMember",
      "outputs": [
        {
          "internalType": "address",
          "name": "",
          "type": "address"
        }
      ],
      "stateMutability": "view",
      "type": "function"
    },
    {
      "inputs": [
        {
          "internalType": "bytes32",
          "name": "role",
          "type": "bytes32"
        }
      ],
      "name": "getRoleMemberCount",
      "outputs": [
        {
          "internalType": "uint256",
          "name": "",
          "type": "uint256"
        }
      ],
      "stateMutability": "view",
      "type": "function"
    },
    {
      "inputs": [
        {
          "internalType": "bytes32",
          "name": "role",
          "type": "bytes32"
        },
        {
          "internalType": "address",
          "name": "account",
          "type": "address"
        }
      ],
      "name": "grantRole",
      "outputs": [],
      "stateMutability": "nonpayable",
      "type": "function"
    },
    {
      "inputs": [
        {
          "internalType": "bytes32",
          "name": "role",
          "type": "bytes32"
        },
        {
          "internalType": "address",
          "name": "account",
          "type": "address"
        }
      ],
      "name": "hasRole",
      "outputs": [
        {
          "internalType": "bool",
          "name": "",
          "type": "bool"
        }
      ],
      "stateMutability": "view",
      "type": "function"
    },
    {
      "inputs": [
        {
          "internalType": "address",
          "name": "owner",
          "type": "address"
        },
        {
          "internalType": "address",
          "name": "operator",
          "type": "address"
        }
      ],
      "name": "isApprovedForAll",
      "outputs": [
        {
          "internalType": "bool",
          "name": "",
          "type": "bool"
        }
      ],
      "stateMutability": "view",
      "type": "function"
    },
    {
      "inputs": [
        {
          "internalType": "address",
          "name": "to",
          "type": "address"
        }
      ],
      "name": "mint",
      "outputs": [],
      "stateMutability": "nonpayable",
      "type": "function"
    },
    {
      "inputs": [],
      "name": "name",
      "outputs": [
        {
          "internalType": "string",
          "name": "",
          "type": "string"
        }
      ],
      "stateMutability": "view",
      "type": "function"
    },
    {
      "inputs": [
        {
          "internalType": "uint256",
          "name": "tokenId",
          "type": "uint256"
        }
      ],
      "name": "ownerOf",
      "outputs": [
        {
          "internalType": "address",
          "name": "",
          "type": "address"
        }
      ],
      "stateMutability": "view",
      "type": "function"
    },
    {
      "inputs": [],
      "name": "pause",
      "outputs": [],
      "stateMutability": "nonpayable",
      "type": "function"
    },
    {
      "inputs": [],
      "name": "paused",
      "outputs": [
        {
          "internalType": "bool",
          "name": "",
          "type": "bool"
        }
      ],
      "stateMutability": "view",
      "type": "function"
    },
    {
      "inputs": [
        {
          "internalType": "bytes32",
          "name": "role",
          "type": "bytes32"
        },
        {
          "internalType": "address",
          "name": "account",
          "type": "address"
        }
      ],
      "name": "renounceRole",
      "outputs": [],
      "stateMutability": "nonpayable",
      "type": "function"
    },
    {
      "inputs": [
        {
          "internalType": "bytes32",
          "name": "role",
          "type": "bytes32"
        },
        {
          "internalType": "address",
          "name": "account",
          "type": "address"
        }
      ],
      "name": "revokeRole",
      "outputs": [],
      "stateMutability": "nonpayable",
      "type": "function"
    },
    {
      "inputs": [
        {
          "internalType": "address",
          "name": "from",
          "type": "address"
        },
        {
          "internalType": "address",
          "name": "to",
          "type": "address"
        },
        {
          "internalType": "uint256",
          "name": "tokenId",
          "type": "uint256"
        }
      ],
      "name": "safeTransferFrom",
      "outputs": [],
      "stateMutability": "nonpayable",
      "type": "function"
    },
    {
      "inputs": [
        {
          "internalType": "address",
          "name": "from",
          "type": "address"
        },
        {
          "internalType": "address",
          "name": "to",
          "type": "address"
        },
        {
          "internalType": "uint256",
          "name": "tokenId",
          "type": "uint256"
        },
        {
          "internalType": "bytes",
          "name": "_data",
          "type": "bytes"
        }
      ],
      "name": "safeTransferFrom",
      "outputs": [],
      "stateMutability": "nonpayable",
      "type": "function"
    },
    {
      "inputs": [
        {
          "internalType": "address",
          "name": "operator",
          "type": "address"
        },
        {
          "internalType": "bool",
          "name": "approved",
          "type": "bool"
        }
      ],
      "name": "setApprovalForAll",
      "outputs": [],
      "stateMutability": "nonpayable",
      "type": "function"
    },
    {
      "inputs": [
        {
          "internalType": "bytes4",
          "name": "interfaceId",
          "type": "bytes4"
        }
      ],
      "name": "supportsInterface",
      "outputs": [
        {
          "internalType": "bool",
          "name": "",
          "type": "bool"
        }
      ],
      "stateMutability": "view",
      "type": "function"
    },
    {
      "inputs": [],
      "name": "symbol",
      "outputs": [
        {
          "internalType": "string",
          "name": "",
          "type": "string"
        }
      ],
      "stateMutability": "view",
      "type": "function"
    },
    {
      "inputs": [
        {
          "internalType": "uint256",
          "name": "index",
          "type": "uint256"
        }
      ],
      "name": "tokenByIndex",
      "outputs": [
        {
          "internalType": "uint256",
          "name": "",
          "type": "uint256"
        }
      ],
      "stateMutability": "view",
      "type": "function"
    },
    {
      "inputs": [
        {
          "internalType": "address",
          "name": "owner",
          "type": "address"
        },
        {
          "internalType": "uint256",
          "name": "index",
          "type": "uint256"
        }
      ],
      "name": "tokenOfOwnerByIndex",
      "outputs": [
        {
          "internalType": "uint256",
          "name": "",
          "type": "uint256"
        }
      ],
      "stateMutability": "view",
      "type": "function"
    },
    {
      "inputs": [
        {
          "internalType": "uint256",
          "name": "tokenId",
          "type": "uint256"
        }
      ],
      "name": "tokenURI",
      "outputs": [
        {
          "internalType": "string",
          "name": "",
          "type": "string"
        }
      ],
      "stateMutability": "view",
      "type": "function"
    },
    {
      "inputs": [],
      "name": "totalSupply",
      "outputs": [
        {
          "internalType": "uint256",
          "name": "",
          "type": "uint256"
        }
      ],
      "stateMutability": "view",
      "type": "function"
    },
    {
      "inputs": [
        {
          "internalType": "address",
          "name": "from",
          "type": "address"
        },
        {
          "internalType": "address",
          "name": "to",
          "type": "address"
        },
        {
          "internalType": "uint256",
          "name": "tokenId",
          "type": "uint256"
        }
      ],
      "name": "transferFrom",
      "outputs": [],
      "stateMutability": "nonpayable",
      "type": "function"
    },
    {
      "inputs": [],
      "name": "unpause",
      "outputs": [],
      "stateMutability": "nonpayable",
      "type": "function"
    }
  ],
  "bytecode": "0x60806040523480156200001157600080fd5b5060405162002c7738038062002c77833981016040819052620000349162000416565b8282620000486301ffc9a760e01b6200013e565b81516200005d906007906020850190620002c5565b50805162000073906008906020840190620002c5565b50620000866380ac58cd60e01b6200013e565b62000098635b5e139f60e01b6200013e565b620000aa63780e9d6360e01b6200013e565b5050600b805460ff19169055620000cc6000620000c66200019c565b620001a0565b620000fb7f9f2df0fed2c77648de5860a4cc508cd0818c85b8b8a1ab4ceeef8d981c8956a6620000c66200019c565b6200012a7f65d7a28e3265b37a6474929f336521b332c1681b933f6cb9f3376673440d862a620000c66200019c565b6200013581620001b0565b5050506200052d565b6001600160e01b03198082161415620001745760405162461bcd60e51b81526004016200016b90620004a3565b60405180910390fd5b6001600160e01b0319166000908152600160208190526040909120805460ff19169091179055565b3390565b620001ac8282620001c5565b5050565b8051620001ac90600a906020840190620002c5565b600082815260208181526040909120620001ea91839062000c396200023e821b17901c565b15620001ac57620001fa6200019c565b6001600160a01b0316816001600160a01b0316837f2f8788117e7eff1d82e926ec794901d17c78024a50270940304540a733656f0d60405160405180910390a45050565b600062000255836001600160a01b0384166200025e565b90505b92915050565b60006200026c8383620002ad565b620002a45750815460018181018455600084815260208082209093018490558454848252828601909352604090209190915562000258565b50600062000258565b60009081526001919091016020526040902054151590565b828054620002d390620004da565b90600052602060002090601f016020900481019282620002f7576000855562000342565b82601f106200031257805160ff191683800117855562000342565b8280016001018555821562000342579182015b828111156200034257825182559160200191906001019062000325565b506200035092915062000354565b5090565b5b8082111562000350576000815560010162000355565b600082601f8301126200037c578081fd5b81516001600160401b038082111562000399576200039962000517565b6040516020601f8401601f1916820181018381118382101715620003c157620003c162000517565b6040528382528584018101871015620003d8578485fd5b8492505b83831015620003fb5785830181015182840182015291820191620003dc565b838311156200040c57848185840101525b5095945050505050565b6000806000606084860312156200042b578283fd5b83516001600160401b038082111562000442578485fd5b62000450878388016200036b565b9450602086015191508082111562000466578384fd5b62000474878388016200036b565b935060408601519150808211156200048a578283fd5b5062000499868287016200036b565b9150509250925092565b6020808252601c908201527f4552433136353a20696e76616c696420696e7465726661636520696400000000604082015260600190565b600281046001821680620004ef57607f821691505b602082108114156200051157634e487b7160e01b600052602260045260246000fd5b50919050565b634e487b7160e01b600052604160045260246000fd5b61273a806200053d6000396000f3fe608060405234801561001057600080fd5b50600436106101f05760003560e01c80636a6278421161010f578063a22cb465116100a2578063d539139311610071578063d5391393146103f0578063d547741f146103f8578063e63ab1e91461040b578063e985e9c514610413576101f0565b8063a22cb465146103a4578063b88d4fde146103b7578063c87b56dd146103ca578063ca15c873146103dd576101f0565b80639010d07c116100de5780639010d07c1461036e57806391d148541461038157806395d89b4114610394578063a217fddf1461039c576101f0565b80636a627842146103385780636c0360eb1461034b57806370a08231146103535780638456cb5914610366576101f0565b80632f745c591161018757806342966c681161015657806342966c68146102f75780634f6ccce71461030a5780635c975abb1461031d5780636352211e14610325576101f0565b80632f745c59146102b657806336568abe146102c95780633f4ba83a146102dc57806342842e0e146102e4576101f0565b806318160ddd116101c357806318160ddd1461026857806323b872dd1461027d578063248a9ca3146102905780632f2ff15d146102a3576101f0565b806301ffc9a7146101f557806306fdde031461021e578063081812fc14610233578063095ea7b314610253575b600080fd5b610208610203366004611c8a565b610426565b6040516102159190611d6d565b60405180910390f35b610226610461565b6040516102159190611d81565b610246610241366004611c2f565b6104f3565b6040516102159190611d1d565b610266610261366004611c06565b61053f565b005b6102706105d7565b6040516102159190611d78565b61026661028b366004611ac5565b6105e8565b61027061029e366004611c2f565b610620565b6102666102b1366004611c47565b610635565b6102706102c4366004611c06565b61067d565b6102666102d7366004611c47565b6106a8565b6102666106ea565b6102666102f2366004611ac5565b61073c565b610266610305366004611c2f565b610757565b610270610318366004611c2f565b61078a565b6102086107a0565b610246610333366004611c2f565b6107a9565b610266610346366004611a79565b6107d1565b610226610836565b610270610361366004611a79565b610845565b61026661088e565b61024661037c366004611c69565b6108de565b61020861038f366004611c47565b6108f6565b61022661090e565b61027061091d565b6102666103b2366004611bcc565b610922565b6102666103c5366004611b00565b6109f0565b6102266103d8366004611c2f565b610a2f565b6102706103eb366004611c2f565b610b72565b610270610b89565b610266610406366004611c47565b610bad565b610270610be7565b610208610421366004611a93565b610c0b565b7fffffffff00000000000000000000000000000000000000000000000000000000811660009081526001602052604090205460ff165b919050565b60606007805461047090612601565b80601f016020809104026020016040519081016040528092919081815260200182805461049c90612601565b80156104e95780601f106104be576101008083540402835291602001916104e9565b820191906000526020600020905b8154815290600101906020018083116104cc57829003601f168201915b5050505050905090565b60006104fe82610c4e565b6105235760405162461bcd60e51b815260040161051a9061225d565b60405180910390fd5b506000908152600560205260409020546001600160a01b031690565b600061054a826107a9565b9050806001600160a01b0316836001600160a01b0316141561057e5760405162461bcd60e51b815260040161051a90612363565b806001600160a01b0316610590610c5b565b6001600160a01b031614806105ac57506105ac81610421610c5b565b6105c85760405162461bcd60e51b815260040161051a9061212c565b6105d28383610c5f565b505050565b60006105e36003610ce5565b905090565b6105f96105f3610c5b565b82610cf0565b6106155760405162461bcd60e51b815260040161051a906123c0565b6105d2838383610d75565b60009081526020819052604090206002015490565b6000828152602081905260409020600201546106539061038f610c5b565b61066f5760405162461bcd60e51b815260040161051a90611e33565b6106798282610e83565b5050565b6001600160a01b038216600090815260026020526040812061069f9083610eec565b90505b92915050565b6106b0610c5b565b6001600160a01b0316816001600160a01b0316146106e05760405162461bcd60e51b815260040161051a90612535565b6106798282610ef8565b6107167f65d7a28e3265b37a6474929f336521b332c1681b933f6cb9f3376673440d862a61038f610c5b565b6107325760405162461bcd60e51b815260040161051a906124d7565b61073a610f61565b565b6105d2838383604051806020016040528060008152506109f0565b6107626105f3610c5b565b61077e5760405162461bcd60e51b815260040161051a9061247a565b61078781610fcf565b50565b600080610798600384611095565b509392505050565b600b5460ff1690565b60006106a2826040518060600160405280602981526020016126dc60299139600391906110b1565b6107fd7f9f2df0fed2c77648de5860a4cc508cd0818c85b8b8a1ab4ceeef8d981c8956a661038f610c5b565b6108195760405162461bcd60e51b815260040161051a9061241d565b61082c81610827600c6110c8565b6110cc565b610787600c611190565b6060600a805461047090612601565b60006001600160a01b03821661086d5760405162461bcd60e51b815260040161051a90612189565b6001600160a01b03821660009081526002602052604090206106a290610ce5565b6108ba7f65d7a28e3265b37a6474929f336521b332c1681b933f6cb9f3376673440d862a61038f610c5b565b6108d65760405162461bcd60e51b815260040161051a90611f5b565b61073a611199565b600082815260208190526040812061069f9083610eec565b600082815260208190526040812061069f90836111f4565b60606008805461047090612601565b600081565b61092a610c5b565b6001600160a01b0316826001600160a01b0316141561095b5760405162461bcd60e51b815260040161051a90612015565b8060066000610968610c5b565b6001600160a01b03908116825260208083019390935260409182016000908120918716808252919093529120805460ff1916921515929092179091556109ac610c5b565b6001600160a01b03167f17307eab39ab6107e8899845ad3d59bd9653f200f220920489ca2b5937696c31836040516109e49190611d6d565b60405180910390a35050565b610a016109fb610c5b565b83610cf0565b610a1d5760405162461bcd60e51b815260040161051a906123c0565b610a2984848484611209565b50505050565b6060610a3a82610c4e565b610a565760405162461bcd60e51b815260040161051a90612306565b60008281526009602052604081208054610a6f90612601565b80601f0160208091040260200160405190810160405280929190818152602001828054610a9b90612601565b8015610ae85780601f10610abd57610100808354040283529160200191610ae8565b820191906000526020600020905b815481529060010190602001808311610acb57829003601f168201915b505050505090506000610af9610836565b9050805160001415610b0d5750905061045c565b815115610b3f578082604051602001610b27929190611cee565b6040516020818303038152906040529250505061045c565b80610b498561123c565b604051602001610b5a929190611cee565b60405160208183030381529060405292505050919050565b60008181526020819052604081206106a290610ce5565b7f9f2df0fed2c77648de5860a4cc508cd0818c85b8b8a1ab4ceeef8d981c8956a681565b600082815260208190526040902060020154610bcb9061038f610c5b565b6106e05760405162461bcd60e51b815260040161051a90612098565b7f65d7a28e3265b37a6474929f336521b332c1681b933f6cb9f3376673440d862a81565b6001600160a01b03918216600090815260066020908152604080832093909416825291909152205460ff1690565b600061069f836001600160a01b03841661138b565b60006106a26003836113d5565b3390565b600081815260056020526040902080547fffffffffffffffffffffffff0000000000000000000000000000000000000000166001600160a01b0384169081179091558190610cac826107a9565b6001600160a01b03167f8c5be1e5ebec7d5bd14f71427d1e84f3dd0314c0f7b2291e5b200ac8c7c3b92560405160405180910390a45050565b60006106a2826110c8565b6000610cfb82610c4e565b610d175760405162461bcd60e51b815260040161051a9061204c565b6000610d22836107a9565b9050806001600160a01b0316846001600160a01b03161480610d5d5750836001600160a01b0316610d52846104f3565b6001600160a01b0316145b80610d6d5750610d6d8185610c0b565b949350505050565b826001600160a01b0316610d88826107a9565b6001600160a01b031614610dae5760405162461bcd60e51b815260040161051a906122a9565b6001600160a01b038216610dd45760405162461bcd60e51b815260040161051a90611fb8565b610ddf8383836113e1565b610dea600082610c5f565b6001600160a01b0383166000908152600260205260409020610e0c90826113ec565b506001600160a01b0382166000908152600260205260409020610e2f90826113f8565b50610e3c60038284611404565b5080826001600160a01b0316846001600160a01b03167fddf252ad1be2c89b69c2b068fc378daa952ba7f163c4a11628f55a4df523b3ef60405160405180910390a4505050565b6000828152602081905260409020610e9b9082610c39565b1561067957610ea8610c5b565b6001600160a01b0316816001600160a01b0316837f2f8788117e7eff1d82e926ec794901d17c78024a50270940304540a733656f0d60405160405180910390a45050565b600061069f838361141a565b6000828152602081905260409020610f109082611473565b1561067957610f1d610c5b565b6001600160a01b0316816001600160a01b0316837ff6391f5c32d9c69d2a47ea670b442974b53935d1edc7fd64eb21e047a839171b60405160405180910390a45050565b610f696107a0565b610f855760405162461bcd60e51b815260040161051a90611e90565b600b805460ff191690557f5db9ee0a495bf2e6ff9c91a7834c1ba4fdd244a5e8aa4e537bd38aeae4b073aa610fb8610c5b565b604051610fc59190611d1d565b60405180910390a1565b6000610fda826107a9565b9050610fe8816000846113e1565b610ff3600083610c5f565b6000828152600960205260409020805461100c90612601565b15905061102a57600082815260096020526040812061102a91611a12565b6001600160a01b038116600090815260026020526040902061104c90836113ec565b50611058600383611488565b5060405182906000906001600160a01b038416907fddf252ad1be2c89b69c2b068fc378daa952ba7f163c4a11628f55a4df523b3ef908390a45050565b60008080806110a48686611494565b9097909650945050505050565b60006110be848484611504565b90505b9392505050565b5490565b6001600160a01b0382166110f25760405162461bcd60e51b815260040161051a90612228565b6110fb81610c4e565b156111185760405162461bcd60e51b815260040161051a90611f24565b611124600083836113e1565b6001600160a01b038216600090815260026020526040902061114690826113f8565b5061115360038284611404565b5060405181906001600160a01b038416906000907fddf252ad1be2c89b69c2b068fc378daa952ba7f163c4a11628f55a4df523b3ef908290a45050565b80546001019055565b6111a16107a0565b156111be5760405162461bcd60e51b815260040161051a906120f5565b600b805460ff191660011790557f62e78cea01bee320cd4e420270b5ea74000d11b0c9f74754ebdbfc544b05a258610fb8610c5b565b600061069f836001600160a01b03841661157b565b611214848484610d75565b61122084848484611593565b610a295760405162461bcd60e51b815260040161051a90611ec7565b60608161127d575060408051808201909152600181527f3000000000000000000000000000000000000000000000000000000000000000602082015261045c565b8160005b81156112a757806112918161263c565b91506112a09050600a836125aa565b9150611281565b60008167ffffffffffffffff8111156112d057634e487b7160e01b600052604160045260246000fd5b6040519080825280601f01601f1916602001820160405280156112fa576020820181803683370190505b5090505b8415610d6d5761130f6001836125be565b915061131c600a86612657565b611327906030612592565b60f81b81838151811061134a57634e487b7160e01b600052603260045260246000fd5b60200101907effffffffffffffffffffffffffffffffffffffffffffffffffffffffffffff1916908160001a905350611384600a866125aa565b94506112fe565b6000611397838361157b565b6113cd575081546001818101845560008481526020808220909301849055845484825282860190935260409020919091556106a2565b5060006106a2565b600061069f838361157b565b6105d28383836116df565b600061069f838361170f565b600061069f838361138b565b60006110be84846001600160a01b03851661182c565b8154600090821061143d5760405162461bcd60e51b815260040161051a90611d94565b82600001828154811061146057634e487b7160e01b600052603260045260246000fd5b9060005260206000200154905092915050565b600061069f836001600160a01b03841661170f565b600061069f83836118db565b8154600090819083106114b95760405162461bcd60e51b815260040161051a906121e6565b60008460000184815481106114de57634e487b7160e01b600052603260045260246000fd5b906000526020600020906002020190508060000154816001015492509250509250929050565b600082815260018401602052604081205482816115345760405162461bcd60e51b815260040161051a9190611d81565b50846115416001836125be565b8154811061155f57634e487b7160e01b600052603260045260246000fd5b9060005260206000209060020201600101549150509392505050565b60009081526001919091016020526040902054151590565b60006115a7846001600160a01b0316611a0c565b156116d457836001600160a01b031663150b7a026115c3610c5b565b8786866040518563ffffffff1660e01b81526004016115e59493929190611d31565b602060405180830381600087803b1580156115ff57600080fd5b505af192505050801561162f575060408051601f3d908101601f1916820190925261162c91810190611ca6565b60015b611689573d80801561165d576040519150601f19603f3d011682016040523d82523d6000602084013e611662565b606091505b5080516116815760405162461bcd60e51b815260040161051a90611ec7565b805181602001fd5b7fffffffff00000000000000000000000000000000000000000000000000000000167f150b7a0200000000000000000000000000000000000000000000000000000000149050610d6d565b506001949350505050565b6116ea8383836105d2565b6116f26107a0565b156105d25760405162461bcd60e51b815260040161051a90611dd6565b600081815260018301602052604081205480156118225760006117336001836125be565b8554909150600090611747906001906125be565b9050600086600001828154811061176e57634e487b7160e01b600052603260045260246000fd5b906000526020600020015490508087600001848154811061179f57634e487b7160e01b600052603260045260246000fd5b6000918252602090912001556117b6836001612592565b600082815260018901602052604090205586548790806117e657634e487b7160e01b600052603160045260246000fd5b600190038181906000526020600020016000905590558660010160008781526020019081526020016000206000905560019450505050506106a2565b60009150506106a2565b6000828152600184016020526040812054806118915750506040805180820182528381526020808201848152865460018181018955600089815284812095516002909302909501918255915190820155865486845281880190925292909120556110c1565b828561189e6001846125be565b815481106118bc57634e487b7160e01b600052603260045260246000fd5b90600052602060002090600202016001018190555060009150506110c1565b600081815260018301602052604081205480156118225760006118ff6001836125be565b8554909150600090611913906001906125be565b9050600086600001828154811061193a57634e487b7160e01b600052603260045260246000fd5b906000526020600020906002020190508087600001848154811061196e57634e487b7160e01b600052603260045260246000fd5b60009182526020909120825460029092020190815560019182015490820155611998908490612592565b8154600090815260018901602052604090205586548790806119ca57634e487b7160e01b600052603160045260246000fd5b60008281526020808220600260001990940193840201828155600190810183905592909355888152898201909252604082209190915594506106a29350505050565b3b151590565b508054611a1e90612601565b6000825580601f10611a305750610787565b601f01602090049060005260206000209081019061078791905b80821115611a5e5760008155600101611a4a565b5090565b80356001600160a01b038116811461045c57600080fd5b600060208284031215611a8a578081fd5b61069f82611a62565b60008060408385031215611aa5578081fd5b611aae83611a62565b9150611abc60208401611a62565b90509250929050565b600080600060608486031215611ad9578081fd5b611ae284611a62565b9250611af060208501611a62565b9150604084013590509250925092565b60008060008060808587031215611b15578081fd5b611b1e85611a62565b93506020611b2d818701611a62565b935060408601359250606086013567ffffffffffffffff80821115611b50578384fd5b818801915088601f830112611b63578384fd5b813581811115611b7557611b75612697565b604051601f8201601f1916810185018381118282101715611b9857611b98612697565b60405281815283820185018b1015611bae578586fd5b81858501868301379081019093019390935250939692955090935050565b60008060408385031215611bde578182fd5b611be783611a62565b915060208301358015158114611bfb578182fd5b809150509250929050565b60008060408385031215611c18578182fd5b611c2183611a62565b946020939093013593505050565b600060208284031215611c40578081fd5b5035919050565b60008060408385031215611c59578182fd5b82359150611abc60208401611a62565b60008060408385031215611c7b578182fd5b50508035926020909101359150565b600060208284031215611c9b578081fd5b81356110c1816126ad565b600060208284031215611cb7578081fd5b81516110c1816126ad565b60008151808452611cda8160208601602086016125d5565b601f01601f19169290920160200192915050565b60008351611d008184602088016125d5565b835190830190611d148183602088016125d5565b01949350505050565b6001600160a01b0391909116815260200190565b60006001600160a01b03808716835280861660208401525083604083015260806060830152611d636080830184611cc2565b9695505050505050565b901515815260200190565b90815260200190565b60006020825261069f6020830184611cc2565b60208082526022908201527f456e756d657261626c655365743a20696e646578206f7574206f6620626f756e604082015261647360f01b606082015260800190565b6020808252602b908201527f4552433732315061757361626c653a20746f6b656e207472616e73666572207760408201527f68696c6520706175736564000000000000000000000000000000000000000000606082015260800190565b6020808252602f908201527f416363657373436f6e74726f6c3a2073656e646572206d75737420626520616e60408201527f2061646d696e20746f206772616e740000000000000000000000000000000000606082015260800190565b60208082526014908201527f5061757361626c653a206e6f7420706175736564000000000000000000000000604082015260600190565b60208082526032908201527f4552433732313a207472616e7366657220746f206e6f6e20455243373231526560408201527f63656976657220696d706c656d656e7465720000000000000000000000000000606082015260800190565b6020808252601c908201527f4552433732313a20746f6b656e20616c7265616479206d696e74656400000000604082015260600190565b6020808252603e908201527f4552433732315072657365744d696e7465725061757365724175746f49643a2060408201527f6d75737420686176652070617573657220726f6c6520746f2070617573650000606082015260800190565b60208082526024908201527f4552433732313a207472616e7366657220746f20746865207a65726f2061646460408201527f7265737300000000000000000000000000000000000000000000000000000000606082015260800190565b60208082526019908201527f4552433732313a20617070726f766520746f2063616c6c657200000000000000604082015260600190565b6020808252602c908201527f4552433732313a206f70657261746f7220717565727920666f72206e6f6e657860408201526b34b9ba32b73a103a37b5b2b760a11b606082015260800190565b60208082526030908201527f416363657373436f6e74726f6c3a2073656e646572206d75737420626520616e60408201527f2061646d696e20746f207265766f6b6500000000000000000000000000000000606082015260800190565b60208082526010908201527f5061757361626c653a2070617573656400000000000000000000000000000000604082015260600190565b60208082526038908201527f4552433732313a20617070726f76652063616c6c6572206973206e6f74206f7760408201527f6e6572206e6f7220617070726f76656420666f7220616c6c0000000000000000606082015260800190565b6020808252602a908201527f4552433732313a2062616c616e636520717565727920666f7220746865207a6560408201527f726f206164647265737300000000000000000000000000000000000000000000606082015260800190565b60208082526022908201527f456e756d657261626c654d61703a20696e646578206f7574206f6620626f756e604082015261647360f01b606082015260800190565b6020808252818101527f4552433732313a206d696e7420746f20746865207a65726f2061646472657373604082015260600190565b6020808252602c908201527f4552433732313a20617070726f76656420717565727920666f72206e6f6e657860408201526b34b9ba32b73a103a37b5b2b760a11b606082015260800190565b60208082526029908201527f4552433732313a207472616e73666572206f6620746f6b656e2074686174206960408201527f73206e6f74206f776e0000000000000000000000000000000000000000000000606082015260800190565b6020808252602f908201527f4552433732314d657461646174613a2055524920717565727920666f72206e6f60408201527f6e6578697374656e7420746f6b656e0000000000000000000000000000000000606082015260800190565b60208082526021908201527f4552433732313a20617070726f76616c20746f2063757272656e74206f776e6560408201527f7200000000000000000000000000000000000000000000000000000000000000606082015260800190565b60208082526031908201527f4552433732313a207472616e736665722063616c6c6572206973206e6f74206f60408201527f776e6572206e6f7220617070726f766564000000000000000000000000000000606082015260800190565b6020808252603d908201527f4552433732315072657365744d696e7465725061757365724175746f49643a2060408201527f6d7573742068617665206d696e74657220726f6c6520746f206d696e74000000606082015260800190565b60208082526030908201527f4552433732314275726e61626c653a2063616c6c6572206973206e6f74206f7760408201527f6e6572206e6f7220617070726f76656400000000000000000000000000000000606082015260800190565b602080825260409082018190527f4552433732315072657365744d696e7465725061757365724175746f49643a20908201527f6d75737420686176652070617573657220726f6c6520746f20756e7061757365606082015260800190565b6020808252602f908201527f416363657373436f6e74726f6c3a2063616e206f6e6c792072656e6f756e636560408201527f20726f6c657320666f722073656c660000000000000000000000000000000000606082015260800190565b600082198211156125a5576125a561266b565b500190565b6000826125b9576125b9612681565b500490565b6000828210156125d0576125d061266b565b500390565b60005b838110156125f05781810151838201526020016125d8565b83811115610a295750506000910152565b60028104600182168061261557607f821691505b6020821081141561263657634e487b7160e01b600052602260045260246000fd5b50919050565b60006000198214156126505761265061266b565b5060010190565b60008261266657612666612681565b500690565b634e487b7160e01b600052601160045260246000fd5b634e487b7160e01b600052601260045260246000fd5b634e487b7160e01b600052604160045260246000fd5b7fffffffff000000000000000000000000000000000000000000000000000000008116811461078757600080fdfe4552433732313a206f776e657220717565727920666f72206e6f6e6578697374656e7420746f6b656ea2646970667358221220a5e61df98cb5067dcb0b28f8d2e430d312f99de2327aa785311b0d295e08706164736f6c63430008000033",
  "linkReferences": {},
  "deployedLinkReferences": {}
}