{
  "_format": "hh-sol-artifact-1",
  "contractName": "ERC721PresetMinterPauserAutoId",
  "sourceName": "contracts/OpenZeppelin/presets/ERC721PresetMinterPauserAutoId.sol",
  "abi": [
    {
      "inputs": [
        {
          "internalType": "string",
          "name": "name",
          "type": "string"
        },
        {
          "internalType": "string",
          "name": "symbol",
          "type": "string"
        },
        {
          "internalType": "string",
          "name": "baseURI",
          "type": "string"
        }
      ],
      "stateMutability": "nonpayable",
      "type": "constructor"
    },
    {
      "anonymous": false,
      "inputs": [
        {
          "indexed": true,
          "internalType": "address",
          "name": "owner",
          "type": "address"
        },
        {
          "indexed": true,
          "internalType": "address",
          "name": "approved",
          "type": "address"
        },
        {
          "indexed": true,
          "internalType": "uint256",
          "name": "tokenId",
          "type": "uint256"
        }
      ],
      "name": "Approval",
      "type": "event"
    },
    {
      "anonymous": false,
      "inputs": [
        {
          "indexed": true,
          "internalType": "address",
          "name": "owner",
          "type": "address"
        },
        {
          "indexed": true,
          "internalType": "address",
          "name": "operator",
          "type": "address"
        },
        {
          "indexed": false,
          "internalType": "bool",
          "name": "approved",
          "type": "bool"
        }
      ],
      "name": "ApprovalForAll",
      "type": "event"
    },
    {
      "anonymous": false,
      "inputs": [
        {
          "indexed": false,
          "internalType": "address",
          "name": "account",
          "type": "address"
        }
      ],
      "name": "Paused",
      "type": "event"
    },
    {
      "anonymous": false,
      "inputs": [
        {
          "indexed": true,
          "internalType": "bytes32",
          "name": "role",
          "type": "bytes32"
        },
        {
          "indexed": true,
          "internalType": "bytes32",
          "name": "previousAdminRole",
          "type": "bytes32"
        },
        {
          "indexed": true,
          "internalType": "bytes32",
          "name": "newAdminRole",
          "type": "bytes32"
        }
      ],
      "name": "RoleAdminChanged",
      "type": "event"
    },
    {
      "anonymous": false,
      "inputs": [
        {
          "indexed": true,
          "internalType": "bytes32",
          "name": "role",
          "type": "bytes32"
        },
        {
          "indexed": true,
          "internalType": "address",
          "name": "account",
          "type": "address"
        },
        {
          "indexed": true,
          "internalType": "address",
          "name": "sender",
          "type": "address"
        }
      ],
      "name": "RoleGranted",
      "type": "event"
    },
    {
      "anonymous": false,
      "inputs": [
        {
          "indexed": true,
          "internalType": "bytes32",
          "name": "role",
          "type": "bytes32"
        },
        {
          "indexed": true,
          "internalType": "address",
          "name": "account",
          "type": "address"
        },
        {
          "indexed": true,
          "internalType": "address",
          "name": "sender",
          "type": "address"
        }
      ],
      "name": "RoleRevoked",
      "type": "event"
    },
    {
      "anonymous": false,
      "inputs": [
        {
          "indexed": true,
          "internalType": "address",
          "name": "from",
          "type": "address"
        },
        {
          "indexed": true,
          "internalType": "address",
          "name": "to",
          "type": "address"
        },
        {
          "indexed": true,
          "internalType": "uint256",
          "name": "tokenId",
          "type": "uint256"
        }
      ],
      "name": "Transfer",
      "type": "event"
    },
    {
      "anonymous": false,
      "inputs": [
        {
          "indexed": false,
          "internalType": "address",
          "name": "account",
          "type": "address"
        }
      ],
      "name": "Unpaused",
      "type": "event"
    },
    {
      "inputs": [],
      "name": "DEFAULT_ADMIN_ROLE",
      "outputs": [
        {
          "internalType": "bytes32",
          "name": "",
          "type": "bytes32"
        }
      ],
      "stateMutability": "view",
      "type": "function"
    },
    {
      "inputs": [],
      "name": "MINTER_ROLE",
      "outputs": [
        {
          "internalType": "bytes32",
          "name": "",
          "type": "bytes32"
        }
      ],
      "stateMutability": "view",
      "type": "function"
    },
    {
      "inputs": [],
      "name": "PAUSER_ROLE",
      "outputs": [
        {
          "internalType": "bytes32",
          "name": "",
          "type": "bytes32"
        }
      ],
      "stateMutability": "view",
      "type": "function"
    },
    {
      "inputs": [
        {
          "internalType": "address",
          "name": "to",
          "type": "address"
        },
        {
          "internalType": "uint256",
          "name": "tokenId",
          "type": "uint256"
        }
      ],
      "name": "approve",
      "outputs": [],
      "stateMutability": "nonpayable",
      "type": "function"
    },
    {
      "inputs": [
        {
          "internalType": "address",
          "name": "owner",
          "type": "address"
        }
      ],
      "name": "balanceOf",
      "outputs": [
        {
          "internalType": "uint256",
          "name": "",
          "type": "uint256"
        }
      ],
      "stateMutability": "view",
      "type": "function"
    },
    {
      "inputs": [],
      "name": "baseURI",
      "outputs": [
        {
          "internalType": "string",
          "name": "",
          "type": "string"
        }
      ],
      "stateMutability": "view",
      "type": "function"
    },
    {
      "inputs": [
        {
          "internalType": "uint256",
          "name": "tokenId",
          "type": "uint256"
        }
      ],
      "name": "burn",
      "outputs": [],
      "stateMutability": "nonpayable",
      "type": "function"
    },
    {
      "inputs": [
        {
          "internalType": "uint256",
          "name": "tokenId",
          "type": "uint256"
        }
      ],
      "name": "getApproved",
      "outputs": [
        {
          "internalType": "address",
          "name": "",
          "type": "address"
        }
      ],
      "stateMutability": "view",
      "type": "function"
    },
    {
      "inputs": [
        {
          "internalType": "bytes32",
          "name": "role",
          "type": "bytes32"
        }
      ],
      "name": "getRoleAdmin",
      "outputs": [
        {
          "internalType": "bytes32",
          "name": "",
          "type": "bytes32"
        }
      ],
      "stateMutability": "view",
      "type": "function"
    },
    {
      "inputs": [
        {
          "internalType": "bytes32",
          "name": "role",
          "type": "bytes32"
        },
        {
          "internalType": "uint256",
          "name": "index",
          "type": "uint256"
        }
      ],
      "name": "getRoleMember",
      "outputs": [
        {
          "internalType": "address",
          "name": "",
          "type": "address"
        }
      ],
      "stateMutability": "view",
      "type": "function"
    },
    {
      "inputs": [
        {
          "internalType": "bytes32",
          "name": "role",
          "type": "bytes32"
        }
      ],
      "name": "getRoleMemberCount",
      "outputs": [
        {
          "internalType": "uint256",
          "name": "",
          "type": "uint256"
        }
      ],
      "stateMutability": "view",
      "type": "function"
    },
    {
      "inputs": [
        {
          "internalType": "bytes32",
          "name": "role",
          "type": "bytes32"
        },
        {
          "internalType": "address",
          "name": "account",
          "type": "address"
        }
      ],
      "name": "grantRole",
      "outputs": [],
      "stateMutability": "nonpayable",
      "type": "function"
    },
    {
      "inputs": [
        {
          "internalType": "bytes32",
          "name": "role",
          "type": "bytes32"
        },
        {
          "internalType": "address",
          "name": "account",
          "type": "address"
        }
      ],
      "name": "hasRole",
      "outputs": [
        {
          "internalType": "bool",
          "name": "",
          "type": "bool"
        }
      ],
      "stateMutability": "view",
      "type": "function"
    },
    {
      "inputs": [
        {
          "internalType": "address",
          "name": "owner",
          "type": "address"
        },
        {
          "internalType": "address",
          "name": "operator",
          "type": "address"
        }
      ],
      "name": "isApprovedForAll",
      "outputs": [
        {
          "internalType": "bool",
          "name": "",
          "type": "bool"
        }
      ],
      "stateMutability": "view",
      "type": "function"
    },
    {
      "inputs": [
        {
          "internalType": "address",
          "name": "to",
          "type": "address"
        }
      ],
      "name": "mint",
      "outputs": [],
      "stateMutability": "nonpayable",
      "type": "function"
    },
    {
      "inputs": [],
      "name": "name",
      "outputs": [
        {
          "internalType": "string",
          "name": "",
          "type": "string"
        }
      ],
      "stateMutability": "view",
      "type": "function"
    },
    {
      "inputs": [
        {
          "internalType": "uint256",
          "name": "tokenId",
          "type": "uint256"
        }
      ],
      "name": "ownerOf",
      "outputs": [
        {
          "internalType": "address",
          "name": "",
          "type": "address"
        }
      ],
      "stateMutability": "view",
      "type": "function"
    },
    {
      "inputs": [],
      "name": "pause",
      "outputs": [],
      "stateMutability": "nonpayable",
      "type": "function"
    },
    {
      "inputs": [],
      "name": "paused",
      "outputs": [
        {
          "internalType": "bool",
          "name": "",
          "type": "bool"
        }
      ],
      "stateMutability": "view",
      "type": "function"
    },
    {
      "inputs": [
        {
          "internalType": "bytes32",
          "name": "role",
          "type": "bytes32"
        },
        {
          "internalType": "address",
          "name": "account",
          "type": "address"
        }
      ],
      "name": "renounceRole",
      "outputs": [],
      "stateMutability": "nonpayable",
      "type": "function"
    },
    {
      "inputs": [
        {
          "internalType": "bytes32",
          "name": "role",
          "type": "bytes32"
        },
        {
          "internalType": "address",
          "name": "account",
          "type": "address"
        }
      ],
      "name": "revokeRole",
      "outputs": [],
      "stateMutability": "nonpayable",
      "type": "function"
    },
    {
      "inputs": [
        {
          "internalType": "address",
          "name": "from",
          "type": "address"
        },
        {
          "internalType": "address",
          "name": "to",
          "type": "address"
        },
        {
          "internalType": "uint256",
          "name": "tokenId",
          "type": "uint256"
        }
      ],
      "name": "safeTransferFrom",
      "outputs": [],
      "stateMutability": "nonpayable",
      "type": "function"
    },
    {
      "inputs": [
        {
          "internalType": "address",
          "name": "from",
          "type": "address"
        },
        {
          "internalType": "address",
          "name": "to",
          "type": "address"
        },
        {
          "internalType": "uint256",
          "name": "tokenId",
          "type": "uint256"
        },
        {
          "internalType": "bytes",
          "name": "_data",
          "type": "bytes"
        }
      ],
      "name": "safeTransferFrom",
      "outputs": [],
      "stateMutability": "nonpayable",
      "type": "function"
    },
    {
      "inputs": [
        {
          "internalType": "address",
          "name": "operator",
          "type": "address"
        },
        {
          "internalType": "bool",
          "name": "approved",
          "type": "bool"
        }
      ],
      "name": "setApprovalForAll",
      "outputs": [],
      "stateMutability": "nonpayable",
      "type": "function"
    },
    {
      "inputs": [
        {
          "internalType": "bytes4",
          "name": "interfaceId",
          "type": "bytes4"
        }
      ],
      "name": "supportsInterface",
      "outputs": [
        {
          "internalType": "bool",
          "name": "",
          "type": "bool"
        }
      ],
      "stateMutability": "view",
      "type": "function"
    },
    {
      "inputs": [],
      "name": "symbol",
      "outputs": [
        {
          "internalType": "string",
          "name": "",
          "type": "string"
        }
      ],
      "stateMutability": "view",
      "type": "function"
    },
    {
      "inputs": [
        {
          "internalType": "uint256",
          "name": "index",
          "type": "uint256"
        }
      ],
      "name": "tokenByIndex",
      "outputs": [
        {
          "internalType": "uint256",
          "name": "",
          "type": "uint256"
        }
      ],
      "stateMutability": "view",
      "type": "function"
    },
    {
      "inputs": [
        {
          "internalType": "address",
          "name": "owner",
          "type": "address"
        },
        {
          "internalType": "uint256",
          "name": "index",
          "type": "uint256"
        }
      ],
      "name": "tokenOfOwnerByIndex",
      "outputs": [
        {
          "internalType": "uint256",
          "name": "",
          "type": "uint256"
        }
      ],
      "stateMutability": "view",
      "type": "function"
    },
    {
      "inputs": [
        {
          "internalType": "uint256",
          "name": "tokenId",
          "type": "uint256"
        }
      ],
      "name": "tokenURI",
      "outputs": [
        {
          "internalType": "string",
          "name": "",
          "type": "string"
        }
      ],
      "stateMutability": "view",
      "type": "function"
    },
    {
      "inputs": [],
      "name": "totalSupply",
      "outputs": [
        {
          "internalType": "uint256",
          "name": "",
          "type": "uint256"
        }
      ],
      "stateMutability": "view",
      "type": "function"
    },
    {
      "inputs": [
        {
          "internalType": "address",
          "name": "from",
          "type": "address"
        },
        {
          "internalType": "address",
          "name": "to",
          "type": "address"
        },
        {
          "internalType": "uint256",
          "name": "tokenId",
          "type": "uint256"
        }
      ],
      "name": "transferFrom",
      "outputs": [],
      "stateMutability": "nonpayable",
      "type": "function"
    },
    {
      "inputs": [],
      "name": "unpause",
      "outputs": [],
      "stateMutability": "nonpayable",
      "type": "function"
    }
  ],
  "bytecode": "0x60806040523480156200001157600080fd5b5060405162002bd238038062002bd2833981016040819052620000349162000416565b8282620000486301ffc9a760e01b6200013e565b81516200005d906007906020850190620002c5565b50805162000073906008906020840190620002c5565b50620000866380ac58cd60e01b6200013e565b62000098635b5e139f60e01b6200013e565b620000aa63780e9d6360e01b6200013e565b5050600b805460ff19169055620000cc6000620000c66200019c565b620001a0565b620000fb7f9f2df0fed2c77648de5860a4cc508cd0818c85b8b8a1ab4ceeef8d981c8956a6620000c66200019c565b6200012a7f65d7a28e3265b37a6474929f336521b332c1681b933f6cb9f3376673440d862a620000c66200019c565b6200013581620001b0565b5050506200052d565b6001600160e01b03198082161415620001745760405162461bcd60e51b81526004016200016b90620004a3565b60405180910390fd5b6001600160e01b0319166000908152600160208190526040909120805460ff19169091179055565b3390565b620001ac8282620001c5565b5050565b8051620001ac90600a906020840190620002c5565b600082815260208181526040909120620001ea91839062000bf16200023e821b17901c565b15620001ac57620001fa6200019c565b6001600160a01b0316816001600160a01b0316837f2f8788117e7eff1d82e926ec794901d17c78024a50270940304540a733656f0d60405160405180910390a45050565b600062000255836001600160a01b0384166200025e565b90505b92915050565b60006200026c8383620002ad565b620002a45750815460018181018455600084815260208082209093018490558454848252828601909352604090209190915562000258565b50600062000258565b60009081526001919091016020526040902054151590565b828054620002d390620004da565b90600052602060002090601f016020900481019282620002f7576000855562000342565b82601f106200031257805160ff191683800117855562000342565b8280016001018555821562000342579182015b828111156200034257825182559160200191906001019062000325565b506200035092915062000354565b5090565b5b8082111562000350576000815560010162000355565b600082601f8301126200037c578081fd5b81516001600160401b038082111562000399576200039962000517565b6040516020601f8401601f1916820181018381118382101715620003c157620003c162000517565b6040528382528584018101871015620003d8578485fd5b8492505b83831015620003fb5785830181015182840182015291820191620003dc565b838311156200040c57848185840101525b5095945050505050565b6000806000606084860312156200042b578283fd5b83516001600160401b038082111562000442578485fd5b62000450878388016200036b565b9450602086015191508082111562000466578384fd5b62000474878388016200036b565b935060408601519150808211156200048a578283fd5b5062000499868287016200036b565b9150509250925092565b6020808252601c908201527f4552433136353a20696e76616c696420696e7465726661636520696400000000604082015260600190565b600281046001821680620004ef57607f821691505b602082108114156200051157634e487b7160e01b600052602260045260246000fd5b50919050565b634e487b7160e01b600052604160045260246000fd5b612695806200053d6000396000f3fe608060405234801561001057600080fd5b50600436106101f05760003560e01c80636a6278421161010f578063a22cb465116100a2578063d539139311610071578063d5391393146103f0578063d547741f146103f8578063e63ab1e91461040b578063e985e9c514610413576101f0565b8063a22cb465146103a4578063b88d4fde146103b7578063c87b56dd146103ca578063ca15c873146103dd576101f0565b80639010d07c116100de5780639010d07c1461036e57806391d148541461038157806395d89b4114610394578063a217fddf1461039c576101f0565b80636a627842146103385780636c0360eb1461034b57806370a08231146103535780638456cb5914610366576101f0565b80632f745c591161018757806342966c681161015657806342966c68146102f75780634f6ccce71461030a5780635c975abb1461031d5780636352211e14610325576101f0565b80632f745c59146102b657806336568abe146102c95780633f4ba83a146102dc57806342842e0e146102e4576101f0565b806318160ddd116101c357806318160ddd1461026857806323b872dd1461027d578063248a9ca3146102905780632f2ff15d146102a3576101f0565b806301ffc9a7146101f557806306fdde031461021e578063081812fc14610233578063095ea7b314610253575b600080fd5b610208610203366004611c42565b610426565b6040516102159190611d25565b60405180910390f35b610226610461565b6040516102159190611d39565b610246610241366004611be7565b6104f3565b6040516102159190611cd5565b610266610261366004611bbe565b61053f565b005b6102706105d7565b6040516102159190611d30565b61026661028b366004611a7d565b6105e8565b61027061029e366004611be7565b610620565b6102666102b1366004611bff565b610635565b6102706102c4366004611bbe565b61067d565b6102666102d7366004611bff565b6106a8565b6102666106ea565b6102666102f2366004611a7d565b61073c565b610266610305366004611be7565b610757565b610270610318366004611be7565b61078a565b6102086107a0565b610246610333366004611be7565b6107a9565b610266610346366004611a31565b6107d1565b6102266107ee565b610270610361366004611a31565b6107fd565b610266610846565b61024661037c366004611c21565b610896565b61020861038f366004611bff565b6108ae565b6102266108c6565b6102706108d5565b6102666103b2366004611b84565b6108da565b6102666103c5366004611ab8565b6109a8565b6102266103d8366004611be7565b6109e7565b6102706103eb366004611be7565b610b2a565b610270610b41565b610266610406366004611bff565b610b65565b610270610b9f565b610208610421366004611a4b565b610bc3565b7fffffffff00000000000000000000000000000000000000000000000000000000811660009081526001602052604090205460ff165b919050565b6060600780546104709061255c565b80601f016020809104026020016040519081016040528092919081815260200182805461049c9061255c565b80156104e95780601f106104be576101008083540402835291602001916104e9565b820191906000526020600020905b8154815290600101906020018083116104cc57829003601f168201915b5050505050905090565b60006104fe82610c06565b6105235760405162461bcd60e51b815260040161051a90612215565b60405180910390fd5b506000908152600560205260409020546001600160a01b031690565b600061054a826107a9565b9050806001600160a01b0316836001600160a01b0316141561057e5760405162461bcd60e51b815260040161051a9061231b565b806001600160a01b0316610590610c13565b6001600160a01b031614806105ac57506105ac81610421610c13565b6105c85760405162461bcd60e51b815260040161051a906120e4565b6105d28383610c17565b505050565b60006105e36003610c9d565b905090565b6105f96105f3610c13565b82610ca8565b6106155760405162461bcd60e51b815260040161051a90612378565b6105d2838383610d2d565b60009081526020819052604090206002015490565b6000828152602081905260409020600201546106539061038f610c13565b61066f5760405162461bcd60e51b815260040161051a90611deb565b6106798282610e3b565b5050565b6001600160a01b038216600090815260026020526040812061069f9083610ea4565b90505b92915050565b6106b0610c13565b6001600160a01b0316816001600160a01b0316146106e05760405162461bcd60e51b815260040161051a90612490565b6106798282610eb0565b6107167f65d7a28e3265b37a6474929f336521b332c1681b933f6cb9f3376673440d862a61038f610c13565b6107325760405162461bcd60e51b815260040161051a90612432565b61073a610f19565b565b6105d2838383604051806020016040528060008152506109a8565b6107626105f3610c13565b61077e5760405162461bcd60e51b815260040161051a906123d5565b61078781610f87565b50565b60008061079860038461104d565b509392505050565b600b5460ff1690565b60006106a2826040518060600160405280602981526020016126376029913960039190611069565b6107e4816107df600c611080565b611084565b610787600c611148565b6060600a80546104709061255c565b60006001600160a01b0382166108255760405162461bcd60e51b815260040161051a90612141565b6001600160a01b03821660009081526002602052604090206106a290610c9d565b6108727f65d7a28e3265b37a6474929f336521b332c1681b933f6cb9f3376673440d862a61038f610c13565b61088e5760405162461bcd60e51b815260040161051a90611f13565b61073a611151565b600082815260208190526040812061069f9083610ea4565b600082815260208190526040812061069f90836111ac565b6060600880546104709061255c565b600081565b6108e2610c13565b6001600160a01b0316826001600160a01b031614156109135760405162461bcd60e51b815260040161051a90611fcd565b8060066000610920610c13565b6001600160a01b03908116825260208083019390935260409182016000908120918716808252919093529120805460ff191692151592909217909155610964610c13565b6001600160a01b03167f17307eab39ab6107e8899845ad3d59bd9653f200f220920489ca2b5937696c318360405161099c9190611d25565b60405180910390a35050565b6109b96109b3610c13565b83610ca8565b6109d55760405162461bcd60e51b815260040161051a90612378565b6109e1848484846111c1565b50505050565b60606109f282610c06565b610a0e5760405162461bcd60e51b815260040161051a906122be565b60008281526009602052604081208054610a279061255c565b80601f0160208091040260200160405190810160405280929190818152602001828054610a539061255c565b8015610aa05780601f10610a7557610100808354040283529160200191610aa0565b820191906000526020600020905b815481529060010190602001808311610a8357829003601f168201915b505050505090506000610ab16107ee565b9050805160001415610ac55750905061045c565b815115610af7578082604051602001610adf929190611ca6565b6040516020818303038152906040529250505061045c565b80610b01856111f4565b604051602001610b12929190611ca6565b60405160208183030381529060405292505050919050565b60008181526020819052604081206106a290610c9d565b7f9f2df0fed2c77648de5860a4cc508cd0818c85b8b8a1ab4ceeef8d981c8956a681565b600082815260208190526040902060020154610b839061038f610c13565b6106e05760405162461bcd60e51b815260040161051a90612050565b7f65d7a28e3265b37a6474929f336521b332c1681b933f6cb9f3376673440d862a81565b6001600160a01b03918216600090815260066020908152604080832093909416825291909152205460ff1690565b600061069f836001600160a01b038416611343565b60006106a260038361138d565b3390565b600081815260056020526040902080547fffffffffffffffffffffffff0000000000000000000000000000000000000000166001600160a01b0384169081179091558190610c64826107a9565b6001600160a01b03167f8c5be1e5ebec7d5bd14f71427d1e84f3dd0314c0f7b2291e5b200ac8c7c3b92560405160405180910390a45050565b60006106a282611080565b6000610cb382610c06565b610ccf5760405162461bcd60e51b815260040161051a90612004565b6000610cda836107a9565b9050806001600160a01b0316846001600160a01b03161480610d155750836001600160a01b0316610d0a846104f3565b6001600160a01b0316145b80610d255750610d258185610bc3565b949350505050565b826001600160a01b0316610d40826107a9565b6001600160a01b031614610d665760405162461bcd60e51b815260040161051a90612261565b6001600160a01b038216610d8c5760405162461bcd60e51b815260040161051a90611f70565b610d97838383611399565b610da2600082610c17565b6001600160a01b0383166000908152600260205260409020610dc490826113a4565b506001600160a01b0382166000908152600260205260409020610de790826113b0565b50610df4600382846113bc565b5080826001600160a01b0316846001600160a01b03167fddf252ad1be2c89b69c2b068fc378daa952ba7f163c4a11628f55a4df523b3ef60405160405180910390a4505050565b6000828152602081905260409020610e539082610bf1565b1561067957610e60610c13565b6001600160a01b0316816001600160a01b0316837f2f8788117e7eff1d82e926ec794901d17c78024a50270940304540a733656f0d60405160405180910390a45050565b600061069f83836113d2565b6000828152602081905260409020610ec8908261142b565b1561067957610ed5610c13565b6001600160a01b0316816001600160a01b0316837ff6391f5c32d9c69d2a47ea670b442974b53935d1edc7fd64eb21e047a839171b60405160405180910390a45050565b610f216107a0565b610f3d5760405162461bcd60e51b815260040161051a90611e48565b600b805460ff191690557f5db9ee0a495bf2e6ff9c91a7834c1ba4fdd244a5e8aa4e537bd38aeae4b073aa610f70610c13565b604051610f7d9190611cd5565b60405180910390a1565b6000610f92826107a9565b9050610fa081600084611399565b610fab600083610c17565b60008281526009602052604090208054610fc49061255c565b159050610fe2576000828152600960205260408120610fe2916119ca565b6001600160a01b038116600090815260026020526040902061100490836113a4565b50611010600383611440565b5060405182906000906001600160a01b038416907fddf252ad1be2c89b69c2b068fc378daa952ba7f163c4a11628f55a4df523b3ef908390a45050565b600080808061105c868661144c565b9097909650945050505050565b60006110768484846114bc565b90505b9392505050565b5490565b6001600160a01b0382166110aa5760405162461bcd60e51b815260040161051a906121e0565b6110b381610c06565b156110d05760405162461bcd60e51b815260040161051a90611edc565b6110dc60008383611399565b6001600160a01b03821660009081526002602052604090206110fe90826113b0565b5061110b600382846113bc565b5060405181906001600160a01b038416906000907fddf252ad1be2c89b69c2b068fc378daa952ba7f163c4a11628f55a4df523b3ef908290a45050565b80546001019055565b6111596107a0565b156111765760405162461bcd60e51b815260040161051a906120ad565b600b805460ff191660011790557f62e78cea01bee320cd4e420270b5ea74000d11b0c9f74754ebdbfc544b05a258610f70610c13565b600061069f836001600160a01b038416611533565b6111cc848484610d2d565b6111d88484848461154b565b6109e15760405162461bcd60e51b815260040161051a90611e7f565b606081611235575060408051808201909152600181527f3000000000000000000000000000000000000000000000000000000000000000602082015261045c565b8160005b811561125f578061124981612597565b91506112589050600a83612505565b9150611239565b60008167ffffffffffffffff81111561128857634e487b7160e01b600052604160045260246000fd5b6040519080825280601f01601f1916602001820160405280156112b2576020820181803683370190505b5090505b8415610d25576112c7600183612519565b91506112d4600a866125b2565b6112df9060306124ed565b60f81b81838151811061130257634e487b7160e01b600052603260045260246000fd5b60200101907effffffffffffffffffffffffffffffffffffffffffffffffffffffffffffff1916908160001a90535061133c600a86612505565b94506112b6565b600061134f8383611533565b611385575081546001818101845560008481526020808220909301849055845484825282860190935260409020919091556106a2565b5060006106a2565b600061069f8383611533565b6105d2838383611697565b600061069f83836116c7565b600061069f8383611343565b600061107684846001600160a01b0385166117e4565b815460009082106113f55760405162461bcd60e51b815260040161051a90611d4c565b82600001828154811061141857634e487b7160e01b600052603260045260246000fd5b9060005260206000200154905092915050565b600061069f836001600160a01b0384166116c7565b600061069f8383611893565b8154600090819083106114715760405162461bcd60e51b815260040161051a9061219e565b600084600001848154811061149657634e487b7160e01b600052603260045260246000fd5b906000526020600020906002020190508060000154816001015492509250509250929050565b600082815260018401602052604081205482816114ec5760405162461bcd60e51b815260040161051a9190611d39565b50846114f9600183612519565b8154811061151757634e487b7160e01b600052603260045260246000fd5b9060005260206000209060020201600101549150509392505050565b60009081526001919091016020526040902054151590565b600061155f846001600160a01b03166119c4565b1561168c57836001600160a01b031663150b7a0261157b610c13565b8786866040518563ffffffff1660e01b815260040161159d9493929190611ce9565b602060405180830381600087803b1580156115b757600080fd5b505af19250505080156115e7575060408051601f3d908101601f191682019092526115e491810190611c5e565b60015b611641573d808015611615576040519150601f19603f3d011682016040523d82523d6000602084013e61161a565b606091505b5080516116395760405162461bcd60e51b815260040161051a90611e7f565b805181602001fd5b7fffffffff00000000000000000000000000000000000000000000000000000000167f150b7a0200000000000000000000000000000000000000000000000000000000149050610d25565b506001949350505050565b6116a28383836105d2565b6116aa6107a0565b156105d25760405162461bcd60e51b815260040161051a90611d8e565b600081815260018301602052604081205480156117da5760006116eb600183612519565b85549091506000906116ff90600190612519565b9050600086600001828154811061172657634e487b7160e01b600052603260045260246000fd5b906000526020600020015490508087600001848154811061175757634e487b7160e01b600052603260045260246000fd5b60009182526020909120015561176e8360016124ed565b6000828152600189016020526040902055865487908061179e57634e487b7160e01b600052603160045260246000fd5b600190038181906000526020600020016000905590558660010160008781526020019081526020016000206000905560019450505050506106a2565b60009150506106a2565b600082815260018401602052604081205480611849575050604080518082018252838152602080820184815286546001818101895560008981528481209551600290930290950191825591519082015586548684528188019092529290912055611079565b8285611856600184612519565b8154811061187457634e487b7160e01b600052603260045260246000fd5b9060005260206000209060020201600101819055506000915050611079565b600081815260018301602052604081205480156117da5760006118b7600183612519565b85549091506000906118cb90600190612519565b905060008660000182815481106118f257634e487b7160e01b600052603260045260246000fd5b906000526020600020906002020190508087600001848154811061192657634e487b7160e01b600052603260045260246000fd5b600091825260209091208254600290920201908155600191820154908201556119509084906124ed565b81546000908152600189016020526040902055865487908061198257634e487b7160e01b600052603160045260246000fd5b60008281526020808220600260001990940193840201828155600190810183905592909355888152898201909252604082209190915594506106a29350505050565b3b151590565b5080546119d69061255c565b6000825580601f106119e85750610787565b601f01602090049060005260206000209081019061078791905b80821115611a165760008155600101611a02565b5090565b80356001600160a01b038116811461045c57600080fd5b600060208284031215611a42578081fd5b61069f82611a1a565b60008060408385031215611a5d578081fd5b611a6683611a1a565b9150611a7460208401611a1a565b90509250929050565b600080600060608486031215611a91578081fd5b611a9a84611a1a565b9250611aa860208501611a1a565b9150604084013590509250925092565b60008060008060808587031215611acd578081fd5b611ad685611a1a565b93506020611ae5818701611a1a565b935060408601359250606086013567ffffffffffffffff80821115611b08578384fd5b818801915088601f830112611b1b578384fd5b813581811115611b2d57611b2d6125f2565b604051601f8201601f1916810185018381118282101715611b5057611b506125f2565b60405281815283820185018b1015611b66578586fd5b81858501868301379081019093019390935250939692955090935050565b60008060408385031215611b96578182fd5b611b9f83611a1a565b915060208301358015158114611bb3578182fd5b809150509250929050565b60008060408385031215611bd0578182fd5b611bd983611a1a565b946020939093013593505050565b600060208284031215611bf8578081fd5b5035919050565b60008060408385031215611c11578182fd5b82359150611a7460208401611a1a565b60008060408385031215611c33578182fd5b50508035926020909101359150565b600060208284031215611c53578081fd5b813561107981612608565b600060208284031215611c6f578081fd5b815161107981612608565b60008151808452611c92816020860160208601612530565b601f01601f19169290920160200192915050565b60008351611cb8818460208801612530565b835190830190611ccc818360208801612530565b01949350505050565b6001600160a01b0391909116815260200190565b60006001600160a01b03808716835280861660208401525083604083015260806060830152611d1b6080830184611c7a565b9695505050505050565b901515815260200190565b90815260200190565b60006020825261069f6020830184611c7a565b60208082526022908201527f456e756d657261626c655365743a20696e646578206f7574206f6620626f756e604082015261647360f01b606082015260800190565b6020808252602b908201527f4552433732315061757361626c653a20746f6b656e207472616e73666572207760408201527f68696c6520706175736564000000000000000000000000000000000000000000606082015260800190565b6020808252602f908201527f416363657373436f6e74726f6c3a2073656e646572206d75737420626520616e60408201527f2061646d696e20746f206772616e740000000000000000000000000000000000606082015260800190565b60208082526014908201527f5061757361626c653a206e6f7420706175736564000000000000000000000000604082015260600190565b60208082526032908201527f4552433732313a207472616e7366657220746f206e6f6e20455243373231526560408201527f63656976657220696d706c656d656e7465720000000000000000000000000000606082015260800190565b6020808252601c908201527f4552433732313a20746f6b656e20616c7265616479206d696e74656400000000604082015260600190565b6020808252603e908201527f4552433732315072657365744d696e7465725061757365724175746f49643a2060408201527f6d75737420686176652070617573657220726f6c6520746f2070617573650000606082015260800190565b60208082526024908201527f4552433732313a207472616e7366657220746f20746865207a65726f2061646460408201527f7265737300000000000000000000000000000000000000000000000000000000606082015260800190565b60208082526019908201527f4552433732313a20617070726f766520746f2063616c6c657200000000000000604082015260600190565b6020808252602c908201527f4552433732313a206f70657261746f7220717565727920666f72206e6f6e657860408201526b34b9ba32b73a103a37b5b2b760a11b606082015260800190565b60208082526030908201527f416363657373436f6e74726f6c3a2073656e646572206d75737420626520616e60408201527f2061646d696e20746f207265766f6b6500000000000000000000000000000000606082015260800190565b60208082526010908201527f5061757361626c653a2070617573656400000000000000000000000000000000604082015260600190565b60208082526038908201527f4552433732313a20617070726f76652063616c6c6572206973206e6f74206f7760408201527f6e6572206e6f7220617070726f76656420666f7220616c6c0000000000000000606082015260800190565b6020808252602a908201527f4552433732313a2062616c616e636520717565727920666f7220746865207a6560408201527f726f206164647265737300000000000000000000000000000000000000000000606082015260800190565b60208082526022908201527f456e756d657261626c654d61703a20696e646578206f7574206f6620626f756e604082015261647360f01b606082015260800190565b6020808252818101527f4552433732313a206d696e7420746f20746865207a65726f2061646472657373604082015260600190565b6020808252602c908201527f4552433732313a20617070726f76656420717565727920666f72206e6f6e657860408201526b34b9ba32b73a103a37b5b2b760a11b606082015260800190565b60208082526029908201527f4552433732313a207472616e73666572206f6620746f6b656e2074686174206960408201527f73206e6f74206f776e0000000000000000000000000000000000000000000000606082015260800190565b6020808252602f908201527f4552433732314d657461646174613a2055524920717565727920666f72206e6f60408201527f6e6578697374656e7420746f6b656e0000000000000000000000000000000000606082015260800190565b60208082526021908201527f4552433732313a20617070726f76616c20746f2063757272656e74206f776e6560408201527f7200000000000000000000000000000000000000000000000000000000000000606082015260800190565b60208082526031908201527f4552433732313a207472616e736665722063616c6c6572206973206e6f74206f60408201527f776e6572206e6f7220617070726f766564000000000000000000000000000000606082015260800190565b60208082526030908201527f4552433732314275726e61626c653a2063616c6c6572206973206e6f74206f7760408201527f6e6572206e6f7220617070726f76656400000000000000000000000000000000606082015260800190565b602080825260409082018190527f4552433732315072657365744d696e7465725061757365724175746f49643a20908201527f6d75737420686176652070617573657220726f6c6520746f20756e7061757365606082015260800190565b6020808252602f908201527f416363657373436f6e74726f6c3a2063616e206f6e6c792072656e6f756e636560408201527f20726f6c657320666f722073656c660000000000000000000000000000000000606082015260800190565b60008219821115612500576125006125c6565b500190565b600082612514576125146125dc565b500490565b60008282101561252b5761252b6125c6565b500390565b60005b8381101561254b578181015183820152602001612533565b838111156109e15750506000910152565b60028104600182168061257057607f821691505b6020821081141561259157634e487b7160e01b600052602260045260246000fd5b50919050565b60006000198214156125ab576125ab6125c6565b5060010190565b6000826125c1576125c16125dc565b500690565b634e487b7160e01b600052601160045260246000fd5b634e487b7160e01b600052601260045260246000fd5b634e487b7160e01b600052604160045260246000fd5b7fffffffff000000000000000000000000000000000000000000000000000000008116811461078757600080fdfe4552433732313a206f776e657220717565727920666f72206e6f6e6578697374656e7420746f6b656ea26469706673582212205ce888768c5147f6c974ce0af6560ea29e06cc612a227a2a41537e25e5baaed464736f6c63430008000033",
  "linkReferences": {},
  "deployedLinkReferences": {}
}