{
  "_format": "hh-sol-artifact-1",
  "contractName": "GSNRecipientMock",
  "sourceName": "contracts/OpenZeppelin/mocks/GSNRecipientMock.sol",
  "abi": [
    {
      "anonymous": false,
      "inputs": [
        {
          "indexed": false,
          "internalType": "bytes",
          "name": "data",
          "type": "bytes"
        },
        {
          "indexed": false,
          "internalType": "uint256",
          "name": "integerValue",
          "type": "uint256"
        },
        {
          "indexed": false,
          "internalType": "string",
          "name": "stringValue",
          "type": "string"
        }
      ],
      "name": "Data",
      "type": "event"
    },
    {
      "anonymous": false,
      "inputs": [
        {
          "indexed": true,
          "internalType": "address",
          "name": "oldRelayHub",
          "type": "address"
        },
        {
          "indexed": true,
          "internalType": "address",
          "name": "newRelayHub",
          "type": "address"
        }
      ],
      "name": "RelayHubChanged",
      "type": "event"
    },
    {
      "anonymous": false,
      "inputs": [
        {
          "indexed": false,
          "internalType": "address",
          "name": "sender",
          "type": "address"
        }
      ],
      "name": "Sender",
      "type": "event"
    },
    {
      "inputs": [
        {
          "internalType": "address",
          "name": "",
          "type": "address"
        },
        {
          "internalType": "address",
          "name": "",
          "type": "address"
        },
        {
          "internalType": "bytes",
          "name": "",
          "type": "bytes"
        },
        {
          "internalType": "uint256",
          "name": "",
          "type": "uint256"
        },
        {
          "internalType": "uint256",
          "name": "",
          "type": "uint256"
        },
        {
          "internalType": "uint256",
          "name": "",
          "type": "uint256"
        },
        {
          "internalType": "uint256",
          "name": "",
          "type": "uint256"
        },
        {
          "internalType": "bytes",
          "name": "",
          "type": "bytes"
        },
        {
          "internalType": "uint256",
          "name": "",
          "type": "uint256"
        }
      ],
      "name": "acceptRelayedCall",
      "outputs": [
        {
          "internalType": "uint256",
          "name": "",
          "type": "uint256"
        },
        {
          "internalType": "bytes",
          "name": "",
          "type": "bytes"
        }
      ],
      "stateMutability": "pure",
      "type": "function"
    },
    {
      "inputs": [],
      "name": "getHubAddr",
      "outputs": [
        {
          "internalType": "address",
          "name": "",
          "type": "address"
        }
      ],
      "stateMutability": "view",
      "type": "function"
    },
    {
      "inputs": [
        {
          "internalType": "uint256",
          "name": "integerValue",
          "type": "uint256"
        },
        {
          "internalType": "string",
          "name": "stringValue",
          "type": "string"
        }
      ],
      "name": "msgData",
      "outputs": [],
      "stateMutability": "nonpayable",
      "type": "function"
    },
    {
      "inputs": [],
      "name": "msgSender",
      "outputs": [],
      "stateMutability": "nonpayable",
      "type": "function"
    },
    {
      "inputs": [
        {
          "internalType": "bytes",
          "name": "context",
          "type": "bytes"
        },
        {
          "internalType": "bool",
          "name": "success",
          "type": "bool"
        },
        {
          "internalType": "uint256",
          "name": "actualCharge",
          "type": "uint256"
        },
        {
          "internalType": "bytes32",
          "name": "preRetVal",
          "type": "bytes32"
        }
      ],
      "name": "postRelayedCall",
      "outputs": [],
      "stateMutability": "nonpayable",
      "type": "function"
    },
    {
      "inputs": [
        {
          "internalType": "bytes",
          "name": "context",
          "type": "bytes"
        }
      ],
      "name": "preRelayedCall",
      "outputs": [
        {
          "internalType": "bytes32",
          "name": "",
          "type": "bytes32"
        }
      ],
      "stateMutability": "nonpayable",
      "type": "function"
    },
    {
      "inputs": [],
      "name": "relayHubVersion",
      "outputs": [
        {
          "internalType": "string",
          "name": "",
          "type": "string"
        }
      ],
      "stateMutability": "view",
      "type": "function"
    },
    {
      "inputs": [
        {
          "internalType": "address",
          "name": "newRelayHub",
          "type": "address"
        }
      ],
      "name": "upgradeRelayHub",
      "outputs": [],
      "stateMutability": "nonpayable",
      "type": "function"
    },
    {
      "inputs": [
        {
          "internalType": "uint256",
          "name": "amount",
          "type": "uint256"
        },
        {
          "internalType": "address payable",
          "name": "payee",
          "type": "address"
        }
      ],
      "name": "withdrawDeposits",
      "outputs": [],
      "stateMutability": "nonpayable",
      "type": "function"
    }
  ],
  "bytecode": "0x6080604052600080546001600160a01b03191673d216153c06e857cd7f72665e0af1d7d82172f49417905534801561003657600080fd5b50610aaf806100466000396000f3fe608060405234801561001057600080fd5b50600436106100a35760003560e01c80639e30a59011610076578063c2db1abe1161005b578063c2db1abe14610144578063d737d0c714610157578063e06e0e221461015f576100a3565b80639e30a5901461011c578063ad61ccd51461012f576100a3565b8063376bf262146100a857806374e861d6146100bd57806380274db7146100db57806383947ea0146100fb575b600080fd5b6100bb6100b636600461079b565b610172565b005b6100c56101b9565b6040516100d2919061083e565b60405180910390f35b6100ee6100e93660046106d0565b6101c9565b6040516100d29190610852565b61010e610109366004610606565b61021b565b6040516100d29291906109ea565b6100bb61012a3660046105ea565b61023c565b610137610248565b6040516100d291906108a9565b6100bb61015236600461076c565b61027f565b6100bb61028d565b6100bb61016d36600461070b565b6102cd565b7faf235354a0a47c91ee171961326335cb2d1a8e55b8a89859b0e61eb049e50ea061019b610313565b84846040516101ad949392919061085b565b60405180910390a15050565b6000546001600160a01b03165b90565b60006101d36101b9565b6001600160a01b0316336001600160a01b03161461020c5760405162461bcd60e51b815260040161020390610976565b60405180910390fd5b61021582610327565b92915050565b60408051602081019091526000808252909b509b9950505050505050505050565b6102458161032d565b50565b60408051808201909152600581527f312e302e30000000000000000000000000000000000000000000000000000000602082015290565b6102898282610407565b5050565b7fd6558c3ed910d959271054471fd1c326679d9fece99c5091b00ed89627cf2bfc6102b6610471565b6040516102c3919061083e565b60405180910390a1565b6102d56101b9565b6001600160a01b0316336001600160a01b0316146103055760405162461bcd60e51b815260040161020390610976565b61030d848484845b50505050565b36600061031e610480565b915091505b9091565b50600090565b6000546001600160a01b0390811690821661035a5760405162461bcd60e51b8152600401610203906108bc565b806001600160a01b0316826001600160a01b0316141561038c5760405162461bcd60e51b815260040161020390610919565b816001600160a01b0316816001600160a01b03167fb9f84b8e65164b14439ae3620df0a4d8786d896996c0282b683f9d8c08f046e860405160405180910390a350600080547fffffffffffffffffffffffff0000000000000000000000000000000000000000166001600160a01b0392909216919091179055565b61040f6101b9565b6001600160a01b031662f714ce83836040518363ffffffff1660e01b815260040161043b9291906109d3565b600060405180830381600087803b15801561045557600080fd5b505af1158015610469573d6000803e3d6000fd5b505050505050565b600061047b6104d4565b905090565b36600061048b6101b9565b6001600160a01b0316336001600160a01b031614156104c957600080366104b3601482610a2b565b926104c093929190610a03565b91509150610323565b506000905036610323565b60006104de6101b9565b6001600160a01b0316336001600160a01b03161415610506575060131936013560601c6101c6565b50336101c6565b600067ffffffffffffffff8084111561052857610528610a4e565b604051601f8501601f19168101602001828111828210171561054c5761054c610a4e565b60405284815291508183850186101561056457600080fd5b8484602083013760006020868301015250509392505050565b60008083601f84011261058e578182fd5b50813567ffffffffffffffff8111156105a5578182fd5b6020830191508360208285010111156105bd57600080fd5b9250929050565b600082601f8301126105d4578081fd5b6105e38383356020850161050d565b9392505050565b6000602082840312156105fb578081fd5b81356105e381610a64565b60008060008060008060008060008060006101208c8e031215610627578687fd5b6106318c35610a64565b8b359a5060208c013561064381610a64565b995067ffffffffffffffff60408d013581101561065e578788fd5b61066e8e60408f01358f0161057d565b909a50985060608d0135975060808d0135965060a08d0135955060c08d0135945060e08d013581101561069f578384fd5b506106b08d60e08e01358e0161057d565b81945080935050506101008c013590509295989b509295989b9093969950565b6000602082840312156106e1578081fd5b813567ffffffffffffffff8111156106f7578182fd5b610703848285016105c4565b949350505050565b60008060008060808587031215610720578384fd5b843567ffffffffffffffff811115610736578485fd5b610742878288016105c4565b94505060208501358015158114610757578384fd5b93969395505050506040820135916060013590565b6000806040838503121561077e578182fd5b82359150602083013561079081610a64565b809150509250929050565b600080604083850312156107ad578182fd5b82359150602083013567ffffffffffffffff8111156107ca578182fd5b8301601f810185136107da578182fd5b6107e98582356020840161050d565b9150509250929050565b60008151808452815b81811015610818576020818501810151868301820152016107fc565b818111156108295782602083870101525b50601f01601f19169290920160200192915050565b6001600160a01b0391909116815260200190565b90815260200190565b600060608252846060830152848660808401378060808684010152601f19601f8601168201846020840152608083820301604084015261089e60808201856107f3565b979650505050505050565b6000602082526105e360208301846107f3565b6020808252602e908201527f47534e526563697069656e743a206e65772052656c617948756220697320746860408201527f65207a65726f2061646472657373000000000000000000000000000000000000606082015260800190565b6020808252602d908201527f47534e526563697069656e743a206e65772052656c617948756220697320746860408201527f652063757272656e74206f6e6500000000000000000000000000000000000000606082015260800190565b60208082526024908201527f47534e526563697069656e743a2063616c6c6572206973206e6f742052656c6160408201527f7948756200000000000000000000000000000000000000000000000000000000606082015260800190565b9182526001600160a01b0316602082015260400190565b60008382526040602083015261070360408301846107f3565b60008085851115610a12578182fd5b83861115610a1e578182fd5b5050820193919092039150565b600082821015610a4957634e487b7160e01b81526011600452602481fd5b500390565b634e487b7160e01b600052604160045260246000fd5b6001600160a01b038116811461024557600080fdfea2646970667358221220473b540e481b0cf6e326025af09592db4a5e6595b2baeb8472b15aa5aacf2a5664736f6c63430008000033",
  "linkReferences": {},
  "deployedLinkReferences": {}
}