{
  "_format": "hh-sol-artifact-1",
  "contractName": "TimelockController",
  "sourceName": "contracts/OpenZeppelin/access/TimelockController.sol",
  "abi": [
    {
      "inputs": [
        {
          "internalType": "uint256",
          "name": "minDelay",
          "type": "uint256"
        },
        {
          "internalType": "address[]",
          "name": "proposers",
          "type": "address[]"
        },
        {
          "internalType": "address[]",
          "name": "executors",
          "type": "address[]"
        }
      ],
      "stateMutability": "nonpayable",
      "type": "constructor"
    },
    {
      "anonymous": false,
      "inputs": [
        {
          "indexed": true,
          "internalType": "bytes32",
          "name": "id",
          "type": "bytes32"
        },
        {
          "indexed": true,
          "internalType": "uint256",
          "name": "index",
          "type": "uint256"
        },
        {
          "indexed": false,
          "internalType": "address",
          "name": "target",
          "type": "address"
        },
        {
          "indexed": false,
          "internalType": "uint256",
          "name": "value",
          "type": "uint256"
        },
        {
          "indexed": false,
          "internalType": "bytes",
          "name": "data",
          "type": "bytes"
        }
      ],
      "name": "CallExecuted",
      "type": "event"
    },
    {
      "anonymous": false,
      "inputs": [
        {
          "indexed": true,
          "internalType": "bytes32",
          "name": "id",
          "type": "bytes32"
        },
        {
          "indexed": true,
          "internalType": "uint256",
          "name": "index",
          "type": "uint256"
        },
        {
          "indexed": false,
          "internalType": "address",
          "name": "target",
          "type": "address"
        },
        {
          "indexed": false,
          "internalType": "uint256",
          "name": "value",
          "type": "uint256"
        },
        {
          "indexed": false,
          "internalType": "bytes",
          "name": "data",
          "type": "bytes"
        },
        {
          "indexed": false,
          "internalType": "bytes32",
          "name": "predecessor",
          "type": "bytes32"
        },
        {
          "indexed": false,
          "internalType": "uint256",
          "name": "delay",
          "type": "uint256"
        }
      ],
      "name": "CallScheduled",
      "type": "event"
    },
    {
      "anonymous": false,
      "inputs": [
        {
          "indexed": true,
          "internalType": "bytes32",
          "name": "id",
          "type": "bytes32"
        }
      ],
      "name": "Cancelled",
      "type": "event"
    },
    {
      "anonymous": false,
      "inputs": [
        {
          "indexed": false,
          "internalType": "uint256",
          "name": "oldDuration",
          "type": "uint256"
        },
        {
          "indexed": false,
          "internalType": "uint256",
          "name": "newDuration",
          "type": "uint256"
        }
      ],
      "name": "MinDelayChange",
      "type": "event"
    },
    {
      "anonymous": false,
      "inputs": [
        {
          "indexed": true,
          "internalType": "bytes32",
          "name": "role",
          "type": "bytes32"
        },
        {
          "indexed": true,
          "internalType": "bytes32",
          "name": "previousAdminRole",
          "type": "bytes32"
        },
        {
          "indexed": true,
          "internalType": "bytes32",
          "name": "newAdminRole",
          "type": "bytes32"
        }
      ],
      "name": "RoleAdminChanged",
      "type": "event"
    },
    {
      "anonymous": false,
      "inputs": [
        {
          "indexed": true,
          "internalType": "bytes32",
          "name": "role",
          "type": "bytes32"
        },
        {
          "indexed": true,
          "internalType": "address",
          "name": "account",
          "type": "address"
        },
        {
          "indexed": true,
          "internalType": "address",
          "name": "sender",
          "type": "address"
        }
      ],
      "name": "RoleGranted",
      "type": "event"
    },
    {
      "anonymous": false,
      "inputs": [
        {
          "indexed": true,
          "internalType": "bytes32",
          "name": "role",
          "type": "bytes32"
        },
        {
          "indexed": true,
          "internalType": "address",
          "name": "account",
          "type": "address"
        },
        {
          "indexed": true,
          "internalType": "address",
          "name": "sender",
          "type": "address"
        }
      ],
      "name": "RoleRevoked",
      "type": "event"
    },
    {
      "inputs": [],
      "name": "DEFAULT_ADMIN_ROLE",
      "outputs": [
        {
          "internalType": "bytes32",
          "name": "",
          "type": "bytes32"
        }
      ],
      "stateMutability": "view",
      "type": "function"
    },
    {
      "inputs": [],
      "name": "EXECUTOR_ROLE",
      "outputs": [
        {
          "internalType": "bytes32",
          "name": "",
          "type": "bytes32"
        }
      ],
      "stateMutability": "view",
      "type": "function"
    },
    {
      "inputs": [],
      "name": "PROPOSER_ROLE",
      "outputs": [
        {
          "internalType": "bytes32",
          "name": "",
          "type": "bytes32"
        }
      ],
      "stateMutability": "view",
      "type": "function"
    },
    {
      "inputs": [],
      "name": "TIMELOCK_ADMIN_ROLE",
      "outputs": [
        {
          "internalType": "bytes32",
          "name": "",
          "type": "bytes32"
        }
      ],
      "stateMutability": "view",
      "type": "function"
    },
    {
      "inputs": [
        {
          "internalType": "bytes32",
          "name": "id",
          "type": "bytes32"
        }
      ],
      "name": "cancel",
      "outputs": [],
      "stateMutability": "nonpayable",
      "type": "function"
    },
    {
      "inputs": [
        {
          "internalType": "address",
          "name": "target",
          "type": "address"
        },
        {
          "internalType": "uint256",
          "name": "value",
          "type": "uint256"
        },
        {
          "internalType": "bytes",
          "name": "data",
          "type": "bytes"
        },
        {
          "internalType": "bytes32",
          "name": "predecessor",
          "type": "bytes32"
        },
        {
          "internalType": "bytes32",
          "name": "salt",
          "type": "bytes32"
        }
      ],
      "name": "execute",
      "outputs": [],
      "stateMutability": "payable",
      "type": "function"
    },
    {
      "inputs": [
        {
          "internalType": "address[]",
          "name": "targets",
          "type": "address[]"
        },
        {
          "internalType": "uint256[]",
          "name": "values",
          "type": "uint256[]"
        },
        {
          "internalType": "bytes[]",
          "name": "datas",
          "type": "bytes[]"
        },
        {
          "internalType": "bytes32",
          "name": "predecessor",
          "type": "bytes32"
        },
        {
          "internalType": "bytes32",
          "name": "salt",
          "type": "bytes32"
        }
      ],
      "name": "executeBatch",
      "outputs": [],
      "stateMutability": "payable",
      "type": "function"
    },
    {
      "inputs": [],
      "name": "getMinDelay",
      "outputs": [
        {
          "internalType": "uint256",
          "name": "duration",
          "type": "uint256"
        }
      ],
      "stateMutability": "view",
      "type": "function"
    },
    {
      "inputs": [
        {
          "internalType": "bytes32",
          "name": "role",
          "type": "bytes32"
        }
      ],
      "name": "getRoleAdmin",
      "outputs": [
        {
          "internalType": "bytes32",
          "name": "",
          "type": "bytes32"
        }
      ],
      "stateMutability": "view",
      "type": "function"
    },
    {
      "inputs": [
        {
          "internalType": "bytes32",
          "name": "role",
          "type": "bytes32"
        },
        {
          "internalType": "uint256",
          "name": "index",
          "type": "uint256"
        }
      ],
      "name": "getRoleMember",
      "outputs": [
        {
          "internalType": "address",
          "name": "",
          "type": "address"
        }
      ],
      "stateMutability": "view",
      "type": "function"
    },
    {
      "inputs": [
        {
          "internalType": "bytes32",
          "name": "role",
          "type": "bytes32"
        }
      ],
      "name": "getRoleMemberCount",
      "outputs": [
        {
          "internalType": "uint256",
          "name": "",
          "type": "uint256"
        }
      ],
      "stateMutability": "view",
      "type": "function"
    },
    {
      "inputs": [
        {
          "internalType": "bytes32",
          "name": "id",
          "type": "bytes32"
        }
      ],
      "name": "getTimestamp",
      "outputs": [
        {
          "internalType": "uint256",
          "name": "timestamp",
          "type": "uint256"
        }
      ],
      "stateMutability": "view",
      "type": "function"
    },
    {
      "inputs": [
        {
          "internalType": "bytes32",
          "name": "role",
          "type": "bytes32"
        },
        {
          "internalType": "address",
          "name": "account",
          "type": "address"
        }
      ],
      "name": "grantRole",
      "outputs": [],
      "stateMutability": "nonpayable",
      "type": "function"
    },
    {
      "inputs": [
        {
          "internalType": "bytes32",
          "name": "role",
          "type": "bytes32"
        },
        {
          "internalType": "address",
          "name": "account",
          "type": "address"
        }
      ],
      "name": "hasRole",
      "outputs": [
        {
          "internalType": "bool",
          "name": "",
          "type": "bool"
        }
      ],
      "stateMutability": "view",
      "type": "function"
    },
    {
      "inputs": [
        {
          "internalType": "address",
          "name": "target",
          "type": "address"
        },
        {
          "internalType": "uint256",
          "name": "value",
          "type": "uint256"
        },
        {
          "internalType": "bytes",
          "name": "data",
          "type": "bytes"
        },
        {
          "internalType": "bytes32",
          "name": "predecessor",
          "type": "bytes32"
        },
        {
          "internalType": "bytes32",
          "name": "salt",
          "type": "bytes32"
        }
      ],
      "name": "hashOperation",
      "outputs": [
        {
          "internalType": "bytes32",
          "name": "hash",
          "type": "bytes32"
        }
      ],
      "stateMutability": "pure",
      "type": "function"
    },
    {
      "inputs": [
        {
          "internalType": "address[]",
          "name": "targets",
          "type": "address[]"
        },
        {
          "internalType": "uint256[]",
          "name": "values",
          "type": "uint256[]"
        },
        {
          "internalType": "bytes[]",
          "name": "datas",
          "type": "bytes[]"
        },
        {
          "internalType": "bytes32",
          "name": "predecessor",
          "type": "bytes32"
        },
        {
          "internalType": "bytes32",
          "name": "salt",
          "type": "bytes32"
        }
      ],
      "name": "hashOperationBatch",
      "outputs": [
        {
          "internalType": "bytes32",
          "name": "hash",
          "type": "bytes32"
        }
      ],
      "stateMutability": "pure",
      "type": "function"
    },
    {
      "inputs": [
        {
          "internalType": "bytes32",
          "name": "id",
          "type": "bytes32"
        }
      ],
      "name": "isOperation",
      "outputs": [
        {
          "internalType": "bool",
          "name": "pending",
          "type": "bool"
        }
      ],
      "stateMutability": "view",
      "type": "function"
    },
    {
      "inputs": [
        {
          "internalType": "bytes32",
          "name": "id",
          "type": "bytes32"
        }
      ],
      "name": "isOperationDone",
      "outputs": [
        {
          "internalType": "bool",
          "name": "done",
          "type": "bool"
        }
      ],
      "stateMutability": "view",
      "type": "function"
    },
    {
      "inputs": [
        {
          "internalType": "bytes32",
          "name": "id",
          "type": "bytes32"
        }
      ],
      "name": "isOperationPending",
      "outputs": [
        {
          "internalType": "bool",
          "name": "pending",
          "type": "bool"
        }
      ],
      "stateMutability": "view",
      "type": "function"
    },
    {
      "inputs": [
        {
          "internalType": "bytes32",
          "name": "id",
          "type": "bytes32"
        }
      ],
      "name": "isOperationReady",
      "outputs": [
        {
          "internalType": "bool",
          "name": "ready",
          "type": "bool"
        }
      ],
      "stateMutability": "view",
      "type": "function"
    },
    {
      "inputs": [
        {
          "internalType": "bytes32",
          "name": "role",
          "type": "bytes32"
        },
        {
          "internalType": "address",
          "name": "account",
          "type": "address"
        }
      ],
      "name": "renounceRole",
      "outputs": [],
      "stateMutability": "nonpayable",
      "type": "function"
    },
    {
      "inputs": [
        {
          "internalType": "bytes32",
          "name": "role",
          "type": "bytes32"
        },
        {
          "internalType": "address",
          "name": "account",
          "type": "address"
        }
      ],
      "name": "revokeRole",
      "outputs": [],
      "stateMutability": "nonpayable",
      "type": "function"
    },
    {
      "inputs": [
        {
          "internalType": "address",
          "name": "target",
          "type": "address"
        },
        {
          "internalType": "uint256",
          "name": "value",
          "type": "uint256"
        },
        {
          "internalType": "bytes",
          "name": "data",
          "type": "bytes"
        },
        {
          "internalType": "bytes32",
          "name": "predecessor",
          "type": "bytes32"
        },
        {
          "internalType": "bytes32",
          "name": "salt",
          "type": "bytes32"
        },
        {
          "internalType": "uint256",
          "name": "delay",
          "type": "uint256"
        }
      ],
      "name": "schedule",
      "outputs": [],
      "stateMutability": "nonpayable",
      "type": "function"
    },
    {
      "inputs": [
        {
          "internalType": "address[]",
          "name": "targets",
          "type": "address[]"
        },
        {
          "internalType": "uint256[]",
          "name": "values",
          "type": "uint256[]"
        },
        {
          "internalType": "bytes[]",
          "name": "datas",
          "type": "bytes[]"
        },
        {
          "internalType": "bytes32",
          "name": "predecessor",
          "type": "bytes32"
        },
        {
          "internalType": "bytes32",
          "name": "salt",
          "type": "bytes32"
        },
        {
          "internalType": "uint256",
          "name": "delay",
          "type": "uint256"
        }
      ],
      "name": "scheduleBatch",
      "outputs": [],
      "stateMutability": "nonpayable",
      "type": "function"
    },
    {
      "inputs": [
        {
          "internalType": "uint256",
          "name": "newDelay",
          "type": "uint256"
        }
      ],
      "name": "updateDelay",
      "outputs": [],
      "stateMutability": "nonpayable",
      "type": "function"
    },
    {
      "stateMutability": "payable",
      "type": "receive"
    }
  ],
  "bytecode": "0x60806040523480156200001157600080fd5b50604051620021d8380380620021d883398101604081905262000034916200041a565b6200004f6000805160206200217883398151915280620001ed565b620000796000805160206200219883398151915260008051602062002178833981519152620001ed565b620000a3600080516020620021b883398151915260008051602062002178833981519152620001ed565b620000c760008051602062002178833981519152620000c16200023f565b62000243565b620000e2600080516020620021788339815191523062000243565b60005b82518110156200014b5762000138600080516020620021988339815191528483815181106200012457634e487b7160e01b600052603260045260246000fd5b60200260200101516200024360201b60201c565b620001438162000499565b9050620000e5565b5060005b8151811015620001a1576200018e600080516020620021b88339815191528383815181106200012457634e487b7160e01b600052603260045260246000fd5b620001998162000499565b90506200014f565b5060028390556040517f11c24f4ead16507c69ac467fbd5e4eed5fb5c699626d2cc6d66421df253886d590620001dc9060009086906200048b565b60405180910390a1505050620004d7565b600082815260208190526040808220600201549051839285917fbd79b86ffe0ab8e8776151514217cd7cacd52c909f66475c3af44e129f0b00ff9190a460009182526020829052604090912060020155565b3390565b6200024f828262000253565b5050565b6000828152602081815260409091206200027891839062000ce1620002cc821b17901c565b156200024f57620002886200023f565b6001600160a01b0316816001600160a01b0316837f2f8788117e7eff1d82e926ec794901d17c78024a50270940304540a733656f0d60405160405180910390a45050565b6000620002e3836001600160a01b038416620002ec565b90505b92915050565b6000620002fa83836200033b565b6200033257508154600181810184556000848152602080822090930184905584548482528286019093526040902091909155620002e6565b506000620002e6565b60009081526001919091016020526040902054151590565b80516001600160a01b03811681146200036b57600080fd5b919050565b600082601f83011262000381578081fd5b815160206001600160401b0380831115620003a057620003a0620004c1565b81830260405183828201018181108482111715620003c257620003c2620004c1565b60405284815283810192508684018288018501891015620003e1578687fd5b8692505b858310156200040e57620003f98162000353565b845292840192600192909201918401620003e5565b50979650505050505050565b6000806000606084860312156200042f578283fd5b835160208501519093506001600160401b03808211156200044e578384fd5b6200045c8783880162000370565b9350604086015191508082111562000472578283fd5b50620004818682870162000370565b9150509250925092565b918252602082015260400190565b6000600019821415620004ba57634e487b7160e01b81526011600452602481fd5b5060010190565b634e487b7160e01b600052604160045260246000fd5b611c9180620004e76000396000f3fe60806040526004361061019a5760003560e01c80638065657f116100e1578063b1c5f4271161008a578063d45c443511610064578063d45c44351461043f578063d547741f1461045f578063e38335e51461047f578063f27a0c9214610492576101a1565b8063b1c5f427146103df578063c4d252f5146103ff578063ca15c8731461041f576101a1565b80639010d07c116100bb5780639010d07c1461037d57806391d14854146103aa578063a217fddf146103ca576101a1565b80638065657f146103285780638f2a0bb0146103485780638f61f4f514610368576101a1565b80632ab0f5291161014357806336568abe1161011d57806336568abe146102c8578063584b153e146102e857806364d6235314610308576101a1565b80632ab0f529146102685780632f2ff15d1461028857806331d50750146102a8576101a1565b8063134008d311610174578063134008d31461020857806313bc9f201461021b578063248a9ca314610248576101a1565b806301d5062a146101a657806307bd0265146101c85780630d3cf6fc146101f3576101a1565b366101a157005b600080fd5b3480156101b257600080fd5b506101c66101c13660046112ab565b6104a7565b005b3480156101d457600080fd5b506101dd610575565b6040516101ea91906116e6565b60405180910390f35b3480156101ff57600080fd5b506101dd610599565b6101c6610216366004611241565b6105bd565b34801561022757600080fd5b5061023b610236366004611471565b610654565b6040516101ea91906116db565b34801561025457600080fd5b506101dd610263366004611471565b61067b565b34801561027457600080fd5b5061023b610283366004611471565b610690565b34801561029457600080fd5b506101c66102a3366004611489565b6106a4565b3480156102b457600080fd5b5061023b6102c3366004611471565b6106ec565b3480156102d457600080fd5b506101c66102e3366004611489565b6106ff565b3480156102f457600080fd5b5061023b610303366004611471565b610741565b34801561031457600080fd5b506101c6610323366004611471565b61074e565b34801561033457600080fd5b506101dd610343366004611241565b6107ad565b34801561035457600080fd5b506101c66103633660046113c3565b6107ec565b34801561037457600080fd5b506101dd610998565b34801561038957600080fd5b5061039d6103983660046114b4565b6109bc565b6040516101ea9190611598565b3480156103b657600080fd5b5061023b6103c5366004611489565b6109dd565b3480156103d657600080fd5b506101dd6109f5565b3480156103eb57600080fd5b506101dd6103fa36600461131e565b6109fa565b34801561040b57600080fd5b506101c661041a366004611471565b610a3f565b34801561042b57600080fd5b506101dd61043a366004611471565b610afa565b34801561044b57600080fd5b506101dd61045a366004611471565b610b11565b34801561046b57600080fd5b506101c661047a366004611489565b610b23565b6101c661048d36600461131e565b610b5d565b34801561049e57600080fd5b506101dd610cdb565b7fb09aa5aeb3702cfd50b6b62bc4532604938f21248a27a1d5ca736082b6819cc16104d4816103c5610cf6565b806104e557506104e58160006109dd565b61050a5760405162461bcd60e51b815260040161050190611863565b60405180910390fd5b600061051a8989898989896107ad565b90506105268184610cfa565b6000817f4cf4410cc57040e44862ef0f45f3dd5a5e02db8eb8add648d4b0e236f1d07dca8b8b8b8b8b8a604051610562969594939291906115df565b60405180910390a3505050505050505050565b7fd8aa0f3194971a2a116679f7c2090f6939c8d4e01a2a8d7e41d55e5351469e6381565b7f5f58e3a2316349923ce3780f8d587db2d72378aed66a8261c916544fa6846ca581565b7fd8aa0f3194971a2a116679f7c2090f6939c8d4e01a2a8d7e41d55e5351469e636105ea816103c5610cf6565b806105fb57506105fb8160006109dd565b6106175760405162461bcd60e51b815260040161050190611863565b60006106278888888888886107ad565b905061063284610d67565b6106418160008a8a8a8a610d97565b61064a81610e5f565b5050505050505050565b60008061066083610b11565b90506001811180156106725750428111155b9150505b919050565b60009081526020819052604090206002015490565b6000600161069d83610b11565b1492915050565b6000828152602081905260409020600201546106c2906103c5610cf6565b6106de5760405162461bcd60e51b8152600401610501906117a9565b6106e88282610e98565b5050565b6000806106f883610b11565b1192915050565b610707610cf6565b6001600160a01b0316816001600160a01b0316146107375760405162461bcd60e51b815260040161050190611aee565b6106e88282610f01565b600060016106f883610b11565b33301461076d5760405162461bcd60e51b815260040161050190611a91565b7f11c24f4ead16507c69ac467fbd5e4eed5fb5c699626d2cc6d66421df253886d5600254826040516107a0929190611ba8565b60405180910390a1600255565b60008686868686866040516020016107ca969594939291906115df565b6040516020818303038152906040528051906020012090509695505050505050565b7fb09aa5aeb3702cfd50b6b62bc4532604938f21248a27a1d5ca736082b6819cc1610819816103c5610cf6565b8061082a575061082a8160006109dd565b6108465760405162461bcd60e51b815260040161050190611863565b8887146108655760405162461bcd60e51b815260040161050190611806565b8885146108845760405162461bcd60e51b815260040161050190611806565b60006108968b8b8b8b8b8b8b8b6109fa565b90506108a28184610cfa565b60005b8a81101561098a5780827f4cf4410cc57040e44862ef0f45f3dd5a5e02db8eb8add648d4b0e236f1d07dca8e8e858181106108f057634e487b7160e01b600052603260045260246000fd5b90506020020160208101906109059190611227565b8d8d8681811061092557634e487b7160e01b600052603260045260246000fd5b905060200201358c8c8781811061094c57634e487b7160e01b600052603260045260246000fd5b905060200281019061095e9190611bb6565b8c8b604051610972969594939291906115df565b60405180910390a361098381611c2a565b90506108a5565b505050505050505050505050565b7fb09aa5aeb3702cfd50b6b62bc4532604938f21248a27a1d5ca736082b6819cc181565b60008281526020819052604081206109d49083610f6a565b90505b92915050565b60008281526020819052604081206109d49083610f76565b600081565b60008888888888888888604051602001610a1b98979695949392919061161d565b60405160208183030381529060405280519060200120905098975050505050505050565b7fb09aa5aeb3702cfd50b6b62bc4532604938f21248a27a1d5ca736082b6819cc1610a6c816103c5610cf6565b80610a7d5750610a7d8160006109dd565b610a995760405162461bcd60e51b815260040161050190611863565b610aa282610741565b610abe5760405162461bcd60e51b815260040161050190611a34565b6000828152600160205260408082208290555183917fbaa1eb22f2a492ba1a5fea61b8df4d27c6c8b5f3971e63bb58fa14ff72eedb7091a25050565b60008181526020819052604081206109d790610f8b565b60009081526001602052604090205490565b600082815260208190526040902060020154610b41906103c5610cf6565b6107375760405162461bcd60e51b8152600401610501906118c0565b7fd8aa0f3194971a2a116679f7c2090f6939c8d4e01a2a8d7e41d55e5351469e63610b8a816103c5610cf6565b80610b9b5750610b9b8160006109dd565b610bb75760405162461bcd60e51b815260040161050190611863565b878614610bd65760405162461bcd60e51b815260040161050190611806565b878414610bf55760405162461bcd60e51b815260040161050190611806565b6000610c078a8a8a8a8a8a8a8a6109fa565b9050610c1284610d67565b60005b89811015610cc557610cb582828d8d85818110610c4257634e487b7160e01b600052603260045260246000fd5b9050602002016020810190610c579190611227565b8c8c86818110610c7757634e487b7160e01b600052603260045260246000fd5b905060200201358b8b87818110610c9e57634e487b7160e01b600052603260045260246000fd5b9050602002810190610cb09190611bb6565b610d97565b610cbe81611c2a565b9050610c15565b50610ccf81610e5f565b50505050505050505050565b60025490565b60006109d4836001600160a01b038416610f96565b3390565b610d03826106ec565b15610d205760405162461bcd60e51b81526004016105019061197a565b610d28610cdb565b811015610d475760405162461bcd60e51b81526004016105019061191d565b610d518142611bfb565b6000928352600160205260409092209190915550565b801580610d785750610d7881610690565b610d945760405162461bcd60e51b81526004016105019061174c565b50565b6000846001600160a01b0316848484604051610db4929190611588565b60006040518083038185875af1925050503d8060008114610df1576040519150601f19603f3d011682016040523d82523d6000602084013e610df6565b606091505b5050905080610e175760405162461bcd60e51b815260040161050190611b4b565b85877fc2617efa69bab66782fa219543714338489c4e9e178271560a91b82c3f612b5887878787604051610e4e94939291906115ac565b60405180910390a350505050505050565b610e6881610654565b610e845760405162461bcd60e51b8152600401610501906119d7565b600090815260016020819052604090912055565b6000828152602081905260409020610eb09082610ce1565b156106e857610ebd610cf6565b6001600160a01b0316816001600160a01b0316837f2f8788117e7eff1d82e926ec794901d17c78024a50270940304540a733656f0d60405160405180910390a45050565b6000828152602081905260409020610f199082610fe0565b156106e857610f26610cf6565b6001600160a01b0316816001600160a01b0316837ff6391f5c32d9c69d2a47ea670b442974b53935d1edc7fd64eb21e047a839171b60405160405180910390a45050565b60006109d48383610ff5565b60006109d4836001600160a01b03841661104e565b60006109d782611066565b6000610fa2838361104e565b610fd8575081546001818101845560008481526020808220909301849055845484825282860190935260409020919091556109d7565b5060006109d7565b60006109d4836001600160a01b03841661106a565b815460009082106110185760405162461bcd60e51b8152600401610501906116ef565b82600001828154811061103b57634e487b7160e01b600052603260045260246000fd5b9060005260206000200154905092915050565b60009081526001919091016020526040902054151590565b5490565b6000818152600183016020526040812054801561117d57600061108e600183611c13565b85549091506000906110a290600190611c13565b905060008660000182815481106110c957634e487b7160e01b600052603260045260246000fd5b90600052602060002001549050808760000184815481106110fa57634e487b7160e01b600052603260045260246000fd5b600091825260209091200155611111836001611bfb565b6000828152600189016020526040902055865487908061114157634e487b7160e01b600052603160045260246000fd5b600190038181906000526020600020016000905590558660010160008781526020019081526020016000206000905560019450505050506109d7565b60009150506109d7565b80356001600160a01b038116811461067657600080fd5b60008083601f8401126111af578182fd5b50813567ffffffffffffffff8111156111c6578182fd5b60208301915083602080830285010111156111e057600080fd5b9250929050565b60008083601f8401126111f8578182fd5b50813567ffffffffffffffff81111561120f578182fd5b6020830191508360208285010111156111e057600080fd5b600060208284031215611238578081fd5b6109d482611187565b60008060008060008060a08789031215611259578182fd5b61126287611187565b955060208701359450604087013567ffffffffffffffff811115611284578283fd5b61129089828a016111e7565b979a9699509760608101359660809091013595509350505050565b600080600080600080600060c0888a0312156112c5578081fd5b6112ce88611187565b965060208801359550604088013567ffffffffffffffff8111156112f0578182fd5b6112fc8a828b016111e7565b989b979a50986060810135976080820135975060a09091013595509350505050565b60008060008060008060008060a0898b031215611339578081fd5b883567ffffffffffffffff80821115611350578283fd5b61135c8c838d0161119e565b909a50985060208b0135915080821115611374578283fd5b6113808c838d0161119e565b909850965060408b0135915080821115611398578283fd5b506113a58b828c0161119e565b999c989b509699959896976060870135966080013595509350505050565b600080600080600080600080600060c08a8c0312156113e0578081fd5b893567ffffffffffffffff808211156113f7578283fd5b6114038d838e0161119e565b909b50995060208c013591508082111561141b578283fd5b6114278d838e0161119e565b909950975060408c013591508082111561143f578283fd5b5061144c8c828d0161119e565b9a9d999c50979a969997986060880135976080810135975060a0013595509350505050565b600060208284031215611482578081fd5b5035919050565b6000806040838503121561149b578182fd5b823591506114ab60208401611187565b90509250929050565b600080604083850312156114c6578182fd5b50508035926020909101359150565b60008284526020808501945084818502860184845b878110156115515783830389528135601e1988360301811261150a578687fd5b8701803567ffffffffffffffff811115611522578788fd5b803603891315611530578788fd5b61153d858289850161155e565b9a87019a94505050908401906001016114ea565b5090979650505050505050565b60008284528282602086013780602084860101526020601f19601f85011685010190509392505050565b6000828483379101908152919050565b6001600160a01b0391909116815260200190565b60006001600160a01b0386168252846020830152606060408301526115d560608301848661155e565b9695505050505050565b60006001600160a01b038816825286602083015260a0604083015261160860a08301868861155e565b60608301949094525060800152949350505050565b60a0808252810188905260008960c08301825b8b81101561165e576001600160a01b0361164984611187565b16825260209283019290910190600101611630565b5083810360208501528881527f07ffffffffffffffffffffffffffffffffffffffffffffffffffffffffffffff891115611696578283fd5b602089029150818a602083013701602081810183815284830390910160408501526116c281888a6114d5565b6060850196909652505050608001529695505050505050565b901515815260200190565b90815260200190565b60208082526022908201527f456e756d657261626c655365743a20696e646578206f7574206f6620626f756e60408201527f6473000000000000000000000000000000000000000000000000000000000000606082015260800190565b60208082526026908201527f54696d656c6f636b436f6e74726f6c6c65723a206d697373696e67206465706560408201527f6e64656e63790000000000000000000000000000000000000000000000000000606082015260800190565b6020808252602f908201527f416363657373436f6e74726f6c3a2073656e646572206d75737420626520616e60408201527f2061646d696e20746f206772616e740000000000000000000000000000000000606082015260800190565b60208082526023908201527f54696d656c6f636b436f6e74726f6c6c65723a206c656e677468206d69736d6160408201527f7463680000000000000000000000000000000000000000000000000000000000606082015260800190565b6020808252602e908201527f54696d656c6f636b436f6e74726f6c6c65723a2073656e64657220726571756960408201527f726573207065726d697373696f6e000000000000000000000000000000000000606082015260800190565b60208082526030908201527f416363657373436f6e74726f6c3a2073656e646572206d75737420626520616e60408201527f2061646d696e20746f207265766f6b6500000000000000000000000000000000606082015260800190565b60208082526026908201527f54696d656c6f636b436f6e74726f6c6c65723a20696e73756666696369656e7460408201527f2064656c61790000000000000000000000000000000000000000000000000000606082015260800190565b6020808252602f908201527f54696d656c6f636b436f6e74726f6c6c65723a206f7065726174696f6e20616c60408201527f7265616479207363686564756c65640000000000000000000000000000000000606082015260800190565b6020808252602a908201527f54696d656c6f636b436f6e74726f6c6c65723a206f7065726174696f6e20697360408201527f206e6f7420726561647900000000000000000000000000000000000000000000606082015260800190565b60208082526031908201527f54696d656c6f636b436f6e74726f6c6c65723a206f7065726174696f6e20636160408201527f6e6e6f742062652063616e63656c6c6564000000000000000000000000000000606082015260800190565b6020808252602b908201527f54696d656c6f636b436f6e74726f6c6c65723a2063616c6c6572206d7573742060408201527f62652074696d656c6f636b000000000000000000000000000000000000000000606082015260800190565b6020808252602f908201527f416363657373436f6e74726f6c3a2063616e206f6e6c792072656e6f756e636560408201527f20726f6c657320666f722073656c660000000000000000000000000000000000606082015260800190565b60208082526033908201527f54696d656c6f636b436f6e74726f6c6c65723a20756e6465726c79696e67207460408201527f72616e73616374696f6e20726576657274656400000000000000000000000000606082015260800190565b918252602082015260400190565b6000808335601e19843603018112611bcc578283fd5b83018035915067ffffffffffffffff821115611be6578283fd5b6020019150368190038213156111e057600080fd5b60008219821115611c0e57611c0e611c45565b500190565b600082821015611c2557611c25611c45565b500390565b6000600019821415611c3e57611c3e611c45565b5060010190565b634e487b7160e01b600052601160045260246000fdfea264697066735822122036d82b9a4b570554a63f9c51d8f9137d9227e354c2707a1015ccc2f07e121e0f64736f6c634300080000335f58e3a2316349923ce3780f8d587db2d72378aed66a8261c916544fa6846ca5b09aa5aeb3702cfd50b6b62bc4532604938f21248a27a1d5ca736082b6819cc1d8aa0f3194971a2a116679f7c2090f6939c8d4e01a2a8d7e41d55e5351469e63",
  "linkReferences": {},
  "deployedLinkReferences": {}
}